:0400000054EF00F0C9
:10000800FACF16F0FBCF17F0E9CF18F0D9EF16F0BA
:10001800D8CF01F0E8CF02F0E0CF03F0FACF04F038
:10002800FBCF05F0E9CF06F0EACF07F0E1CF08F003
:10003800E2CF09F0D9CF0AF0DACF0BF0F3CF0CF00A
:10004800F4CF0DF0F6CF0EF0F7CF0FF0F8CF10F099
:10005800F5CF11F0020E0001D66F11C0F5FF10C0E8
:10006800F8FF0FC0F7FF0EC0F6FF0DC0F4FF0CC07D
:10007800F3FF0BC0DAFF0AC0D9FF09C0E2FF08C0CE
:10008800E1FF07C0EAFF06C0E9FF05C0FBFF04C0A7
:10009800FAFF03C0E0FF02C0E8FF01C0D8FF10006C
:1000A80031EF18F0A10E0301046F000E0301056F74
:1000B8002BEF07F0250E03011919D8B406D0030158
:1000C80019519DEC1BF02BEF07F0000E03010D6F8B
:1000D800000E0C6F000E0301166F000E156F07D08F
:1000E8000301158500019F4BA02B01D00BD09FC0A9
:1000F800F6FFA0C0F7FF0800F550300AD8B4F0D7D3
:1001080001D0F5D79FC0F6FFA0C0F7FF0800F55053
:100118003AEC1BF0D8A043D0000E03010D6F000E7F
:100128000C6F00D00CC36EF00DC36FF0000E000111
:10013800716F0A0E706FA2EC1AF06EC00CF36FC0EC
:100148000DF3D00E0001A76FFF0E0001A86F9FC02E
:10015800F6FFA0C0F7FF0800F5500001A96FAA6BD1
:100168000001A7510001A9270001A8510001AA23F5
:100178000001A95103010C270001AA5103010D2315
:1001880000019F4BA02B9FC0F6FFA0C0F7FF0800FF
:10019800F5503AEC1BF0D8A002D0C4D700D09FC0CD
:1001A800F6FFA0C0F7FF0800F5502E0AD8A43BD0F0
:1001B8000301168D00019F4BA02B000E0301186F41
:1001C800000E176F24D017C36EF018C36FF0000E1F
:1001D8000001716F0A0E706FA2EC1AF09FC0F6FF53
:1001E800A0C0F7FF0800F55000016E27000E0001BF
:1001F8006F23D00E00016E250301176FFF0E00015B
:100208006F210301186F00019F4BA02B00D09FC0E6
:10021800F6FFA0C0F7FF0800F5503AEC1BF0D8A095
:1002280015D0D1D713D0000E0301186F000E176F29
:10023800030116890BD012000301168527D000D0C0
:100248000301158F23D02BEF07F020D09FC0F6FFB6
:10025800A0C0F7FF00019F4BA02B0800F5CF19F3B2
:1002680003011951000AD8B41200580AD8B4E8D7C3
:100278003C0AD8B40BD0020AD8B4DED70F0AD8B4D7
:1002880005D0110AD8B4DCD72BEF07F0070E03010D
:100298001615D8B4B2D3030116A906D0000E03016F
:1002A800186F060E176F00D004C3D9FF05C3DAFF15
:1002B800DECF12F3DECF13F3DDCF14F3030E030109
:1002C8000427000E0523030114AF12D012C360F0F7
:1002D80013C361F014C362F0F3EC1AF060C012F3B8
:1002E80061C013F362C014F3030E0301151300D0A9
:1002F800000E03010B6F000E0A6F03011251030178
:10030800131103011411D8B49DD0820E0001A76FF8
:10031800FF0E0001A86F12C3A9F013C3AAF014C3FB
:10032800ABF015C3ACF0100E06D00001D890AC337A
:10033800AB33AA33A933E82EF8D70001A95100013D
:10034800A72503010A6F000E0001A82103010B6F06
:1003580003010A07D8A00B070AC36EF00BC36FF09E
:10036800000E0001716F030E706FA2EC1AF06EC0E0
:100378000AF36FC00BF30AC366F00BC367F0000EF5
:100388000001696F0A0E686FA7EC15F066C00AF3E2
:1003980067C00BF303010BAF05D003010A07D8A010
:1003A8000B0700D003010A5100083DEC07F083C099
:1003B80006F384C007F385C008F306C374F007C3C7
:1003C80075F008C376F012C377F013C378F014C33E
:1003D80079F09AEC11F074C006F375C007F376C093
:1003E80008F306C374F007C375F008C376F0000E6F
:1003F8000001776F800E0001786F3F0E0001796F62
:100408000FEC16F00001D8B005D003010A07D8A0F8
:100418000B0718D006C374F007C375F008C376F04D
:10042800000E0001776F200E0001786F410E000169
:10043800796F0FEC16F00001D8A004D003010A4B25
:100448000B2B00D0030118BF08D0030118511EE17F
:100458000D0E0301175DD8B019D012C38DF013C368
:100468008EF014C38FF003011751FEEC0AF083C01D
:1004780090F084C091F085C092F058EC0CF08DC0DB
:1004880012F38EC013F38FC014F300D003010BBF17
:1004980008D003010B512CE10A0E03010A5DD8B004
:1004A80027D0030112510301131103011411D8B409
:1004B8007FD012C38AF013C38BF014C38CF0F9EC0D
:1004C80012F000018A5100018B1100018C1100010A
:1004D8008D11D8A46DD003010BBF6AD003010B5155
:1004E80007E1020E03010A5DD8B002D061D000D046
:1004F80006C374F007C375F008C376F0700E0001E8
:10050800776F890E0001786F400E0001796F0FEC4C
:1005180016F00001D8B003D00301F70E02D0030192
:10052800F80E0A27FF0E0B2300D003010A513DECF9
:1005380007F083C006F384C007F385C008F317D01B
:1005480012C360F013C361F014C362F006C363F012
:1005580007C364F008C365F049EC0FF060C00EF300
:1005680061C00FF362C010F363C011F317D012C358
:1005780060F013C361F014C362F006C363F007C3ED
:1005880064F008C365F076EC0EF060C00EF361C04D
:100598000FF362C010F363C011F300D0000E030123
:1005A800126F000E0301136F000E0301146F34D095
:1005B80012C38AF013C38BF014C38CF0F9EC12F059
:1005C8008AC00EF38BC00FF38CC010F38DC011F3EB
:1005D80012C399F013C39AF014C39BF00EC368F0CA
:1005E8000FC369F010C36AF011C36BF0B8EC18F0D0
:1005F80068C09CF069C09DF06AC09EF0A9EC19F033
:1006080099C012F39AC013F39BC014F3000E0301B0
:100618000B6F000E0A6F00D0010E0301196F0A0E4E
:1006280003011919D8B422D001D020D003011951DF
:10063800040D550EF324F66EFE0EF420F76E090035
:10064800F55003010E5D0900F55003010F5909002B
:10065800F550030110590900F55003011159D8A0AC
:1006680005D001D003D00301192BD9D719C3A7F09E
:100678000001A86BA7BFA807030117510001A7270E
:10068800030118510001A82303010A510001A727FB
:1006980003010B510001A8230001A75103010C5FBE
:1006A8000001A85103010D5B030117510301181143
:1006B800D8B405D003010C07D8A00D0700D0030E4D
:1006C800030115150001A76F000E0301161500019F
:1006D800A86F0001A7510001A811D8B405D00301E3
:1006E8000C07D8A00D0700D0030115A531D0030EC3
:1006F800030115150001A76F000E0301161500016F
:10070800A86F0001A7510001A811D8B40CD02D0E74
:100718009DEC1BF008D0300E9DEC1BF003010C077C
:10072800D8A00D0700D003010DBF78D003010D51EB
:10073800F2E103010C05D8A071D0EDD76FD008D035
:10074800200E9DEC1BF003010C07D8A00D0700D06C
:1007580003010DBF07D003010D51F2E103010C05A0
:10076800D8B0EED7030E030115150001A76F000ED0
:10077800030116150001A86F0001A7510001A81177
:10078800D8B44CD02D0E9DEC1BF048D00EC360F0B1
:100798000FC361F010C362F011C363F00301195174
:1007A800040D550EF324F66EFE0EF420F76E0900C4
:1007B800F5CF64F00900F5CF65F00900F5CF66F0D4
:1007C8000A00F5CF67F076EC16F060C006F361C05A
:1007D80007F362C008F363C009F306C36DF007C3EB
:1007E8006EF008C36FF009C370F00A0E0001716F54
:1007F800000E726F000E736F000E746F93EC17F09B
:100808006DC006F36EC007F36FC008F370C009F33C
:1008180003010651300F9DEC1BF000D003011907AE
:1008280003011929D8B40AD0B1D708D0300E9DECED
:100838001BF003010A07D8A00B0700D003010BBF68
:1008480007D003010B51F2E103010A05D8B0EED736
:10085800030118BF0CD00301185105E1090E03016B
:10086800175DD8A004D0080E0301196F03D017C371
:1008780019F300D0030119510301175F000E03019A
:1008880019BFFF0E0301185B030119510301D8B406
:1008980004D02E0E9DEC1BF000D0030119513DEC45
:1008A80007F083C000F384C001F385C002F312C3CC
:1008B80077F013C378F014C379F000C374F001C360
:1008C80075F002C376F09AEC11F074C08AF075C026
:1008D8008BF076C08CF0F9EC12F08AC00EF38BC066
:1008E8000FF38CC010F38DC011F36FD00EC360F0FE
:1008F8000FC361F010C362F011C363F00301195113
:10090800040D550EF324F66EFE0EF420F76E090062
:10091800F5CF64F00900F5CF65F00900F5CF66F072
:100928000A00F5CF67F076EC16F060C006F361C0F8
:1009380007F362C008F363C009F306C36DF007C389
:100948006EF008C36FF009C370F00A0E0001716FF2
:10095800000E726F000E736F000E746F93EC17F039
:100968006DC006F36EC007F36FC008F370C009F3DB
:1009780003010651300F9DEC1BF00EC36DF00FC341
:100988006EF010C36FF011C370F003011951040D1C
:10099800550EF324F66EFE0EF420F76E0900F5CF1F
:1009A80071F00900F5CF72F00900F5CF73F00A0075
:1009B800F5CF74F093EC17F06DC00EF36EC00FF323
:1009C8006FC010F370C011F300D0030119070301C1
:1009D8001929D8B40AD08AD708D0300E9DEC1BF05C
:1009E80003011707D8A0180700D003011751030106
:1009F8001811D8B42CD2F1D72AD2030115BF23D0AD
:100A080004C3D9FF05C3DAFFDECF0EF3DDCF0FF342
:100A18000301000E0FBFFF0E106F116F020E0301CE
:100A28000427000E0523030111AF22D0030E030192
:100A380015130301111F101F0F1F0E6D000E0F233A
:100A48001023112315D004C3D9FF05C3DAFFDECF65
:100A5800A7F0DDCFA8F0A7C00EF3A8C00FF30301DD
:100A6800106B116B020E03010427000E052300D042
:100A78000301175103011811D8A464D003010E51C2
:100A880003010F110301101103011111D8A45AD049
:100A98000301174B182B56D0010E0301196F0A0ECC
:100AA80003011919D8B458D001D056D003011951EF
:100AB800040D550EF324F66EFE0EF420F76E0900B1
:100AC800F55003010E5D0900F55003010F590900A7
:100AD800F550030110590900F55003011159D8A028
:100AE8003BD001D039D00301192BD9D735D0010E0D
:100AF8000301196F080E03011919D8B42DD001D0BC
:100B08002BD003011951040DCB0EF324F66EFE0E03
:100B1800F420F76E0900F55003010E5D0900F55049
:100B280003010F590900F550030110590900F55048
:100B380003011159D8A010D001D00ED00301192BF0
:100B4800D9D70AD003011551800B000AD8B4A4D70D
:100B5800800AD8B4CCD700D0800E030119BF7F0E0D
:100B68000001A76F030117510301195D0301185113
:100B7800800A0001A759D8B003D017C319F319D0B8
:100B880003011851800A0001A76F030119510301DD
:100B9800175D800E030119BF7F0E0001A759D8B059
:100BA80008D0030119510301176F186B17BF1807F5
:100BB80000D003010C5103010D11D8B415D0030E58
:100BC800030115150001A76F000E0301161500019A
:100BD800A86F0001A7510001A811D8B405D00301DE
:100BE8000C07D8A00D0700D0030116AD1FD00301D4
:100BF8000C510301175D03011851800A0001A76F0A
:100C080003010D51800A0001A759D8B009D003018A
:100C1800175103010C5F0301185103010D5B06D046
:100C2800000E03010D6F000E0C6F00D0800E030143
:100C380019BF7F0E0001A76F03010C510301195D55
:100C480003010D51800A0001A759D8B00BD0030148
:100C5800195103010C5F000E030119BFFF0E0301B8
:100C68000D5B06D0000E03010D6F000E0C6F00D057
:100C7800030115A529D0030E030115150001A76F5F
:100C8800000E030116150001A86F0001A75100010D
:100C9800A811D8B404D02D0E9DEC1BF000D0030190
:100CA8000C5103010D11D8B4C5D0300E9DEC1BF0CA
:100CB80003010C07D8A00D0703010C5103010D1106
:100CC800D8B4B8D0F2D7B6D003010C5103010D1136
:100CD800D8B40FD0200E9DEC1BF003010C07D8A050
:100CE8000D0703010C5103010D11D8B402D0F2D73E
:100CF80000D0030E030115150001A76F000E0301B4
:100D080016150001A86F0001A7510001A811D8B459
:100D180091D02D0E9DEC1BF08DD07DD017C3A7F080
:100D280018C3A8F00001D890A737A8370001D890B9
:100D3800A737A837550E0001A725F66EFE0EA82185
:100D4800F76E0900F5CF64F00900F5CF65F00900EA
:100D5800F5CF66F00A00F5CF67F00EC360F00FC359
:100D680061F010C362F011C363F076EC16F060C056
:100D78006DF061C06EF062C06FF063C070F00A0E73
:100D88000001716F000E726F000E736F000E746FAA
:100D980093EC17F000016D51300F0301196F45D026
:100DA8000EC360F00FC361F010C362F011C363F0AB
:100DB80017C3A7F018C3A8F00001D890A737A83721
:100DC8000001D890A737A837CB0E0001A725F66EEB
:100DD800FE0EA821F76E0900F5CF64F00900F5CFE3
:100DE80065F00900F5CF66F00A00F5CF67F076ECFC
:100DF80016F0000160510F0B0301036F030103514B
:100E0800010DC50EF324F66EFF0EF420F76E0800F0
:100E1800F5CF19F30AD003011551800B000AD8B495
:100E28007DD7800AD8B4BCD700D0030119519DECF6
:100E38001BF000D003011707D8A0180703011729D2
:100E4800EAE103011829D8B402D0E5D700D09FC041
:100E5800F6FFA0C0F7FF00019F4BA02B0800F5CFBD
:100E680019F303011951D8B412005EEF00F0120013
:100E780012000001896F000189AF2DD10001896D31
:100E880000018951800A120FD8A0ADD0000E0001D0
:100E9800716F030E706F000E0001696F0A0E686FA4
:100EA800000E0001636F640E626F0001895100013A
:100EB800606F616B60BF610739EC17F060C066F066
:100EC80061C067F0A7EC15F0090E00016625000166
:100ED8006E6F000E0001672100016F6FA2EC1AF01F
:100EE8007D0E00016E25F66EFE0E00016F21F76E75
:100EF8000900F5CF77F00900F5CF78F00A00F5CFB3
:100F080079F0000E0001696F640E686F0001895165
:100F18000001666F676B66BF6707A7EC15F0120ED6
:100F28000001662500016E6F000E000167210001B7
:100F38006F6F000E0001716F030E706FA2EC1AF054
:100F48007D0E00016E25F66EFE0E00016F21F76E14
:100F58000900F5CF74F00900F5CF75F00A00F5CF58
:100F680076F09AEC11F074C086F075C087F076C000
:100F780088F086C074F087C075F088C076F0000EDF
:100F88000001716F030E706F000E0001636F0A0E8F
:100F9800626F000189510001606F616B60BF61077A
:100FA80039EC17F060C06EF061C06FF0A2EC1AF077
:100FB8007D0E00016E25F66EFE0E00016F21F76EA4
:100FC8000900F5CF77F00900F5CF78F00A00F5CFE2
:100FD80079F09AEC11F074C083F075C084F076C093
:100FE80085F0120065D000018951800A750FD8A0DC
:100FF8005FD0000E0001696F0A0E686F0001895109
:101008000001666F676B66BF6707A7EC15F0090EEE
:101018000001662500016E6F000E000167210001C6
:101028006F6F000E0001716F030E706FA2EC1AF063
:101038007D0E00016E25F66EFE0E00016F21F76E23
:101048000900F5CF74F00900F5CF75F00A00F5CF67
:1010580076F0000E0001716F030E706F000E000134
:10106800636F0A0E626F000189510001606F616B46
:1010780060BF610739EC17F060C06EF061C06FF0B7
:10108800A2EC1AF07D0E00016E25F66EFE0E000130
:101098006F21F76E0900F5CF77F00900F5CF78F0EA
:1010A8000A00F5CF79F09AEC11F095D7120000D02C
:1010B80000018951030D7D0EF324F66EFE0EF42017
:1010C800F76E0900F5CF83F00900F5CF84F00A0028
:1010D800F5CF85F0120000018951800A120FD8A0BF
:1010E800ADD0000E0001716F030E706F000E00018D
:1010F800696F0A0E686F000E0001636F640E626FFD
:10110800000189510001606F616B60BF610739ECB4
:1011180017F060C066F061C067F0A7EC15F0090E23
:101128000001662500016E6F000E000167210001B5
:101138006F6FA2EC1AF0A40E00016E25F66EFE0E7B
:1011480000016F21F76E0900F5CF77F00900F5CFA0
:1011580078F00A00F5CF79F0000E0001696F640E8F
:10116800686F000189510001666F676B66BF67078A
:10117800A7EC15F0120E0001662500016E6F000E37
:101188000001672100016F6F000E0001716F030EEF
:10119800706FA2EC1AF0A40E00016E25F66EFE0E1A
:1011A80000016F21F76E0900F5CF74F00900F5CF43
:1011B80075F00A00F5CF76F09AEC11F074C086F05D
:1011C80075C087F076C088F086C074F087C075F067
:1011D80088C076F0000E0001716F030E706F000E6C
:1011E8000001636F0A0E626F000189510001606F90
:1011F800616B60BF610739EC17F060C06EF061C0C9
:101208006FF0A2EC1AF0A40E00016E25F66EFE0E29
:1012180000016F21F76E0900F5CF77F00900F5CFCF
:1012280078F00A00F5CF79F09AEC11F074C083F0E9
:1012380075C084F076C085F0120065D00001895130
:10124800800A750FD8A05FD0000E0001696F0A0EE2
:10125800686F000189510001666F676B66BF670799
:10126800A7EC15F0090E0001662500016E6F000E4F
:101278000001672100016F6F000E0001716F030EFE
:10128800706FA2EC1AF0A40E00016E25F66EFE0E29
:1012980000016F21F76E0900F5CF74F00900F5CF52
:1012A80075F00A00F5CF76F0000E0001716F030E9D
:1012B800706F000E0001636F0A0E626F00018951A2
:1012C8000001606F616B60BF610739EC17F060C0A7
:1012D8006EF061C06FF0A2EC1AF0A40E00016E254A
:1012E800F66EFE0E00016F21F76E0900F5CF77F05C
:1012F8000900F5CF78F00A00F5CF79F09AEC11F0F3
:1013080095D7120000D000018951030DA40EF324D3
:10131800F66EFE0EF420F76E0900F5CF83F0090093
:10132800F5CF84F00A00F5CF85F01200120076ECB4
:1013380018F065EC1BF0000E0001D16F000E0001E3
:10134800D26F000E0001D36F000E0001B36F000EC4
:10135800B26F0001B3BF0AD00001B35106E1040E19
:101368000001B25DD8B0E2D001D0E0D0CD0E0001CE
:10137800B225D96E000E0001B321DA6EDF50D8B461
:10138800CAD0B2C06EF0B3C06FF0000E0001716F2A
:10139800030E706FA2EC1AF0B50E00016E25D96E1F
:1013A800000E00016F21DA6EDECFAFF0DECFB0F0B5
:1013B800DDCFB1F0E60E00019F6FFF0E0001A06FB8
:1013C800AFC0A1F0B0C0A2F0B1C0A3F056EC00F0DD
:1013D800D1C08DF0D2C08EF0D3C08FF0B2C06EF005
:1013E800B3C06FF0000E0001716F030E706FA2ECB6
:1013F8001AF0B50E00016E25D96E000E00016F219E
:10140800DA6EDECF90F0DECF91F0DDCF92F058ECBF
:101418000CF08DC0D1F08EC0D2F08FC0D3F0F7C0E1
:1014280074F0F8C075F0F9C076F0B2C06EF0B3C0D1
:101438006FF0000E0001716F030E706FA2EC1AF0CE
:10144800B50E00016E25D96E000E00016F21DA6E0F
:10145800DECF77F0DECF78F0DDCF79F00FEC16F045
:101468000001D8B01AD0B2C06EF0B3C06FF0000E51
:101478000001716F030E706FA2EC1AF0B50E000137
:101488006E25D96E000E00016F21DA6EDECFF7F0FF
:10149800DECFF8F0DDCFF9F03ED0B2C06EF0B3C0C9
:1014A8006FF0000E0001716F030E706FA2EC1AF05E
:1014B800B50E00016E25D96E000E00016F21DA6E9F
:1014C800DECF74F0DECF75F0DDCF76F0FAC077F0BE
:1014D800FBC078F0FCC079F00FEC16F00001D8B032
:1014E8001AD0B2C06EF0B3C06FF0000E0001716F79
:1014F800030E706FA2EC1AF0B50E00016E25D96EBE
:10150800000E00016F21DA6EDECFFAF0DECFFBF0BD
:10151800DDCFFCF000D00001B24BB32B0001B3BF0C
:1015280025D70001B35102E11AD700D0D1C06CF021
:10153800D2C06DF0D3C06EF0D4C068F0D5C069F0E9
:101548001DEC1AF068C06FF069C070F06AC071F0E5
:1015580050EC12F06CC0D1F06DC0D2F06EC0D3F078
:10156800880E00019F6FFF0E0001A06FD1C0A1F08F
:10157800D2C0A2F0D3C0A3F0000E0001A46F9C0E4D
:101588000001A56F420E0001A66F56EC00F0D60EC2
:1015980000019F6FFF0E0001A06F56EC00F072EC87
:1015A80019F00009D8B409D0F70E00019F6FFF0E9B
:1015B8000001A06F56EC00F008D0ED0E00019F6FFF
:1015C800FF0E0001A06F56EC00F09E0E00019F6F09
:1015D800FF0E0001A06FF7C0A1F0F8C0A2F0F9C09B
:1015E800A3F0FAC0A4F0FBC0A5F0FCC0A6F056EC2E
:1015F80000F0120000018C6F6D0E00018C65BBD0ED
:10160800000E0001716F030E706F000E0001696F0C
:101618000A0E686F000E0001636F640E626F8CC063
:1016280060F00001616B39EC17F060C066F061C0D2
:1016380067F0A7EC15F0090E0001662500016E6F32
:10164800000E0001672100016F6FA2EC1AF07D0EF9
:1016580000016E25F66EFE0E00016F21F76E09007F
:10166800F5CF77F00900F5CF78F00A00F5CF79F0DB
:10167800000E0001696F640E686F8CC066F000018F
:10168800676BA7EC15F0120E0001662500016E6F5E
:10169800000E0001672100016F6F000E0001716FDD
:1016A800030E706FA2EC1AF07D0E00016E25F66E27
:1016B800FE0E00016F21F76E0900F5CF74F00900E6
:1016C800F5CF75F00A00F5CF76F09AEC11F074C0FA
:1016D80089F075C08AF076C08BF0000E0001716F3A
:1016E800030E706F000E0001636F0A0E626F8CC0EC
:1016F80060F00001616B39EC17F060C06EF061C0FA
:101708006FF0A2EC1AF07D0E00016E25F66EFE0E4B
:1017180000016F21F76E0900F5CF77F00900F5CFCA
:1017280078F00A00F5CF79F089C074F08AC075F0B6
:101738008BC076F09AEC11F074C086F075C087F013
:1017480076C088F086C074F087C075F088C076F0DF
:10175800000E0001776F000E0001786F3F0E000148
:10176800796F9AEC11F074C083F075C084F076C07C
:1017780085F0120074D00A0E00018C6570D0000E3E
:101788000001716F030E706F000E0001636F0A0E87
:10179800626F8CC060F00001616B39EC17F060C0BB
:1017A8006EF061C06FF0A2EC1AF07D0E00016E259C
:1017B800F66EFE0E00016F21F76E0900F5CF77F087
:1017C8000900F5CF78F00A00F5CF79F0000E000196
:1017D800696F0A0E686F8CC066F00001676BA7EC32
:1017E80015F0090E0001662500016E6F000E00015C
:1017F800672100016F6F000E0001716F030E706F9B
:10180800A2EC1AF07D0E00016E25F66EFE0E0001A8
:101818006F21F76E0900F5CF74F00900F5CF75F068
:101828000A00F5CF76F09AEC11F074C089F075C013
:101838008AF076C08BF089C074F08AC075F08BC0CE
:1018480076F0000E0001776F000E0001786F3F0EF2
:101858000001796F9AEC11F086D7120000D00001D0
:101868008C51030D7D0EF324F66EFE0EF420F76EF8
:101878000900F5CF74F00900F5CF75F00A00F5CF2F
:1018880076F0000E0001776F000E0001786F3F0EB2
:101898000001796F9AEC11F074C083F075C084F080
:1018A80076C085F0120012008FC093F00001946B8F
:1018B800956B00018E350001933701E39481000197
:1018C80093510001986F92C093F00001946B956B4F
:1018D800000191350001933701E394810001935190
:1018E8000001976F000198510001D8B411D0000190
:1018F80097510001985DD8B012D0000198510008A6
:10190800000197250001936F180E0001936507D019
:1019180090C08DF091C08EF092C08FF0120000013F
:1019280097510001D8B411D0000198510001975D7A
:10193800D8B012D000019751000800019825000185
:10194800936F180E0001936507D08DC08DF08EC07F
:101958008EF08FC08FF01200060E0001966F000106
:101968008FAF03D00001968F00D0000192AF02D054
:101978000001968D00018E8FFF0E00018D17FF0E5E
:1019880000018E17000E00018F170001918FFF0EC6
:1019980000019017FF0E00019117000E0001921729
:1019A800000197510001985DD8B028D00001D89067
:1019B800903791379237000197070001985100013D
:1019C8009719D8B413D00001960796C093F0070E64
:1019D80000019317D8B40AD0E9D708D00001D890ED
:1019E8008F338E338D330001982B00D0000197512F
:1019F80000019819D8B430D0F1D72ED000019851F1
:101A08000001975DD8B028D00001D8908D378E3767
:101A18008F37000198070001985100019719D8B431
:101A280013D00001960796C093F0070E0001931794
:101A3800D8B40AD0E9D708D00001D89092339133AE
:101A480090330001972B00D000019751000198199D
:101A5800D8B402D0F1D700D0000196AF12D0FF0E53
:101A680000018D1BFF0E00018E1BFF0E00018F1B56
:101A7800010E00018D27000E00018E23000E0001CB
:101A88008F23000196AD13D0FF0E0001901BFF0EAF
:101A98000001911BFF0E0001921B010E000190270F
:101AA800000E00019123000E0001922300D0000EC9
:101AB8000001966F00018D510001902700018E51A1
:101AC8000001912300018F5100019223000192AF80
:101AD80016D0FF0E0001901BFF0E0001911BFF0E98
:101AE8000001921B010E00019027000E00019123B6
:101AF800000E00019223010E0001966F00D090C0E5
:101B080060F091C061F092C062F098C063F096C036
:101B180064F0A2EC13F060C08DF061C08EF062C07A
:101B28008FF012001200010E00016A6F000E000112
:101B3800686F000E00016C6F010E00016B6F000EE4
:101B48000001666F000E336E2E50D8A4B6D064EC38
:101B58001AF00009D8B408D0000E2F6E000E2E6EB1
:101B6800000E306E000E1200F00EBEEC1AF000D01F
:101B78000BEC1BF00001676F0BEC1BF00001656FAD
:101B880000016705D8A407D000016505D8B483D043
:101B980002D081D07BD00001655100016719D8B40B
:101BA80003D067C069F02FD02F5000016A5DD8B00C
:101BB80013D000016C51010D240EF324D96E000ED0
:101BC800F420DA6EDF5000016B150009D8B40BD091
:101BD800010E0001696F09D02F5000016A19D8A4BD
:101BE80002D0010EF6D7000EF4D7000169510001AA
:101BF800D8A409D06AC068F0090E0001686103D052
:101C080068C030F000D000016905D8A40DD00001EB
:101C18006C51010D240EF324D96E000EF420DA6EF7
:101C280000016B51DF1212D000016B51FF0A000155
:101C3800646F00016C51010D240EF324D96E000E5F
:101C4800F420DA6E00016451DF1600D000016951FA
:101C5800D1EC19F000016A2B0001D8906B37000114
:101C68006B510001D8A412D000016C51010D240E53
:101C7800F324D96E000EF420DA6EDF5051EC1BF01D
:101C880000016C2B010E00016B6F00D0070E0001E4
:101C98006C656ED700D0400E00016A650ED03350D7
:101CA800D8A40BD068C02FF02F50D8A402D0010EB2
:101CB8002E6E010E0001666F00D000016651000112
:101CC800D8B403D02450D8A409D0000E2F6E000E2B
:101CD8002E6E000E306E000E0001666F0001665118
:101CE8001200120062C066F00001676B686B0001A9
:101CF80061350001663701E3678100016651000123
:101D08006E6F00016E51D8A40AD0000E0001606FFA
:101D1800000E616F000E626F000E636F120065C0E7
:101D280066F00001676B686B000164350001663777
:101D380001E367810001665100016D6F00016D517B
:101D4800D8A40AD0000E0001606F000E616F000E6B
:101D5800626F000E636F12000001618FFF0E0001B9
:101D68006017FF0E00016117000E000162170001E5
:101D7800648FFF0E00016317FF0E00016417000E49
:101D880000016517000E0001696F000E6A6F000EF2
:101D98006B6F000E6C6F7F0E00016E5F00016D515E
:101DA800980F00016E5F180E00016D6F0001D8904A
:101DB80069376A376B376C37000163510001605D22
:101DC8000001645100016159000165510001625927
:101DD800D8A00ED0000163510001605F000164517A
:101DE8000001615B000165510001625B00016981CE
:101DF8000001D89060376137623700016D2FD6D760
:101E080000D000016EAF1BD000016E51800A970F01
:101E1800D8B00BD0000E0001606F000E616F000E8D
:101E2800626F000E636F120000D00001D8906C330F
:101E38006B336A33693300016E3FF7D71DD0170E35
:101E480000016E6514D0000E0001606F000E616F16
:101E5800000E626F000E636F120009D00001D89067
:101E680069376A376B376C3700016E0700D000019D
:101E78006E510001D8A4F2D769C060F06AC061F061
:101E88006BC062F06CC063F012000001623563350C
:101E980000016B6F00016B51D8A40AD0000E00013D
:101EA800606F000E616F000E626F000E636F1200AC
:101EB80000016535663500016A6F00016A51D8A4D2
:101EC8000AD0000E0001606F000E616F000E626F95
:101ED800000E636F12000001628FFF0E0001601791
:101EE800FF0E6117FF0E6217000E63170001658F62
:101EF800FF0E00016317FF0E6417FF0E6517000E33
:101F08006617000E0001666F000E676F000E686F9F
:101F1800000E696F7F0E00016B5F00016A51A00F10
:101F280000016B5F200E00016A6F00D00001D8909D
:101F38006637673768376937000163510001605DAC
:101F480000016451000161590001655100016259A5
:101F58000001665100016359D8A013D000016351F4
:101F68000001605F000164510001615B000165517F
:101F78000001625B000166510001635B000166813C
:101F880000D00001D89060376137623763370001AD
:101F98006A2FCCD700D000016BAF1BD000016B516A
:101FA800800A9F0FD8B00BD0000E0001606F000EA2
:101FB800616F000E626F000E636F120000D00001A7
:101FC800D890693368336733663300016B3FF7D7BE
:101FD8001DD01F0E00016B6514D0000E0001606F4C
:101FE800000E616F000E626F000E636F120009D061
:101FF8000001D890663767376837693700016B0783
:1020080000D000016B510001D8A4F2D766C060F07F
:1020180067C061F068C062F069C063F01200000E2A
:1020280000019F6F000E9E6F64EC1AF0550EBEEC17
:102038001AF0000E0001AC6F070E0001AC6501D06C
:1020480011D00001AC51010DF35000019925D96E52
:10205800F45000019A21DA6EDF50BEEC1AF000014C
:10206800AC2BEAD7BE0EBEEC1AF0000E0001AC6F26
:10207800080E0001AC6501D00FD00001AC51010D74
:10208800A00EF324D96E000EF420DA6E86EC1AF056
:10209800DF6E0001AC2BECD70001A151800A7F0F45
:1020A800D8A03CD0A1C09CF000019D6B9CBF9D07AF
:1020B800070E00019C17000E9D17060ED890000110
:1020C8009C379D37E82EFAD79CC068F09DC069F010
:1020D8001DEC1AF068C08DF069C08EF06AC08FF0F0
:1020E800000E0001776F800E0001786F3D0E000131
:1020F800796F0001A05141EC1AF068C074F069C012
:1021080075F06AC076F09AEC11F074C090F075C062
:1021180091F076C092F058EC0CF03BD0A1C09CF046
:1021280000019D6B9CBF9D07070E00019C17000EC8
:102138009D17060ED89000019C379D37E82EFAD7D8
:102148009CC068F09DC069F01DEC1AF068C08DF065
:1021580069C08EF06AC08FF0000E0001776F800EA4
:102168000001786FBD0E0001796F0001A05141ECAC
:102178001AF068C074F069C075F06AC076F09AEC1D
:1021880011F074C090F075C091F076C092F058ECE0
:102198000CF08DC0A9F08EC0AAF08FC0ABF000D0B3
:1021A800A9C099F0AAC09AF0ABC09BF01200120027
:1021B800000E0001B06F000E0001B16F000E0001AB
:1021C800B26F000E0001B26F0001B251800A7C0F9D
:1021D800D8B010D001D00ED00001B251010DCD0EF3
:1021E800F324D96E000EF420DA6E000EDF6E0001C3
:1021F800B22BEAD7190E00019F6FFF0E0001A06FE6
:1022080056EC00F0E1EC1BF085D00001B151010D56
:10221800CD0EF324D96E000EF420DA6E010EDF6EB7
:10222800FB0E00019F6FFF0E0001A06FB1C0A1F06F
:102238000001A26B56EC00F0070E0001B26F00011E
:10224800B2BF54D001D052D00001B251010D240EBA
:10225800F324D96E000EF420DA6E0001B151080D96
:10226800D70E0001AD6F000E0001AE6FF3500001F4
:10227800AD27F4500001AE230001B251010DF35017
:102288000001AD25E16EF4500001AE21E26EDFCF12
:10229800E7FFF20E00019F6FFF0E0001A06F000123
:1022A800B151080DD70E0001AD6F000E0001AE6FE1
:1022B800F3500001AD27F4500001AE230001B251E4
:1022C800010DF3500001AD25D96EF4500001AE2187
:1022D800DA6EDF500001AF6F0001AF510001A16F4E
:1022E800A26B56EC00F00001B207A9D7160E000148
:1022F8009F6FFF0E0001A06F56EC00F00001B12B9C
:10230800040E0001B119D8B40DD002D00BD005D0FD
:1023180018EC1CF00001B06F00D00001B0510001B2
:10232800D8A473D70001B1511200120076C07AF018
:1023380000017B6B7C6B0001753500017A3701E386
:102348007B8100017A5100017D6F00017D51D8A485
:102358000AD0000E0001746F000E0001756F000EA8
:102368000001766F120079C07AF000017B6B7C6BFC
:102378000001783500017A3701E37B8100017A5149
:102388000001826F00018251D8A40AD0000E00011A
:10239800746F000E0001756F000E0001766F120059
:1023A800000182517B0F00017D2776C082F0000179
:1023B80079510001821B800E000182170001758F80
:1023C8000001788FFF0E00017717FF0E00017817C4
:1023D800000E00017917000E00017E6F000E00014B
:1023E8007F6F000E0001806F070E0001816F00D023
:1023F800000174A10DD00001775100017E27000172
:10240800785100017F23000179510001802300D019
:102418000001D8907633753374330001D89077373C
:10242800783779370001812FE3D700D0090E0001F2
:10243800816F00D0000174A10DD000017751000117
:102448007E270001785100017F23000179510001A6
:10245800802300D00001D89076337533743300019F
:10246800D89080337F337E330001812FE3D700D0AB
:102478007EC060F07FC061F080C062F07DC063F014
:1024880082C064F0A2EC13F060C074F061C075F013
:1024980062C076F0120012006EC072F00001736B19
:1024A800746B00016D350001723701E3738100011F
:1024B80072510001796F00017951D8A40AD0000E39
:1024C80000016C6F000E00016D6F000E00016E6F51
:1024D800120071C072F00001736B746B00017035EB
:1024E8000001723701E373810001725100017A6FB4
:1024F80000017A51D8A40AD0000E00016C6F000EBA
:1025080000016D6F000E00016E6F1200000E0001D9
:10251800766F000E0001776F000E0001786F0001E2
:102528007A51890F0001795F6EC07AF0000171510C
:1025380000017A1B800E00017A1700016D8FFF0ED3
:1025480000016C17FF0E00016D17000E00016E17D9
:102558000001708FFF0E00016F17FF0E000170174A
:10256800000E00017117180E0001756F00D00001F0
:10257800D89076377737783700016F5100016C5D56
:102588000001705100016D590001715100016E592F
:10259800D8A00ED000016F5100016C5F000170518E
:1025A80000016D5B0001715100016E5B00017681D5
:1025B8000001D8906C376D376E370001752FD7D76B
:1025C80000D076C060F077C061F078C062F079C062
:1025D80063F07AC064F0A2EC13F060C06CF061C0E4
:1025E8006DF062C06EF0120012008CC08EF0000117
:1025F8008F6B906B00018B3500018E3701E38F8163
:1026080000018E510001986F00019851D8A40AD09A
:10261800000E00018A6F000E8B6F000E8C6F000E8B
:102628008D6F1200170E00018E6F8AC08FF08BC05D
:1026380090F08CC091F000018E290001926F05D0B6
:102648000001D890913390338F330001922FF8D73F
:1026580000018F510001936F00018B8FFF0E000165
:102668008A17FF0E00018B17000E00018C1700015E
:102678008A510001946F00018B510001956F000190
:102688008C510001966F0001976B8E0E0001985FC8
:10269800000198AF1BD000019851800A8F0FD8B065
:1026A8000BD0000E00018A6F000E8B6F000E8C6F2E
:1026B800000E8D6F120000D00001D890973396332A
:1026C800953394330001983FF7D71FD0170E0001B8
:1026D800986514D0000E00018A6F000E8B6F000EF3
:1026E8008C6F000E8D6F120009D00001D8909437BE
:1026F8009537963797370001980700D00001985111
:102708000001D8B402D0F1D700D0000193510001E4
:10271800D8B40AD00001971F961F951F946D000E1C
:1027280095239623972300D094C08AF095C08BF008
:1027380096C08CF097C08DF0120012000001635112
:102748000001D8B408D000016051000161110001F6
:102758006211D8A413D0000E0001606F000E0001B2
:10276800616F000E0001626F120008D00001632B38
:102778000001D89062336133603300D0000E00014D
:1027880060150001656F000E000161150001666F9C
:10279800FE0E000162150001676F0001655100011E
:1027A800661100016711D8B413D0E0D711D0000129
:1027B800632B010E00016027000E00016123000E4B
:1027C800000162230001D89062336133603300D086
:1027D800000E000160150001656F000E0001611513
:1027E8000001666FFF0E000162150001676F0001AE
:1027F80065510001661100016711D8B40AD0D7D716
:1028080008D0000163070001D8906037613762374C
:1028180000D0000161BF05D0020E00016361F1D74D
:1028280000D0000163B103D00001619F00D0000116
:10283800D8906333000163510001621300016451B1
:102848000001D8B403D00001628F00D060C060F0EE
:1028580061C061F062C062F012001200005EBCE26A
:10286800613FDD83C29C7E20A3FD1F419DC3217F64
:10287800FCA2401E5F01E3BD3E6082DC237D9FC158
:10288800421CFEA0E1BF5D0380DE3C62BEE0025C4C
:10289800DF81633D7C22C09E1D43A1FF4618FAA438
:1028A80027799BC584DA3866E5BB5907DB85673924
:1028B800BAE406581947A5FB7826C49A653BD98718
:1028C800045AB8E6A7F91B45C6987A24F8A6441A0C
:1028D80099C7257B3A6486D85B05E7B98CD2306EF8
:1028E800EDB3510F4E10F2AC2F7193CD114FADF3E4
:1028F800702ECC92D38D6F31B2EC0E50AFF1134DD8
:10290800CE90722C6D33D18F0C52B0EE326C8ED0CB
:10291800530DEFB1F0AE4C1291CF2D73CA947628B7
:10292800ABF517490856B4EA6937D58B5709EBB5A3
:1029380036688AD495CB2977F4AA4816E9B7550B97
:1029480088D6346A2B7597C94A14F6A8742AC8968B
:10295800154BA9F7B6E80A54D7896B35005EBCE277
:10296800613FDD83C29C7E20A3FD1F419DC3217F63
:10297800FCA2401E5F01E3BD3E6082DC237D9FC157
:10298800421CFEA0E1BF5D0380DE3C62BEE0025C4B
:10299800DF81633D7C22C09E1D43A1FF4618FAA437
:1029A80027799BC584DA3866E5BB5907DB85673923
:1029B800BAE406581947A5FB7826C49A653BD98717
:1029C800045AB8E6A7F91B45C6987A24F8A6441A0B
:1029D80099C7257B3A6486D85B05E7B98CD2306EF7
:1029E800EDB3510F4E10F2AC2F7193CD114FADF3E3
:1029F800702ECC92D38D6F31B2EC0E50AFF1134DD7
:102A0800CE90722C6D33D18F0C52B0EE326C8ED0CA
:102A1800530DEFB1F0AE4C1291CF2D73CA947628B6
:102A2800ABF517490856B4EA6937D58B5709EBB5A2
:102A380036688AD495CB2977F4AA4816E9B7550B96
:102A480088D6346A2B7597C94A14F6A8742AC8968A
:102A5800154BA9F7B6E80A54D7896B35000E000163
:102A6800D56F000ED46F000E0001F76F7A0E0001CB
:102A7800F86FC40E0001F96F000E0001FA6F7A0EAC
:102A88000001FB6F440E0001FC6FD6EC1BF0E5EC77
:102A980017F065EC1BF0EB0E00019F6FFE0E0001B6
:102AA800A06F56EC00F0DCEC10F00001B46F0001F0
:102AB800B4510001D46FD56BB20E00019F6FFF0EA9
:102AC8000001A06FD4C0A1F0D5C0A2F056EC00F070
:102AD80000D00001D605D8A409D0470E00019F6F89
:102AE800FF0E0001A06F56EC00F00DD0020E0001A1
:102AF800D619D8A40CD0680E00019F6FFF0E0001F4
:102B0800A06F56EC00F0000E0001D66F00D0140E36
:102B18003718D8A4DED70001D4510001D511D8B494
:102B280003D09BEC09F00AD0DCEC10F00001B46F84
:102B38000001B4510001D46FD56B00D0000E376E80
:102B4800C8D754EF00F0000E00016B6F000169AFA9
:102B580009D00001686D691FD8B0692B010E00010A
:102B68006B6F00D0000167AF09D00001666D671F69
:102B7800D8B0672B010E00016B1B00D0000E0001BE
:102B88006D6F000E6C6F0001685100016911D8B4B7
:102B980031D0010E00016A6F07D00001D890683764
:102BA800693700016A2B00D0000169BF02D0F5D750
:102BB80000D00001D8906C376D37000168510001D2
:102BC800665D0001695100016759D8A00BD000016A
:102BD80068510001665F000169510001675B0001EF
:102BE8006C8100D00001D8906933683300016A2FE6
:102BF800E0D700D000016B510001D8B406D0000125
:102C08006C6D6D1FD8B06D2B00D06CC066F06DC0B8
:102C180067F012001200000176AF1ED074C07AF07F
:102C280075C07BF076C07CF000017A1F7B1F7C1F8B
:102C38007A2B000E7B237C23000E00017A250001ED
:102C4800746F000E00017B210001756F800E00017A
:102C58007C210001766F00D0000179AF1ED077C0CB
:102C68007AF078C07BF079C07CF000017A1F7B1F76
:102C78007C1F7A2B000E7B237C23000E00017A2513
:102C88000001776F000E00017B210001786F800E34
:102C980000017C210001796F00D0000E0001741B37
:102CA800000E0001751B800E0001761B000E00014E
:102CB800771B000E0001781B800E0001791B0001B4
:102CC80077510001745D00017851000175590001C8
:102CD800795100017659D8B002D0D8901200D88026
:102CE80012001200000E0001686F000E696F000EDE
:102CF8006A6F000E6B6F00016451000165110001DD
:102D0800661100016711D8B447D0010E00016C6F3D
:102D180009D00001D89064376537663767370001F6
:102D28006C2B00D0000167BF02D0F3D700D00001A0
:102D3800D890683769376A376B37000164510001EA
:102D4800605D000165510001615900016651000193
:102D580062590001675100016359D8A013D00001DE
:102D680064510001605F000165510001615B000171
:102D780066510001625B000167510001635B00015D
:102D8800688100D00001D8906733663365336433B7
:102D980000016C2FCCD700D068C060F069C061F02A
:102DA8006AC062F06BC063F01200EACF19F0E1CF9D
:102DB8001AF0E2CF1BF0D9CF1CF0DACF1DF0F3CF19
:102DC8001EF0F4CF1FF0F6CF20F0F7CF21F0F8CFA8
:102DD80022F0F5CF23F09EAA06D09E9A010E356EFA
:102DE800AEEC1BF025D0A4AA07D0A49A010E366E2B
:102DF8008BEC1BF0346E1CD0F2A40DD0F2948CB482
:102E080007D0800E136E000E126E07EC1CF000D077
:102E18001FEC1CF00DD0A1A207D0A192140E3718F8
:102E2800D8B406D0372A04D0010E0001D66F00D0DE
:102E380023C0F5FF22C0F8FF21C0F7FF20C0F6FF2E
:102E48001FC0F4FF1EC0F3FF1DC0DAFF1CC0D9FF6E
:102E58001BC0E2FF1AC0E1FF19C0EAFF18C0E9FF72
:102E680017C0FBFF16C0FAFF1100000E0001656FC6
:102E7800000161AF09D00001606D611FD8B0612BFE
:102E8800010E0001656F00D0000163AF06D000019C
:102E9800626D631FD8B0632B00D00001625100013E
:102EA8006311D8B42BD0010E0001646F07D0000164
:102EB800D890623763370001642B00D0000163BFEC
:102EC80002D0F5D700D0000162510001605D000119
:102ED800635100016159D8A009D000016251000175
:102EE800605F000163510001615B00D00001D89070
:102EF800633362330001642FE6D700D000016551C7
:102F08000001D8B406D00001606D611FD8B0612BF4
:102F180000D060C060F061C061F0120012000001D2
:102F28007151000172110001731100017411D8B4BC
:102F38003FD0010E0001756F09D00001D89071379C
:102F48007237733774370001752B00D0000174BFD6
:102F580002D0F3D700D00001715100016D5D00016E
:102F6800725100016E590001735100016F5900013F
:102F7800745100017059D8A011D00001715100019D
:102F88006D5F0001725100016E5B00017351000119
:102F98006F5B000174510001705B00D00001D89094
:102FA80074337333723371330001752FD4D700D063
:102FB8006DC06DF06EC06EF06FC06FF070C070F0D5
:102FC8001200000E0001646F000E0001656F9594F9
:102FD8009498000E0001616F000E606FFEEC1BF00C
:102FE800970E78EC1BF0000E0001616F000E606F09
:102FF800F5EC1BF09F0E0001646F7F0E0001656FFA
:1030080065C060F000016451F8EC19F0949C948E4E
:103018009F8A9E8A9D8A000E0001616F220E606F52
:103028007C0E36EC19F0959C958EA58AA48AA38A05
:10303800000E0001616F220E606F7C0EF8EC18F034
:10304800D08EF28CF28E000E0001D66F000E356E17
:10305800000E366E000E376E120000EEB5F0420E0E
:10306800EE6AE806FDE100EE24F0140EEE6AE806CA
:10307800FDE1640EF66E290EF76E000EF86E02EE94
:1030880000F011EE00F00900F5CFEEFFE550E15039
:10309800FAE1E250F8E1640EF66E280EF76E000EC3
:1030A800F86E01EE00F011EE00F00900F5CFEEFF2A
:1030B800E550E150FAE1E250F8E1380EF66E380ECC
:1030C800F76E000EF86E00EE38F010EE05F009000D
:1030D800F5CFEEFFE550E150FAE1000EF86E000181
:1030E80032EF15F0000E0001AD6F000E0001AE6F5B
:1030F80023EC1BF0000E0001AE6F030E0001AE655D
:1031080002D0120012000001AE51010DCD0EF324C1
:10311800D96E000EF420DA6EDF50D8B41DD000014D
:10312800AE51080DD70EF3240001996F000EF4205C
:1031380000019A6F13EC10F00001AE51030DB50EAB
:10314800F324D96E000EF420DA6E99C0DEFF9AC01F
:10315800DEFF9BC0DEFF00D00001AE2B030E000196
:10316800AE65D1D7120012008E0E0001706F09D023
:103178000001D8906B336A33693368330001702BD0
:1031880000D0000E0001681500016C6F000E0001F0
:10319800691500016D6F000E00016A1500016E6F60
:1031A800FF0E00016B1500016F6F00016C510001EB
:1031B8006D1100016E1100016F11D8A4D9D768C034
:1031C80060F069C061F06AC062F070C063F0000E20
:1031D8000001646FA2EC13F060C068F061C069F090
:1031E80062C06AF0120012000001626F000EBA6E2F
:1031F800000EA66E000162A102D0BA8800D00001BC
:1032080062A303D0BA8CA68C00D0000162A502D0BC
:10321800BA8E00D0000162A702D0A68802D0A68A82
:1032280000D0000162A902D0BA8402D0BA9400D0BA
:10323800000162AB02D0A68600D0000162AD02D0C8
:10324800A38A02D0A39A00D0000162AF02D0A3885B
:1032580001D0A39860C07BFF000161517C6EBA8ADF
:10326800A68E12000001626F000EAC6E000EAB6EEF
:10327800000162A102D0AC8800D0000162A303D093
:10328800AC8CAB8C00D0000162A502D0AC8E00D013
:10329800000162A702D0AB8802D0AB8A00D000013F
:1032A80062A902D0AC8400D0000162AB02D0AB8628
:1032B80000D0000162AD02D09D8A02D09D9A00D054
:1032C800000162AF02D09D8801D09D9860C0AFFF19
:1032D800000161517D6EAC8AAB8E1200D1C074F0D2
:1032E800D2C075F0D3C076F0000E0001776F9B0E48
:1032F8000001786F420E0001796F0FEC16F00001A3
:10330800D8B002D08B881AD0000E0001746F9D0EC1
:103318000001756F420E0001766FD1C077F0D2C000
:1033280078F0D3C079F00FEC16F00001D8A004D0E3
:103338008BA802D08B8801D08B9800D08BA802D0A4
:10334800010E1200000E1200120000019C51000133
:103358009D1100019E11D8B40AD0000E00019C1BDB
:10336800000E00019D1B800E00019E1B00D099C01D
:103378008DF09AC08EF09BC08FF09CC090F09DC0DD
:1033880091F09EC092F058EC0CF08DC099F08EC070
:103398009AF08FC09BF0120012000001616F0001CB
:1033A80061510001D8B410D0000EEBEC1BF0200ED8
:1033B800E82EFED7010EEBEC1BF0CC0E00D0E82E69
:1033C800FDD700D000D01200000EEBEC1BF0F00E81
:1033D80000F0E82EFDD7010EEBEC1BF0350EE82EC1
:1033E800FED700F0120012000001626F0001605168
:1033F800F30BB06E62C061F07F0E0001611700012F
:10340800D8906135B16E000EB36E000EB26EA19207
:10341800A190000162AF02D0A08201D0A092000169
:1034280060A502D0A08001D0A090B0BEB086B180C7
:103438001200000E00016B6F000169AF09D0000196
:10344800686D691FD8B0692B010E00016B6F00D041
:1034580068C060F069C061F00001626B8E0E000107
:10346800636F6BC064F0A2EC13F060C068F061C0D9
:1034780069F062C06AF01200120000016C6F000E61
:1034880000016B6F00016CAF06D000016C6D010E7E
:1034980000016B6F00D000016C510001606F616B1F
:1034A800626B8E0E0001636F6BC064F0A2EC13F0C8
:1034B80060C068F061C069F062C06AF01200120072
:1034C800000EEBEC1BF00F0E0001616F200EE82ED2
:1034D800FED7612FFCD7010EEBEC1BF0E00E00D0FD
:1034E800E82EFDD710EC1CF00001626F0F0E0001F2
:1034F800616F200EE82EFED7612FFCD700016251C4
:1035080012001200000E0001626F000E0001636FCE
:10351800070E0001636501D00DD00001D890623319
:103528000BEC1BF00009D8B402D00001628F000137
:10353800632BEED7000162511200120000016E5198
:1035480000017003F3CF72F0F4CF73F000016E51F5
:1035580000017103F3500001732700016F5100014E
:103568007003F3500001732772C06EF073C06FF0E0
:10357800120012000001626F000E0001636F070E57
:103588000001636502D01200120000016251010BB4
:10359800D1EC19F00001D89062330001632B070EBB
:1035A80000016365F2D712001200150E0001646F66
:1035B800C10EE82EFED7642FFCD700F0000160078B
:1035C800000E615B625B635B000160510001611189
:1035D8000001621100016311D8A4E7D712000001AD
:1035E80060510001611100016211D8B409D0000EC8
:1035F8000001601B000E0001611B800E0001621BB0
:1036080060C060F061C061F062C062F01200000E3C
:10361800EBEC1BF0200EE82EFED7010EEBEC1BF0B6
:10362800300EE82EFED710EC1CF00001616FDC0EA6
:1036380000F0E82EFDD7000161511200120064EC81
:103648001AF0CC0EBEEC1AF0010EEBEC1BF0440E97
:10365800BEEC1AF0EE0E0001606F020E616F000EF4
:10366800626F000E636FD9EC1AF012000001626FEE
:10367800000E0001616F3A0E0001626108D02F0E42
:103688000001626504D0010E0001616F00D061C0C5
:1036980060F000016031120012000001626F3350C7
:1036A800000162190001606F616B000E0001602566
:1036B800D96E010E00016121DA6EDF50336E1200FF
:1036C80012003BC061F03CC062F000D0BAA2FED745
:1036D80000016151BEEC1BF000D0BAA2FED7000178
:1036E8006251BEEC1BF012000001606F00016051D6
:1036F8007F0BD56E000ED76E000ED66EF2940001C9
:1037080060AF02D0F28A01D0F29AD58E1200F20E82
:103718003216A6AC05D03290A6A002D0328000D0D6
:10372800A6B43284A6B232867ACF12F012501200B2
:1037380012000001616F00D0BAA2FED700016151EA
:10374800BEEC1BF000D0ACA2FED700016151CAEC60
:103758001BF01200F20E3116ABAC05D03190ABA0C5
:1037680002D0318000D0ABB43184ABB23186AECF59
:1037780012F012000001606FBAAC05D0BA9032A204
:1037880002D0BA8000D060C079FF12000001606FDB
:10379800ACAC05D0AC9031A202D0AC8000D060C0F7
:1037A800ADFF1200F00ED36E00D0D3A4FED7C00E2A
:1037B8009B6E00D0D3A4FED71200000E2F6E000E11
:1037C8002E6E000E306E97EC0DF012001200000104
:1037D800606F9496000160B102D08B9601D08B8601
:1037E800120060C062F061C063F063C0B3FF62C0E2
:1037F800B2FF120060C062F061C063F063C0D7FF1F
:1038080062C0D6FF120012C014F013C015F015C024
:10381800D7FF14C0D6FF1200948682A602D0010EEC
:103828001200000E1200120097EC0DF012001200A8
:0A383800FE3908FE58008C741200DF
:10FE540000010000000A00000064000000E8030044
:10FE64000010270000A086010040420F00809698F1
:10FE74000000E1F50500CA9A3B00803FCDCC3DD798
:10FE8400233C12833AB7D138C62737388635C0D6D3
:10FE940033CC2B32708930E7DB2EE53C1E42A20DB9
:10FEA40000803F00204100C842007A44401C465074
:10FEB400C34724744997184BBCBE4C6B6E4E031554
:10FEC4005079AD60F349710100000010000000009A
:10FED40001000000100000000001000000100000FC
:10FEE400000001000000100D0A0D0A4F7363696CD5
:10FEF4006C61746F7220616E642050657269706801
:10FF04006572616C7320696E697469616C697A6584
:10FF140064210D0A00496E69745F53656E736F72D4
:10FF24007328293A20436865636B696E6720666F9E
:10FF340072204453313832302044657669636573E6
:10FF44000D0A00412068696768207072696F7269E0
:10FF5400747920495251207761732069676E6F72FA
:10FF640065640A0041206C6F77207072696F726952
:10FF7400747920495251207761732069676E6F72DA
:10FF840065640A004176672025322E316620486F69
:10FF94006C642025322E31660A004D6178202532AA
:10FFA4002E3166204D696E2025322E316600466F53
:10FFB400756E642025642073656E736F72730D0A09
:10FFC40000303132333435363738394142434445D1
:10FFD4004600486561746572205374617475733AA0
:10FFE400200025322E316620004F46460A00253077
:0CFFF4003258004F4E0A00256420000027
:020000040020DA
:08000000FFFFFFFFFFFFFFFF00
:020000040030CA
:0E0000001D187F7FFF8991FF0FC00FE00F409A
:00000001FF
