:040000008BEF00F092
:10000800FACF76F0FBCF77F0E9CF78F0BCEF0AF0C3
:10001800D8CF19F0E8CF1AF0E0CF1BF0FACF1CF0D8
:10002800FBCF1DF0E9CF1EF0EACF1FF0E1CF20F0A3
:10003800E2CF21F0D9CF22F0DACF23F0F3CF24F0AA
:10004800F4CF25F0F6CF26F0F7CF27F0F8CF28F039
:10005800F5CF29F09EAC31D09E9C4B504B242A6E94
:100068002A50010D3F0EF324D96E000EF420DA6EEB
:10007800C4CFDFFF2A50176E186A010E1726000E2C
:1000880018223F0E1724D96E000E1820DA6EC3CF3F
:10009800DFFF050E4B184C10D8A407D0010EC26E16
:1000A800000E4C6E000E4B6E06D0C250040FC26E8E
:1000B8004B4A4C2A00D0C28207D0520E0D6E0F0E4A
:1000C8000E6E62EC09F000D029C0F5FF28C0F8FFD9
:1000D80027C0F7FF26C0F6FF25C0F4FF24C0F3FFB2
:1000E80023C0DAFF22C0D9FF21C0E2FF20C0E1FF10
:1000F8001FC0EAFF1EC0E9FF1DC0FBFF1CC0FAFFBE
:100108001BC0E0FF1AC0E8FF19C0D8FF1000C6EFF7
:020118000CF0E9
:100F00000001000A006400E80310274F7363696C56
:100F10006C61746F7220616E6420506572697068D4
:100F20006572616C7320696E697469616C697A6558
:100F300064210D0A00556E68616E646C656420481A
:100F4000696768205072696F7269747920495251DB
:100F50000A00556E68616E646C6564206C6F772062
:100F60007072696F72697479204952510A00414464
:100F7000432025642069733A2025750D0A0000007E
:100F8000920E0001986F000E0001996FB9D0250EE6
:100F900000019D19D8B405D000019D514DEC0DF014
:100FA000AFD0000E00019A6F06D012001DD0A8D05D
:100FB00000019A8D19D090C0F6FF91C0F7FF000193
:100FC000904B912B0800F5CF9DF000019D51000A38
:100FD000D8B41200640AD8B407D00D0AD8B404D02B
:100FE0001C0AD8B4E5D78CD000019ABD19D098C09E
:100FF000D9FF99C0DAFFDECF9BF0DDCF9CF0020E67
:1010000000019827000E992300019CAF17D0030E12
:1010100000019A1300019B6D9C1FD8B09C2B0ED031
:1010200098C0D9FF99C0DAFFDECF9BF0DDCF9CF0EE
:10103000020E00019827000E992300D0010E000136
:101040009D6F050E00019D19D8B41AD001D018D09B
:1010500000019D51020D010EF324F66E0F0EF420D7
:10106000F76E0900F55000019B5D0900F550000185
:101070009C59D8A005D001D003D000019D2BE1D709
:101080009AC096F0030E00019617D8B404D02D0E26
:101090004DEC0DF000D09DC097F02AD00001975183
:1010A000020D010EF324F66E0F0EF420F76E090008
:1010B000F5CF86F00A00F5CF87F09BC084F09CC086
:1010C00085F007EC0BF084C08BF085C08CF0000E2F
:1010D00000018E6F0A0E8D6F06EC0CF000018B5133
:1010E000300F00019D6F00019D514DEC0DF000D0BF
:1010F0000001970700019729D8B402D0CFD700D0BC
:1011000090C0F6FF91C0F7FF0001904B912B0800B3
:10111000F5CF9DF000019D51D8B4120038D71200D0
:1011200012006E0E0001706F000E0001716FB9D0D9
:10113000250E00017519D8B405D00001755157EC82
:101140000DF0AFD0000E0001726F06D012001DD05E
:10115000A8D00001728D19D06CC0F6FF6DC0F7FFEA
:1011600000016C4B6D2B0800F5CF75F00001755137
:10117000000AD8B41200640AD8B407D00D0AD8B453
:1011800004D01C0AD8B4E5D78CD0000172BD19D0A8
:1011900070C0D9FF71C0DAFFDECF73F0DDCF74F01D
:1011A000020E00017027000E7123000174AF17D0EA
:1011B000030E000172130001736D741FD8B0742BFD
:1011C0000ED070C0D9FF71C0DAFFDECF73F0DDCF73
:1011D00074F0020E00017027000E712300D0010E82
:1011E0000001756F050E00017519D8B41AD001D031
:1011F00018D000017551020D010EF324F66E0F0E8A
:10120000F420F76E0900F5500001735D0900F550F8
:1012100000017459D8A005D001D003D00001752B6E
:10122000E1D772C06EF0030E00016E17D8B404D07F
:101230002D0E57EC0DF000D075C06FF02AD00001D4
:101240006F51020D010EF324F66E0F0EF420F76EAF
:101250000900F5CF62F00A00F5CF63F073C060F0CB
:1012600074C061F048EC0BF060C067F061C068F0DA
:10127000000E00016A6F0A0E696F3CEC0CF0000171
:101280006751300F0001756F0001755157EC0DF07B
:1012900000D000016F0700016F29D8B402D0CFD76A
:1012A00000D06CC0F6FF6DC0F7FF00016C4B6D2BDA
:1012B0000800F5CF75F000017551D8B4120038D789
:1012C000120012000F0E116E000E126E9FD0250E2E
:1012D0001618D8B404D016506AEC0DF097D0000E52
:1012E000136E05D012001AD091D0138C17D00DC0F8
:1012F000F6FF0EC0F7FF0D4A0E2A0800F5CF16F0D4
:101300001650000AD8B41200640AD8B407D00D0AE7
:10131000D8B404D01C0AD8B4E8D778D013BC15D000
:1013200011C0D9FF12C0DAFFDECF14F0DDCF15F007
:10133000020E1126000E122215AE14D0030E131247
:10134000146C151ED8B0152A0DD011C0D9FF12C0CB
:10135000DAFFDECF14F0DDCF15F0020E1126000EFD
:10136000122200D0010E166E050E1618D8B416D033
:1013700001D014D01650020D010EF324F66E0F0E9C
:10138000F420F76E0900F550145C0900F55015586B
:10139000D8A004D001D002D0162AE6D713C00FF08F
:1013A000030E0F16D8B404D02D0E6AEC0DF000D049
:1013B00016C010F025D01050020D010EF324F66E69
:1013C0000F0EF420F76E0900F5CF03F00A00F5CFF9
:1013D00004F014C001F015C002F072EC0CF001C072
:1013E00008F002C009F0000E0B6E0A0E0A6EA0ECA7
:1013F0000CF00850300F166E16506AEC0DF000D04D
:1014000010061028D8B402D0D6D700D00DC0F6FFF1
:101410000EC0F7FF0D4A0E2A0800F5CF16F0165041
:10142000D8B4120054D712001200000E0001AE6FA3
:10143000000E0001B06F000EAF6F2DEC0DF089ECC7
:101440000BF0800E06EC0DF0800E06EC0DF0800E19
:1014500006EC0DF0800E06EC0DF0800E06EC0DF0A3
:10146000800E06EC0DF0320E0001906F0F0E0001A1
:10147000916FC0EC07F0320E0001906F0F0E00016B
:10148000916FC0EC07F00B0E0001906F0F0E000182
:10149000916FC0EC07F0C28200D00001B151D8B406
:1014A000FCD7000E0001B16F330E0001906F0F0EDC
:1014B0000001916FC0EC07F0000E0001B06F000E4C
:1014C000AF6F0001B0BF0AD00001B051E6E1060ED7
:1014D0000001AF5DD8B0E1D701D0DFD70001AF5137
:1014E000AF250001AE6F0001AE5100019E6F9F6BF2
:1014F000010E00019E27000E9F23A40E00019E25D1
:10150000D96E000E00019F21DA6EDF500001A06F3E
:101510000001AE51010DA40EF324D96E000EF4208B
:10152000DA6EDF500001A16F0001A1510001A36F2D
:10153000A26B0001A0510001A2250001AC6F0001C7
:10154000000E0001A3210001AD6F6E0E0001906F2F
:101550000F0E0001916FAFC092F0B0C093F0ACC01D
:1015600094F0ADC095F0C0EC07F00001AF4BB02B8C
:10157000A8D793D78BEF00F0EACF79F0E1CF7AF0DC
:10158000E2CF7BF0D9CF7CF0DACF7DF0F3CF7EF0E5
:10159000F4CF7FF0F6CF80F0F7CF81F0F8CF82F074
:1015A000F5CF83F0A4AA07D0A49A010E0001B16F71
:1015B000F6EC0CF00FD0F2A404D0F29472EC0DF023
:1015C00009D0350E00016C6F0F0E00016D6F91ECAC
:1015D00008F000D083C0F5FF82C0F8FF81C0F7FF9C
:1015E00080C0F6FF7FC0F4FF7EC0F3FF7DC0DAFF4E
:1015F0007CC0D9FF7BC0E2FF7AC0E1FF79C0EAFF7F
:1016000078C0E9FF77C0FBFF76C0FAFF1100000E3B
:101610000001896F000E886F00018651000187115B
:10162000D8B431D0010E00018A6F07D00001D890E4
:101630008637873700018A2B00D0000187BF02D090
:10164000F5D700D00001D89088378937000186513E
:101650000001845D0001875100018559D8A00BD09D
:10166000000186510001845F000187510001855B04
:101670000001888100D00001D890873386330001B3
:101680008A2FE0D700D088C084F089C085F012008E
:10169000000E0001666F000E656F000162510001CF
:1016A0006311D8B431D0010E0001646F07D000017E
:1016B000D890623763370001642B00D0000163BF0C
:1016C00002D0F5D700D00001D89065376637000109
:1016D00062510001605D0001635100016159D8A0B1
:1016E0000BD0000162510001605F000163510001F5
:1016F000615B0001658100D00001D89063336233E3
:101700000001642FE0D700D065C060F066C061F0D2
:101710001200959495969498949A8B888C969280C2
:10172000928292849286928A968096680F01569D44
:10173000010EC26E400EC16E870EC06E0F015D813C
:101740000F015D830F015D850F015D870F015D89CD
:101750000F015D8B9E9C9F9C9D8C000E0001856FF0
:10176000000E846F61EC0DF0FF0EE3EC0CF0959C25
:10177000958EA58AA48AA38A000E0001856F440E67
:10178000846F7C0EC8EC0BF0D08EF28EF28C1200BF
:101790000001866F000EBA6E000EA66E000186A1D3
:1017A00002D0BA8800D0000186A303D0BA8CA68CE0
:1017B00000D0000186A502D0BA8E00D0000186A715
:1017C00002D0A68802D0A68A00D0000186A902D045
:1017D000BA8402D0BA9400D0000186AB02D0A686AB
:1017E00000D0000186AD02D0A38A02D0A39A00D017
:1017F000000186AF02D0A38801D0A39884C07BFFEC
:10180000000185517C6EBA8AA68E120000018D51AE
:1018100000018E11D8B42BD0010E00018F6F07D0BC
:101820000001D8908D378E3700018F2B00D000013A
:101830008EBF02D0F5D700D000018D5100018B5D25
:1018400000018E5100018C59D8A009D000018D51A2
:1018500000018B5F00018E5100018C5B00D0000104
:10186000D8908E338D3300018F2FE6D700D08BC0F8
:101870008BF08CC08CF012000001695100016A11DC
:10188000D8B42BD0010E00016B6F07D00001D890A7
:1018900069376A3700016B2B00D000016ABF02D0A4
:1018A000F5D700D0000169510001675D00016A5160
:1018B00000016859D8A009D0000169510001675F93
:1018C00000016A510001685B00D00001D8906A33C2
:1018D000693300016B2FE6D700D067C067F068C09E
:1018E00068F01200000E066E000E056E0350041024
:1018F000D8B421D0010E076E05D0D8900336043637
:10190000072A00D004BE02D0F8D700D0D890053600
:1019100006360350015C04500258D8A006D003508C
:10192000015E0450025A058000D0D8900432033280
:10193000072EECD700D005C001F006C002F012005F
:101940000A500B10D8B41DD0010E0C6E05D0D890E3
:101950000A360B360C2A00D00BBE02D0F8D700D0C6
:101960000A50085C0B500958D8A005D00A50085EF0
:101970000B50095A00D0D8900B320A320C2EF0D7F7
:1019800000D008C008F009C009F012000001B16BD6
:1019900000EE3FF00F0EEE6AE806FDE1860EF66EF1
:1019A0001A0EF76E000EF86E00EE2BF010EE14F02B
:1019B0000900F5CFEEFFE550E150FAE1000EF86EB8
:1019C000000115EF0AF00001846F000184517F0BC4
:1019D000D56E000ED76E000ED66EF294000184AF65
:1019E00002D0F28A01D0F29AD58E1200F20E4D1674
:1019F000A6AC05D04D90A6A002D04D8000D0A6B4D4
:101A00004D84A6B24D867ACF60F012000001856F3A
:101A10000D0E0001846FFC0EE82EFED7842FFCD73C
:101A20000001852FF5D7120012000001846FBAACB7
:101A300005D0BA904DA202D0BA8000D084C079FF00
:101A400012000001606FBAAC05D0BA904DA202D06E
:101A5000BA8000D060C079FF1200F00ED36E00D0C3
:101A6000D3A4FED7C00E9B6E00D0D3A4FED7120025
:101A7000016EBAAC05D0BA904DA202D0BA8000D0A7
:101A800001C079FF120048656C6C6F2066726F6D43
:101A9000205049433138000A00000001856F00D012
:101AA000BAA2FED70001855115EC0DF0120000011D
:101AB000616F00D0BAA2FED70001615121EC0DF098
:101AC000120084C086F085C087F087C0D7FF86C02B
:101AD000D6FF1200026E00D0BAA2FED7025038EC38
:081AE0000DF012008C741200DD
:020000040020DA
:08000000FFFFFFFFFFFFFFFF00
:020000040030CA
:0E0000001D187F7FFF8991FF0FC00FE00F409A
:00000001FF
