:0400000054EF00F0C9
:10000800FACF16F0FBCF17F0E9CF18F0BFEF17F0D3
:10001800D8CF01F0E8CF02F0E0CF03F0FACF04F038
:10002800FBCF05F0E9CF06F0EACF07F0E1CF08F003
:10003800E2CF09F0D9CF0AF0DACF0BF0F3CF0CF00A
:10004800F4CF0DF0F6CF0EF0F7CF0FF0F8CF10F099
:10005800F5CF11F0020E0001CC6F11C0F5FF10C0F2
:10006800F8FF0FC0F7FF0EC0F6FF0DC0F4FF0CC07D
:10007800F3FF0BC0DAFF0AC0D9FF09C0E2FF08C0CE
:10008800E1FF07C0EAFF06C0E9FF05C0FBFF04C0A7
:10009800FAFF03C0E0FF02C0E8FF01C0D8FF10006C
:1000A80013EF19F0A30E0301056F000E0301066F8D
:1000B8004BEF07F0250E03011B19D8B406D0030136
:1000C8001B5144EC1CF04BEF07F0000E03010E6FC0
:1000D800000E0D6F000E0301186F000E176F07D08A
:1000E800030117850001A14BA22B01D00BD0A1C0A1
:1000F800F6FFA2C0F7FF0800F550300AD8B4F0D7D1
:1001080001D0F5D7A1C0F6FFA2C0F7FF0800F5504F
:10011800E1EC1BF0D8A043D0000E03010E6F000ED7
:100128000D6F00D00DC360F00EC361F0000E00012A
:10013800636F0A0E626F47EC1BF060C00DF361C07D
:100148000EF3D00E0001AB6FFF0E0001AC6FA1C023
:10015800F6FFA2C0F7FF0800F5500001AD6FAE6BC7
:100168000001AB510001AD270001AC510001AE23E5
:100178000001AD5103010D270001AE5103010E230B
:100188000001A14BA22BA1C0F6FFA2C0F7FF0800F7
:10019800F550E1EC1BF0D8A002D0C4D700D0A1C024
:1001A800F6FFA2C0F7FF0800F5502E0AD8A43BD0EE
:1001B8000301188D0001A14BA22B000E03011A6F39
:1001C800000E196F24D019C360F01AC361F0000E35
:1001D8000001636F0A0E626F47EC1BF0A1C0F6FFC7
:1001E800A2C0F7FF0800F55000016027000E0001CB
:1001F8006123D00E000160250301196FFF0E000175
:10020800612103011A6F0001A14BA22B00D0A1C0EC
:10021800F6FFA2C0F7FF0800F550E1EC1BF0D8A0EC
:1002280015D0D1D713D0000E03011A6F000E196F25
:10023800030118890BD012000301188527D000D0BC
:100248000301178F23D04BEF07F020D0A1C0F6FF92
:10025800A2C0F7FF0001A14BA22B0800F5CF1BF3AA
:1002680003011B51000AD8B41200580AD8B4E8D7C1
:100278003C0AD8B40BD0020AD8B4DED70F0AD8B4D7
:1002880005D0110AD8B4DCD74BEF07F0070E0301ED
:100298001815D8B4D2D3030118A906D0000E03014B
:1002A8001A6F060E196F00D005C3D9FF06C3DAFF0F
:1002B800DECF13F3DECF14F3DECF15F3DECF16F364
:1002C800040E03010527000E0623030116AF16D0FE
:1002D80013C360F014C361F015C362F016C363F072
:1002E8000DEC1BF060C013F361C014F362C015F38A
:1002F80063C016F3030E0301171300D0000E0301A9
:100308000C6F000E0B6F030113510301141103014D
:10031800151103011611D8B490D0030115351635FF
:10032800820F03010B6F03010C6BFF0E0C230301FB
:100338000B07D8A00C070BC360F00CC361F0000ECC
:100348000001636F030E626F47EC1BF060C00BF394
:1003580061C00CF30BC366F00CC367F0000E00011C
:10036800696F0A0E686FF4EC16F066C00BF367C08D
:100378000CF303010CAF05D003010B07D8A00C0741
:1003880000D003010B5100085DEC07F07EC007F3B5
:100398007FC008F380C009F381C00AF307C36FF078
:1003A80008C370F009C371F00AC372F013C373F085
:1003B80014C374F015C375F016C376F029EC13F066
:1003C8006FC007F370C008F371C009F372C00AF375
:1003D80007C360F008C361F009C362F00AC363F0A1
:1003E800000E0001646F000E656F800E666F3F0E91
:1003F800676F03EC16F00001D8B005D003010B07B6
:10040800D8A00C071AD007C360F008C361F009C36D
:1004180062F00AC363F0000E0001646F000E656F9E
:10042800200E666F410E676F03EC16F00001D8A02E
:1004380004D003010B4B0C2B00D003011ABF08D0CA
:1004480003011A5124E10D0E0301195DD8B01FD024
:1004580013C38DF014C38EF015C38FF016C390F03C
:10046800030119515BEC0BF07EC091F07FC092F054
:1004780080C093F081C094F0C8EC0CF08DC013F3E9
:100488008EC014F38FC015F390C016F300D003018B
:100498000CBF08D003010C5130E10A0E03010B5DBB
:1004A800D8B02BD003011351030114110301151106
:1004B80003011611D8B48CD013C387F014C388F085
:1004C80015C389F016C38AF076EC14F00001875141
:1004D800000188110001891100018A11D8A478D07F
:1004E80003010CBF75D003010C5107E1020E030193
:1004F8000B5DD8B002D06CD000D007C360F008C341
:1005080061F009C362F00AC363F05F0E0001646F13
:10051800700E656F890E666F400E676F03EC16F0FC
:100528000001D8B003D00301F70E02D00301F80E82
:100538000B27FF0E0C2300D003010B515DEC07F0D5
:100548007EC007F37FC008F380C009F381C00AF3B7
:1005580013C360F014C361F015C362F016C363F0EF
:1005680007C364F008C365F009C366F00AC367F0FF
:10057800E1EC10F060C00FF361C010F362C011F33A
:1005880063C012F31BD013C360F014C361F015C32A
:1005980062F016C363F007C364F008C365F009C3CB
:1005A80066F00AC367F00EEC10F060C00FF361C08C
:1005B80010F362C011F363C012F300D0000E030100
:1005C800136F000E146F000E156F000E166F3CD0DF
:1005D80013C387F014C388F015C389F016C38AF0D3
:1005E80076EC14F087C00FF388C010F389C011F3BC
:1005F8008AC012F313C399F014C39AF015C39BF081
:1006080016C39CF00FC36AF010C36BF011C36CF0F3
:1006180012C36DF098EC1BF06AC09DF06BC09EF0A1
:100628006CC09FF06DC0A0F049EC1AF099C013F3AC
:100638009AC014F39BC015F39CC016F3000E030177
:100648000C6F000E0B6F00D0010E03011B6F0A0E1A
:1006580003011B19D8B422D001D020D003011B51AB
:10066800040DA30EF324F66EFE0EF420F76E0900B7
:10067800F55003010F5D0900F550030110590900F9
:10068800F550030111590900F55003011259D8A07A
:1006980005D001D003D003011B2BD9D71BC3ABF066
:1006A8000001AC6BABBFAC07030119510001AB27CC
:1006B80003011A510001AC2303010B510001AB27C0
:1006C80003010C510001AC230001AB5103010D5F84
:1006D8000001AC5103010E5B0301195103011A110A
:1006E800D8B405D003010D07D8A00E0700D0030E1B
:1006F800030117150001AB6F000E03011815000167
:10070800AC6F0001AB510001AC11D8B405D00301A6
:100718000D07D8A00E0700D0030117A531D0030E8E
:10072800030117150001AB6F000E03011815000136
:10073800AC6F0001AB510001AC11D8B40CD02D0E38
:1007480044EC1CF008D0300E44EC1CF003010D07FB
:10075800D8A00E0700D003010EBF78D003010E51B8
:10076800F2E103010D05D8A071D0EDD76FD008D004
:10077800200E44EC1CF003010D07D8A00E0700D092
:1007880003010EBF07D003010E51F2E103010D056D
:10079800D8B0EED7030E030117150001AB6F000E9A
:1007A800030118150001AC6F0001AB510001AC1139
:1007B800D8B44CD02D0E44EC1CF048D00FC360F0D8
:1007C80010C361F011C362F012C363F003011B513F
:1007D800040DA30EF324F66EFE0EF420F76E090046
:1007E800F5CF64F00900F5CF65F00900F5CF66F0A4
:1007F8000A00F5CF67F05CEC17F060C007F361C042
:1008080008F362C009F363C00AF307C36DF008C3B5
:100818006EF009C36FF00AC370F00A0E0001716F21
:10082800000E726F000E736F000E746F79EC18F083
:100838006DC007F36EC008F36FC009F370C00AF308
:1008480003010751300F44EC1CF000D003011B07D3
:1008580003011B29D8B40AD0B1D708D0300E44EC14
:100868001CF003010B07D8A00C0700D003010CBF34
:1008780007D003010C51F2E103010B05D8B0EED704
:1008880003011ABF0CD003011A5105E1090E030137
:10089800195DD8A004D0080E03011B6F03D019C33B
:1008A8001BF300D003011B510301195F000E030164
:1008B8001BBFFF0E03011A5B03011B510301D8B4D0
:1008C80004D02E0E44EC1CF000D003011B515DEC4B
:1008D80007F07EC000F37FC001F380C002F381C03F
:1008E80003F313C373F014C374F015C375F016C380
:1008F80076F000C36FF001C370F002C371F003C358
:1009080072F029EC13F06FC087F070C088F071C0E6
:1009180089F072C08AF076EC14F087C00FF388C0B3
:1009280010F389C011F38AC012F36FD00FC360F0BF
:1009380010C361F011C362F012C363F003011B51CD
:10094800040DA30EF324F66EFE0EF420F76E0900D4
:10095800F5CF64F00900F5CF65F00900F5CF66F032
:100968000A00F5CF67F05CEC17F060C007F361C0D0
:1009780008F362C009F363C00AF307C36DF008C344
:100988006EF009C36FF00AC370F00A0E0001716FB0
:10099800000E726F000E736F000E746F79EC18F012
:1009A8006DC007F36EC008F36FC009F370C00AF397
:1009B80003010751300F44EC1CF00FC36DF010C356
:1009C8006EF011C36FF012C370F003011B51040DD8
:1009D800A30EF324F66EFE0EF420F76E0900F5CF91
:1009E80071F00900F5CF72F00900F5CF73F00A0035
:1009F800F5CF74F079EC18F06DC00FF36EC010F3FA
:100A08006FC011F370C012F300D003011B0703017C
:100A18001B29D8B40AD08AD708D0300E44EC1CF071
:100A280003011907D8A01A0700D0030119510301BF
:100A38001A11D8B42CD2F1D72AD2030117BF23D068
:100A480005C3D9FF06C3DAFFDECF0FF3DDCF10F3FE
:100A58000301000E10BFFF0E116F126F020E03018B
:100A68000527000E0623030112AF22D0030E03014F
:100A780017130301121F111F101F0F6D000E1023F3
:100A88001123122315D005C3D9FF06C3DAFFDECF21
:100A9800ABF0DDCFACF0ABC00FF3ACC010F303018B
:100AA800116B126B020E03010527000E062300D0FE
:100AB8000301195103011A11D8A464D003010F517D
:100AC800030110110301111103011211D8A45AD006
:100AD8000301194B1A2B56D0010E03011B6F0A0E86
:100AE80003011B19D8B458D001D056D003011B51AB
:100AF800040DA30EF324F66EFE0EF420F76E090023
:100B0800F55003010F5D0900F55003011059090064
:100B1800F550030111590900F55003011259D8A0E5
:100B28003BD001D039D003011B2BD9D735D0010ECA
:100B380003011B6F080E03011B19D8B42DD001D077
:100B48002BD003011B51040DCB0EF324F66EFE0EC1
:100B5800F420F76E0900F55003010F5D0900F55008
:100B6800030110590900F550030111590900F55006
:100B780003011259D8A010D001D00ED003011B2BAD
:100B8800D9D70AD003011751800B000AD8B4A4D7CB
:100B9800800AD8B4CCD700D0800E03011BBF7F0ECB
:100BA8000001AB6F0301195103011B5D03011A51C9
:100BB800800A0001AB59D8B003D019C31BF319D070
:100BC80003011A51800A0001AB6F03011B51030195
:100BD800195D800E03011BBF7F0E0001AB59D8B011
:100BE80008D003011B510301196F1A6B19BF1A07AB
:100BF80000D003010D5103010E11D8B415D0030E16
:100C0800030117150001AB6F000E03011815000151
:100C1800AC6F0001AB510001AC11D8B405D0030191
:100C28000D07D8A00E0700D0030118AD1FD003018F
:100C38000D510301195D03011A51800A0001AB6FC0
:100C480003010E51800A0001AB59D8B009D0030145
:100C5800195103010D5F03011A5103010E5B06D000
:100C6800000E03010E6F000E0D6F00D0800E030101
:100C78001BBF7F0E0001AB6F03010D5103011B5D0C
:100C880003010E51800A0001AB59D8B00BD0030103
:100C98001B5103010D5F000E03011BBFFF0E030173
:100CA8000E5B06D0000E03010E6F000E0D6F00D014
:100CB800030117A529D0030E030117150001AB6F17
:100CC800000E030118150001AC6F0001AB510001C3
:100CD800AC11D8B404D02D0E44EC1CF000D00301A4
:100CE8000D5103010E11D8B4C5D0300E44EC1CF0E0
:100CF80003010D07D8A00E0703010D5103010E11C2
:100D0800D8B4B8D0F2D7B6D003010D5103010E11F3
:100D1800D8B40FD0200E44EC1CF003010D07D8A066
:100D28000E0703010D5103010E11D8B402D0F2D7FA
:100D380000D0030E030117150001AB6F000E03016D
:100D480018150001AC6F0001AB510001AC11D8B40B
:100D580091D02D0E44EC1CF08DD07DD019C3ABF092
:100D68001AC3ACF00001D890AB37AC370001D8906B
:100D7800AB37AC37A30E0001AB25F66EFE0EAC21E7
:100D8800F76E0900F5CF64F00900F5CF65F00900AA
:100D9800F5CF66F00A00F5CF67F00FC360F010C317
:100DA80061F011C362F012C363F05CEC17F060C02D
:100DB8006DF061C06EF062C06FF063C070F00A0E33
:100DC8000001716F000E726F000E736F000E746F6A
:100DD80079EC18F000016D51300F03011B6F45D0FD
:100DE8000FC360F010C361F011C362F012C363F067
:100DF80019C3ABF01AC3ACF00001D890AB37AC37CD
:100E08000001D890AB37AC37CB0E0001AB25F66E9E
:100E1800FE0EAC21F76E0900F5CF64F00900F5CF9E
:100E280065F00900F5CF66F00A00F5CF67F05CECD5
:100E380017F0000160510F0B0301046F0301045107
:100E4800010DC50EF324F66EFF0EF420F76E0800B0
:100E5800F5CF1BF30AD003011751800B000AD8B451
:100E68007DD7800AD8B4BCD700D003011B5144EC0D
:100E78001CF000D003011907D8A01A07030119298B
:100E8800EAE103011A29D8B402D0E5D700D0A1C0FD
:100E9800F6FFA2C0F7FF0001A14BA22B0800F5CF77
:100EA8001BF303011B51D8B412005EEF00F01200CF
:100EB80012000001866F000186AF36D10001866DF1
:100EC80000018651800A120FD8A0B3D0000E00018D
:100ED800696F0A0E686F000E0001636F640E626F1F
:100EE800000186510001606F616B60BF61071FECF4
:100EF80018F060C066F061C067F0F4EC16F000010D
:100F0800D890663767370001D89066376737240E60
:100F180000016627000E000167233B0E00016625CD
:100F2800F66EFE0E00016721F76E0900F5CF73F02B
:100F38000900F5CF74F00900F5CF75F00A00F5CF78
:100F480076F0000E0001696F640E686F000186512B
:100F58000001666F676B66BF6707F4EC16F0000167
:100F6800D890663767370001D89066376737480EDC
:100F780000016627000E000167233B0E000166256D
:100F8800F66EFE0E00016721F76E0900F5CF6FF0CF
:100F98000900F5CF70F00900F5CF71F00A00F5CF20
:100FA80072F029EC13F06FC082F070C083F071C04A
:100FB80084F072C085F082C06FF083C070F084C086
:100FC80071F085C072F0000E0001636F0A0E626F47
:100FD800000186510001606F616B60BF61071FEC03
:100FE80018F00001D890603761370001D890603759
:100FF80061373B0E00016025F66EFE0E000161218F
:10100800F76E0900F5CF73F00900F5CF74F0090009
:10101800F5CF75F00A00F5CF76F029EC13F06FC024
:101028007EF070C07FF071C080F072C081F0120055
:1010380065D000018651800A750FD8A05FD0000ED8
:101048000001696F0A0E686F000186510001666F22
:10105800676B66BF6707F4EC16F00001D890663737
:1010680067370001D89066376737240E0001662776
:10107800000E000167233B0E00016625F66EFE0E8A
:1010880000016721F76E0900F5CF6FF00900F5CF71
:1010980070F00900F5CF71F00A00F5CF72F0000E7C
:1010A8000001636F0A0E626F000186510001606FD4
:1010B800616B60BF61071FEC18F00001D8906037C2
:1010C80061370001D890603761373B0E0001602519
:1010D800F66EFE0E00016121F76E0900F5CF73F080
:1010E8000900F5CF74F00900F5CF75F00A00F5CFC7
:1010F80076F029EC13F093D7120000D00001865146
:10110800040D3B0EF324F66EFE0EF420F76E090074
:10111800F5CF7EF00900F5CF7FF00900F5CF80F01C
:101128000A00F5CF81F0120000018651800A120FE3
:10113800D8A0B3D0000E0001696F0A0E686F000EC8
:101148000001636F640E626F000186510001606FD9
:10115800616B60BF61071FEC18F060C066F061C08A
:1011680067F0F4EC16F00001D89066376737000195
:10117800D89066376737240E00016627000E0001F5
:1011880067236F0E00016625F66EFE0E00016721CB
:10119800F76E0900F5CF73F00900F5CF74F0090078
:1011A800F5CF75F00A00F5CF76F0000E0001696FF3
:1011B800640E686F000186510001666F676B66BF39
:1011C8006707F4EC16F00001D8906637673700011E
:1011D800D89066376737480E00016627000E000171
:1011E80067236F0E00016625F66EFE0E000167216B
:1011F800F76E0900F5CF6FF00900F5CF70F0090020
:10120800F5CF71F00A00F5CF72F029EC13F06FC03A
:1012180082F070C083F071C084F072C085F082C023
:101228006FF083C070F084C071F085C072F0000E5A
:101238000001636F0A0E626F000186510001606F42
:10124800616B60BF61071FEC18F00001D890603730
:1012580061370001D890603761376F0E0001602553
:10126800F66EFE0E00016121F76E0900F5CF73F0EE
:101278000900F5CF74F00900F5CF75F00A00F5CF35
:1012880076F029EC13F06FC07EF070C07FF071C06B
:1012980080F072C081F0120065D000018651800A8A
:1012A800750FD8A05FD0000E0001696F0A0E686F35
:1012B800000186510001666F676B66BF6707F4EC33
:1012C80016F00001D890663767370001D890663766
:1012D8006737240E00016627000E000167236F0E92
:1012E80000016625F66EFE0E00016721F76E090003
:1012F800F5CF6FF00900F5CF70F00900F5CF71F068
:101308000A00F5CF72F0000E0001636F0A0E626FDB
:10131800000186510001606F616B60BF61071FECBF
:1013280018F00001D890603761370001D890603715
:1013380061376F0E00016025F66EFE0E0001612117
:10134800F76E0900F5CF73F00900F5CF74F00900C6
:10135800F5CF75F00A00F5CF76F029EC13F093D7A6
:10136800120000D000018651040D6F0EF324F66EB2
:10137800FE0EF420F76E0900F5CF7EF00900F5CFD8
:101388007FF00900F5CF80F00A00F5CF81F0120058
:101398001200CBEC18F00CEC1CF0000E2C6E000EBA
:1013A8002D6E000E2E6E000E2F6E000E0001B26F15
:1013B800000EB16F0001B2BF0AD00001B25106E1C0
:1013C800040E0001B15DD8B002D101D000D1C60E23
:1013D8000001B125D96E000E0001B221DA6EDF508E
:1013E800D8B4EAD0E60E0001A16FFF0E0001A26F8B
:1013F800B60E0001AF6F000E0001B06FD89000016B
:10140800B135D96E0001B235DA6ED890D936DA36F0
:101418000001AF51D9260001B051DA22DECFA3F086
:10142800DECFA4F0DECFA5F0DECFA6F056EC00F0BC
:101438002CC08DF02DC08EF02EC08FF02FC090F0F4
:10144800B60E0001AF6F000E0001B06FD89000011A
:10145800B135D96E0001B235DA6ED890D936DA36A0
:101468000001AF51D9260001B051DA22DECF91F048
:10147800DECF92F0DECF93F0DECF94F0C8EC0CF024
:101488008DC02CF08EC02DF08FC02EF090C02FF0A4
:10149800EDC060F0EEC061F0EFC062F0F0C063F044
:1014A800B60E0001AF6F000E0001B06FD8900001BA
:1014B800B135D96E0001B235DA6ED890D936DA3640
:1014C8000001AF51D9260001B051DA22DECF64F015
:1014D800DECF65F0DECF66F0DECF67F003EC16F006
:1014E8000001D8B01FD0B60E0001AF6F000E00018A
:1014F800B06FD8900001B135D96E0001B235DA6EFF
:10150800D890D936DA360001AF51D9260001B0514A
:10151800DA22DECFEDF0DECFEEF0DECFEFF0DECF79
:10152800F0F04AD0B60E0001AF6F000E0001B06FA8
:10153800D8900001B135D96E0001B235DA6ED89075
:10154800D936DA360001AF51D9260001B051DA2276
:10155800DECF60F0DECF61F0DECF62F0DECF63F089
:10156800F1C064F0F2C065F0F3C066F0F4C067F053
:1015780003EC16F00001D8B01FD0B60E0001AF6F13
:10158800000E0001B06FD8900001B135D96E00018E
:10159800B235DA6ED890D936DA360001AF51D9268D
:1015A8000001B051DA22DECFF1F0DECFF2F0DECF6B
:1015B800F3F0DECFF4F000D00001B14BB22B000104
:1015C800B2BF05D70001B25102E1FAD600D02CC053
:1015D8007EF02DC07FF02EC080F02FC081F0CAC0F1
:1015E8006AF0CBC06BF0A0EC1AF06AC082F06BC056
:1015F80083F06CC084F06DC085F0DBEC13F07EC026
:101608002CF07FC02DF080C02EF081C02FF0880E06
:101618000001A16FFF0E0001A26F2CC0A3F02DC026
:10162800A4F02EC0A5F02FC0A6F0000E0001A76FF1
:10163800000EA86F9C0EA96F420EAA6F56EC00F020
:10164800D60E0001A16FFF0E0001A26F56EC00F04C
:1016580012EC1AF00009D8B409D0F70E0001A16FF6
:10166800FF0E0001A26F56EC00F008D0ED0E00014D
:10167800A16FFF0E0001A26F56EC00F09E0E000154
:10168800A16FFF0E0001A26FEDC0A3F0EEC0A4F0A1
:10169800EFC0A5F0F0C0A6F0F1C0A7F0F2C0A8F026
:1016A800F3C0A9F0F4C0AAF056EC00F01200000153
:1016B8008A6F6D0E00018A65C5D0000E0001696F42
:1016C8000A0E686F000E0001636F640E626F8AC0B5
:1016D80060F00001616B1FEC18F060C066F061C03B
:1016E80067F0F4EC16F00001D89066376737000110
:1016F800D89066376737240E00016627000E000170
:1017080067233B0E00016625F66EFE0E0001672179
:10171800F76E0900F5CF73F00900F5CF74F00900F2
:10172800F5CF75F00A00F5CF76F0000E0001696F6D
:10173800640E686F8AC066F00001676BF4EC16F0FF
:101748000001D890663767370001D8906637673749
:10175800480E00016627000E000167233B0E0001BA
:101768006625F66EFE0E00016721F76E0900F5CFBB
:101778006FF00900F5CF70F00900F5CF71F00A009D
:10178800F5CF72F029EC13F06FC086F070C087F0C7
:1017980071C088F072C089F0000E0001636F0A0EF4
:1017A800626F8AC060F00001616B1FEC18F00001E5
:1017B800D890603761370001D890603761373B0EA9
:1017C80000016025F66EFE0E00016121F76E09002A
:1017D800F5CF73F00900F5CF74F00900F5CF75F077
:1017E8000A00F5CF76F086C06FF087C070F088C029
:1017F80071F089C072F029EC13F06FC082F070C0EC
:1018080083F071C084F072C085F082C06FF083C02D
:1018180070F084C071F085C072F0000E0001736F23
:10182800000E746F000E756F3F0E766F29EC13F083
:101838006FC07EF070C07FF071C080F072C081F020
:10184800120078D00A0E00018A6574D0000E0001DB
:10185800636F0A0E626F8AC060F00001616B1FEC53
:1018680018F00001D890603761370001D8906037D0
:1018780061373B0E00016025F66EFE0E0001612106
:10188800F76E0900F5CF73F00900F5CF74F0090081
:10189800F5CF75F00A00F5CF76F0000E0001696FFC
:1018A8000A0E686F8AC066F00001676BF4EC16F0E8
:1018B8000001D890663767370001D89066376737D8
:1018C800240E00016627000E000167233B0E00016D
:1018D8006625F66EFE0E00016721F76E0900F5CF4A
:1018E8006FF00900F5CF70F00900F5CF71F00A002C
:1018F800F5CF72F029EC13F06FC086F070C087F056
:1019080071C088F072C089F086C06FF087C070F02F
:1019180088C071F089C072F0000E0001736F000E6C
:10192800746F000E756F3F0E766F29EC13F080D739
:10193800120000D000018A51040D3B0EF324F66E0C
:10194800FE0EF420F76E0900F5CF6FF00900F5CF11
:1019580070F00900F5CF71F00A00F5CF72F0000EB3
:101968000001736F000E746F000E756F3F0E766F77
:1019780029EC13F06FC07EF070C07FF071C080F06A
:1019880072C081F01200120000018F3590350001FD
:10199800986F0001933594350001976F00019851B5
:1019A8000001D8B411D0000197510001985DD8B05A
:1019B80014D0000198510008000197250001956F87
:1019C800200E0001956509D091C08DF092C08EF06F
:1019D80093C08FF094C090F012000001975100015D
:1019E800D8B411D0000198510001975DD8B014D037
:1019F800000197510008000198250001956F200EFD
:101A08000001956509D08DC08DF08EC08EF08FC015
:101A18008FF090C090F01200060E0001966F000142
:101A280090AF03D00001968F00D0000194AF02D090
:101A38000001968D00018F8FFF0E00018D17FF0E9C
:101A48008E17FF0E8F17000E90170001938FFF0E51
:101A580000019117FF0E9217FF0E9317000E9417AF
:101A6800000197510001985DD8B02AD00001D890A4
:101A780091379237933794370001970700019851AF
:101A880000019719D8B414D00001960796C095F0B4
:101A9800070E00019517D8B40BD0E8D709D000017C
:101AA800D89090338F338E338D330001982B00D02C
:101AB8000001975100019819D8B432D0F0D730D02E
:101AC800000198510001975DD8B02AD00001D89044
:101AD8008D378E378F37903700019807000198515E
:101AE80000019719D8B414D00001960796C095F054
:101AF800070E00019517D8B40BD0E8D709D000011C
:101B0800D89094339333923391330001972B00D0BC
:101B18000001975100019819D8B402D0F0D700D02D
:101B2800000196AF11D0FF0E00018D1BFF0E8E1B1A
:101B3800FF0E8F1BFF0E901B010E00018D27000E5C
:101B48008E238F23902300D0000196AD11D0FF0E75
:101B58000001911BFF0E921BFF0E931BFF0E941B9F
:101B6800010E00019127000E92239323942300D0A5
:101B7800000E0001966F00018D51000191270001B0
:101B88008E510001922300018F510001932300011F
:101B9800905100019423000194AF14D0FF0E00016E
:101BA800911BFF0E921BFF0E931BFF0E941B010E41
:101BB80000019127000E922393239423010E000124
:101BC800966F00D091C060F092C061F093C062F04F
:101BD80094C063F098C064F096C065F0ABEC11F067
:101BE80060C08DF061C08EF062C08FF063C090F06D
:101BF80012001200EBEC1AF0550E63EC1BF0000E0D
:101C08000001AB6F070E0001AB6501D011D00001D8
:101C1800AB51010DF35000019925D96EF450000124
:101C28009A21DA6EDF5063EC1BF00001AB2BEAD788
:101C3800BE0E63EC1BF0000E0001AB6F080E000136
:101C4800AB6501D00FD00001AB51010D9E0EF324FE
:101C5800D96E000EF420DA6E2BEC1BF0DF6E00015B
:101C6800AB2BECD79FC09DF0070E00019D1700011C
:101C78009D51100DF3CF6AF0F4CF6BF0A0EC1AF081
:101C88006AC0A7F06BC0A8F06CC0A9F06DC0AAF03C
:101C98009EC09DF000019D3B0F0E9D1700019D51B8
:101CA80000016A6F6B6BA0EC1AF06AC08DF06BC014
:101CB8008EF06CC08FF06DC090F0A7C091F0A8C0F6
:101CC80092F0A9C093F0AAC094F0C8EC0CF08DC0B3
:101CD800A7F08EC0A8F08FC0A9F090C0AAF00001AC
:101CE8009F51800A7F0FD8A032D0000E0001736F79
:101CF800000E746F800E756F3D0E766F9EC09DF05E
:101D08000F0E00019D1700019D5100016A6F6B6B5A
:101D1800A0EC1AF06AC06FF06BC070F06CC071F084
:101D28006DC072F029EC13F06FC08DF070C08EF0AA
:101D380071C08FF072C090F0A7C091F0A8C092F067
:101D4800A9C093F0AAC094F0C8EC0CF031D0000EF2
:101D58000001736F000E746F800E756FBD0E766F85
:101D68009EC09DF00F0E00019D1700019D510001BE
:101D78006A6F6B6BA0EC1AF06AC06FF06BC070F002
:101D88006CC071F06DC072F029EC13F06FC08DF06B
:101D980070C08EF071C08FF072C090F0A7C091F043
:101DA800A8C092F0A9C093F0AAC094F0C8EC0CF0B7
:101DB8008DC0A7F08EC0A8F08FC0A9F090C0AAF07F
:101DC800000E0001826F000E836FA00E846F400E1C
:101DD800856F000E0001736F000E746F100E756F23
:101DE800410E766FA7C06FF0A8C070F0A9C071F05F
:101DF800AAC072F029EC13F06FC07EF070C07FF0BB
:101E080071C080F072C081F0DBEC13F07EC08DF001
:101E18007FC08EF080C08FF081C090F0000E00016E
:101E2800916F000E926F000E936F420E946FC8EC84
:101E38000CF08DC0A7F08EC0A8F08FC0A9F090C09C
:101E4800AAF0A7C099F0A8C09AF0A9C09BF0AAC0B0
:101E58009CF012001200010E00016A6F000E0001D2
:101E6800686F000E00016C6F010E00016B6F000EB1
:101E78000001666F000E376E3250D8A4B6D0EBEC76
:101E88001AF00009D8B408D0000E336E000E326E76
:101E9800000E346E000E1200F00E63EC1BF000D042
:101EA800B2EC1BF00001676FB2EC1BF00001656F2C
:101EB80000016705D8A407D000016505D8B483D010
:101EC80002D081D07BD00001655100016719D8B4D8
:101ED80003D067C069F02FD0335000016A5DD8B0D5
:101EE80013D000016C51010D240EF324D96E000E9D
:101EF800F420DA6EDF5000016B150009D8B40BD05E
:101F0800010E0001696F09D0335000016A19D8A485
:101F180002D0010EF6D7000EF4D700016951000176
:101F2800D8A409D06AC068F0090E0001686103D01E
:101F380068C034F000D000016905D8A40DD00001B4
:101F48006C51010D240EF324D96E000EF420DA6EC4
:101F580000016B51DF1212D000016B51FF0A000122
:101F6800646F00016C51010D240EF324D96E000E2C
:101F7800F420DA6E00016451DF1600D000016951C7
:101F880079EC1AF000016A2B0001D8906B37000138
:101F98006B510001D8A412D000016C51010D240E20
:101FA800F324D96E000EF420DA6EDF50F8EC1BF043
:101FB80000016C2B010E00016B6F00D0070E0001B1
:101FC8006C656ED700D0400E00016A650ED03750A0
:101FD800D8A40BD068C033F03350D8A402D0010E77
:101FE800326E010E0001666F00D0000166510001DB
:101FF800D8B403D02450D8A409D0000E336E000EF4
:10200800326E000E346E000E0001666F00016651DC
:102018001200120062C068F00001696B6A6B00016F
:1020280061350001683701E36981000168510001E9
:10203800706F00017051D8A40AD0000E0001606FC3
:10204800000E616F000E626F000E636F120066C0B3
:1020580068F00001696B6A6B00016535000168373B
:1020680001E369810001685100016F6F00016F5140
:10207800D8A40AD0000E0001606F000E616F000E38
:10208800626F000E636F12000001618FFF0E000186
:102098006017FF0E00016117000E000162170001B2
:1020A800658FFF0E00016417FF0E00016517000E13
:1020B80000016617000E00016B6F000E6C6F000EBA
:1020C8006D6F000E6E6F7F0E0001705F00016F5123
:1020D800980F0001705F180E00016F6F0001D89013
:1020E8006B376C376D376E37000164510001605DE6
:1020F80000016551000161590001665100016259F2
:10210800D8A00ED0000164510001605F0001655144
:102118000001615B000166510001625B00016B8197
:102128000001D89060376137623700016F2FD6D72A
:1021380000D0000170AF1BD000017051800A970FCA
:10214800D8B00BD0000E0001606F000E616F000E5A
:10215800626F000E636F120000D00001D8906E33DA
:102168006D336C336B330001703FF7D71DD0170EFA
:102178000001706514D0000E0001606F000E616FE1
:10218800000E626F000E636F120009D00001D89034
:102198006B376C376D376E370001700700D0000160
:1021A80070510001D8A4F2D76BC060F06CC061F028
:1021B8006DC062F06EC063F01200000162356335D5
:1021C80000016D6F00016D51D8A40AD0000E000106
:1021D800606F000E616F000E626F000E636F120079
:1021E80000016635673500016C6F00016C51D8A499
:1021F8000AD0000E0001606F000E616F000E626F62
:10220800000E636F12000001628FFF0E000160175D
:10221800FF0E6117FF0E6217000E63170001668F2D
:10222800FF0E00016417FF0E6517FF0E6617000EFC
:102238006717000E0001686F000E696F000E6A6F65
:10224800000E6B6F7F0E00016D5F00016C51A00FD7
:1022580000016D5F200E00016C6F00D00001D89066
:10226800683769376A376B37000164510001605D70
:102278000001655100016159000166510001625970
:102288000001675100016359D8A013D000016451BF
:102298000001605F000165510001615B000166514A
:1022A8000001625B000167510001635B0001688106
:1022B80000D00001D890603761376237633700017A
:1022C8006C2FCCD700D000016DAF1BD000016D5131
:1022D800800A9F0FD8B00BD0000E0001606F000E6F
:1022E800616F000E626F000E636F120000D0000174
:1022F800D8906B336A336933683300016D3FF7D781
:102308001DD01F0E00016D6514D0000E0001606F16
:10231800000E616F000E626F000E636F120009D02D
:102328000001D890683769376A376B3700016D0745
:1023380000D000016D510001D8A4F2D768C060F048
:1023480069C061F06AC062F06BC063F012000001FE
:1023580064510001D8B40AD0000160510001611134
:102368000001621100016311D8A414D0000E00010D
:10237800606F000E616F000E626F000E636F1200D7
:1023880009D00001642B0001D890633362336133B4
:10239800603300D0000E000160150001666F000E6A
:1023A800000161150001676F000E00016215000150
:1023B800686FFE0E000163150001696F0001665128
:1023C800000167110001681100016911D8B411D02A
:1023D800D8D70FD00001642B010E00016027000E32
:1023E8006123622363230001D8906333623361332E
:1023F8006033000E000160150001666F000E0001D9
:1024080061150001676F000E000162150001686F19
:10241800FF0E000163150001696F0001665100019C
:1024280067110001681100016911D8B40BD0D2D727
:1024380009D0000164070001D8906037613762371E
:10244800633700D0000162BF05D0020E000164614D
:10245800F0D700D0000164B109D0FF0E0001601769
:10246800FF0E61177F0E6217FF0E63170001D890E9
:10247800643364C066F00001676B686B696B66C0A3
:1024880069F00001686B676B666B000166510001BB
:1024980060130001675100016113000168510001D8
:1024A80062130001695100016313000165510001C5
:1024B800D8B403D00001638F00D060C060F061C061
:1024C80061F062C062F063C063F012001200000E97
:1024D8000001B26F000E0001B36F000E0001B46F6F
:1024E800000E0001B46F0001B451800A7C0FD8B00F
:1024F80010D001D00ED00001B451010DC60EF32446
:10250800D96E000EF420DA6E000EDF6E0001B42BD7
:10251800EAD7190E0001A16FFF0E0001A26F56EC59
:1025280000F088EC1CF085D00001B351010DC60EF7
:10253800F324D96E000EF420DA6E010EDF6EFB0E66
:102548000001A16FFF0E0001A26FB3C0A3F000014C
:10255800A46B56EC00F0070E0001B46F0001B4BF85
:1025680054D001D052D00001B451010D240EF324EF
:10257800D96E000EF420DA6E0001B351080DCD0EAD
:102588000001AF6F000E0001B06FF3500001AF27DC
:10259800F4500001B0230001B451010DF3500001C3
:1025A800AF25E16EF4500001B021E26EDFCFE7FF06
:1025B800F20E0001A16FFF0E0001A26F0001B351DE
:1025C800080DCD0E0001AF6F000E0001B06FF35083
:1025D8000001AF27F4500001B0230001B451010DF0
:1025E800F3500001AF25D96EF4500001B021DA6E26
:1025F800DF500001B16F0001B1510001A36FA46B5E
:1026080056EC00F00001B407A9D7160E0001A16F1F
:10261800FF0E0001A26F56EC00F00001B32B040E70
:102628000001B319D8B40DD002D00BD005D0BFEC3F
:102638001CF00001B26F00D00001B2510001D8A413
:1026480073D70001B35112001200000171357235C1
:102658000001776F00017751D8A40AD0000E00015D
:102668006F6F000E706F000E716F000E726F1200A8
:1026780000017535763500017D6F00017D51D8A4C4
:102688000AD0000E00016F6F000E706F000E716FA0
:10269800000E726F120000017D517B0F0001772739
:1026A80072C07DF00001765100017D1B800E000193
:1026B8007D170001718F0001758FFF0E00017317E0
:1026C800FF0E7417FF0E7517000E7617000E000127
:1026D800786F000E796F000E7A6F000E7B6F070E11
:1026E80000017C6F00D000016FA111D0000173516F
:1026F8000001782700017451000179230001755108
:1027080000017A230001765100017B2300D00001EB
:10271800D8907233713370336F330001D8907337A8
:1027280074377537763700017C2FDDD700D0110E4E
:1027380000017C6F00D000016FA111D0000173511E
:1027480000017827000174510001792300017551B7
:1027580000017A230001765100017B2300D000019B
:10276800D8907233713370336F330001D8907B3354
:102778007A337933783300017C2FDDD700D078C0E5
:1027880060F079C061F07AC062F07BC063F077C016
:1027980064F07DC065F0ABEC11F060C06FF061C013
:1027A80070F062C071F063C072F012001200000194
:1027B8008035813500018B6F00018B51D8A40AD078
:1027C800000E00017E6F000E7F6F000E806F000EFE
:1027D800816F120000018435853500018C6F00017E
:1027E8008C51D8A40AD0000E00017E6F000E7F6FB6
:1027F800000E806F000E816F120000018C51890F4E
:1028080000018B5F81C08CF00001855100018C1B99
:10281800800E00018C170001808FFF0E00017E17CB
:10282800FF0E7F17FF0E8017000E81170001848F9F
:10283800FF0E00018217FF0E8317FF0E8417000E8C
:102848008517200E00018A6F00D00001D8908637C6
:102858008737883789370001825100017E5D000182
:10286800835100017F590001845100018059000102
:10287800855100018159D8A013D00001825100016F
:102888007E5F0001835100017F5B000184510001DC
:10289800805B000185510001815B0001868100D0C9
:1028A8000001D8907E377F378037813700018A2F23
:1028B800CCD700D086C060F087C061F088C062F0D5
:1028C80089C063F08BC064F08CC065F0ABEC11F08C
:1028D80060C07EF061C07FF062C080F063C081F0AC
:1028E80012001200000189358A350001906F00013D
:1028F8009051D8A40AD0000E0001876F000E886F8F
:10290800000E896F000E8A6F120087C08BF088C096
:102918008CF089C08DF08AC08EF0200E06D00001A0
:10292800D8908E338D338C338B33E82EF8D7000153
:102938008B5100018F6F0001898FFF0E00018717EF
:10294800FF0E8817FF0E8917000E8A17960E0001D2
:10295800905F000190AF1BD000019051800A970F43
:10296800D8B00BD0000E0001876F000E886F000EE4
:10297800896F000E8A6F120000D00001D8908A3348
:102988008933883387330001903FF7D71FD01F0E54
:102998000001906514D0000E0001876F000E886F4B
:1029A800000E896F000E8A6F120009D00001D890BE
:1029B8008737883789378A370001900700D00001A8
:1029C80090510001D8B402D0F1D700D000018F5146
:1029D8000001D8B40AD000018A1F891F881F876D9B
:1029E800000E882389238A2300D087C087F088C0F7
:1029F80088F089C089F08AC08AF012001200005E4F
:102A0800BCE2613FDD83C29C7E20A3FD1F419DC3C4
:102A1800217FFCA2401E5F01E3BD3E6082DC237D76
:102A28009FC1421CFEA0E1BF5D0380DE3C62BEE0A8
:102A3800025CDF81633D7C22C09E1D43A1FF4618D6
:102A4800FAA427799BC584DA3866E5BB5907DB8584
:102A58006739BAE406581947A5FB7826C49A653B36
:102A6800D987045AB8E6A7F91B45C6987A24F8A668
:102A7800441A99C7257B3A6486D85B05E7B98CD296
:102A8800306EEDB3510F4E10F2AC2F7193CD114F44
:102A9800ADF3702ECC92D38D6F31B2EC0E50AFF1F6
:102AA800134DCE90722C6D33D18F0C52B0EE326C28
:102AB8008ED0530DEFB1F0AE4C1291CF2D73CA9456
:102AC8007628ABF517490856B4EA6937D58B570904
:102AD800EBB536688AD495CB2977F4AA4816E9B7B6
:102AE800550B88D6346A2B7597C94A14F6A8742AE8
:102AF800C896154BA9F7B6E80A54D7896B35005E16
:102B0800BCE2613FDD83C29C7E20A3FD1F419DC3C3
:102B1800217FFCA2401E5F01E3BD3E6082DC237D75
:102B28009FC1421CFEA0E1BF5D0380DE3C62BEE0A7
:102B3800025CDF81633D7C22C09E1D43A1FF4618D5
:102B4800FAA427799BC584DA3866E5BB5907DB8583
:102B58006739BAE406581947A5FB7826C49A653B35
:102B6800D987045AB8E6A7F91B45C6987A24F8A667
:102B7800441A99C7257B3A6486D85B05E7B98CD295
:102B8800306EEDB3510F4E10F2AC2F7193CD114F43
:102B9800ADF3702ECC92D38D6F31B2EC0E50AFF1F5
:102BA800134DCE90722C6D33D18F0C52B0EE326C27
:102BB8008ED0530DEFB1F0AE4C1291CF2D73CA9455
:102BC8007628ABF517490856B4EA6937D58B570903
:102BD800EBB536688AD495CB2977F4AA4816E9B7B5
:102BE800550B88D6346A2B7597C94A14F6A8742AE7
:102BF800C896154BA9F7B6E80A54D7896B35000172
:102C080063AF27D060C068F061C069F062C06AF045
:102C180063C06BF00001681F691F6A1F6B1F682B78
:102C2800000E69236A236B23000E0001682500014A
:102C3800606F000E000169210001616F000E000144
:102C48006A210001626F800E00016B210001636F31
:102C580000D0000167AF26D064C068F065C069F095
:102C680066C06AF067C06BF00001681F691F6A1FC1
:102C78006B1F682B000E69236A236B23000E00016B
:102C880068250001646F000E000169210001656F6D
:102C9800000E00016A210001666F800E00016B21A1
:102CA8000001676F000E0001601B000E611B000E23
:102CB800621B800E631B000E0001641B000E651B67
:102CC800000E661B800E671B000164510001605DE9
:102CD8000001655100016159000166510001625906
:102CE8000001675100016359D8B002D0D890120092
:102CF800D88012001200000E0001CB6F000ECA6FC0
:102D0800000E0001ED6F000EEE6F7A0EEF6FC40E2D
:102D1800F06F000E0001F16F000EF26F7A0EF36F84
:102D2800440EF46F7DEC1CF058EC19F00CEC1CF020
:102D3800EB0E0001A16FFE0E0001A26F56EC00F031
:102D48006BEC12F00001B56F0001B5510001CA6FBC
:102D5800CB6BB20E0001A16FFF0E0001A26FCAC0BB
:102D6800A3F0CBC0A4F056EC00F000D00001CC05D5
:102D7800D8A409D0470E0001A16FFF0E0001A26F71
:102D880056EC00F00DD0020E0001CC19D8A40CD0DE
:102D9800680E0001A16FFF0E0001A26F56EC00F053
:102DA800000E0001CC6F00D0140E3B18D8A4DED75B
:102DB8000001CA510001CB11D8B403D0CDEC09F001
:102DC8000AD06BEC12F00001B56F0001B55100019B
:102DD800CA6FCB6B00D0000E3B6EC8D754EF00F023
:102DE800000E00016B6F000169AF09D00001686D2A
:102DF800691FD8B0692B010E00016B6F00D000016C
:102E080067AF09D00001666D671FD8B0672B010E48
:102E180000016B1B00D0000E00016D6F000E6C6F7F
:102E28000001685100016911D8B431D0010E0001C8
:102E38006A6F07D00001D8906837693700016A2B9C
:102E480000D0000169BF02D0F5D700D00001D890AA
:102E58006C376D37000168510001665D00016951EA
:102E680000016759D8A00BD0000168510001665FC6
:102E7800000169510001675B00016C8100D000010D
:102E8800D8906933683300016A2FE0D700D0000179
:102E98006B510001D8B406D000016C6D6D1FD8B01D
:102EA8006D2B00D06CC066F06DC067F01200120088
:102EB800000E0001686F000E696F000E6A6F000E49
:102EC8006B6F00016451000165110001661100017A
:102ED8006711D8B447D0010E00016C6F09D000010A
:102EE800D890643765376637673700016C2B00D098
:102EF800000167BF02D0F3D700D00001D89068372F
:102F080069376A376B37000164510001605D000161
:102F180065510001615900016651000162590001C3
:102F2800675100016359D8A013D000016451000112
:102F3800605F000165510001615B0001665100019D
:102F4800625B000167510001635B0001688100D08A
:102F58000001D890673366336533643300016C2F02
:102F6800CCD700D068C060F069C061F06AC062F078
:102F78006BC063F01200EACF19F0E1CF1AF0E2CF8C
:102F88001BF0D9CF1CF0DACF1DF0F3CF1EF0F4CF31
:102F98001FF0F6CF20F0F7CF21F0F8CF22F0F5CFD1
:102FA80023F09EAA06D09E9A010E396E55EC1CF0AD
:102FB80025D0A4AA07D0A49A010E3A6E32EC1CF0D0
:102FC800386E1CD0F2A40DD0F2948CB407D0800EC9
:102FD800136E000E126EAEEC1CF000D0C6EC1CF0A6
:102FE8000DD0A1A207D0A192140E3B18D8B406D0D8
:102FF8003B2A04D0010E0001CC6F00D023C0F5FF9E
:1030080022C0F8FF21C0F7FF20C0F6FF1FC0F4FF61
:103018001EC0F3FF1DC0DAFF1CC0D9FF1BC0E2FFB2
:103028001AC0E1FF19C0EAFF18C0E9FF17C0FBFF8B
:1030380016C0FAFF1100000E0001656F000161AFB4
:1030480009D00001606D611FD8B0612B010E00012D
:10305800656F00D0000163AF06D00001626D631F89
:10306800D8B0632B00D00001625100016311D8B4BD
:103078002BD0010E0001646F07D00001D890623791
:1030880063370001642B00D0000163BF02D0F5D77D
:1030980000D0000162510001605D00016351000130
:1030A8006159D8A009D0000162510001605F000198
:1030B80063510001615B00D00001D8906333623333
:1030C8000001642FE6D700D0000165510001D8B493
:1030D80006D00001606D611FD8B0612B00D060C0C0
:1030E80060F061C061F0120012000001715100012E
:1030F80072110001731100017411D8B43FD0010E90
:103108000001756F09D00001D89071377237733795
:1031180074370001752B00D0000174BF02D0F3D7BB
:1031280000D00001715100016D5D00017251000174
:103138006E590001735100016F590001745100016B
:103148007059D8A011D00001715100016D5F0001C4
:10315800725100016E5B0001735100016F5B000149
:1031680074510001705B00D00001D8907433733340
:10317800723371330001752FD4D700D06DC06DF054
:103188006EC06EF06FC06FF070C070F01200000E6D
:103198000001AC6F000E0001AD6FCAEC1BF0000E11
:1031A8000001AD6F030E0001AD6502D012001200E0
:1031B8000001AD51010DC60EF324D96E000EF420A6
:1031C800DA6EDF50D8B423D00001AD51080DCD0E12
:1031D800F3240001996F000EF42000019A6FFEECB1
:1031E8000DF00001AD51040DB60EF324D96E000E9A
:1031F800F420DA6E000199C0DEFF00019AC0DEFFFC
:1032080000019BC0DEFF00019CC0DEFF00D0000172
:10321800AD2B030E0001AD65CBD71200120000EEF6
:10322800B6F0370EEE6AE806FDE100EE24F0180E5F
:10323800EE6AE806FDE1060EF66E2B0EF76E000E3E
:10324800F86E02EE00F011EE00F00900F5CFEEFF87
:10325800E550E150FAE1E250F8E1060EF66E2A0E6A
:10326800F76E000EF86E01EE00F011EE00F00900A6
:10327800F5CFEEFFE550E150FAE1E250F8E1860EB5
:10328800F66E390EF76E000EF86E00EE3CF010EE9A
:1032980005F00900F5CFEEFFE550E150FAE1000E28
:1032A800F86E00017FEF16F0000E0001CC6F000EE3
:1032B800396E000E3A6E000E3B6E95949498000E8F
:1032C8000001616F000E606FA5EC1CF0970E1FECFB
:1032D8001CF0000E0001616F000E606F9CEC1CF08A
:1032E8007F0E0001606F9F0EC6EC1AF0949C948EBE
:1032F800000E0001616F220E606F7C0ED6EC19F093
:10330800959C958E000E0001616F220E606F7C0EF9
:1033180098EC19F09F8A9E8A9D8AA58AA48AA38A16
:10332800D08EF28CF28E12000001626F000EBA6E1F
:10333800000EA66E000162A102D0BA8800D000017A
:1033480062A303D0BA8CA68C00D0000162A502D07B
:10335800BA8E00D0000162A702D0A68802D0A68A41
:1033680000D0000162A902D0BA8402D0BA9400D079
:10337800000162AB02D0A68600D0000162AD02D087
:10338800A38A02D0A39A00D0000162AF02D0A3881A
:1033980001D0A39860C07BFF000161517C6EBA8A9E
:1033A800A68E12000001626F000EAC6E000EAB6EAE
:1033B800000162A102D0AC8800D0000162A303D052
:1033C800AC8CAB8C00D0000162A502D0AC8E00D0D2
:1033D800000162A702D0AB8802D0AB8A00D00001FE
:1033E80062A902D0AC8400D0000162AB02D0AB86E7
:1033F80000D0000162AD02D09D8A02D09D9A00D013
:10340800000162AF02D09D8801D09D9860C0AFFFD7
:10341800000161517D6EAC8AAB8E12002CC060F049
:103428002DC061F02EC062F02FC063F0000E0001C5
:10343800646F000E656F9B0E666F420E676F03EC3C
:1034480016F00001D8B002D08B8818D0000E000109
:10345800606F000E616F9D0E626F420E636F2CC02D
:1034680064F02DC065F02EC066F02FC067F003EC45
:1034780016F00001D8B002D08B9800D08BA802D0EB
:10348800010E1200000E1200120000019D510001F1
:103498009E1100019F110001A011D8B40AD0000E9E
:1034A80000019D1B000E9E1B000E9F1B800EA01B83
:1034B80000D099C08DF09AC08EF09BC08FF09CC050
:1034C80090F09DC091F09EC092F09FC093F0A0C074
:1034D80094F0C8EC0CF08DC099F08EC09AF08FC0B3
:1034E8009BF090C09CF0120012000001616F000177
:1034F80061510001D8B410D0000E92EC1CF0200EDF
:10350800E82EFED7010E92EC1CF0CC0E00D0E82E6F
:10351800FDD700D000D01200000E92EC1CF0F00E87
:1035280000F0E82EFDD7010E92EC1CF0350EE82EC7
:10353800FED700F012001200000E00016E6F0001AD
:103548006BAF08D000016A6D6B1FD8B06B2B000100
:103558006E2B00D06AC060F06BC061F00001626B36
:10356800636B960E0001646F6EC065F0ABEC11F0F2
:1035780060C06AF061C06BF062C06CF063C06DF04F
:10358800120012000001626F00016051F30BB06E6F
:1035980062C061F07F0E000161170001D8906135AB
:1035A800B16E000EB36E000EB26EA192A190000132
:1035B80062AF02D0A08201D0A092000160A502D023
:1035C800A08001D0A090B0BEB086B1801200000EDD
:1035D80092EC1CF00F0E0001616F200EE82EFED752
:1035E800612FFCD7010E92EC1CF0E00E00D0E82E03
:1035F800FDD7B7EC1CF00001626F0F0E0001616F80
:10360800200EE82EFED7612FFCD700016251120070
:1036180012000001605100016111000162110001F6
:103628006311D8B40AD0000E0001601B000E611BA4
:10363800000E621B800E631B00D060C060F061C08A
:1036480061F062C062F063C063F012001200000E05
:103658000001626F000E0001636F070E00016365D1
:1036680001D00DD00001D8906233B2EC1BF00009F4
:10367800D8B402D00001628F0001632BEED700019D
:103688006251120012000001605100016203F3CF81
:1036980064F0F4CF65F00001605100016303F3505A
:1036A800000165270001615100016203F350000128
:1036B800652764C060F065C061F012001200000167
:1036C800626F000E0001636F070E0001636502D090
:1036D8001200120000016251010B79EC1AF000018E
:1036E800D89062330001632B070E00016365F2D79F
:1036F80012001200150E0001646FC10EE82EFED7ED
:10370800642FFCD700F000016007000E615B625B6C
:10371800635B000160510001611100016211000149
:103728006311D8A4E7D712006AC060F06BC061F0DB
:103738006CC062F06DC063F0960E0001646F000EFD
:103748000001656FABEC11F060C06AF061C06BF00E
:1037580062C06CF063C06DF012001200000E92ECB3
:103768001CF0200EE82EFED7010E92EC1CF0300E55
:10377800E82EFED7B7EC1CF00001616FDC0E00F0FC
:10378800E82EFDD70001615112001200EBEC1AF08F
:10379800CC0E63EC1BF0010E92EC1CF0440E63ECB3
:1037A8001BF0D00E0001606F070E616F000E626F94
:1037B800000E636F7EEC1BF012000001626F000EBA
:1037C8000001616F3A0E0001626108D02F0E0001FE
:1037D800626504D0010E0001616F00D061C060F025
:1037E80000016031120012000001626F37500001C1
:1037F80062190001606F616B000E00016025D96ECF
:10380800010E00016121DA6EDF50376E12001200DE
:103818003FC061F040C062F000D0BAA2FED70001FC
:10382800615165EC1CF000D0BAA2FED700016251CC
:1038380065EC1CF012000001606F000160517F0B05
:10384800D56E000ED76E000ED66EF294000160AFF2
:1038580002D0F28A01D0F29AD58E1200F20E3616F4
:10386800A6AC05D03690A6A002D0368000D0A6B46B
:103878003684A6B236867ACF12F0125012001200A1
:103888000001616F00D0BAA2FED70001615165EC5A
:103898001CF000D0ACA2FED70001615171EC1CF005
:1038A8001200F20E3516ABAC05D03590ABA002D0A5
:1038B800358000D0ABB43584ABB23586AECF12F0CC
:1038C80012000001606FBAAC05D0BA9036A202D0DF
:1038D800BA8000D060C079FF12000001606FACAC04
:1038E80005D0AC9035A202D0AC8000D060C0ADFF4E
:1038F8001200F00ED36E00D0D3A4FED7C00E9B6E7C
:1039080000D0D3A4FED71200000E336E000E326E24
:10391800000E346E2FEC0FF0120012000001606FE1
:103928009496000160B102D08B9601D08B8612006C
:1039380060C062F061C063F063C0B3FF62C0B2FFF1
:10394800120060C062F061C063F063C0D7FF62C05C
:10395800D6FF120012C014F013C015F015C0D7FF1F
:1039680014C0D6FF1200948682A602D0010E12005F
:10397800000E120012002FEC0FF012001200FE3998
:0839880008FE58008C741200C7
:10FE3A00000000803FCDCCCC3D0AD7233C6F128313
:10FE4A003A17B7D138ACC52737BD37863595BFD6EF
:10FE5A003377CC2B325F708930FFE6DB2E08E53C26
:10FE6A001E6042A20D0000803F000020410000C831
:10FE7A004200007A4400401C460050C347002474E4
:10FE8A00498096184B20BCBE4C286B6E4EF9021561
:10FE9A0050EC78AD60CAF24971010000000A000016
:10FEAA000064000000E803000010270000A086019B
:10FEBA000040420F008096980000E1F50500CA9ABA
:10FECA003B010000001000000000010000001000CB
:10FEDA000000000100000010000000000100000006
:10FEEA00100D0A0D0A4F7363696C6C61746F72208E
:10FEFA00616E64205065726970686572616C732006
:10FF0A00696E697469616C697A6564210D0A0049D0
:10FF1A006E69745F53656E736F727328293A204352
:10FF2A006865636B696E6720666F72204453313867
:10FF3A00323020446576696365730D0A0041206892
:10FF4A00696768207072696F7269747920495251C1
:10FF5A00207761732069676E6F7265640A004120B9
:10FF6A006C6F77207072696F726974792049525187
:10FF7A00207761732069676E6F7265640A00417643
:10FF8A00672025322E316620486F6C642025322E78
:10FF9A0031660A004D61782025322E3166204D697E
:10FFAA006E2025322E316600466F756E64202564F8
:10FFBA002073656E736F72730D0A003031323334F9
:10FFCA0035363738394142434445460048656174FD
:10FFDA006572205374617475733A200025322E318C
:10FFEA006620004F46460A0025303258004F4E0A16
:06FFFA0000256420000058
:020000040020DA
:08000000FFFFFFFFFFFFFFFF00
:020000040030CA
:0E0000001D187F7FFF8991FF0FC00FE00F409A
:00000001FF
