:0400000088EF00F095
:10000800FACF19F0FBCF1AF0E9CF1BF0B0EF18F0D8
:10001800D8CF03F0E8CF04F0E0CF05F0FACF06F030
:10002800FBCF07F0E9CF08F0EACF09F0E1CF0AF0FB
:10003800E2CF0BF0D9CF0CF0DACF0DF0F3CF0EF002
:10004800F4CF0FF0F6CF10F0F7CF11F0F8CF12F091
:10005800F5CF13F09EAC31D09E9C3B503B24146EE0
:100068001450010D270EF324D96E000EF420DA6E19
:10007800C4CFDFFF1450016E026A010E0126000E84
:100088000222270E0124D96E000E0220DA6EC3CF99
:10009800DFFF050E3B183C10D8A407D0010EC26E36
:1000A800000E3C6E000E3B6E06D0C250040FC26EAE
:1000B8003B4A3C2A00D0C28204D0020E0001F36FF2
:1000C80000D013C0F5FF12C0F8FF11C0F7FF10C031
:1000D800F6FF0FC0F4FF0EC0F3FF0DC0DAFF0CC02F
:1000E800D9FF0BC0E2FF0AC0E1FF09C0EAFF08C060
:1000F800E9FF07C0FBFF06C0FAFF05C0E0FF04C028
:10010800E8FF03C0D8FF1000FAEF1AF0D5EF0AF0A5
:10011800250E0001C519D8B43CD0000120EE02F02C
:100128009F51D926A051DA22DE50DE10D8B41AD059
:10013800000120EE02F09F51D926A051DA22DECF2D
:10014800A5F0DDCFA6F002D8D5EF0AF00500FA6ECB
:100158000001A551FD6EA651FE6EFF6AFA5000011E
:10016800C55112009FC0D9FFA0C0DAFFDECFA5F0AD
:10017800DDCFA6F0A5C0D9FFA6C0DAFFC5C0DFFF56
:100188009FC0D9FFA0C0DAFFDE2A000EDD22D5EF1E
:100198000AF0000E0001C46F000EC36F000E0001CC
:1001A800BF6F000EBE6F07D00001BE850001A14BD6
:1001B800A22B01D00CD0A1C0F6FFA2C0F7FFF86AAD
:1001C8000800F550300AD8B4EFD701D0F4D7A1C051
:1001D800F6FFA2C0F7FFF86A0800F5509BEC1CF088
:1001E800D8A069D1000E0001C46F000EC36F00D003
:1001F800C3C06EF0C4C06FF0000E0001716F0A0E2C
:10020800706F31EC1CF06EC0C3F06FC0C4F0D00E3C
:100218000001A56FFF0E0001A66FA1C0F6FFA2C0E6
:10022800F7FFF86A0800F5500001A76FA86B0001F6
:10023800A5510001A7270001A6510001A82300012C
:10024800A7510001C3270001A8510001C4230001E0
:10025800A14BA22BA1C0F6FFA2C0F7FFF86A0800C5
:10026800F5509BEC1CF0D8A026D1C2D724D1E7EFDB
:100278000AF00001BE891FD10001BF8541D1A3C08A
:10028800D9FFA4C0DAFFDFCFA5F0020EDE26DFCF4C
:10029800A6F0000EDD22A5C0D9FFA6C0DAFFDECF8A
:1002A800B0F0DDCFB1F00001B0510001B111D8A418
:1002B80007D0F70E0001B06FFF0E0001B16F00D03C
:1002C800000E0001AF6F000EAE6F04D00001AE4B00
:1002D800AF2B00D00001AE510001B0250001A56F81
:1002E8000001AF510001B1210001A66FA5C0F6FFC2
:1002F800A6C0F7FF000EF86E0E0EF76403D00800D4
:10030800F55005D0F6CFE1FFF7CFE2FFE75000093F
:10031800D8A4DCD70001C3510001AE5D0001C4516F
:100328000001AF59D8B009D00001AE510001C35F38
:100338000001AF510001C45B3FD0000E0001C46F43
:10034800000EC36F39D0000120EE02F09F51D9266C
:10035800A051DA22DE50DE10D8B418D0000120EE09
:1003680002F09F51D926A051DA22DECFA5F0DDCFC9
:10037800A6F001D821D00500FA6E0001A551FD6E46
:10038800A651FE6EFF6AFA50200E12009FC0D9FFD8
:10039800A0C0DAFFDECFA5F0DDCFA6F0A5C0D9FF5B
:1003A800A6C0DAFF200EDF6E9FC0D9FFA0C0DAFF1B
:1003B800DE2A000EDD2200D00001C307D8A0C40742
:1003C8000001C329C0E10001C429D8B462D0BBD759
:1003D80060D0000120EE02F09F51D926A051DA2208
:1003E800DE50DE10D8B42CD0000120EE02F09F5170
:1003F800D926A051DA22DECFA5F0DDCFA6F001D8AC
:100408001BD00500FA6E0001A551FD6EA651FE6EC7
:10041800FF6AFA50B0C0F6FFB1C0F7FF000EF86EE1
:100428000E0EF76403D00800F55005D0F6CFE1FFB3
:10043800F7CFE2FFE75012000001B04BB12B29D0F3
:10044800B0C0F6FFB1C0F7FF000EF86E9FC0D9FF2D
:10045800A0C0DAFFDECFA5F0DDCFA6F0A5C0D9FF9A
:10046800A6C0DAFF0E0EF76403D00800F55005D0D9
:10047800F6CFE1FFF7CFE2FFE750DF6E0001B04BA8
:10048800B12B9FC0D9FFA0C0DAFFDE2A000EDD2203
:1004980000D00001AE07D8A0AF070001AE2999E14E
:1004A8000001AF29D8B4D5EF0AF093D7D5EF0AF0F9
:1004B8000001BE8D25D0A1C0F6FFA2C0F7FF000144
:1004C800A14BA22BF86A0800F5CFC5F00001C55171
:1004D800000AD8B4E7EF0AF0640AD8B411D0020AC7
:1004E800D8B4CAD60F0AD8B40BD0050AD8B4C1D626
:1004F8001F0AD8B4C4D6060AD8B4DAD7D5EF0AF09A
:10050800070E0001BF15D8B42BEF08F0000E00014C
:10051800B36F060EB26FA3C0D9FFA4C0DAFFDFCF56
:10052800A5F0030EDE26DFCFA6F0000EDD22A5C063
:10053800D9FFA6C0DAFFDECFC0F0DECFC1F0DDCF35
:10054800C2F00001C2AF12D0C0C060F0C1C061F0FB
:10055800C2C062F083EC1CF060C0C0F061C0C1F0A2
:1005680062C0C2F0030E0001BE1300D0000E0001ED
:10057800B96F000EB86F0001C0510001C111000130
:10058800C211D8B49DD0820E0001A56FFF0E0001E4
:10059800A66FC0C0A7F0C1C0A8F0C2C0A9F0C3C070
:1005A800AAF0100E06D00001D890AA33A933A833B8
:1005B800A733E82EF8D70001A7510001A5250001AF
:1005C800B86F000E0001A6210001B96F0001B8073D
:1005D800D8A0B907B8C06EF0B9C06FF0000E00011E
:1005E800716F030E706F31EC1CF06EC0B8F06FC005
:1005F800B9F0B8C066F0B9C067F0000E0001696FC5
:100608000A0E686F24EC17F066C0B8F067C0B9F03E
:100618000001B9AF05D00001B807D8A0B90700D0CC
:100628000001B8510008EEEC0AF083C0BAF084C0AB
:10063800BBF085C0BCF0BAC074F0BBC075F0BCC0DC
:1006480076F0C0C077F0C1C078F0C2C079F0E9ECAC
:1006580013F074C0BAF075C0BBF076C0BCF0BAC075
:1006680060F0BBC061F0BCC062F0000E0001636FB7
:10067800800E0001646F3F0E0001656F8CEC17F06F
:100688000001D8B005D00001B807D8A0B90718D024
:10069800BAC060F0BBC061F0BCC062F0000E0001DF
:1006A800636F200E0001646F410E0001656F8CECD2
:1006B80017F00001D8A004D00001B84BB92B00D026
:1006C8000001B3BF08D00001B3511EE10D0E0001B7
:1006D800B25DD8B019D0C0C08DF0C1C08EF0C2C014
:1006E8008FF00001B25170EC0DF083C090F084C01F
:1006F80091F085C092F01CEC10F08DC0C0F08EC057
:10070800C1F08FC0C2F000D00001B9BF08D000010D
:10071800B9512CE10A0E0001B85DD8B027D000010C
:10072800C0510001C1110001C211D8B47FD0C0C0AE
:100738008AF0C1C08BF0C2C08CF09FEC14F00001AD
:100748008A5100018B1100018C1100018D11D8A470
:100758006DD00001B9BF6AD00001B95107E1020E9E
:100768000001B85DD8B002D061D000D0BAC060F046
:10077800BBC061F0BCC062F0700E0001636F890EEF
:100788000001646F400E0001656F8CEC17F00001EA
:10079800D8B003D00001F70E02D00001F80EB82738
:1007A800FF0EB92300D00001B851EEEC0AF083C067
:1007B800BAF084C0BBF085C0BCF017D0C0C060F0F0
:1007C800C1C061F0C2C062F0BAC063F0BBC064F0DF
:1007D800BCC065F01FEC13F060C0B4F061C0B5F0A8
:1007E80062C0B6F063C0B7F017D0C0C060F0C1C037
:1007F80061F0C2C062F0BAC063F0BBC064F0BCC0B4
:1008080065F04CEC12F060C0B4F061C0B5F062C0A5
:10081800B6F063C0B7F000D0000E0001C06F000E44
:100828000001C16F000E0001C26F34D0C0C08AF051
:10083800C1C08BF0C2C08CF09FEC14F08AC0B4F039
:100848008BC0B5F08CC0B6F08DC0B7F0C0C099F0C1
:10085800C1C09AF0C2C09BF0B4C068F0B5C069F0DE
:10086800B6C06AF0B7C06BF01DEC1AF068C09CF017
:1008780069C09DF06AC09EF07AEC1BF099C0C0F088
:100888009AC0C1F09BC0C2F0000E0001B96F000E03
:10089800B86F00D0010E0001C56F0A0E0001C5191E
:1008A800D8B425D001D023D00001C551040D4F0E76
:1008B800F324F66EFE0EF420F76EF86A000EF822A6
:1008C8000900F5500001B45D0900F5500001B55963
:1008D8000900F5500001B6590900F5500001B75953
:1008E800D8A005D001D003D00001C52BD6D7C5C0EC
:1008F800A5F00001A66BA5BFA6070001B251000133
:10090800A5270001B3510001A6230001B851000139
:10091800A5270001B9510001A6230001A551000136
:10092800C35F0001A6510001C45B0001B251000180
:10093800B311D8B405D00001C307D8A0C40700D0AC
:10094800030E0001BE150001A56F000E0001BF15C2
:100958000001A66F0001A5510001A611D8B405D069
:100968000001C307D8A0C40700D00001BEA5D2D09B
:10097800030E0001BE150001A56F000E0001BF1592
:100988000001A66F0001A5510001A611D8B477D0C7
:10099800000120EE02F09F51D926A051DA22DE5044
:1009A800DE10D8B418D0000120EE02F09F51D926ED
:1009B800A051DA22DECFA5F0DDCFA6F001D85FD0B6
:1009C8000500FA6E0001A551FD6EA651FE6EFF6A84
:1009D800FA502D0E12009FC0D9FFA0C0DAFFDECF5B
:1009E800A5F0DDCFA6F0A5C0D9FFA6C0DAFF2D0E71
:1009F800DF6E9FC0D9FFA0C0DAFFDE2A000EDD221D
:100A08003ED0000120EE02F09F51D926A051DA22F3
:100A1800DE50DE10D8B418D0000120EE02F09F514D
:100A2800D926A051DA22DECFA5F0DDCFA6F001D875
:100A380021D00500FA6E0001A551FD6EA651FE6E8B
:100A4800FF6AFA50300E12009FC0D9FFA0C0DAFF2B
:100A5800DECFA5F0DDCFA6F0A5C0D9FFA6C0DAFF8E
:100A6800300EDF6E9FC0D9FFA0C0DAFFDE2A000E6D
:100A7800DD2200D00001C307D8A0C40700D00001C0
:100A8800C4BF17D10001C451BCE10001C305D8A0FF
:100A980010D1B7D70ED13ED0000120EE02F09F5101
:100AA800D926A051DA22DE50DE10D8B418D00001C1
:100AB80020EE02F09F51D926A051DA22DECFA5F010
:100AC800DDCFA6F001D821D00500FA6E0001A551AE
:100AD800FD6EA651FE6EFF6AFA50200E12009FC0EE
:100AE800D9FFA0C0DAFFDECFA5F0DDCFA6F0A5C004
:100AF800D9FFA6C0DAFF200EDF6E9FC0D9FFA0C0C5
:100B0800DAFFDE2A000EDD2200D00001C307D8A0DC
:100B1800C40700D00001C4BF07D00001C451BCE124
:100B28000001C305D8B0B8D7030E0001BE150001F7
:100B3800A56F000E0001BF150001A66F0001A551A9
:100B48000001A611D8B4B5D0000120EE02F09F51E3
:100B5800D926A051DA22DE50DE10D8B418D0000110
:100B680020EE02F09F51D926A051DA22DECFA5F05F
:100B7800DDCFA6F001D89DD00500FA6E0001A55181
:100B8800FD6EA651FE6EFF6AFA502D0E12009FC030
:100B9800D9FFA0C0DAFFDECFA5F0DDCFA6F0A5C053
:100BA800D9FFA6C0DAFF2D0E81D09FC0D9FFA0C003
:100BB800DAFFDE2A000EDD227CD0B4C060F0B5C0BA
:100BC80061F0B6C062F0B7C063F00001C551040D12
:100BD8004F0EF324F66EFE0EF420F76EF86A000E40
:100BE800F8220900F5CF64F00900F5CF65F0090097
:100BF800F5CF66F00A00F5CF67F0F3EC17F060C0A8
:100C0800BAF061C0BBF062C0BCF063C0BDF0BAC04E
:100C18006DF0BBC06EF0BCC06FF0BDC070F00A0EC6
:100C28000001716F000E726F000E736F000E746F0B
:100C380003EC19F06DC0BAF06EC0BBF06FC0BCF029
:100C480070C0BDF0000120EE02F09F51D926A051DE
:100C5800DA22DE50DE10D8B41AD0000120EE02F0FD
:100C68009F51D926A051DA22DECFA5F0DDCFA6F01C
:100C780001D81FD00500FA6E0001A551FD6EA651DE
:100C8800FE6EFF6AFA500001BA51300F12000001DF
:100C9800BA51300F9FC0D9FFA0C0DAFFDECFA5F050
:100CA800DDCFA6F0A5C0D9FFA6C0DAFFDF6E7DD7DD
:100CB80000D00001C5070001C529D8B440D07DD7B0
:100CC8003ED0000120EE02F09F51D926A051DA2231
:100CD800DE50DE10D8B418D0000120EE02F09F518B
:100CE800D926A051DA22DECFA5F0DDCFA6F001D8B3
:100CF80021D00500FA6E0001A551FD6EA651FE6EC9
:100D0800FF6AFA50300E12009FC0D9FFA0C0DAFF68
:100D1800DECFA5F0DDCFA6F0A5C0D9FFA6C0DAFFCB
:100D2800300EDF6E9FC0D9FFA0C0DAFFDE2A000EAA
:100D3800DD2200D00001B807D8A0B90700D0000113
:100D4800B9BF07D00001B951BCE10001B805D8B05E
:100D5800B8D70001B3BF0CD00001B35105E1090EAB
:100D68000001B25DD8A004D0080E0001C56F03D001
:100D7800B2C0C5F000D00001C5510001B25F000E3D
:100D88000001C5BFFF0E0001B35B0001C5510001A2
:100D9800D8B439D0000120EE02F09F51D926A051D5
:100DA800DA22DE50DE10D8B418D0000120EE02F0AE
:100DB8009F51D926A051DA22DECFA5F0DDCFA6F0CB
:100DC80001D821D00500FA6E0001A551FD6EA6518B
:100DD800FE6EFF6AFA502E0E12009FC0D9FFA0C007
:100DE800DAFFDECFA5F0DDCFA6F0A5C0D9FFA6C0FB
:100DF800DAFF2E0EDF6E9FC0D9FFA0C0DAFFDE2A11
:100E0800000EDD2200D00001C551EEEC0AF083C0CF
:100E1800ABF084C0ACF085C0ADF0C0C077F0C1C005
:100E280078F0C2C079F0ABC074F0ACC075F0ADC05A
:100E380076F0E9EC13F074C08AF075C08BF076C0D8
:100E48008CF09FEC14F08AC0B4F08BC0B5F08CC065
:100E5800B6F08DC0B7F0ADD0B4C060F0B5C061F0E9
:100E6800B6C062F0B7C063F00001C551040D4F0E63
:100E7800F324F66EFE0EF420F76EF86A000EF822E0
:100E88000900F5CF64F00900F5CF65F00900F5CF4A
:100E980066F00A00F5CF67F0F3EC17F060C0BAF01F
:100EA80061C0BBF062C0BCF063C0BDF0BAC06DF0F9
:100EB800BBC06EF0BCC06FF0BDC070F00A0E000180
:100EC800716F000E726F000E736F000E746F03EC7B
:100ED80019F06DC0BAF06EC0BBF06FC0BCF070C046
:100EE800BDF0000120EE02F09F51D926A051DA2270
:100EF800DE50DE10D8B41AD0000120EE02F09F5167
:100F0800D926A051DA22DECFA5F0DDCFA6F001D890
:100F180025D00500FA6E0001A551FD6EA651FE6EA2
:100F2800FF6AFA500001BA51300F12000001BA519D
:100F3800300F9FC0D9FFA0C0DAFFDECFA5F0DDCF0C
:100F4800A6F0A5C0D9FFA6C0DAFFDF6E9FC0D9FF03
:100F5800A0C0DAFFDE2A000EDD2200D0B4C06DF09A
:100F6800B5C06EF0B6C06FF0B7C070F00001C551E3
:100F7800040D4F0EF324F66EFE0EF420F76EF86A99
:100F8800000EF8220900F5CF71F00900F5CF72F0D4
:100F98000900F5CF73F00A00F5CF74F003EC19F0EF
:100FA8006DC0B4F06EC0B5F06FC0B6F070C0B7F0E9
:100FB80000D00001C5070001C529D8B440D04CD7DE
:100FC8003ED0000120EE02F09F51D926A051DA222E
:100FD800DE50DE10D8B418D0000120EE02F09F5188
:100FE800D926A051DA22DECFA5F0DDCFA6F001D8B0
:100FF80021D00500FA6E0001A551FD6EA651FE6EC6
:10100800FF6AFA50300E12009FC0D9FFA0C0DAFF65
:10101800DECFA5F0DDCFA6F0A5C0D9FFA6C0DAFFC8
:10102800300EDF6E9FC0D9FFA0C0DAFFDE2A000EA7
:10103800DD2200D00001B207D8A0B30700D000011C
:10104800B2510001B311D8B4ACD2BBD7AAD20001B7
:10105800BEBD47D00001BEA919D0A3C0D9FFA4C006
:10106800DAFFDFCFA5F0040EDE26DFCFA6F0000EF4
:10107800DD22A5C0D9FFA6C0DAFFDECFB4F0DECFEF
:10108800B5F0DECFB6F0DECFB7F01BD0A3C0D9FFE6
:10109800A4C0DAFFDFCFA5F0020EDE26DFCFA6F070
:1010A800000EDD22A5C0D9FFA6C0DAFFDECFB4F05E
:1010B800DDCFB5F00001000EB5BFFF0EB66FB76FFC
:1010C80000D00001B7AF45D0030E0001BE130001E8
:1010D800B71FB61FB51FB46D000EB523B623B723CF
:1010E80038D00001BEA919D0A3C0D9FFA4C0DAFF27
:1010F800DFCFA5F0040EDE26DFCFA6F0000EDD223E
:10110800A5C0D9FFA6C0DAFFDECFB4F0DECFB5F0B8
:10111800DECFB6F0DECFB7F01CD0A3C0D9FFA4C095
:10112800DAFFDFCFA5F0020EDE26DFCFA6F0000E35
:10113800DD22A5C0D9FFA6C0DAFFDECFA7F0DDCF3C
:10114800A8F0A7C0B4F0A8C0B5F00001B66BB76BA3
:1011580000D0010E0001C56F0A0E0001C519D8B4F0
:1011680025D001D023D00001C551040D4F0EF32422
:10117800F66EFE0EF420F76EF86A000EF8220900EB
:10118800F5500001B45D0900F5500001B55909009A
:10119800F5500001B6590900F5500001B759D8A01B
:1011A80005D001D003D00001C52BD6D70001C3510B
:1011B8000001C411D8B415D0030E0001BE150001FA
:1011C800A56F000E0001BF150001A66F0001A55113
:1011D8000001A611D8B405D00001C307D8A0C407E0
:1011E80000D0800E0001C5BF7F0E0001A56F000171
:1011F800C3510001C55D0001C451800A0001A55911
:10120800D8B00BD00001C5510001C35F000E00012A
:10121800C5BFFF0E0001C45B06D0000E0001C46FFD
:10122800000EC36F00D00001BEA594D0030E0001CC
:10123800BE150001A56F000E0001BF150001A66FC5
:101248000001A5510001A611D8B439D0000120EE43
:1012580002F09F51D926A051DA22DE50DE10D8B410
:1012680018D0000120EE02F09F51D926A051DA22B1
:10127800DECFA5F0DDCFA6F001D821D00500FA6EAB
:101288000001A551FD6EA651FE6EFF6AFA502D0EA3
:1012980012009FC0D9FFA0C0DAFFDECFA5F0DDCFD6
:1012A800A6F0A5C0D9FFA6C0DAFF2D0EDF6E9FC03D
:1012B800D9FFA0C0DAFFDE2A000EDD2200D000012F
:1012C800C3510001C411D8B4D9D0000120EE02F0F6
:1012D8009F51D926A051DA22DE50DE10D8B418D09A
:1012E800000120EE02F09F51D926A051DA22DECF6C
:1012F800A5F0DDCFA6F001D821D00500FA6E0001D7
:10130800A551FD6EA651FE6EFF6AFA50300E12000E
:101318009FC0D9FFA0C0DAFFDECFA5F0DDCFA6F0D1
:10132800A5C0D9FFA6C0DAFF300EDF6E9FC0D9FF77
:10133800A0C0DAFFDE2A000EDD2200D00001C307BC
:10134800D8A0C4070001C3510001C411D8B496D075
:10135800BCD794D00001C3510001C411D8B445D002
:10136800000120EE02F09F51D926A051DA22DE506A
:10137800DE10D8B418D0000120EE02F09F51D92613
:10138800A051DA22DECFA5F0DDCFA6F001D821D01A
:101398000500FA6E0001A551FD6EA651FE6EFF6AAA
:1013A800FA50200E12009FC0D9FFA0C0DAFFDECF8E
:1013B800A5F0DDCFA6F0A5C0D9FFA6C0DAFF200EA4
:1013C800DF6E9FC0D9FFA0C0DAFFDE2A000EDD2243
:1013D80000D00001C307D8A0C4070001C351000111
:1013E800C411D8B402D0BCD700D0030E0001BE157A
:1013F8000001A56F000E0001BF150001A66F0001D6
:10140800A5510001A611D8B439D0000120EE02F090
:101418009F51D926A051DA22DE50DE10D8B418D058
:10142800000120EE02F09F51D926A051DA22DECF2A
:10143800A5F0DDCFA6F001D821D00500FA6E000195
:10144800A551FD6EA651FE6EFF6AFA502D0E1200D0
:101458009FC0D9FFA0C0DAFFDECFA5F0DDCFA6F090
:10146800A5C0D9FFA6C0DAFF2D0EDF6E9FC0D9FF39
:10147800A0C0DAFFDE2A000EDD2200D00001C5512F
:101488000001B26FB36BB2BFB3077ED0B2C0A5F094
:10149800B3C0A6F00001D890A537A6370001D890B0
:1014A800A537A6374F0E0001A525F66EFE0EA6211C
:1014B800F76EF86A000EF8220900F5CF64F009000B
:1014C800F5CF65F00900F5CF66F00A00F5CF67F0B3
:1014D800B4C060F0B5C061F0B6C062F0B7C063F0E8
:1014E800F3EC17F060C06DF061C06EF062C06FF091
:1014F80063C070F00A0E0001716F000E726F000E6B
:10150800736F000E746F03EC19F000016D51300F0A
:101518000001C56F000120EE02F09F51D926A051AD
:10152800DA22DE50DE10D8B419D0000120EE02F025
:101538009F51D926A051DA22DECFA5F0DDCFA6F043
:1015480001D822D00500FA6E0001A551FD6EA65102
:10155800FE6EFF6AFA500001C55112009FC0D9FF04
:10156800A0C0DAFFDECFA5F0DDCFA6F0A5C0D9FF79
:10157800A6C0DAFFC5C0DFFF9FC0D9FFA0C0DAFF51
:10158800DE2A000EDD2200D00001B207D8A0B30782
:101598000001B22904E10001B329D8B402D076D7FA
:1015A80000D0A1C0F6FFA2C0F7FF0001A14BA22BFB
:1015B800F86A0800F5CFC5F00001C551D8B403D0CA
:1015C8008CEF00F000D0000E0001A06F000E9F6F9E
:1015D800120012000001896F000189AF3FD100019C
:1015E800896D00018951800A120FD8A0B6D0000E6B
:1015F8000001716F030E706F000E0001696F0A0E13
:10160800686F000E0001636F640E626F00018951FC
:101618000001606F616B60BF610756EC18F060C035
:1016280066F061C067F024EC17F0090E000166252A
:1016380000016E6F000E0001672100016F6F31EC31
:101648001CF0770E00016E25F66EFE0E00016F216C
:10165800F76EF86A000EF8220900F5CF77F0090056
:10166800F5CF78F00A00F5CF79F0000E0001696F28
:10167800640E686F000189510001666F676B66BF71
:10168800670724EC17F0120E0001662500016E6F43
:10169800000E0001672100016F6F000E0001716FDD
:1016A800030E706F31EC1CF0770E00016E25F66E9C
:1016B800FE0E00016F21F76EF86A000EF82209008D
:1016C800F5CF74F00900F5CF75F00A00F5CF76F084
:1016D800E9EC13F074C086F075C087F076C088F026
:1016E80086C074F087C075F088C076F0000E0001DF
:1016F800716F030E706F000E0001636F0A0E626F48
:10170800000189510001606F616B60BF610756EC91
:1017180018F060C06EF061C06FF031EC1CF0770E0D
:1017280000016E25F66EFE0E00016F21F76EF86A55
:10173800000EF8220900F5CF77F00900F5CF78F010
:101748000A00F5CF79F0E9EC13F074C083F075C0A6
:1017580084F076C085F012006BD000018951800AB0
:10176800750FD8A065D0000E0001696F0A0E686F6A
:10177800000189510001666F676B66BF670724EC3B
:1017880017F0090E0001662500016E6F000E0001BA
:10179800672100016F6F000E0001716F030E706FFB
:1017A80031EC1CF0770E00016E25F66EFE0E00017E
:1017B8006F21F76EF86A000EF8220900F5CF74F071
:1017C8000900F5CF75F00A00F5CF76F0000E00019C
:1017D800716F030E706F000E0001636F0A0E626F67
:1017E800000189510001606F616B60BF610756ECB1
:1017F80018F060C06EF061C06FF031EC1CF0770E2D
:1018080000016E25F66EFE0E00016F21F76EF86A74
:10181800000EF8220900F5CF77F00900F5CF78F02F
:101828000A00F5CF79F0E9EC13F08FD7120000D059
:1018380000018951030D770EF324F66EFE0EF42095
:10184800F76EF86A000EF8220900F5CF83F0090058
:10185800F5CF84F00A00F5CF85F012000001895118
:10186800800A120FD8A0B6D0000E0001716F030EC7
:10187800706F000E0001696F0A0E686F000E00019C
:10188800636F640E626F000189510001606F616BC4
:1018980060BF610756EC18F060C066F061C067F081
:1018A80024EC17F0090E0001662500016E6F000E8A
:1018B8000001672100016F6F31EC1CF09E0E0001E2
:1018C8006E25F66EFE0E00016F21F76EF86A000EA7
:1018D800F8220900F5CF77F00900F5CF78F00A0073
:1018E800F5CF79F0000E0001696F640E686F000192
:1018F80089510001666F676B66BF670724EC17F0B4
:10190800120E0001662500016E6F000E00016721AE
:1019180000016F6F000E0001716F030E706F31ECE4
:101928001CF09E0E00016E25F66EFE0E00016F2162
:10193800F76EF86A000EF8220900F5CF74F0090076
:10194800F5CF75F00A00F5CF76F0E9EC13F074C026
:1019580086F075C087F076C088F086C074F087C0BE
:1019680075F088C076F0000E0001716F030E706F7D
:10197800000E0001636F0A0E626F000189510001B9
:10198800606F616B60BF610756EC18F060C06EF065
:1019980061C06FF031EC1CF09E0E00016E25F66EF2
:1019A800FE0E00016F21F76EF86A000EF82209009A
:1019B800F5CF77F00900F5CF78F00A00F5CF79F088
:1019C800E9EC13F074C083F075C084F076C085F03C
:1019D80012006BD000018951800A750FD8A065D01C
:1019E800000E0001696F0A0E686F0001895100013D
:1019F800666F676B66BF670724EC17F0090E000176
:101A0800662500016E6F000E0001672100016F6FEF
:101A1800000E0001716F030E706F31EC1CF09E0E0A
:101A280000016E25F66EFE0E00016F21F76EF86A52
:101A3800000EF8220900F5CF74F00900F5CF75F013
:101A48000A00F5CF76F0000E0001716F030E706F7B
:101A5800000E0001636F0A0E626F000189510001D8
:101A6800606F616B60BF610756EC18F060C06EF084
:101A780061C06FF031EC1CF09E0E00016E25F66E11
:101A8800FE0E00016F21F76EF86A000EF8220900B9
:101A9800F5CF77F00900F5CF78F00A00F5CF79F0A7
:101AA800E9EC13F08FD7120000D000018951030D23
:101AB8009E0EF324F66EFE0EF420F76EF86A000E02
:101AC800F8220900F5CF83F00900F5CF84F00A0069
:101AD800F5CF85F01200120000018C6F6D0E000129
:101AE8008C65C4D0000E0001716F030E706F000E7C
:101AF8000001696F0A0E686F000E0001636F640EC3
:101B0800626F8CC060F00001616B56EC18F060C029
:101B180066F061C067F024EC17F0090E0001662535
:101B280000016E6F000E0001672100016F6F31EC3C
:101B38001CF0770E00016E25F66EFE0E00016F2177
:101B4800F76EF86A000EF8220900F5CF77F0090061
:101B5800F5CF78F00A00F5CF79F0000E0001696F33
:101B6800640E686F8CC066F00001676B24EC17F098
:101B7800120E0001662500016E6F000E000167213C
:101B880000016F6F000E0001716F030E706F31EC72
:101B98001CF0770E00016E25F66EFE0E00016F2117
:101BA800F76EF86A000EF8220900F5CF74F0090004
:101BB800F5CF75F00A00F5CF76F0E9EC13F074C0B4
:101BC80089F075C08AF076C08BF0000E0001716F45
:101BD800030E706F000E0001636F0A0E626F8CC0F7
:101BE80060F00001616B56EC18F060C06EF061C0E7
:101BF8006FF031EC1CF0770E00016E25F66EFE0ECC
:101C080000016F21F76EF86A000EF8220900F5CF7F
:101C180077F00900F5CF78F00A00F5CF79F089C0A0
:101C280074F08AC075F08BC076F0E9EC13F074C0DC
:101C380086F075C087F076C088F086C074F087C0DB
:101C480075F088C076F0000E0001776F000E000175
:101C5800786F3F0E0001796FE9EC13F074C083F0E0
:101C680075C084F076C085F012007AD00A0E0001A3
:101C78008C6576D0000E0001716F030E706F000E38
:101C88000001636F0A0E626F8CC060F00001616B27
:101C980056EC18F060C06EF061C06FF031EC1CF0CB
:101CA800770E00016E25F66EFE0E00016F21F76EAD
:101CB800F86A000EF8220900F5CF77F00900F5CF91
:101CC80078F00A00F5CF79F0000E0001696F0A0E6E
:101CD800686F8CC066F00001676B24EC17F0090E82
:101CE8000001662500016E6F000E000167210001EA
:101CF8006F6F000E0001716F030E706F31EC1CF0F6
:101D0800770E00016E25F66EFE0E00016F21F76E4C
:101D1800F86A000EF8220900F5CF74F00900F5CF33
:101D280075F00A00F5CF76F0E9EC13F074C089F08D
:101D380075C08AF076C08BF089C074F08AC075F0DF
:101D48008BC076F0000E0001776F000E0001786FEF
:101D58003F0E0001796FE9EC13F080D7120000D034
:101D680000018C51030D770EF324F66EFE0EF4205D
:101D7800F76EF86A000EF8220900F5CF74F0090032
:101D8800F5CF75F00A00F5CF76F0000E0001776FF9
:101D9800000E0001786F3F0E0001796FE9EC13F037
:101DA80074C083F075C084F076C085F0120012000C
:101DB800000E0101106F000E0101126F000E116F6D
:101DC80006EC1DF055EC19F0800EEBEC1CF0800EC3
:101DD800EBEC1CF0800EEBEC1CF0800EEBEC1CF036
:101DE800800EEBEC1CF0800EEBEC1CF0EC0E00010E
:101DF800C66FFE0E0001C76FA2EC1BF0EC0E0001CF
:101E0800C66FFE0E0001C76FA2EC1BF0C50E0001E5
:101E1800C66FFE0E0001C76FA2EC1BF0C28236EC43
:101E28001DF00009D8B40CD0010E0101056FC40ED5
:101E38000001C66FFF0E0001C76FA2EC1BF00CD0AB
:101E4800000E0101056F3C0E0001C66FFF0E000178
:101E5800C76FA2EC1BF000D00001F251D8B4C8D073
:101E6800000E0001F26FED0E0001C66FFE0E0001BC
:101E7800C76FA2EC1BF0000E0101126F000E116F6C
:101E8800010112BF0AD00101125153E1060E0101EE
:101E9800115DD8B04ED001D04CD00101115111259F
:101EA8000101106F010110510001DB6FDC6B010EA5
:101EB8000001DB27000EDC23270E0001DB25D96E8D
:101EC800000E0001DC21DA6EDF500001DD6F010138
:101ED8001051010D270EF324D96E000EF420DA6E8E
:101EE800DF500001DE6F0001DE510001E06FDF6BA3
:101EF8000001DD510001DF250101036F0001000E23
:101F08000001E0210101046FDF0E0001C66FFF0E22
:101F18000001C76F11C1C8F012C1C9F003C1CAF0EE
:101F280004C1CBF0A2EC1BF00101114B122BA8D776
:101F380000D036EC1DF00009D8B44ED0010E0101D6
:101F4800056FC40E0001C66FFF0E0001C76FA2EC3B
:101F58001BF0F1EC15F068C00EF169C00FF10EC16D
:101F6800D4F00FC1D5F0060E0001D66F010E0001A6
:101F7800D76F99EC19F010EC1CF08DC000F18EC0F1
:101F880001F18FC002F1600E0001C66FFF0E000163
:101F9800C76F060E0001C86F010E0001C96FA2ECE1
:101FA8001BF0EF0E0001C66FFE0E0001C76F00C1E7
:101FB800C8F001C1C9F002C1CAF0A2EC1BF0160EAC
:101FC8000001C66FFF0E0001C76F0EC1C8F00FC138
:101FD800C9F0A2EC1BF00CD0000E0101056F3C0EFD
:101FE8000001C66FFF0E0001C76FA2EC1BF000D006
:101FF8000001F305D8A409D0830E0001C66FFF0EB7
:102008000001C76FA2EC1BF00DD0020E0001F319FE
:10201800D8A422D7A40E0001C66FFF0E0001C76F17
:10202800A2EC1BF0000E0001F36F16D788EF00F04A
:102038008FC093F00001946B956B00018E35000101
:10204800933701E39481000193510001986F92C086
:1020580093F00001946B956B000191350001933763
:1020680001E39481000193510001976F0001985199
:102078000001D8B411D0000197510001985DD8B083
:1020880012D0000198510008000197250001936FB4
:10209800180E0001936507D090C08DF091C08EF0A6
:1020A80092C08FF01200000197510001D8B411D0EE
:1020B800000198510001975DD8B012D000019751E6
:1020C8000008000198250001936F180E0001936520
:1020D80007D08DC08DF08EC08EF08FC08FF01200AB
:1020E800060E0001966F00018FAF03D00001968F96
:1020F80000D0000192AF02D00001968D00018E8FB2
:10210800FF0E00018D17FF0E00018E17000E000153
:102118008F170001918FFF0E00019017FF0E00012D
:102128009117000E00019217000197510001985D68
:10213800D8B028D00001D890903791379237000155
:1021480097070001985100019719D8B413D00001DE
:10215800960796C093F0070E00019317D8B40AD0DB
:10216800E9D708D00001D8908F338E338D33000122
:10217800982B00D00001975100019819D8B430D09D
:10218800F1D72ED0000198510001975DD8B028D022
:102198000001D8908D378E378F37000198070001DE
:1021A800985100019719D8B413D00001960796C02A
:1021B80093F0070E00019317D8B40AD0E9D708D0D6
:1021C8000001D8909233913390330001972B00D0BF
:1021D8000001975100019819D8B402D0F1D700D066
:1021E800000196AF12D0FF0E00018D1BFF0E0001FB
:1021F8008E1BFF0E00018F1B010E00018D27000EA4
:1022080000018E23000E00018F23000196AD13D02C
:10221800FF0E0001901BFF0E0001911BFF0E000135
:10222800921B010E00019027000E00019123000E61
:102238000001922300D0000E0001966F00018D511D
:102248000001902700018E510001912300018F5158
:1022580000019223000192AF16D0FF0E0001901BDF
:10226800FF0E0001911BFF0E0001921B010E0001E1
:102278009027000E00019123000E00019223010E09
:102288000001966F00D090C060F091C061F092C0DC
:1022980062F098C063F096C064F094EC16F060C0E9
:1022A8008DF061C08EF062C08FF012001200010E36
:1022B80000016D6F010E00016C6F000E0001686F68
:1022C800000E0001696F000E00016E6F070E00011D
:1022D8006E6501D00ED000016E51010D330EF3244E
:1022E800D96E000EF420DA6E000EDF6E00016E2B40
:1022F800EDD7ECEC1BF00001676F0001675100019E
:10230800D8A403D03E50D8B404D0000E3F6E000EBF
:102318001200F00E25EC1BF0000E00016E6F00D0CD
:10232800000E00016A6FB2EC1CF00009D8B404D0AA
:10233800020E00016A6F00D0030E0001666F7D0E69
:10234800E82EFED7662FFCD700F0B2EC1CF000098F
:10235800D8B403D000016A8100D0030E0001666F73
:102368007D0EE82EFED7662FFCD700F0030E000185
:102378006A19D8B476D002D074D06ED000016A51F0
:102388000001D8B406D00001D8906A3100016B6F03
:1023980029D03F5000016C5DD8B013D000016E51B8
:1023A800010D330EF324D96E000EF420DA6EDF50DF
:1023B80000016D150009D8B40BD0010E00016B6F38
:1023C80009D03F5000016C19D8A402D0010EF6D7ED
:1023D800000EF4D700016B510001D8A403D06CC0E3
:1023E80068F000D000016B510001D8B40DD0000195
:1023F8006E51010D330EF324D96E000EF420DA6EFF
:1024080000016D51DF1212D000016D51FF0A000169
:10241800666F00016E51010D330EF324D96E000E64
:10242800F420DA6E00016651DF1600D000016B510E
:102438004DEC1CF000016C2B00016D516D25000165
:102448006D6F00016D510001D8A406D000016E2BFC
:10245800010E00016D6F00D0070E00016E6560D798
:1024680000D0410E00016C6103D0000E3F6E0CD00D
:1024780068C03FF03F50D8A402D0010E01D0000E32
:102488003E6E010E0001696F0001695112001200D1
:1024980062C066F00001676B686B0001613500017E
:1024A800663701E367810001665100016E6F000124
:1024B8006E51D8A40AD0000E0001606F000E616F43
:1024C800000E626F000E636F120065C066F00001B7
:1024D800676B686B000164350001663701E367814B
:1024E8000001665100016D6F00016D51D8A40AD03A
:1024F800000E0001606F000E616F000E626F000E2B
:10250800636F12000001618FFF0E00016017FF0E5C
:1025180000016117000E000162170001648FFF0EB1
:1025280000016317FF0E00016417000E0001651714
:10253800000E0001696F000E6A6F000E6B6F000ECF
:102548006C6F7F0E00016E5F00016D51980F0001E6
:102558006E5F180E00016D6F0001D89069376A37F9
:102568006B376C37000163510001605D00016451F5
:10257800000161590001655100016259D8A00ED0CF
:10258800000163510001605F000164510001615B5B
:10259800000165510001625B000169810001D8906A
:1025A80060376137623700016D2FD6D700D0000140
:1025B8006EAF1BD000016E51800A970FD8B00BD0B8
:1025C800000E0001606F000E616F000E626F000E5A
:1025D800636F120000D00001D8906C336B336A33FC
:1025E800693300016E3FF7D71DD0170E00016E65E5
:1025F80014D0000E0001606F000E616F000E626F54
:10260800000E636F120009D00001D89069376A374D
:102618006B376C3700016E0700D000016E51000166
:10262800D8A4F2D769C060F06AC061F06BC062F0EC
:102638006CC063F0120000016235633500016B6FF6
:1026480000016B51D8A40AD0000E0001606F000E83
:10265800616F000E626F000E636F12000001653536
:10266800663500016A6F00016A51D8A40AD0000ECD
:102678000001606F000E616F000E626F000E636FE5
:1026880012000001628FFF0E00016017FF0E611734
:10269800FF0E6217000E63170001658FFF0E000121
:1026A8006317FF0E6417FF0E6517000E6617000EFE
:1026B8000001666F000E676F000E686F000E696F8D
:1026C8007F0E00016B5F00016A51A00F00016B5F74
:1026D800200E00016A6F00D00001D8906637673776
:1026E80068376937000163510001605D000164517A
:1026F80000016159000165510001625900016651EC
:1027080000016359D8A013D0000163510001605F34
:10271800000164510001615B000165510001625BC9
:10272800000166510001635B0001668100D0000171
:10273800D890603761376237633700016A2FCCD78A
:1027480000D000016BAF1BD000016B51800A9F0FB6
:10275800D8B00BD0000E0001606F000E616F000E44
:10276800626F000E636F120000D00001D8906933C9
:1027780068336733663300016B3FF7D71DD01F0EF0
:1027880000016B6514D0000E0001606F000E616FD0
:10279800000E626F000E636F120009D00001D8901E
:1027A800663767376837693700016B0700D0000163
:1027B8006B510001D8A4F2D766C060F067C061F021
:1027C80068C062F069C063F0120076C07AF0000158
:1027D8007B6B7C6B0001753500017A3701E37B81E7
:1027E80000017A5100017D6F00017D51D8A40AD003
:1027F800000E0001746F000E0001756F000E0001DD
:10280800766F120079C07AF000017B6B7C6B000157
:10281800783500017A3701E37B8100017A510001A4
:10282800826F00018251D8A40AD0000E0001746F93
:10283800000E0001756F000E0001766F1200000196
:1028480082517B0F00017D2776C082F0000179510B
:102858000001821B800E000182170001758F0001A4
:10286800788FFF0E00017717FF0E00017817000E12
:1028780000017917000E00017E6F000E00017F6FC6
:10288800000E0001806F070E0001816F00D000016B
:1028980074A10DD00001775100017E270001785105
:1028A80000017F23000179510001802300D000013D
:1028B800D8907633753374330001D89077377837EA
:1028C80079370001812FE3D700D0090E0001816F0D
:1028D80000D0000174A10DD00001775100017E27BE
:1028E8000001785100017F23000179510001802304
:1028F80000D00001D8907633753374330001D89036
:1029080080337F337E330001812FE3D700D07EC030
:1029180060F07FC061F080C062F07DC063F082C06B
:1029280064F094EC16F060C074F061C075F062C099
:1029380076F0120012008CC08EF000018F6B906B45
:1029480000018B3500018E3701E38F8100018E5124
:102958000001986F00019851D8A40AD0000E000118
:102968008A6F000E8B6F000E8C6F000E8D6F120039
:10297800170E00018E6F8AC08FF08BC090F08CC04C
:1029880091F000018E290001926F05D00001D890C6
:10299800913390338F330001922FF8D700018F5174
:1029A8000001936F00018B8FFF0E00018A17FF0E45
:1029B80000018B17000E00018C1700018A510001DD
:1029C800946F00018B510001956F00018C5100013B
:1029D800966F0001976B8E0E0001985F000198AF0B
:1029E8001BD000019851800A8F0FD8B00BD0000E71
:1029F80000018A6F000E8B6F000E8C6F000E8D6FBA
:102A0800120000D00001D890973396339533943351
:102A18000001983FF7D71FD0170E0001986514D012
:102A2800000E00018A6F000E8B6F000E8C6F000E77
:102A38008D6F120009D00001D890943795379637DA
:102A480097370001980700D0000198510001D8B4C9
:102A580002D0F1D700D0000193510001D8B40AD0B8
:102A68000001971F961F951F946D000E95239623BE
:102A7800972300D094C08AF095C08BF096C08CF054
:102A880097C08DF01200120080C084F00001856BA1
:102A9800866B00017F350001843701E385810001E1
:102AA800845100018B6F00018B51D8A40AD0000E0D
:102AB80000017E6F000E00017F6F000E0001806F25
:102AC800120083C084F00001856B866B000182359B
:102AD8000001843701E385810001845100018C6F76
:102AE80000018C51D8A40AD0000E00017E6F000EA0
:102AF80000017F6F000E0001806F1200000E0001C0
:102B0800886F000E0001896F000E00018A6F0001B6
:102B18008C51890F00018B5F80C08CF000018351BC
:102B280000018C1B800E00018C1700017F8FFF0EA7
:102B380000017E17FF0E00017F17000E00018017AD
:102B48000001828FFF0E00018117FF0E000182171E
:102B5800000E00018317180E0001876F00D00001D6
:102B6800D890883789378A370001815100017E5D06
:102B78000001825100017F590001835100018059F1
:102B8800D8A00ED00001815100017E5F0001825162
:102B980000017F5B000183510001805B0001888197
:102BA8000001D8907E377F3780370001872FD7D72D
:102BB80000D088C060F089C061F08AC062F08BC024
:102BC80063F08CC064F094EC16F060C07EF061C0D5
:102BD8007FF062C080F012001200ECEC1BF0550E82
:102BE800CEEC1AF094988B88440E25EC1BF0EE0E70
:102BF8000001606F020E616F000E626F000E636F5E
:102C080069EC1CF0ECEC1BF0550ECEEC1AF0BE0E85
:102C180025EC1BF0000E0001756F080E00017565AC
:102C280001D00FD000017551010D6C0EF324D96E3F
:102C3800000EF420DA6E9BEC1AF0DF6E0001752BA3
:102C4800ECD7000E0001776F000E766F00016D5112
:102C58000001776F766B00016C5100017613100E3E
:102C68003318D8A448D00001D890773376330001C0
:102C780076510001776F766B400E0001765F000E8B
:102C8800775B0001725100016A6F6B6B00016A1F6C
:102C98006B1F6A4B6B2B0001735100016A25000101
:102CA800786F000E00016B210001796F00017851E7
:102CB8000001796F786B00017351D8B40FD078C0D8
:102CC80060F079C061F073C062F00001636BDCEC06
:102CD80019F060C078F061C079F000D00001765139
:102CE800000178250001786F0001775100017921F2
:102CF8000001796F0FD076C078F077C079F00001C5
:102D0800783B793BF00E791778510F0B7913F00E59
:102D1800781700D078C068F079C069F01200120006
:102D2800000163510001D8B408D0000160510001CE
:102D3800611100016211D8A413D0000E0001606F68
:102D4800000E0001616F000E0001626F120008D0D2
:102D58000001632B0001D89062336133603300D0E7
:102D6800000E000160150001656F000E000161157D
:102D78000001666FFE0E000162150001676F000119
:102D880065510001661100016711D8B413D0E0D76E
:102D980011D00001632B010E00016027000E000115
:102DA8006123000E000162230001D8906233613371
:102DB800603300D0000E000160150001656F000E41
:102DC800000161150001666FFF0E00016215000128
:102DD800676F000165510001661100016711D8B4E1
:102DE8000AD0D7D708D0000163070001D890603710
:102DF8006137623700D0000161BF05D0020E0001C3
:102E08006361F1D700D0000163B103D00001619F75
:102E180000D00001D89063330001635100016213B0
:102E2800000164510001D8B403D00001628F00D0C2
:102E380060C060F061C061F062C062F01200120010
:102E4800000E00016B6F000169AF09D00001686DC9
:102E5800691FD8B0692B010E00016B6F00D000010B
:102E680067AF09D00001666D671FD8B0672B010EE8
:102E780000016B1B00D0000E00016D6F000E6C6F1F
:102E88000001685100016911D8B431D0010E000168
:102E98006A6F07D00001D8906837693700016A2B3C
:102EA80000D0000169BF02D0F5D700D00001D8904A
:102EB8006C376D37000168510001665D000169518A
:102EC80000016759D8A00BD0000168510001665F66
:102ED800000169510001675B00016C8100D00001AD
:102EE800D8906933683300016A2FE0D700D0000119
:102EF8006B510001D8B406D000016C6D6D1FD8B0BD
:102F08006D2B00D06CC066F06DC067F01200120027
:102F1800000162AF1ED060C066F061C067F062C099
:102F280068F00001661F671F681F662B000E672385
:102F38006823000E000166250001606F000E000185
:102F480067210001616F800E000168210001626F36
:102F580000D0000165AF1ED063C066F064C067F0A2
:102F680065C068F00001661F671F681F662B000EAA
:102F780067236823000E000166250001636F000EB9
:102F8800000167210001646F800E000168210001C3
:102F9800656F00D0000E0001601B000E0001611B70
:102FA800800E0001621B000E0001631B000E000171
:102FB800641B800E0001651B000163510001605D08
:102FC8000001645100016159000165510001625915
:102FD800D8B002D0D8901200D88012001200000E8B
:102FE8000001686F000E696F000E6A6F000E6B6F4C
:102FF80000016451000165110001661100016711AB
:10300800D8B447D0010E00016C6F09D00001D890E8
:10301800643765376637673700016C2B00D00001CD
:1030280067BF02D0F3D700D00001D890683769375E
:103038006A376B37000164510001605D000165511A
:103048000001615900016651000162590001675190
:1030580000016359D8A013D0000164510001605FDA
:10306800000165510001615B000166510001625B6E
:10307800000167510001635B0001688100D0000115
:10308800D890673366336533643300016C2FCCD72F
:1030980000D068C060F069C061F06AC062F06BC0BF
:1030A80063F01200000E0001656F000161AF09D0E6
:1030B8000001606D611FD8B0612B010E0001656FC2
:1030C80000D0000163AF06D00001626D631FD8B065
:1030D800632B00D00001625100016311D8B42BD0DA
:1030E800010E0001646F07D00001D8906237633782
:1030F8000001642B00D0000163BF02D0F5D700D0D7
:10310800000162510001605D0001635100016159D5
:10311800D8A009D0000162510001605F000163512D
:103128000001615B00D00001D89063336233000175
:10313800642FE6D700D0000165510001D8B406D04D
:103148000001606D611FD8B0612B00D060C060F0D5
:1031580061C061F012001200EACF1CF0E1CF1DF04F
:10316800E2CF1EF0D9CF1FF0DACF20F0F3CF21F055
:10317800F4CF22F0F6CF23F0F7CF24F0F8CF25F0E4
:10318800F5CF26F0A4AA07D0A49A010E0001F26F89
:10319800DBEC1CF017D0F2A411D0F2948CB408D058
:1031A800800E166E000E156E24EC1DF0000E01D078
:1031B800010E406E00D046EC1DF004D0010E000157
:1031C800F36F00D026C0F5FF25C0F8FF24C0F7FF35
:1031D80023C0F6FF22C0F4FF21C0F3FF20C0DAFFAE
:1031E8001FC0D9FF1EC0E2FF1DC0E1FF1CC0EAFFDF
:1031F8001BC0E9FF1AC0FBFF19C0FAFF110000014C
:103208007151000172110001731100017411D8B4D9
:103218003FD0010E0001756F09D00001D8907137B9
:103228007237733774370001752B00D0000174BFF3
:1032380002D0F3D700D00001715100016D5D00018B
:10324800725100016E590001735100016F5900015C
:10325800745100017059D8A011D0000171510001BA
:103268006D5F0001725100016E5B00017351000136
:103278006F5B000174510001705B00D00001D890B1
:1032880074337333723371330001752FD4D700D080
:103298006DC06DF06EC06EF06FC06FF070C070F0F2
:1032A80012009594949A949C8B8A8B9C928092821B
:1032B80092849286928A968096680F01569D010E96
:1032C800C26E400EC16E870EC06E0F015D810F0188
:1032D8005D830F015D850F015D870F015D890F011A
:1032E8005D8B9E9C9F9C9D8C000E0001616F000E63
:1032F800606F1BEC1DF0970EC8EC1CF0959C958E2A
:10330800A58AA48AA38A000E0001616F440E606F2B
:103318007C0E5DEC1AF0D08EF28CF28E000E00015D
:10332800F36F000E0001F26F1200D4C066F0D5C032
:1033380067F0010E0001696F000E686F24EC17F04A
:10334800000166510001D86F0001D4510001D96F06
:10335800DA6BD9C06EF0DAC06FF0000E0001716F41
:10336800640E706F31EC1CF06EC0D9F06FC0DAF0EB
:103378000001DA510001D96FDA6BD6C0C6F0D7C0A8
:10338800C7F0EF0E0001C86FFF0E0001C96F000102
:10339800D8510001CA6FCB6BCABFCB070001D95106
:1033A8000001CC6FCD6BCCBFCD0750EC1BF01200E9
:1033B800000E0001666F000E656F0001625100018A
:1033C8006311D8B431D0010E0001646F07D0000139
:1033D800D890623763370001642B00D0000163BFC7
:1033E80002D0F5D700D00001D890653766370001C4
:1033F80062510001605D0001635100016159D8A06C
:103408000BD0000162510001605F000163510001AF
:10341800615B0001658100D00001D890633362339D
:103428000001642FE0D700D065C060F066C061F08D
:1034380012008E0E0001706F09D00001D8906B3316
:103448006A33693368330001702B00D0000E000125
:10345800681500016C6F000E0001691500016D6FA1
:10346800000E00016A1500016E6FFF0E00016B155A
:1034780000016F6F00016C5100016D1100016E11A8
:1034880000016F11D8A4D9D768C060F069C061F095
:103498006AC062F070C063F0000E0001646F94ECC3
:1034A80016F060C068F061C069F062C06AF012008E
:1034B80012000001626F000EBA6E000EA66E0001C7
:1034C80062A102D0BA8800D0000162A303D0BA8CEE
:1034D800A68C00D0000162A502D0BA8E00D00001EF
:1034E80062A702D0A68802D0A68A00D0000162A9ED
:1034F80002D0BA8402D0BA9400D0000162AB02D0E4
:10350800A68600D0000162AD02D0A38A02D0A39A99
:1035180000D0000162AF02D0A38801D0A39860C098
:103528007BFF000161517C6EBA8AA68E1200000EE4
:103538000001636F000E0001646F070E00016465EF
:1035480001D024D0B2EC1CF00009D8B413D064C068
:1035580061F0010E0001626F0001612B03D00001D0
:10356800D89062370001612FFAD70001625100013B
:10357800631300D0030E0001616F7D0EE82EFED7A5
:10358800612FFCD700F00001642BD7D700016351ED
:10359800120012000001666F550E00016619D8A4CA
:1035A80020D0550E25EC1BF0000E0001676F070EAA
:1035B8000001676502D01200120000016751010D79
:1035C800330EF324D96E000EF420DA6EDF5025ECAA
:1035D8001BF00001672B070E00016765EED712008C
:1035E8001200CC0E25EC1BF0120012000001F36B48
:1035F800F26B00EE27F01A0EEE6AE806FDE15A0EAD
:10360800F66E3A0EF76E000EF86E00EEE1F010EE70
:1036180011F00900F5CFEEFFE550E150FAE1900E08
:10362800F66E3A0EF76E000EF86E0900F5CF41F00F
:103638000900F5CF42F00900F5CF43F00001DCEFB7
:103648000EF00001636F000E0001656F070E0001A8
:10365800656501D01BD065C061F063C062F00001F0
:10366800612B03D00001D89062330001612FFAD793
:10367800000162510001646F010E0001641700012E
:1036880064514DEC1CF00001652BE0D7F00E00D022
:1036980000D0E82EFCD71200C6C0D0F0C7C0D1F0C9
:1036A800000E0001D26F000E0001D36FCA0E000198
:1036B800CE6F000E0001CF6FD00E00019F6F000E7D
:1036C8000001A06FC8C0A1F0C9C0A2F0CE0E0001D1
:1036D800A36F000E0001A46F8AEC00F0D0C0D9FFE0
:1036E800D1C0DAFF000EDF6E1200120000019C51FB
:1036F80000019D1100019E11D8B40AD0000E0001EE
:103708009C1B000E00019D1B800E00019E1B00D01B
:1037180099C08DF09AC08EF09BC08FF09CC090F03D
:103728009DC091F09EC092F01CEC10F08DC099F0F5
:103738008EC09AF08FC09BF012001200000E00019C
:10374800CE6F000E0001CF6F220E0001D06F3A0E2F
:103758000001D16FC80E0001CC6F000E0001CD6FC3
:10376800CE0E00019F6F000E0001A06FC6C0A1F031
:10377800C7C0A2F0CC0E0001A36F000E0001A46F19
:103788008AEC00F012001200000E00017D6F0001AB
:103798007BAF09D000017A6D7B1FD8B07B2B010E5F
:1037A80000017D6F00D07AC060F07BC061F000013D
:1037B800626B8E0E0001636F7DC064F094EC16F0AE
:1037C80060C07AF061C07BF062C07CF01200120029
:1037D800F29E94988B980A0E0001606FF80EE82EFE
:1037E800FED7602FFCD700D094988B88D50EE82E92
:1037F800FED700F03EEC1DF00001616F090E0001DC
:10380800606FCE0EE82EFED7602FFCD700D0F28E68
:103818000001615112001200F1EC15F068C07AF055
:1038280069C07BF0C8EC1BF07AC07EF07BC07FF0EB
:103838007CC080F0000E0001816F800E0001826F55
:10384800430E0001836F48EC15F07EC08DF07FC0F9
:103858008EF080C08FF01200120000016E5100013E
:103868007003F3CF72F0F4CF73F000016E510001D2
:103878007103F3500001732700016F5100017003B9
:10388800F3500001732772C06EF073C06FF012001E
:1038980012000001606FF29E94988B980A0EE82E31
:1038A800FED700D0000160510001D8B403D094982D
:1038B8008B8800D0E40E00D000D0E82EFCD700D0D2
:1038C80000D094988B88F28E1200150E0001646F58
:1038D800C10EE82EFED7642FFCD700F00001600768
:1038E800000E615B625B635B000160510001611166
:1038F8000001621100016311D8A4E7D7120000018A
:1039080060510001611100016211D8B409D0000EA4
:103918000001601B000E0001611B800E0001621B8C
:1039280060C060F061C061F062C062F01200000126
:10393800626F000E0001616F3A0E0001626108D0EB
:103948002F0E0001626504D0010E0001616F00D0E6
:1039580061C060F00001603112001200F29E94987C
:103968008B980A0EE82EFED700D03EEC1DF01A0EFA
:10397800E82EFED700D03EEC1DF00001606FF28EFD
:1039880000016051120012000001606F00016051D7
:103998007F0BD56E000ED76E000ED66EF294000126
:1039A80060AF02D0F28A01D0F29AD58E1200F20EE0
:1039B8003D16A6AC05D03D90A6A002D03D8000D013
:1039C800A6B43D84A6B23D867ACF15F01200000158
:1039D800616F0D0E0001606FFC0EE82EFED7602FA0
:1039E800FCD70001612FF5D7120012000001606FAB
:1039F800BAAC05D0BA903DA202D0BA8000D060C05F
:103A080079FF1200F00ED36E00D0D3A4FED7C00EFB
:103A18009B6E00D0D3A4FED712000001616F00D0C6
:103A2800BAA2FED700016151FAEC1CF0120060C086
:103A380062F061C063F063C0D7FF62C0D6FF1200B6
:103A480015C017F016C018F018C0D7FF17C0D6FF5A
:103A5800120048656C6C6F2066726F6D2050494388
:103A680031380000000E3F6E000E3E6E5BEC11F028
:103A780012001200948882A802D0010E1200000ED3
:0C3A8800120012008C7412000A000000F2
:10FE4E0000010000000A00000064000000E803004A
:10FE5E000010270000A086010040420F00809698F7
:10FE6E000000E1F50500CA9A3B00803FCDCC3DD79E
:10FE7E00233C12833AB7D138C62737388635C0D6D9
:10FE8E0033CC2B32708930E7DB2EE53C1E42A20DBF
:10FE9E0000803F00204100C842007A44401C46507A
:10FEAE00C34724744997184BBCBE4C6B6E4E03155A
:10FEBE005079AD60F349714F7363696C6C61746F07
:10FECE007220616E64205065726970686572616C33
:10FEDE007320696E697469616C697A6564210D0AB3
:10FEEE00004453313832302053656E736F72205494
:10FEFE00656D706572617475726520466C6F6174A4
:10FF0E003A202566200A0D004453313832302053F2
:10FF1E00656E736F722054656D7065726174757263
:10FF2E0065205261773A20256C64200A0D00436FDC
:10FF3E00756C64206E6F742066696E6420666972DB
:10FF4E0073742044533138323020646576696365AA
:10FF5E000A004453313832302053656E736F72206D
:10FF6E0054656D70657261747572653A2025733FC4
:10FF7E0043200A0D00412068696768207072696F1E
:10FF8E007269747920495251207761732069676EC6
:10FF9E006F7265640A0041206C6F77207072696F12
:10FFAE007269747920495251207761732069676EA6
:10FFBE006F7265640A00466F756E642066697273AF
:10FFCE007420445331383230206465766963650A93
:10FFDE00004144432025642069733A2025750D0A9B
:10FFEE000025642E2530326400286E756C6C290055
:02FFFE00000001
:020000040020DA
:08000000FFFFFFFFFFFFFFFF00
:020000040030CA
:0E0000001D187F7FFF8991FF0FC00FE00F409A
:00000001FF
