:0400000059EF00F0C4
:10000800FACF16F0FBCF17F0E9CF18F043EF19F04D
:10001800D8CF01F0E8CF02F0E0CF03F0FACF04F038
:10002800FBCF05F0E9CF06F0EACF07F0E1CF08F003
:10003800E2CF09F0D9CF0AF0DACF0BF0F3CF0CF00A
:10004800F4CF0DF0F6CF0EF0F7CF0FF0F8CF10F099
:10005800F5CF11F09EAC02D09E9C04D0020E000198
:10006800F96F00D011C0F5FF10C0F8FF0FC0F7FFFF
:100078000EC0F6FF0DC0F4FF0CC0F3FF0BC0DAFF93
:100088000AC0D9FF09C0E2FF08C0E1FF07C0EAFFC4
:1000980006C0E9FF05C0FBFF04C0FAFF03C0E0FF8C
:1000A80002C0E8FF01C0D8FF10002DEF1BF0E0EF01
:1000B8000AF0250E0001CA19D8B43CD0000120EE80
:1000C80002F0A451D926A551DA22DE50DE10D8B4A8
:1000D8001AD0000120EE02F0A451D926A551DA2247
:1000E800DECFAAF0DDCFABF002D8E0EF0AF00500D2
:1000F800FA6E0001AA51FD6EAB51FE6EFF6AFA500E
:100108000001CA511200A4C0D9FFA5C0DAFFDECF92
:10011800AAF0DDCFABF0AAC0D9FFABC0DAFFCAC0E6
:10012800DFFFA4C0D9FFA5C0DAFFDE2A000EDD225A
:10013800E0EF0AF0000E0001C76F000EC66F000E58
:100148000001C26F000EC16F07D00001C185000118
:10015800A64BA72B01D00CD0A6C0F6FFA7C0F7FF6F
:10016800F86A0800F550300AD8B4EFD701D0F4D7B0
:10017800A6C0F6FFA7C0F7FFF86A0800F550D9EC4B
:100188001DF0D8A045D0000E0001C76F000EC66F45
:1001980000D0C6C06EF0C7C06FF0000E0001716FCE
:1001A8000A0E706F71EC1DF06EC0C6F06FC0C7F01C
:1001B800D00E0001AA6FFF0E0001AB6FA6C0F6FFBC
:1001C800A7C0F7FFF86A0800F5500001AC6FAD6BE7
:1001D8000001AA510001AC270001AB510001AD2379
:1001E8000001AC510001C6270001AD510001C72331
:1001F8000001A64BA72BA6C0F6FFA7C0F7FFF86A19
:100208000800F550D9EC1DF0D8A002D0C2D700D014
:10021800A6C0F6FFA7C0F7FFF86A0800F5502E0A37
:10022800D8A43DD00001C28D0001A64BA72B000E1B
:100238000001C96F000EC86F25D0C8C06EF0C9C0D4
:100248006FF0000E0001716F0A0E706F71EC1DF0F7
:10025800A6C0F6FFA7C0F7FFF86A0800F55000012E
:100268006E27000E00016F23D00E00016E250001DD
:10027800C86FFF0E00016F210001C96F0001A64B76
:10028800A72B00D0A6C0F6FFA7C0F7FFF86A0800A2
:10029800F550D9EC1DF0D8A0FDD0CFD7FBD0000E7B
:1002A8000001C96F000EC86F0001C289F3D0F2EFD8
:1002B8000AF00001C2850FD10001C8510001C9111F
:1002C800D8B40FD00001B5510001C85D0001B65186
:1002D8000001C959D8B005D0C8C0B5F0C9C0B6F03A
:1002E80000D00001C6510001B55D0001C7510001F1
:1002F800B659D8B009D00001B5510001C65F000158
:10030800B6510001C75B3FD0000E0001C76F000E59
:10031800C66F39D0000120EE02F0A451D926A551AC
:10032800DA22DE50DE10D8B418D0000120EE02F038
:10033800A451D926A551DA22DECFAAF0DDCFABF041
:1003480001D821D00500FA6E0001AA51FD6EAB510B
:10035800FE6EFF6AFA50200E1200A4C0D9FFA5C095
:10036800DAFFDECFAAF0DDCFABF0AAC0D9FFABC071
:10037800DAFF200EDF6EA4C0D9FFA5C0DAFFDE2A9F
:10038800000EDD2200D00001C607D8A0C707000173
:10039800C629C0E10001C729D8B44AD0BBD748D084
:1003A800000120EE02F0A451D926A551DA22DE5030
:1003B800DE10D8B420D0000120EE02F0A451D926D6
:1003C800A551DA22DECFAAF0DDCFABF001D80FD0ED
:1003D8000500FA6E0001AA51FD6EAB51FE6EFF6A70
:1003E800FA50B3C0D9FFB4C0DAFFDF5012000001E1
:1003F800B34BB42B1DD0B3C0D9FFB4C0DAFFA4C02F
:10040800E1FFA5C0E2FFE6CFAAF0E5CFABF0AAC0B6
:10041800E1FFABC0E2FFDFCFE7FF0001B34BB42B36
:10042800A4C0D9FFA5C0DAFFDE2A000EDD2200D065
:100438000001B507D8A0B6070001B529B1E1000150
:10044800B629D8B4E0EF0AF0ABD7E0EF0AF0A8C0BD
:10045800D9FFA9C0DAFFDFCFAAF0020EDE26DFCF70
:10046800ABF0000EDD22AAC0D9FFABC0DAFFDF5027
:100478000001CA6F00D0CA0E0001B36F000E000160
:10048800B46F000E0001B66F010EB56F15D70001ED
:10049800C18D21D0A6C0F6FFA7C0F7FF0001A64B6B
:1004A800A72BF86A0800F5CFCAF00001CA51000A64
:1004B800D8B4F2EF0AF0630AD8B4C9D7070AD8B497
:1004C8000AD0020AD8B4F5D60F0AD8B404D01C0A48
:1004D800D8B4DDD7D0D7070E0001C215D8B41AEFAB
:1004E80008F00001C2A906D0000E0001C96F060E6F
:1004F800C86F00D0A8C0D9FFA9C0DAFFDFCFAAF023
:10050800030EDE26DFCFABF0000EDD22AAC0D9FF36
:10051800ABC0DAFFDECFC3F0DECFC4F0DDCFC5F06D
:100528000001C5AF12D0C3C060F0C4C061F0C5C03F
:1005380062F0C1EC1DF060C0C3F061C0C4F062C0DD
:10054800C5F0030E0001C11300D0000E0001BC6FFE
:10055800000EBB6F0001C3510001C4110001C51199
:10056800D8B49DD0820E0001AA6FFF0E0001AB6FB8
:10057800C3C0ACF0C4C0ADF0C5C0AEF0C6C0AFF0EB
:10058800100E06D00001D890AF33AE33AD33AC3384
:10059800E82EF8D70001AC510001AA250001BB6F75
:1005A800000E0001AB210001BC6F0001BB07D8A001
:1005B800BC07BBC06EF0BCC06FF0000E0001716FCD
:1005C800030E706F71EC1DF06EC0BBF06FC0BCF015
:1005D800BBC066F0BCC067F0000E0001696F0A0E70
:1005E800686FAFEC17F066C0BBF067C0BCF00001E5
:1005F800BCAF05D00001BB07D8A0BC0700D00001E4
:10060800BB510008F9EC0AF083C0BDF084C0BEF00D
:1006180085C0BFF0BDC074F0BEC075F0BFC076F035
:10062800C3C077F0C4C078F0C5C079F0B4EC12F05C
:1006380074C0BDF075C0BEF076C0BFF0BDC060F03C
:10064800BEC061F0BFC062F0000E0001636F800E93
:100658000001646F3F0E0001656F17EC18F0000190
:10066800D8B005D00001BB07D8A0BC0718D0BDC0C2
:1006780060F0BEC061F0BFC062F0000E0001636FA1
:10068800200E0001646F410E0001656F17EC18F031
:100698000001D8A004D00001BB4BBC2B00D0000146
:1006A800C9BF08D00001C9511EE10D0E0001C85D87
:1006B800D8B019D0C3C092F0C4C093F0C5C094F0AC
:1006C8000001C8517BEC0DF083C095F084C096F012
:1006D80085C097F0E7EC0EF092C0C3F093C0C4F069
:1006E80094C0C5F000D00001BCBF08D00001BC51C7
:1006F8002CE10A0E0001BB5DD8B027D00001C35120
:100708000001C4110001C511D8B47FD0C3C08AF05C
:10071800C4C08BF0C5C08CF0C5EC14F000018A5140
:1007280000018B1100018C1100018D11D8A46DD02E
:100738000001BCBF6AD00001BC5107E1020E0001F4
:10074800BB5DD8B002D061D000D0BDC060F0BEC0E3
:1007580061F0BFC062F0700E0001636F890E000186
:10076800646F400E0001656F17EC18F00001D8B0F7
:1007780003D00001F70E02D00001F80EBB27FF0ED0
:10078800BC2300D00001BB51F9EC0AF083C0BDF0D6
:1007980084C0BEF085C0BFF017D0C3C060F0C4C02D
:1007A80061F0C5C062F0BDC063F0BEC064F0BFC0F8
:1007B80065F0EAEC11F060C0B7F061C0B8F062C053
:1007C800B9F063C0BAF017D0C3C060F0C4C061F01C
:1007D800C5C062F0BDC063F0BEC064F0BFC065F0C4
:1007E80017EC11F060C0B7F061C0B8F062C0B9F0A2
:1007F80063C0BAF000D0000E0001C36F000E000104
:10080800C46F000E0001C56F34D0C3C08AF0C4C0E5
:100818008BF0C5C08CF0C5EC14F08AC0B7F08BC063
:10082800B8F08CC0B9F08DC0BAF0C3C09EF0C4C097
:100838009FF0C5C0A0F0B7C068F0B8C069F0B9C0F3
:100848006AF0BAC06BF0EDEC1AF068C0A1F069C0AC
:10085800A2F06AC0A3F070EC1CF09EC0C3F09FC069
:10086800C4F0A0C0C5F0000E0001BC6F000EBB6F45
:1008780000D0010E0001CA6F0A0E0001CA19D8B4CF
:1008880025D001D023D00001CA51040D950EF324C0
:10089800F66EFE0EF420F76EF86A000EF8220900D4
:1008A800F5500001B75D0900F5500001B85909007D
:1008B800F5500001B9590900F5500001BA59D8A0FE
:1008C80005D001D003D00001CA2BD6D7CAC0AAF0E0
:1008D8000001AB6BAABFAB070001C8510001AA27F2
:1008E8000001C9510001AB230001BB510001AA2737
:1008F8000001BC510001AB230001AA510001C65FF1
:100908000001AB510001C75B0001C8510001C911CA
:10091800D8B405D00001C607D8A0C70700D0030E79
:100928000001C1150001AA6F000E0001C2150001E7
:10093800AB6F0001AA510001AB11D8B405D000017A
:10094800C607D8A0C70700D00001C1A5D2D0030EA2
:100958000001C1150001AA6F000E0001C2150001B7
:10096800AB6F0001AA510001AB11D8B477D00001D8
:1009780020EE02F0A451D926A551DA22DE50DE106D
:10098800D8B418D0000120EE02F0A451D926A55100
:10099800DA22DECFAAF0DDCFABF001D85FD00500B8
:1009A800FA6E0001AA51FD6EAB51FE6EFF6AFA5055
:1009B8002D0E1200A4C0D9FFA5C0DAFFDECFAAF021
:1009C800DDCFABF0AAC0D9FFABC0DAFF2D0EDF6ECA
:1009D800A4C0D9FFA5C0DAFFDE2A000EDD223ED072
:1009E800000120EE02F0A451D926A551DA22DE50EA
:1009F800DE10D8B418D0000120EE02F0A451D92698
:100A0800A551DA22DECFAAF0DDCFABF001D821D094
:100A18000500FA6E0001AA51FD6EAB51FE6EFF6A29
:100A2800FA50300E1200A4C0D9FFA5C0DAFFDECFFD
:100A3800AAF0DDCFABF0AAC0D9FFABC0DAFF300E09
:100A4800DF6EA4C0D9FFA5C0DAFFDE2A000EDD22C2
:100A580000D00001C607D8A0C70700D00001C7BF53
:100A680017D10001C751BCE10001C605D8A010D1BB
:100A7800B7D70ED13ED0000120EE02F0A451D926FE
:100A8800A551DA22DE50DE10D8B418D0000120EECD
:100A980002F0A451D926A551DA22DECFAAF0DDCF83
:100AA800ABF001D821D00500FA6E0001AA51FD6E05
:100AB800AB51FE6EFF6AFA50200E1200A4C0D9FF97
:100AC800A5C0DAFFDECFAAF0DDCFABF0AAC0D9FF10
:100AD800ABC0DAFF200EDF6EA4C0D9FFA5C0DAFFD5
:100AE800DE2A000EDD2200D00001C607D8A0C70705
:100AF80000D00001C7BF07D00001C751BCE1000109
:100B0800C605D8B0B8D7030E0001C1150001AA6FF9
:100B1800000E0001C2150001AB6F0001AA510001CF
:100B2800AB11D8B4B5D0000120EE02F0A451D926FB
:100B3800A551DA22DE50DE10D8B418D0000120EE1C
:100B480002F0A451D926A551DA22DECFAAF0DDCFD2
:100B5800ABF001D89DD00500FA6E0001AA51FD6ED8
:100B6800AB51FE6EFF6AFA502D0E1200A4C0D9FFD9
:100B7800A5C0DAFFDECFAAF0DDCFABF0AAC0D9FF5F
:100B8800ABC0DAFF2D0E81D0A4C0D9FFA5C0DAFF13
:100B9800DE2A000EDD227CD0B7C060F0B8C061F05C
:100BA800B9C062F0BAC063F00001CA51040D950ED5
:100BB800F324F66EFE0EF420F76EF86A000EF822A3
:100BC8000900F5CF64F00900F5CF65F00900F5CF0D
:100BD80066F00A00F5CF67F07EEC18F060C0BDF053
:100BE80061C0BEF062C0BFF063C0C0F0BDC06DF0B0
:100BF800BEC06EF0BFC06FF0C0C070F00A0E00013A
:100C0800716F000E726F000E736F000E746F5AECE6
:100C18001AF06DC0BDF06EC0BEF06FC0BFF070C0FE
:100C2800C0F0000120EE02F0A451D926A551DA2225
:100C3800DE50DE10D8B41AD0000120EE02F0A45124
:100C4800D926A551DA22DECFAAF0DDCFABF001D844
:100C58001FD00500FA6E0001AA51FD6EAB51FE6E61
:100C6800FF6AFA500001BD51300F12000001BD515A
:100C7800300FA4C0D9FFA5C0DAFFDECFAAF0DDCFC0
:100C8800ABF0AAC0D9FFABC0DAFFDF6E7DD700D0CA
:100C98000001CA070001CA29D8B440D07DD73ED088
:100CA800000120EE02F0A451D926A551DA22DE5027
:100CB800DE10D8B418D0000120EE02F0A451D926D5
:100CC800A551DA22DECFAAF0DDCFABF001D821D0D2
:100CD8000500FA6E0001AA51FD6EAB51FE6EFF6A67
:100CE800FA50300E1200A4C0D9FFA5C0DAFFDECF3B
:100CF800AAF0DDCFABF0AAC0D9FFABC0DAFF300E47
:100D0800DF6EA4C0D9FFA5C0DAFFDE2A000EDD22FF
:100D180000D00001BB07D8A0BC0700D00001BCBFB1
:100D280007D00001BC51BCE10001BB05D8B0B8D761
:100D38000001C9BF0CD00001C95105E1090E00012D
:100D4800C85DD8A004D0080E0001CA6F03D0C8C07F
:100D5800CAF000D00001CA510001C85F000E0001AE
:100D6800CABFFF0E0001C95B0001CA510001D8B417
:100D780039D0000120EE02F0A451D926A551DA227B
:100D8800DE50DE10D8B418D0000120EE02F0A451D5
:100D9800D926A551DA22DECFAAF0DDCFABF001D8F3
:100DA80021D00500FA6E0001AA51FD6EAB51FE6E0E
:100DB800FF6AFA502E0E1200A4C0D9FFA5C0DAFFB0
:100DC800DECFAAF0DDCFABF0AAC0D9FFABC0DAFF07
:100DD8002E0EDF6EA4C0D9FFA5C0DAFFDE2A000EF2
:100DE800DD2200D00001CA51F9EC0AF083C0B0F04E
:100DF80084C0B1F085C0B2F0C3C077F0C4C078F049
:100E0800C5C079F0B0C074F0B1C075F0B2C076F06A
:100E1800B4EC12F074C08AF075C08BF076C08CF018
:100E2800C5EC14F08AC0B7F08BC0B8F08CC0B9F02C
:100E38008DC0BAF0ADD0B7C060F0B8C061F0B9C02D
:100E480062F0BAC063F00001CA51040D950EF32494
:100E5800F66EFE0EF420F76EF86A000EF82209000E
:100E6800F5CF64F00900F5CF65F00900F5CF66F01D
:100E78000A00F5CF67F07EEC18F060C0BDF061C0E5
:100E8800BEF062C0BFF063C0C0F0BDC06DF0BEC0B0
:100E98006EF0BFC06FF0C0C070F00A0E0001716F35
:100EA800000E726F000E736F000E746F5AEC1AF01A
:100EB8006DC0BDF06EC0BEF06FC0BFF070C0C0F0B6
:100EC800000120EE02F0A451D926A551DA22DE5005
:100ED800DE10D8B41AD0000120EE02F0A451D926B1
:100EE800A551DA22DECFAAF0DDCFABF001D825D0AC
:100EF8000500FA6E0001AA51FD6EAB51FE6EFF6A45
:100F0800FA500001BD51300F12000001BD51300FE1
:100F1800A4C0D9FFA5C0DAFFDECFAAF0DDCFABF0C1
:100F2800AAC0D9FFABC0DAFFDF6EA4C0D9FFA5C045
:100F3800DAFFDE2A000EDD2200D0B7C06DF0B8C09F
:100F48006EF0B9C06FF0BAC070F00001CA51040D5C
:100F5800950EF324F66EFE0EF420F76EF86A000E76
:100F6800F8220900F5CF71F00900F5CF72F00900F9
:100F7800F5CF73F00A00F5CF74F05AEC1AF06DC093
:100F8800B7F06EC0B8F06FC0B9F070C0BAF000D05A
:100F98000001CA070001CA29D8B440D04CD73ED0B6
:100FA800000120EE02F0A451D926A551DA22DE5024
:100FB800DE10D8B418D0000120EE02F0A451D926D2
:100FC800A551DA22DECFAAF0DDCFABF001D821D0CF
:100FD8000500FA6E0001AA51FD6EAB51FE6EFF6A64
:100FE800FA50300E1200A4C0D9FFA5C0DAFFDECF38
:100FF800AAF0DDCFABF0AAC0D9FFABC0DAFF300E44
:10100800DF6EA4C0D9FFA5C0DAFFDE2A000EDD22FC
:1010180000D00001C807D8A0C90700D00001C851F6
:101028000001C911D8B4C8D2BBD7C6D20001C1BD0E
:101038002AD0A8C0D9FFA9C0DAFFDFCFAAF0020ED4
:10104800DE26DFCFABF0000EDD22AAC0D9FFABC091
:10105800DAFFDECFB7F0DDCFB8F00001000EB8BF81
:10106800FF0EB96FBA6F0001BAAF29D0030E0001A5
:10107800C1130001BA1FB91FB81FB76D000EB823FE
:10108800B923BA231CD0A8C0D9FFA9C0DAFFDFCF83
:10109800AAF0020EDE26DFCFABF0000EDD22AAC0DA
:1010A800D9FFABC0DAFFDECFACF0DDCFADF0ACC01E
:1010B800B7F0ADC0B8F00001B96BBA6B00D0000151
:1010C800C8510001C911D8A40ED00001B7510001C0
:1010D800B8110001B9110001BA11D8A404D0000157
:1010E800C84BC92B00D0010E0001CA6F0A0E0001BF
:1010F800CA19D8B425D001D023D00001CA51040D93
:10110800950EF324F66EFE0EF420F76EF86A000EC4
:10111800F8220900F5500001B75D0900F5500001FB
:10112800B8590900F5500001B9590900F5500001F6
:10113800BA59D8A005D001D003D00001CA2BD6D700
:10114800800E0001CABF7F0E0001AA6F0001C851BE
:101158000001CA5D0001C951800A0001AA59D8B02E
:1011680003D0C8C0CAF019D00001C951800A0001D3
:10117800AA6F0001CA510001C85D800E0001CABFF4
:101188007F0E0001AA59D8B008D00001CA51000149
:10119800C86FC96BC8BFC90700D00001C65100019C
:1011A800C711D8B415D0030E0001C1150001AA6FEC
:1011B800000E0001C2150001AB6F0001AA51000129
:1011C800AB11D8B405D00001C607D8A0C70700D016
:1011D8000001C2AD1FD00001C6510001C85D000169
:1011E800C951800A0001AA6F0001C751800A000195
:1011F800AA59D8B009D00001C8510001C65F000142
:10120800C9510001C75B06D0000E0001C76F000E70
:10121800C66F00D0800E0001CABF7F0E0001AA6F02
:101228000001C6510001CA5D0001C751800A0001D2
:10123800AA59D8B00BD00001CA510001C65F000EF0
:101248000001CABFFF0E0001C75B06D0000E0001F7
:10125800C76F000EC66F00D00001C1A594D0030E61
:101268000001C1150001AA6F000E0001C21500019E
:10127800AB6F0001AA510001AB11D8B439D00001FD
:1012880020EE02F0A451D926A551DA22DE50DE1054
:10129800D8B418D0000120EE02F0A451D926A551E7
:1012A800DA22DECFAAF0DDCFABF001D821D00500DD
:1012B800FA6E0001AA51FD6EAB51FE6EFF6AFA503C
:1012C8002D0E1200A4C0D9FFA5C0DAFFDECFAAF008
:1012D800DDCFABF0AAC0D9FFABC0DAFF2D0EDF6EB1
:1012E800A4C0D9FFA5C0DAFFDE2A000EDD2200D097
:1012F8000001C6510001C711D8B451D1000120EE38
:1013080002F0A451D926A551DA22DE50DE10D8B455
:1013180018D0000120EE02F0A451D926A551DA22F6
:10132800DECFAAF0DDCFABF001D821D00500FA6EF0
:101338000001AA51FD6EAB51FE6EFF6AFA50300EE5
:101348001200A4C0D9FFA5C0DAFFDECFAAF0DDCF16
:10135800ABF0AAC0D9FFABC0DAFF300EDF6EA4C075
:10136800D9FFA5C0DAFFDE2A000EDD2200D0000179
:10137800C607D8A0C7070001C6510001C711D8B4D5
:101388000ED1BCD70CD10001C6510001C711D8B489
:1013980045D0000120EE02F0A451D926A551DA2249
:1013A800DE50DE10D8B418D0000120EE02F0A451AF
:1013B800D926A551DA22DECFAAF0DDCFABF001D8CD
:1013C80021D00500FA6E0001AA51FD6EAB51FE6EE8
:1013D800FF6AFA50200E1200A4C0D9FFA5C0DAFF98
:1013E800DECFAAF0DDCFABF0AAC0D9FFABC0DAFFE1
:1013F800200EDF6EA4C0D9FFA5C0DAFFDE2A000EDA
:10140800DD2200D00001C607D8A0C7070001C651D9
:101418000001C711D8B402D0BCD700D0030E000118
:10142800C1150001AA6F000E0001C2150001AB6FC3
:101438000001AA510001AB11D8B4B1D0000120EECF
:1014480002F0A451D926A551DA22DE50DE10D8B414
:1014580018D0000120EE02F0A451D926A551DA22B5
:10146800DECFAAF0DDCFABF001D899D00500FA6E37
:101478000001AA51FD6EAB51FE6EFF6AFA502D0EA7
:101488001200A4C0D9FFA5C0DAFFDECFAAF0DDCFD5
:10149800ABF0AAC0D9FFABC0DAFF2D0EDF6E77D054
:1014A8007ED0C8C0AAF0C9C0ABF00001D890AA3756
:1014B800AB370001D890AA37AB37950E0001AA25A3
:1014C800F66EFE0EAB21F76EF86A000EF8220900E0
:1014D800F5CF64F00900F5CF65F00900F5CF66F0A7
:1014E8000A00F5CF67F0B7C060F0B8C061F0B9C0C6
:1014F80062F0BAC063F07EEC18F060C06DF061C0B5
:101508006EF062C06FF063C070F00A0E0001716F78
:10151800000E726F000E736F000E746F5AEC1AF0A3
:1015280000016D51300F0001CA6F000120EE02F07A
:10153800A451D926A551DA22DE50DE10D8B419D02C
:10154800000120EE02F0A451D926A551DA22DECFFF
:10155800AAF0DDCFABF001D822D00500FA6E000169
:10156800AA51FD6EAB51FE6EFF6AFA500001CA51D6
:101578001200A4C0D9FFA5C0DAFFDECFAAF0DDCFE4
:10158800ABF0AAC0D9FFABC0DAFFCAC0DFFFA4C066
:10159800D9FFA5C0DAFFDE2A000EDD2200D0000147
:1015A800C807D8A0C9070001C82904E10001C92952
:1015B800D8B402D076D700D0A6C0F6FFA7C0F7FFF0
:1015C8000001A64BA72BF86A0800F5CFCAF0000166
:1015D800CA51D8B403D05DEF00F000D0000E00016E
:1015E800A56F000EA46F120012000001896F0001A0
:1015F80089AF3FD10001896D00018951800A120F1E
:10160800D8A0B6D0000E0001716F030E706F000EE7
:101618000001696F0A0E686F000E0001636F640EA7
:10162800626F000189510001606F616B60BF6107E3
:1016380000EC1AF060C066F061C067F0AFEC17F01C
:10164800090E0001662500016E6F000E000167217A
:1016580000016F6F71EC1DF0BD0E00016E25F66E76
:10166800FE0E00016F21F76EF86A000EF8220900DD
:10167800F5CF77F00900F5CF78F00A00F5CF79F0CB
:10168800000E0001696F640E686F00018951000146
:10169800666F676B66BF6707AFEC17F0120E000145
:1016A800662500016E6F000E0001672100016F6F53
:1016B800000E0001716F030E706F71EC1DF0BD0E0E
:1016C80000016E25F66EFE0E00016F21F76EF86AB6
:1016D800000EF8220900F5CF74F00900F5CF75F077
:1016E8000A00F5CF76F0B4EC12F074C086F075C03D
:1016F80087F076C088F086C074F087C075F088C01F
:1017080076F0000E0001716F030E706F000E00017D
:10171800636F0A0E626F000189510001606F616B8F
:1017280060BF610700EC1AF060C06EF061C06FF036
:1017380071EC1DF0BD0E00016E25F66EFE0E000167
:101748006F21F76EF86A000EF8220900F5CF77F0DE
:101758000900F5CF78F00A00F5CF79F0B4EC12F073
:1017680074C083F075C084F076C085F012006BD029
:1017780000018951800A750FD8A065D0000E0001BC
:10178800696F0A0E686F000189510001666F676B07
:1017980066BF6707AFEC17F0090E00016625000168
:1017A8006E6F000E0001672100016F6F000E0001CF
:1017B800716F030E706F71EC1DF0BD0E00016E2588
:1017C800F66EFE0E00016F21F76EF86A000EF82221
:1017D8000900F5CF74F00900F5CF75F00A00F5CFD0
:1017E80076F0000E0001716F030E706F000E00019D
:1017F800636F0A0E626F000189510001606F616BAF
:1018080060BF610700EC1AF060C06EF061C06FF055
:1018180071EC1DF0BD0E00016E25F66EFE0E000186
:101828006F21F76EF86A000EF8220900F5CF77F0FD
:101838000900F5CF78F00A00F5CF79F0B4EC12F092
:101848008FD7120000D000018951030DBD0EF3247B
:10185800F66EFE0EF420F76EF86A000EF822090004
:10186800F5CF83F00900F5CF84F00A00F5CF85F0B5
:10187800120000018951800A120FD8A0B6D0000EBC
:101888000001716F030E706F000E0001696F0A0E80
:10189800686F000E0001636F640E626F000189516A
:1018A8000001606F616B60BF610700EC1AF060C0F7
:1018B80066F061C067F0AFEC17F0090E000166250D
:1018C80000016E6F000E0001672100016F6F71EC5F
:1018D8001DF0E40E00016E25F66EFE0E00016F216C
:1018E800F76EF86A000EF8220900F5CF77F00900C4
:1018F800F5CF78F00A00F5CF79F0000E0001696F96
:10190800640E686F000189510001666F676B66BFDE
:101918006707AFEC17F0120E0001662500016E6F25
:10192800000E0001672100016F6F000E0001716F4A
:10193800030E706F71EC1DF0E40E00016E25F66E5B
:10194800FE0E00016F21F76EF86A000EF8220900FA
:10195800F5CF74F00900F5CF75F00A00F5CF76F0F1
:10196800B4EC12F074C086F075C087F076C088F0C9
:1019780086C074F087C075F088C076F0000E00014C
:10198800716F030E706F000E0001636F0A0E626FB5
:10199800000189510001606F616B60BF610700EC55
:1019A8001AF060C06EF061C06FF071EC1DF0E40ECB
:1019B80000016E25F66EFE0E00016F21F76EF86AC3
:1019C800000EF8220900F5CF77F00900F5CF78F07E
:1019D8000A00F5CF79F0B4EC12F074C083F075C04A
:1019E80084F076C085F012006BD000018951800A1E
:1019F800750FD8A065D0000E0001696F0A0E686FD8
:101A0800000189510001666F676B66BF6707AFEC1D
:101A180017F0090E0001662500016E6F000E000127
:101A2800672100016F6F000E0001716F030E706F68
:101A380071EC1DF0E40E00016E25F66EFE0E00013D
:101A48006F21F76EF86A000EF8220900F5CF74F0DE
:101A58000900F5CF75F00A00F5CF76F0000E000109
:101A6800716F030E706F000E0001636F0A0E626FD4
:101A7800000189510001606F616B60BF610700EC74
:101A88001AF060C06EF061C06FF071EC1DF0E40EEA
:101A980000016E25F66EFE0E00016F21F76EF86AE2
:101AA800000EF8220900F5CF77F00900F5CF78F09D
:101AB8000A00F5CF79F0B4EC12F08FD7120000D0FD
:101AC80000018951030DE40EF324F66EFE0EF42096
:101AD800F76EF86A000EF8220900F5CF83F00900C6
:101AE800F5CF84F00A00F5CF85F01200120000014E
:101AF8008C6F6D0E00018C65C4D0000E0001716FF3
:101B0800030E706F000E0001696F0A0E686F000EF9
:101B18000001636F640E626F8CC060F00001616B3E
:101B280000EC1AF060C066F061C067F0AFEC17F027
:101B3800090E0001662500016E6F000E0001672185
:101B480000016F6F71EC1DF0BD0E00016E25F66E81
:101B5800FE0E00016F21F76EF86A000EF8220900E8
:101B6800F5CF77F00900F5CF78F00A00F5CF79F0D6
:101B7800000E0001696F640E686F8CC066F000018A
:101B8800676BAFEC17F0120E0001662500016E6F4F
:101B9800000E0001672100016F6F000E0001716FD8
:101BA800030E706F71EC1DF0BD0E00016E25F66E10
:101BB800FE0E00016F21F76EF86A000EF822090088
:101BC800F5CF74F00900F5CF75F00A00F5CF76F07F
:101BD800B4EC12F074C089F075C08AF076C08BF04E
:101BE800000E0001716F030E706F000E0001636F2D
:101BF8000A0E626F8CC060F00001616B00EC1AF095
:101C080060C06EF061C06FF071EC1DF0BD0E000198
:101C18006E25F66EFE0E00016F21F76EF86A000E53
:101C2800F8220900F5CF77F00900F5CF78F00A001F
:101C3800F5CF79F089C074F08AC075F08BC076F062
:101C4800B4EC12F074C086F075C087F076C088F0E6
:101C580086C074F087C075F088C076F0000E000169
:101C6800776F000E0001786F3F0E0001796FB4ECBA
:101C780012F074C083F075C084F076C085F012004D
:101C88007AD00A0E00018C6576D0000E0001716FC3
:101C9800030E706F000E0001636F0A0E626F8CC036
:101CA80060F00001616B00EC1AF060C06EF061C07A
:101CB8006FF071EC1DF0BD0E00016E25F66EFE0E84
:101CC80000016F21F76EF86A000EF8220900F5CFBF
:101CD80077F00900F5CF78F00A00F5CF79F0000E1B
:101CE8000001696F0A0E686F8CC066F00001676BAF
:101CF800AFEC17F0090E0001662500016E6F000EAB
:101D08000001672100016F6F000E0001716F030E63
:101D1800706F71EC1DF0BD0E00016E25F66EFE0EA3
:101D280000016F21F76EF86A000EF8220900F5CF5E
:101D380074F00900F5CF75F00A00F5CF76F0B4EC31
:101D480012F074C089F075C08AF076C08BF089C033
:101D580074F08AC075F08BC076F0000E0001776FC2
:101D6800000E0001786F3F0E0001796FB4EC12F09D
:101D780080D7120000D000018C51030DBD0EF32452
:101D8800F66EFE0EF420F76EF86A000EF8220900CF
:101D9800F5CF74F00900F5CF75F00A00F5CF76F0AD
:101DA800000E0001776F000E0001786F3F0E0001F2
:101DB800796FB4EC12F074C083F075C084F076C00B
:101DC80085F01200120094C098F00001996B9A6B8C
:101DD800000193350001983701E39981000198517A
:101DE80000019D6F97C098F00001996B9A6B0001F4
:101DF80096350001983701E3998100019851000157
:101E08009C6F00019D510001D8B411D000019C5174
:101E180000019D5DD8B012D000019D51000800015D
:101E28009C250001986F180E0001986507D095C091
:101E380092F096C093F097C094F0120000019C5164
:101E48000001D8B411D000019D5100019C5DD8B0AB
:101E580012D000019C51000800019D250001986FD7
:101E6800180E0001986507D092C092F093C093F0C5
:101E780094C094F01200060E00019B6F000194AF0D
:101E880003D000019B8F00D0000197AF02D0000162
:101E98009B8D0001938FFF0E00019217FF0E00012A
:101EA8009317000E000194170001968FFF0E000192
:101EB8009517FF0E00019617000E000197170001F5
:101EC8009C5100019D5DD8B028D00001D89095376D
:101ED8009637973700019C0700019D5100019C1916
:101EE800D8B413D000019B079BC098F0070E0001DF
:101EF8009817D8B40AD0E9D708D00001D8909433FD
:101F08009333923300019D2B00D000019C510001B6
:101F18009D19D8B430D0F1D72ED000019D510001C1
:101F28009C5DD8B028D00001D89092379337943769
:101F380000019D0700019D5100019C19D8B413D0E0
:101F480000019B079BC098F0070E00019817D8B4B2
:101F58000AD0E9D708D00001D89097339633953343
:101F680000019C2B00D000019C5100019D19D8B4A0
:101F780002D0F1D700D000019BAF12D0FF0E0001B4
:101F8800921BFF0E0001931BFF0E0001941B010E14
:101F980000019227000E00019323000E00019423F4
:101FA80000019BAD13D0FF0E0001951BFF0E000131
:101FB800961BFF0E0001971B010E00019527000ECE
:101FC80000019623000E0001972300D0000E0001A7
:101FD8009B6F000192510001952700019351000168
:101FE80096230001945100019723000197AF16D062
:101FF800FF0E0001951BFF0E0001961BFF0E00014E
:10200800971B010E00019527000E00019623000E74
:1020180000019723010E00019B6F00D095C060F06E
:1020280096C061F097C062F09DC063F09BC064F0F9
:10203800B1EC16F060C092F061C093F062C094F009
:1020480012001200010E00016D6F010E00016C6F8D
:10205800000E0001686F000E0001696F000E00019C
:102068006E6F070E00016E6501D00ED000016E5133
:10207800010D360EF324D96E000EF420DA6E000E30
:10208800DF6E00016E2BEDD72EEC1DF00001676F9F
:10209800000167510001D8A403D04250D8B404D03D
:1020A800000E436E000E1200F00E45EC1CF0000E00
:1020B80000016E6F00D0000E00016A6FF0EC1DF099
:1020C8000009D8B404D0020E00016A6F00D0030ED4
:1020D8000001666F7D0EE82EFED7662FFCD700F054
:1020E800F0EC1DF00009D8B403D000016A8100D0DB
:1020F800030E0001666F7D0EE82EFED7662FFCD713
:1021080000F0030E00016A19D8B476D002D074D05A
:102118006ED000016A510001D8B406D00001D890F1
:102128006A3100016B6F29D0435000016C5DD8B053
:1021380013D000016E51010D360EF324D96E000E36
:10214800F420DA6EDF5000016D150009D8B40BD009
:10215800010E00016B6F09D0435000016C19D8A41F
:1021680002D0010EF6D7000EF4D700016B51000122
:10217800D8A403D06CC068F000D000016B510001F6
:10218800D8B40DD000016E51010D360EF324D96E6E
:10219800000EF420DA6E00016D51DF1212D000013A
:1021A8006D51FF0A0001666F00016E51010D360E78
:1021B800F324D96E000EF420DA6E00016651DF16A2
:1021C80000D000016B51A7EC1DF000016C2B000141
:1021D8006D516D2500016D6F00016D510001D8A48E
:1021E80006D000016E2B010E00016D6F00D0070EA6
:1021F80000016E6560D700D0410E00016C6103D00C
:10220800000E436E0CD068C043F04350D8A402D0EF
:10221800010E01D0000E426E010E0001696F00012F
:1022280069511200120062C066F00001676B686BAA
:10223800000161350001663701E3678100016651DD
:1022480000016E6F00016E51D8A40AD0000E000183
:10225800606F000E616F000E626F000E636F1200F8
:1022680065C066F00001676B686B000164350001AA
:10227800663701E367810001665100016D6F000157
:102288006D51D8A40AD0000E0001606F000E616F76
:10229800000E626F000E636F12000001618FFF0E67
:1022A80000016017FF0E00016117000E00016217A0
:1022B8000001648FFF0E00016317FF0E0001641711
:1022C800000E00016517000E0001696F000E6A6FAD
:1022D800000E6B6F000E6C6F7F0E00016E5F0001C9
:1022E8006D51980F00016E5F180E00016D6F0001AF
:1022F800D89069376A376B376C3700016351000132
:10230800605D0001645100016159000165510001DF
:102318006259D8A00ED0000163510001605F00012E
:1023280064510001615B000165510001625B0001BD
:1023380069810001D89060376137623700016D2FDD
:10234800D6D700D000016EAF1BD000016E51800AB5
:10235800970FD8B00BD0000E0001606F000E616FB0
:10236800000E626F000E636F120000D00001D8905B
:102378006C336B336A33693300016E3FF7D71DD076
:10238800170E00016E6514D0000E0001606F000E7C
:10239800616F000E626F000E636F120009D00001BA
:1023A800D89069376A376B376C3700016E0700D0F1
:1023B80000016E510001D8A4F2D769C060F06AC06C
:1023C80061F06BC062F06CC063F01200000162350E
:1023D800633500016B6F00016B51D8A40AD0000E61
:1023E8000001606F000E616F000E626F000E636F78
:1023F800120000016535663500016A6F00016A51F7
:10240800D8A40AD0000E0001606F000E616F000EA4
:10241800626F000E636F12000001628FFF0E0001F1
:102428006017FF0E6117FF0E6217000E6317000199
:10243800658FFF0E00016317FF0E6417FF0E651707
:10244800000E6617000E0001666F000E676F000E23
:10245800686F000E696F7F0E00016B5F00016A51A3
:10246800A00F00016B5F200E00016A6F00D0000111
:10247800D8906637673768376937000163510001BC
:10248800605D00016451000161590001655100015E
:1024980062590001665100016359D8A013D00001A8
:1024A80063510001605F000164510001615B00013C
:1024B80065510001625B000166510001635B000128
:1024C800668100D00001D890603761376237633782
:1024D80000016A2FCCD700D000016BAF1BD00001E0
:1024E8006B51800A9F0FD8B00BD0000E0001606FAF
:1024F800000E616F000E626F000E636F120000D055
:102508000001D890693368336733663300016B3F45
:10251800F7D71DD01F0E00016B6514D0000E000107
:10252800606F000E616F000E626F000E636F120025
:1025380009D00001D89066376737683769370001D6
:102548006B0700D000016B510001D8A4F2D766C018
:1025580060F067C061F068C062F069C063F01200A3
:1025680076C07AF000017B6B7C6B00017535000149
:102578007A3701E37B8100017A5100017D6F000108
:102588007D51D8A40AD0000E0001746F000E00011E
:10259800756F000E0001766F120079C07AF00001A5
:1025A8007B6B7C6B0001783500017A3701E37B8116
:1025B80000017A510001826F00018251D8A40AD02B
:1025C800000E0001746F000E0001756F000E00010F
:1025D800766F1200000182517B0F00017D2776C0C3
:1025E80082F0000179510001821B800E00018217E0
:1025F8000001758F0001788FFF0E00017717FF0E1D
:1026080000017817000E00017917000E00017E6F97
:10261800000E00017F6F000E0001806F070E0001A1
:10262800816F00D0000174A10DD000017751000125
:102638007E270001785100017F23000179510001B4
:10264800802300D00001D8907633753374330001AD
:10265800D8907737783779370001812FE3D700D0C2
:10266800090E0001816F00D0000174A10DD0000196
:10267800775100017E270001785100017F23000176
:1026880079510001802300D00001D890763375334A
:1026980074330001D89080337F337E330001812F5B
:1026A800E3D700D07EC060F07FC061F080C062F0E8
:1026B8007DC063F082C064F0B1EC16F060C074F0C5
:1026C80061C075F062C076F0120012000001F65188
:1026D800D8B448D050EC1DF092C0DDF093C0DEF0C5
:1026E80094C0DFF0000E0001866FA00E0001876F16
:1026F800400E0001886F000E0001776F100E000178
:10270800786F410E0001796FDDC074F0DEC075F09E
:10271800DFC076F0B4EC12F074C083F075C084F0BA
:1027280076C085F01CEC14F083C092F084C093F05E
:1027380085C094F0000E0001956F000E0001966FA1
:10274800420E0001976FE7EC0EF092C0DDF093C0E7
:10275800DEF094C0DFF0DDC0DAF0DEC0DBF0DFC011
:10276800DCF012009AEC1EF00009D8B44BD0010E30
:102778000001F66F50EC1DF092C0DDF093C0DEF062
:1027880094C0DFF0000E0001866FA00E0001876F75
:10279800400E0001886F000E0001776F100E0001D7
:1027A800786F410E0001796FDDC074F0DEC075F0FE
:1027B800DFC076F0B4EC12F074C083F075C084F01A
:1027C80076C085F01CEC14F083C092F084C093F0BE
:1027D80085C094F0000E0001956F000E0001966F01
:1027E800420E0001976FE7EC0EF092C0DDF093C047
:1027F800DEF094C0DFF0DDC0DAF0DEC0DBF0DFC071
:10280800DCF01200000E0001F66F350E0001CB6FF0
:10281800FF0E0001CC6FBFEC1CF0000E0001DA6F58
:10282800000E0001DB6F000E0001DC6F12001200C9
:1028380085C089F000018A6B8B6B0001843500012B
:10284800893701E38A81000189510001906F0001F5
:102858009051D8A40AD0000E0001836F000E000129
:10286800846F000E0001856F120088C089F0000196
:102878008A6B8B6B000187350001893701E38A81F8
:10288800000189510001916F00019151D8A40AD02B
:10289800000E0001836F000E0001846F000E00011E
:1028A800856F1200000E00018D6F000E00018E6F03
:1028B800000E00018F6F00019151890F0001905F98
:1028C80085C091F0000188510001911B800E000124
:1028D80091170001848FFF0E00018317FF0E00017E
:1028E8008417000E000185170001878FFF0E000175
:1028F8008617FF0E00018717000E00018817180EB3
:1029080000018C6F00D00001D8908D378E378F373B
:10291800000186510001835D00018751000184593F
:102928000001885100018559D8A00ED000018651B8
:102938000001835F000187510001845B0001885119
:102948000001855B00018D810001D89083378437B1
:10295800853700018C2FD7D700D08DC060F08EC08E
:1029680061F08FC062F090C063F091C064F0B1EC88
:1029780016F060C083F061C084F062C085F0120078
:1029880012008CC08EF000018F6B906B00018B35AC
:1029980000018E3701E38F8100018E510001986F8D
:1029A80000019851D8A40AD0000E00018A6F000EC9
:1029B8008B6F000E8C6F000E8D6F1200170E0001CA
:1029C8008E6F8AC08FF08BC090F08CC091F00001A0
:1029D8008E290001926F05D00001D8909133903371
:1029E8008F330001922FF8D700018F510001936FA8
:1029F80000018B8FFF0E00018A17FF0E00018B1755
:102A0800000E00018C1700018A510001946F00012B
:102A18008B510001956F00018C510001966F0001E8
:102A2800976B8E0E0001985F000198AF1BD00001D4
:102A38009851800A8F0FD8B00BD0000E00018A6F12
:102A4800000E8B6F000E8C6F000E8D6F120000D081
:102A58000001D89097339633953394330001983F0B
:102A6800F7D71FD0170E0001986514D0000E00018B
:102A78008A6F000E8B6F000E8C6F000E8D6F120028
:102A880009D00001D89094379537963797370001C9
:102A9800980700D0000198510001D8B402D0F1D7AE
:102AA80000D0000193510001D8B40AD00001971F4B
:102AB800961F951F946D000E95239623972300D09B
:102AC80094C08AF095C08BF096C08CF097C08DF0BA
:102AD800120012002EEC1DF0550E19EC1CF092900D
:102AE8008980440E45EC1CF0EE0E0001606F020E6A
:102AF800616F000E626F000E636F8DEC1DF02EEC9F
:102B08001DF0550E19EC1CF0BE0E45EC1CF0000E25
:102B18000001756F080E0001756501D00FD0000126
:102B28007551010D6C0EF324D96E000EF420DA6E87
:102B3800E6EC1BF0DF6E0001752BECD7000E0001F0
:102B4800776F000E766F00016D510001776F766B1D
:102B580000016C5100017613100E3618D8A448D025
:102B68000001D89077337633000176510001776FF2
:102B7800766B400E0001765F000E775B00017251A4
:102B880000016A6F6B6B00016A1F6B1F6A4B6B2B2E
:102B98000001735100016A250001786F000E0001E1
:102BA8006B210001796F000178510001796F786B12
:102BB80000017351D8B40FD078C060F079C061F0CB
:102BC80073C062F00001636BACEC1AF060C078F07F
:102BD80061C079F000D0000176510001782500012C
:102BE800786F00017751000179210001796F0FD0CA
:102BF80076C078F077C079F00001783B793BF00E29
:102C0800791778510F0B7913F00E781700D078C028
:102C180068F079C069F012001200000E0001E66F3A
:102C2800000EE56F62EC1EF0A4EC19F0E80E00014E
:102C3800606F030E616F000E626F000E636F8DECA4
:102C48001DF0B20E0001CB6FFF0E0001CC6FBFEC80
:102C58001CF0B20E0001CB6FFF0E0001CC6FBFEC71
:102C68001CF00B0E0001CB6FFF0E0001CC6FBFEC08
:102C78001CF09AEC1EF00009D8B40CD0B50E000177
:102C8800CB6FFF0E0001CC6FBFEC1CF0010E0001F2
:102C9800F66F00D00001F851D8B417D0000E00012B
:102CA800F86F09D041EC17F010D0E1EC18F00DD016
:102CB8006AEC13F00AD00001F751610AD8B4F5D7CD
:102CC800050AD8B4EFD7F4D700D00001F905D8A485
:102CD80009D05A0E0001CB6FFF0E0001CC6FBFEC7C
:102CE8001CF00DD0020E0001F919D8A40CD07B0EEF
:102CF8000001CB6FFF0E0001CC6FBFEC1CF0000E83
:102D08000001F96F00D00001FA51D8B4C3D76AECBA
:102D180013F0DAC0E7F0DBC0E8F0DCC0E9F09B0EA6
:102D28000001CB6FFF0E0001CC6F000E0001CE6FCB
:102D3800FE0ECD6F000E0001D06F580ECF6FE7C0AA
:102D4800D1F0E8C0D2F0E9C0D3F0BFEC1CF0000E1F
:102D58000001FA6F9FD759EF00F00001635100019D
:102D6800D8B408D00001605100016111000162115E
:102D7800D8A413D0000E0001606F000E0001616F2F
:102D8800000E0001626F120008D00001632B0001E1
:102D9800D89062336133603300D0000E00016015B3
:102DA8000001656F000E000161150001666FFE0EDF
:102DB800000162150001676F00016551000166118D
:102DC80000016711D8B413D0E0D711D00001632BEC
:102DD800010E00016027000E00016123000E0001B2
:102DE80062230001D89062336133603300D0000E53
:102DF800000160150001656F000E000161150001FA
:102E0800666FFF0E000162150001676F00016551D2
:102E18000001661100016711D8B40AD0D7D708D0CD
:102E2800000163070001D89060376137623700D02E
:102E3800000161BF05D0020E00016361F1D700D027
:102E4800000163B103D00001619F00D00001D89058
:102E580063330001635100016213000164510001F2
:102E6800D8B403D00001628F00D060C060F061C0A8
:102E780061F062C062F012001200FEC010F1FFC0E3
:102E880011F120EE24F011EE03F00C0EDBCFE3FF7E
:102E9800E806FCE2FBC000F1FCC001F1FDC002F154
:102EA80000D0ACA2FED70101105156EC1EF000D0A4
:102EB800ACA2FED70101115156EC1EF0CE0E000156
:102EC800CB6FFF0E0001CC6F030E0001606F010E87
:102ED8000001616F98EC1CF060C0CDF061C0CEF0CD
:102EE800BFEC1CF0000E0101136F000E126F20D012
:102EF80000D0ACA2FED7030E01011225D96E010E37
:102F080001011321DA6EDF5056EC1EF000D0BAA290
:102F1800FED7030E01011225D96E010E01011321FE
:102F2800DA6EDF504AEC1EF00101124B132B00D071
:102F3800030E0001606F010E0001616F98EC1CF038
:102F4800000160510101125D000161510101135935
:102F5800D8A0CFD71200000E00016B6F000169AF37
:102F680009D00001686D691FD8B0692B010E0001F6
:102F78006B6F00D0000167AF09D00001666D671F55
:102F8800D8B0672B010E00016B1B00D0000E0001AA
:102F98006D6F000E6C6F0001685100016911D8B4A3
:102FA80031D0010E00016A6F07D00001D890683750
:102FB800693700016A2B00D0000169BF02D0F5D73C
:102FC80000D00001D8906C376D37000168510001BE
:102FD800665D0001695100016759D8A00BD0000156
:102FE80068510001665F000169510001675B0001DB
:102FF8006C8100D00001D8906933683300016A2FD2
:10300800E0D700D000016B510001D8B406D0000110
:103018006C6D6D1FD8B06D2B00D06CC066F06DC0A4
:1030280067F012001200000162AF1ED060C066F0A7
:1030380061C067F062C068F00001661F671F681F03
:10304800662B000E67236823000E00016625000129
:10305800606F000E000167210001616F800E0001A2
:1030680068210001626F00D0000165AF1ED063C007
:1030780066F064C067F065C068F00001661F671FEE
:10308800681F662B000E67236823000E0001662563
:103098000001636F000E000167210001646F800E5C
:1030A800000168210001656F00D0000E0001601B5F
:1030B800000E0001611B800E0001621B000E000162
:1030C800631B000E0001641B800E0001651B0001DC
:1030D80063510001605D0001645100016159000104
:1030E800655100016259D8B002D0D8901200D8803A
:1030F80012001200000E0001686F000E696F000ECA
:103108006A6F000E6B6F00016451000165110001C8
:10311800661100016711D8B447D0010E00016C6F29
:1031280009D00001D89064376537663767370001E2
:103138006C2B00D0000167BF02D0F3D700D000018C
:10314800D890683769376A376B37000164510001D6
:10315800605D00016551000161590001665100017F
:1031680062590001675100016359D8A013D00001CA
:1031780064510001605F000165510001615B00015D
:1031880066510001625B000167510001635B000149
:10319800688100D00001D8906733663365336433A3
:1031A80000016C2FCCD700D068C060F069C061F016
:1031B8006AC062F06BC063F01200000E0001E26F9B
:1031C800000E0001E46F000EE36F0001E4BF0AD0B7
:1031D8000001E45153E1060E0001E35DD8B012008E
:1031E80001D012000001E351E3250001E26F000164
:1031F800E2510001DA6FDB6B010E0001DA27000EE5
:10320800DB23EA0E0001DA25D96E000E0001DB216E
:10321800DA6EDF500001DC6F0001E251010DEA0EA9
:10322800F324D96E000EF420DA6EDF500001DD6F52
:103238000001DD510001DF6FDE6B0001DC51000190
:10324800DE250001E06F0001000E0001DF21000112
:10325800E16FE70E0001CB6FFF0E0001CC6FE3C0FA
:10326800CDF0E4C0CEF0E0C0CFF0E1C0D0F0BFECCC
:103278001CF00001E34BE42BA8D712001200EACFA0
:1032880019F0E1CF1AF0E2CF1BF0D9CF1CF0DACF5A
:103298001DF0F3CF1EF0F4CF1FF0F6CF20F0F7CFDC
:1032A80021F0F8CF22F0F5CF23F09EAA06D09E9AFF
:1032B800010E456E3AEC1EF026D0A4AA09D0A49AB5
:1032C800010E0001F86F17EC1EF00001F76F1BD01C
:1032D800F2A411D0F2948CB407D0800E136E000EB5
:1032E800126E88EC1EF004D0010E0001FA6F00D0B7
:1032F800ADEC1EF008D0A1A202D0A19204D0010E1C
:103308000001F96F00D023C0F5FF22C0F8FF21C0EB
:10331800F7FF20C0F6FF1FC0F4FF1EC0F3FF1DC05B
:10332800DAFF1CC0D9FF1BC0E2FF1AC0E1FF19C0B9
:10333800EAFF18C0E9FF17C0FBFF16C0FAFF11002B
:10334800000E0001646F000E0001656F959494985B
:103358008B8895968C96FC0EC26E000EC16E92926A
:10336800898292948994000E0001616F000E606F4B
:103378007FEC1EF0970E04EC1EF0000E0001616F4A
:10338800000E606F76EC1EF09F0E0001646F7F0EDA
:103398000001656F65C060F000016451E5EC1CF048
:1033A800949C948E9F8A9E8A9D8A000E0001616F6C
:1033B800220E606F7C0EAAEC1BF0959C958EA58A58
:1033C800A48AA38A000E0001616F440E606F7C0E10
:1033D8006CEC1BF0D08EF28CF28E000E0001F96FAF
:1033E800000E456E000E0001F86F000E0001FA6F26
:1033F800000E0001F66F1200000E0001656F00015B
:1034080061AF09D00001606D611FD8B0612B010E5A
:103418000001656F00D0000163AF06D00001626D46
:10342800631FD8B0632B00D0000162510001631103
:10343800D8B42BD0010E0001646F07D00001D890DA
:10344800623763370001642B00D0000163BF02D0EC
:10345800F5D700D0000162510001605D00016351A1
:1034680000016159D8A009D0000162510001605FD4
:10347800000163510001615B00D00001D890633303
:1034880062330001642FE6D700D0000165510001C6
:10349800D8B406D00001606D611FD8B0612B00D090
:1034A80060C060F061C061F012001200000171514B
:1034B800000172110001731100017411D8B43FD0DA
:1034C800010E0001756F09D00001D890713772376D
:1034D800733774370001752B00D0000174BF02D018
:1034E800F3D700D00001715100016D5D00017251E8
:1034F80000016E590001735100016F5900017451A8
:1035080000017059D8A011D00001715100016D5F00
:103518000001725100016E5B0001735100016F5B85
:10352800000174510001705B00D00001D890743321
:103538007333723371330001752FD4D700D06DC047
:103548006DF06EC06EF06FC06FF070C070F012005A
:10355800000E0001666F000E656F000162510001E8
:103568006311D8B431D0010E0001646F07D0000197
:10357800D890623763370001642B00D0000163BF25
:1035880002D0F5D700D00001D89065376637000122
:1035980062510001605D0001635100016159D8A0CA
:1035A8000BD0000162510001605F0001635100010E
:1035B800615B0001658100D00001D89063336233FC
:1035C8000001642FE0D700D065C060F066C061F0EC
:1035D80012008E0E0001706F09D00001D8906B3375
:1035E8006A33693368330001702B00D0000E000184
:1035F800681500016C6F000E0001691500016D6F00
:10360800000E00016A1500016E6FFF0E00016B15B8
:1036180000016F6F00016C5100016D1100016E1106
:1036280000016F11D8A4D9D768C060F069C061F0F3
:103638006AC062F070C063F0000E0001646FB1EC04
:1036480016F060C068F061C069F062C06AF01200EC
:10365800120000EEEAF0110EEE6AE806FDE100EE57
:1036680036F0100EEE6AE806FDE1220EF66E3D0E0B
:10367800F76E000EF86E01EE14F010EE11F009006E
:10368800F5CFEEFFE550E150FAE1540EF66E3D0E2F
:10369800F76E000EF86E00EEFBF010EE05F0090074
:1036A800F5CFEEFFE550E150FAE1DA0EF66E3C0E8A
:1036B800F76E000EF86E00EE24F010EE12F009001E
:1036C800F5CFEEFFE550E150FAE1000111EF16F0F9
:1036D8000001626F000EBA6E000EA66E000162A1B4
:1036E80002D0BA8800D0000162A303D0BA8CA68C9D
:1036F80000D0000162A502D0BA8E00D0000162A7F6
:1037080002D0A68802D0A68A00D0000162A902D001
:10371800BA8402D0BA9400D0000162AB02D0A68667
:1037280000D0000162AD02D0A38A02D0A39A00D0D3
:10373800000162AF02D0A38801D0A39860C07BFFCC
:10374800000161517C6EBA8AA68E12000001626F78
:10375800000EAC6E000EAB6E000162A102D0AC8808
:1037680000D0000162A303D0AC8CAB8C00D0000168
:1037780062A502D0AC8E00D0000162A702D0AB884F
:1037880002D0AB8A00D0000162A902D0AC8400D07C
:10379800000162AB02D0AB8600D0000162AD02D05E
:1037A8009D8A02D09D9A00D0000162AF02D09D8808
:1037B80001D09D9860C0AFFF000161517D6EAC8A59
:1037C800AB8E1200000E0001636F000E0001646FE3
:1037D800070E0001646501D024D0F0EC1DF000094B
:1037E800D8B413D064C061F0010E0001626F00010B
:1037F800612B03D00001D89062370001612FFAD7FE
:10380800000162510001631300D0030E0001616FD3
:103818007D0EE82EFED7612FFCD700F00001642B47
:10382800D7D700016351120012000001666F550ED0
:1038380000016619D8A420D0550E45EC1CF0000EE6
:103848000001676F070E0001676502D012001200C1
:1038580000016751010D360EF324D96E000EF420D5
:10386800DA6EDF5045EC1CF00001672B070E0001F3
:103878006765EED712001200CC0E45EC1CF0120062
:1038880012000001636F000E0001656F070E000152
:10389800656501D01BD065C061F063C062F00001AE
:1038A800612B03D00001D89062330001612FFAD751
:1038B800000162510001646F010E000164170001EC
:1038C8006451A7EC1DF00001652BE0D7F00E00D085
:1038D80000D0E82EFCD712000001A1510001A2116E
:1038E8000001A311D8B40AD0000E0001A11B000EDC
:1038F8000001A21B800E0001A31B00D09EC092F005
:103908009FC093F0A0C094F0A1C095F0A2C096F01B
:10391800A3C097F0E7EC0EF092C09EF093C09FF022
:1039280094C0A0F01200120060C064F061C065F09D
:1039380004D00001644B652B00D064C0D9FF65C07A
:10394800DAFFDF50D8A4F5D760C062F061C063F039
:103958000001621F631F624B632B00016451000169
:1039680062250001606F00016551000163210001BB
:10397800616F12001200000E0001D66F000E0001E8
:10398800D76F520E0001D86F3C0E0001D96FCD0ED3
:103998000001D46F000E0001D56FD60E0001A46F90
:1039A800000E0001A56FCBC0A6F0CCC0A7F0D40EC6
:1039B8000001A86F000E0001A96F5BEC00F0120077
:1039C80012000001626F00016051F30BB06E62C01B
:1039D80061F07F0E000161170001D8906135B16E6A
:1039E800000EB36E000EB26EA192A190000162AFFC
:1039F80002D0A08201D0A092000160A502D0A080D0
:103A080001D0A090B0BEB086B1801200000E0001B7
:103A18007D6F00017BAF09D000017A6D7B1FD8B0A4
:103A28007B2B010E00017D6F00D07AC060F07BC057
:103A380061F00001626B8E0E0001636F7DC064F05F
:103A4800B1EC16F060C07AF061C07BF062C07CF027
:103A580012001200929089900A0E0001606FF80E11
:103A6800E82EFED7602FFCD700D092908980D50E23
:103A7800E82EFED700F0A2EC1EF00001616F090EDF
:103A88000001606FCE0EE82EFED7602FFCD700D065
:103A980000016151120012006EEC15F068C07AF056
:103AA80069C07BF00AEC1DF07AC083F07BC084F01B
:103AB8007CC085F0000E0001866F800E0001876FC4
:103AC800430E0001886F1CEC14F083C092F084C090
:103AD80093F085C094F01200120000016E510001AD
:103AE8007003F3CF72F0F4CF73F000016E51000150
:103AF8007103F3500001732700016F510001700337
:103B0800F3500001732772C06EF073C06FF012009B
:103B18001200150E0001646FC10EE82EFED7642F47
:103B2800FCD700F000016007000E615B625B635B1D
:103B3800000160510001611100016211000163116F
:103B4800D8A4E7D712000001606F929089900A0EFE
:103B5800E82EFED700D0000160510001D8B403D090
:103B68009290898000D0E40E00D000D0E82EFCD7D7
:103B780000D000D0929089801200000160510001AD
:103B8800611100016211D8B409D0000E0001601B58
:103B9800000E0001611B800E0001621B60C060F016
:103BA80061C061F062C062F012000001626F000E35
:103BB8000001616F3A0E0001626108D02F0E00010A
:103BC800626504D0010E0001616F00D061C060F031
:103BD8000001603112001200929089900A0EE82EBE
:103BE800FED700D0A2EC1EF01A0EE82EFED700D0A9
:103BF800A2EC1EF00001606F00016051120012007B
:103C08000001606F000160517F0BD56E000ED76E0A
:103C1800000ED66EF294000160AF02D0F28A01D095
:103C2800F29AD58E1200F20E4116A6AC05D041903C
:103C3800A6A002D0418000D0A6B44184A6B2418695
:103C48007ACF12F01250120012000001616F00D0FA
:103C5800BAA2FED7000161514AEC1EF000D0ACA216
:103C6800FED70001615156EC1EF01200F20E40160C
:103C7800ABAC05D04090ABA002D0408000D0ABB434
:103C88004084ABB24086AECF12F012000001606FE4
:103C9800BAAC05D0BA9041A202D0BA8000D060C0B8
:103CA80079FF12000001606FACAC05D0AC9040A267
:103CB80002D0AC8000D060C0ADFF1200F00ED36E11
:103CC80000D0D3A4FED7C00E9B6E00D0D3A4FED7DD
:103CD800120048656C6C6F20576F726C6421000A83
:103CE8000000FE5860C062F061C063F063C0B3FFBB
:103CF80062C0B2FF120060C062F061C063F063C0CE
:103D0800D7FF62C0D6FF120012C014F013C015F01E
:103D180015C0D7FF14C0D6FF120048656C6C6F2021
:103D280066726F6D2050494331380000000E436EB3
:103D3800000E426E26EC10F012001200928080A055
:103D480002D0010E1200000E12001200FE3908FE09
:063D580058008C741200FB
:10FE940000010000000A00000064000000E8030004
:10FEA4000010270000A086010040420F00809698B1
:10FEB4000000E1F50500CA9A3B00803FCDCC3DD758
:10FEC400233C12833AB7D138C62737388635C0D693
:10FED40033CC2B32708930E7DB2EE53C1E42A20D79
:10FEE40000803F00204100C842007A44401C465034
:10FEF400C34724744997184BBCBE4C6B6E4E031514
:10FF04005079AD60F349714F7363696C6C61746FC0
:10FF14007220616E64205065726970686572616CEC
:10FF24007320696E697469616C697A6564210D0A6C
:10FF340000436F756C64206E6F742066696E642074
:10FF440066697273742044533138323020646576A4
:10FF54006963650D0A0041206869676820707269E9
:10FF64006F726974792049525120776173206967EF
:10FF74006E6F7265640A0041206C6F77207072693D
:10FF84006F726974792049525120776173206967CF
:10FF94006E6F7265640A00256325634453313832F9
:10FFA400305F303A20463A2025322E3266200D0A40
:10FFB40000466F756E64206120445331383230201E
:10FFC400446576696365210D0A004D657373616745
:10FFD40065206C656E677468206973203A20256417
:10FFE4000D0A004144432025642069733A20257595
:0CFFF4000D0A0025642E25303264000048
:020000040020DA
:08000000FFFFFFFFFFFFFFFF00
:020000040030CA
:0E0000001D187F7FFF8991FF0FC00FE00F409A
:00000001FF
