:0400000059EF00F0C4
:10000800FACF16F0FBCF17F0E9CF18F0E5EF1BF0A9
:10001800D8CF01F0E8CF02F0E0CF03F0FACF04F038
:10002800FBCF05F0E9CF06F0EACF07F0E1CF08F003
:10003800E2CF09F0D9CF0AF0DACF0BF0F3CF0CF00A
:10004800F4CF0DF0F6CF0EF0F7CF0FF0F8CF10F099
:10005800F5CF11F09EAC02D09E9C04D0020E000198
:10006800F76F00D011C0F5FF10C0F8FF0FC0F7FF01
:100078000EC0F6FF0DC0F4FF0CC0F3FF0BC0DAFF93
:100088000AC0D9FF09C0E2FF08C0E1FF07C0EAFFC4
:1000980006C0E9FF05C0FBFF04C0FAFF03C0E0FF8C
:1000A80002C0E8FF01C0D8FF10004DEF1DF0EEEFD1
:1000B8000BF0250E0001CE19D8B43CD0000120EE7B
:1000C80002F0A751D926A851DA22DE50DE10D8B4A2
:1000D8001AD0000120EE02F0A751D926A851DA2241
:1000E800DECFADF0DDCFAEF002D8EEEF0BF00500BD
:1000F800FA6E0001AD51FD6EAE51FE6EFF6AFA5008
:100108000001CE511200A7C0D9FFA8C0DAFFDECF88
:10011800ADF0DDCFAEF0ADC0D9FFAEC0DAFFCEC0D6
:10012800DFFFA7C0D9FFA8C0DAFFDE2A000EDD2254
:10013800EEEF0BF0000E0001CB6F000ECA6F000E41
:100148000001C96F000EC86F07D00001C885000103
:10015800A94BAA2B01D00CD0A9C0F6FFAAC0F7FF63
:10016800F86A0800F550300AD8B4EFD701D0F4D7B0
:10017800A9C0F6FFAAC0F7FFF86A0800F550B7EC67
:1001880021F0D8A045D0000E0001CB6F000ECA6F39
:1001980000D0CAC06EF0CBC06FF0000E0001716FC6
:1001A8000A0E706F50EC21F06EC0CAF06FC0CBF031
:1001B800D00E0001AD6FFF0E0001AE6FA9C0F6FFB3
:1001C800AAC0F7FFF86A0800F5500001AF6FB06BDE
:1001D8000001AD510001AF270001AE510001B0236D
:1001E8000001AF510001CA270001B0510001CB2323
:1001F8000001A94BAA2BA9C0F6FFAAC0F7FFF86A0D
:100208000800F550B7EC21F0D8A002D0C2D700D032
:10021800A9C0F6FFAAC0F7FFF86A0800F5502E0A31
:10022800D8A43DD00001C98D0001A94BAA2B000E0E
:100238000001CD6F000ECC6F25D0CCC06EF0CDC0C4
:100248006FF0000E0001716F0A0E706F50EC21F014
:10025800A9C0F6FFAAC0F7FFF86A0800F550000128
:100268006E27000E00016F23D00E00016E250001DD
:10027800CC6FFF0E00016F210001CD6F0001A94B6B
:10028800AA2B00D0A9C0F6FFAAC0F7FFF86A080099
:10029800F550B7EC21F0D8A067D1CFD765D1000EC3
:1002A8000001CD6F000ECC6F0001C9895DD100EF50
:1002B8000CF00001C98582D100D00001C88F7ED121
:1002C800ABC0D9FFACC0DAFFDFCFADF0020EDE263F
:1002D800DFCFAEF0000EDD22ADC0D9FFAEC0DAFF31
:1002E800DECFB7F0DDCFB8F00001B7510001B8118B
:1002F800D8A407D0EE0E0001B76FFF0E0001B86F4B
:1003080000D0000E0001BA6F000EB96F04D00001D2
:10031800B94BBA2B00D00001B9510001B725000133
:10032800AD6F0001BA510001B8210001AE6FADC038
:10033800F6FFAEC0F7FF000EF86E0E0EF76403D09E
:100348000800F55005D0F6CFE9FFF7CFEAFFEF50E8
:100358000009D8B402D0DBD700D00001CC5100018D
:10036800CD11D8B40FD00001B9510001CC5D000106
:10037800BA510001CD59D8B005D0CCC0B9F0CDC024
:10038800BAF000D00001CA510001B95D0001CB519B
:100398000001BA59D8B009D00001B9510001CA5FAB
:1003A8000001BA510001CB5B3FD0000E0001CB6FBA
:1003B800000ECA6F39D0000120EE02F0A751D926ED
:1003C800A851DA22DE50DE10D8B418D0000120EE91
:1003D80002F0A751D926A851DA22DECFADF0DDCF41
:1003E800AEF001D821D00500FA6E0001AD51FD6EC6
:1003F800AE51FE6EFF6AFA50200E1200A7C0D9FF58
:10040800A8C0DAFFDECFADF0DDCFAEF0ADC0D9FFCA
:10041800AEC0DAFF200EDF6EA7C0D9FFA8C0DAFF92
:10042800DE2A000EDD2200D00001CA07D8A0CB07C3
:100438000001CA29C0E10001CB29D8B462D0BBD7DA
:1004480060D0000120EE02F0A751D926A851DA2287
:10045800DE50DE10D8B42CD0000120EE02F0A751F7
:10046800D926A851DA22DECFADF0DDCFAEF001D823
:100478001BD00500FA6E0001AD51FD6EAE51FE6E47
:10048800FF6AFA50B7C0F6FFB8C0F7FF000EF86E63
:100498000E0EF76403D00800F55005D0F6CFE9FF3B
:1004A800F7CFEAFFEF5012000001B74BB82B29D065
:1004B800B7C0F6FFB8C0F7FF000EF86EA7C0D9FFA7
:1004C800A8C0DAFFDECFADF0DDCFAEF0ADC0D9FF0A
:1004D800AEC0DAFF0E0EF76403D00800F55005D061
:1004E800F6CFE9FFF7CFEAFFEF50DF6E0001B74B19
:1004F800B82BA7C0D9FFA8C0DAFFDE2A000EDD227C
:1005080000D00001B907D8A0BA070001B92999E1BC
:100518000001BA29D8B4EEEF0BF093D7EEEF0BF049
:10052800ABC0D9FFACC0DAFFDFCFADF0020EDE26DC
:10053800DFCFAEF0000EDD22ADC0D9FFAEC0DAFFCE
:10054800DF500001CE6F00D0CE0E0001B76F000E55
:100558000001B86F000E0001BA6F010EB96FFDD629
:10056800C00E0001C8132AD0A9C0F6FFAAC0F7FF21
:100578000001A94BAA2BF86A0800F5CFCEF00001BC
:10058800CE51000AD8B400EF0CF0580AD8B495D66A
:100598003B0AD8B4C5D7070AD8B410D0020AD8B4D1
:1005A80088D60F0AD8B40AD01A0AD8B489D6060A47
:1005B800D8B4D6D70D0AD8B480D6C6D7070E00014E
:1005C800C915D8B48DEF08F00001C9A906D0000EEE
:1005D8000001CD6F060ECC6F00D0ABC0D9FFACC008
:1005E800DAFFDFCFADF0030EDE26DFCFAEF0000E70
:1005F800DD22ADC0D9FFAEC0DAFFDECFC5F0DECF59
:10060800C6F0DDCFC7F00001C7AF12D0C5C060F09B
:10061800C6C061F0C7C062F09FEC21F060C0C5F0B1
:1006280061C0C6F062C0C7F0030E0001C81300D055
:10063800000E0001BC6F000EBB6F0001C551000128
:10064800C6110001C711D8B49DD0820E0001AD6F4C
:10065800FF0E0001AE6FC5C0AFF0C6C0B0F0C7C096
:10066800B1F0C8C0B2F0100E06D00001D890B23375
:10067800B133B033AF33E82EF8D70001AF510001E2
:10068800AD250001BB6F000E0001AE210001BC6F5B
:100698000001BB07D8A0BC07BBC06EF0BCC06FF0A0
:1006A800000E0001716F030E706F50EC21F06EC0E8
:1006B800BBF06FC0BCF0BBC066F0BCC067F0000EFA
:1006C8000001696F0A0E686F51EC1AF066C0BBF042
:1006D80067C0BCF00001BCAF05D00001BB07D8A0C3
:1006E800BC0700D00001BB51000807EC0CF083C028
:1006F800BDF084C0BEF085C0BFF0BDC074F0BEC000
:1007080075F0BFC076F0C5C077F0C6C078F0C7C036
:1007180079F0A9EC15F074C0BDF075C0BEF076C0D4
:10072800BFF0BDC060F0BEC061F0BFC062F0000E97
:100738000001636F800E0001646F3F0E0001656F5A
:10074800B9EC1AF00001D8B005D00001BB07D8A059
:10075800BC0718D0BDC060F0BEC061F0BFC062F079
:10076800000E0001636F200E0001646F410E00014E
:10077800656FB9EC1AF00001D8A004D00001BB4B9A
:10078800BC2B00D00001CDBF08D00001CD511EE127
:100798000D0E0001CC5DD8B019D0C5C095F0C6C00B
:1007A80096F0C7C097F00001CC51A2EC10F083C0BE
:1007B80098F084C099F085C09AF00EEC12F095C0BC
:1007C800C5F096C0C6F097C0C7F000D00001BCBF06
:1007D80008D00001BC512CE10A0E0001BB5DD8B065
:1007E80027D00001C5510001C6110001C711D8B4B6
:1007F8007FD0C5C08AF0C6C08BF0C7C08CF008ECAB
:1008080017F000018A5100018B1100018C110001C1
:100818008D11D8A46DD00001BCBF6AD00001BC51B5
:1008280007E1020E0001BB5DD8B002D061D000D054
:10083800BDC060F0BEC061F0BFC062F0700E0001C4
:10084800636F890E0001646F400E0001656FB9EC9B
:100858001AF00001D8B003D00001F70E02D0000151
:10086800F80EBB27FF0EBC2300D00001BB5107ECDC
:100878000CF083C0BDF084C0BEF085C0BFF017D0B7
:10088800C5C060F0C6C061F0C7C062F0BDC063F00B
:10089800BEC064F0BFC065F020EC14F060C0C1F0C9
:1008A80061C0C2F062C0C3F063C0C4F017D0C5C055
:1008B80060F0C6C061F0C7C062F0BDC063F0BEC0E2
:1008C80064F0BFC065F04DEC13F060C0C1F061C0CA
:1008D800C2F062C0C3F063C0C4F000D0000E0001D3
:1008E800C56F000E0001C66F000E0001C76F34D03F
:1008F800C5C08AF0C6C08BF0C7C08CF008EC17F0F2
:100908008AC0C1F08BC0C2F08CC0C3F08DC0C4F0E7
:10091800C5C0A1F0C6C0A2F0C7C0A3F0C1C068F0AE
:10092800C2C069F0C3C06AF0C4C06BF016EC1EF018
:1009380068C0A4F069C0A5F06AC0A6F02CEC20F04D
:10094800A1C0C5F0A2C0C6F0A3C0C7F0000E000148
:10095800BC6F000EBB6F00D0010E0001CE6F0A0EF7
:100968000001CE19D8B425D001D023D00001CE5132
:10097800040D650EF324F66EFD0EF420F76EF86A8A
:10098800000EF8220900F5500001C15D0900F5507C
:100998000001C2590900F5500001C3590900F5507A
:1009A8000001C459D8A005D001D003D00001CE2B36
:1009B800D6D7CEC0ADF00001AE6BADBFAE0700011B
:1009C800CC510001AD270001CD510001AE2300013B
:1009D800BB510001AD270001BC510001AE2300014D
:1009E800AD510001CA5F0001AE510001CB5B0001AF
:1009F800CC510001CD11D8B405D00001CA07D8A048
:100A0800CB0700D0030E0001C8150001AD6F000E22
:100A18000001C9150001AE6F0001AD510001AE1112
:100A2800D8B405D00001CA07D8A0CB0700D0000170
:100A3800C8A5D2D0030E0001C8150001AD6F000E85
:100A48000001C9150001AE6F0001AD510001AE11E2
:100A5800D8B477D0000120EE02F0A751D926A851CA
:100A6800DA22DE50DE10D8B418D0000120EE02F0F1
:100A7800A751D926A851DA22DECFADF0DDCFAEF0EE
:100A880001D85FD00500FA6E0001AD51FD6EAE5180
:100A9800FE6EFF6AFA502D0E1200A7C0D9FFA8C03B
:100AA800DAFFDECFADF0DDCFAEF0ADC0D9FFAEC01E
:100AB800DAFF2D0EDF6EA7C0D9FFA8C0DAFFDE2A45
:100AC800000EDD223ED0000120EE02F0A751D9260B
:100AD800A851DA22DE50DE10D8B418D0000120EE7A
:100AE80002F0A751D926A851DA22DECFADF0DDCF2A
:100AF800AEF001D821D00500FA6E0001AD51FD6EAF
:100B0800AE51FE6EFF6AFA50300E1200A7C0D9FF30
:100B1800A8C0DAFFDECFADF0DDCFAEF0ADC0D9FFB3
:100B2800AEC0DAFF300EDF6EA7C0D9FFA8C0DAFF6B
:100B3800DE2A000EDD2200D00001CA07D8A0CB07AC
:100B480000D00001CBBF17D10001CB51BCE100019F
:100B5800CA05D8A010D1B7D70ED13ED0000120EEDB
:100B680002F0A751D926A851DA22DE50DE10D8B4F7
:100B780018D0000120EE02F0A751D926A851DA2298
:100B8800DECFADF0DDCFAEF001D821D00500FA6E92
:100B98000001AD51FD6EAE51FE6EFF6AFA50200E97
:100BA8001200A7C0D9FFA8C0DAFFDECFADF0DDCFB5
:100BB800AEF0ADC0D9FFAEC0DAFF200EDF6EA7C021
:100BC800D9FFA8C0DAFFDE2A000EDD2200D000011E
:100BD800CA07D8A0CB0700D00001CBBF07D00001BF
:100BE800CB51BCE10001CA05D8B0B8D7030E00014B
:100BF800C8150001AD6F000E0001C9150001AE6FE8
:100C08000001AD510001AE11D8B4B5D0000120EEFD
:100C180002F0A751D926A851DA22DE50DE10D8B446
:100C280018D0000120EE02F0A751D926A851DA22E7
:100C3800DECFADF0DDCFAEF001D89DD00500FA6E65
:100C48000001AD51FD6EAE51FE6EFF6AFA502D0ED9
:100C58001200A7C0D9FFA8C0DAFFDECFADF0DDCF04
:100C6800AEF0ADC0D9FFAEC0DAFF2D0E81D0A7C05F
:100C7800D9FFA8C0DAFFDE2A000EDD227CD0C1C071
:100C880060F0C2C061F0C3C062F0C4C063F000018C
:100C9800CE51040D650EF324F66EFD0EF420F76EAA
:100CA800F86A000EF8220900F5CF64F00900F5CFC4
:100CB80065F00900F5CF66F00A00F5CF67F020EC83
:100CC8001BF060C0BDF061C0BEF062C0BFF063C081
:100CD800C0F0BDC06DF0BEC06EF0BFC06FF0C0C048
:100CE80070F00A0E0001716F000E726F000E736FC4
:100CF800000E746FFBEC1CF06DC0BDF06EC0BEF052
:100D08006FC0BFF070C0C0F0000120EE02F0A75124
:100D1800D926A851DA22DE50DE10D8B41AD0000144
:100D280020EE02F0A751D926A851DA22DECFADF085
:100D3800DDCFAEF001D81FD00500FA6E0001AD512D
:100D4800FD6EAE51FE6EFF6AFA500001BD51300FC4
:100D580012000001BD51300FA7C0D9FFA8C0DAFFAB
:100D6800DECFADF0DDCFAEF0ADC0D9FFAEC0DAFF5B
:100D7800DF6E7DD700D00001CE070001CE29D8B4A0
:100D880040D07DD73ED0000120EE02F0A751D926F1
:100D9800A851DA22DE50DE10D8B418D0000120EEB7
:100DA80002F0A751D926A851DA22DECFADF0DDCF67
:100DB800AEF001D821D00500FA6E0001AD51FD6EEC
:100DC800AE51FE6EFF6AFA50300E1200A7C0D9FF6E
:100DD800A8C0DAFFDECFADF0DDCFAEF0ADC0D9FFF1
:100DE800AEC0DAFF300EDF6EA7C0D9FFA8C0DAFFA9
:100DF800DE2A000EDD2200D00001BB07D8A0BC0708
:100E080000D00001BCBF07D00001BC51BCE100010B
:100E1800BB05D8B0B8D70001CDBF0CD00001CD516B
:100E280005E1090E0001CC5DD8A004D0080E000130
:100E3800CE6F03D0CCC0CEF000D00001CE5100015F
:100E4800CC5F000E0001CEBFFF0E0001CD5B00019C
:100E5800CE510001D8B439D0000120EE02F0A751DC
:100E6800D926A851DA22DE50DE10D8B418D00001F5
:100E780020EE02F0A751D926A851DA22DECFADF034
:100E8800DDCFAEF001D821D00500FA6E0001AD51DA
:100E9800FD6EAE51FE6EFF6AFA502E0E1200A7C00C
:100EA800D9FFA8C0DAFFDECFADF0DDCFAEF0ADC020
:100EB800D9FFAEC0DAFF2E0EDF6EA7C0D9FFA8C0DB
:100EC800DAFFDE2A000EDD2200D00001CE5107EC49
:100ED8000CF083C0B3F084C0B4F085C0B5F0C5C0D1
:100EE80077F0C6C078F0C7C079F0B3C074F0B4C06A
:100EF80075F0B5C076F0A9EC15F074C08AF075C02D
:100F08008BF076C08CF008EC17F08AC0C1F08BC06B
:100F1800C2F08CC0C3F08DC0C4F0ADD0C1C060F0C9
:100F2800C2C061F0C3C062F0C4C063F00001CE511A
:100F3800040D650EF324F66EFD0EF420F76EF86AC4
:100F4800000EF8220900F5CF64F00900F5CF65F02E
:100F58000900F5CF66F00A00F5CF67F020EC1BF02A
:100F680060C0BDF061C0BEF062C0BFF063C0C0F039
:100F7800BDC06DF0BEC06EF0BFC06FF0C0C070F0F5
:100F88000A0E0001716F000E726F000E736F000E73
:100F9800746FFBEC1CF06DC0BDF06EC0BEF06FC08E
:100FA800BFF070C0C0F0000120EE02F0A751D926B2
:100FB800A851DA22DE50DE10D8B41AD0000120EE93
:100FC80002F0A751D926A851DA22DECFADF0DDCF45
:100FD800AEF001D825D00500FA6E0001AD51FD6EC6
:100FE800AE51FE6EFF6AFA500001BD51300F12007B
:100FF8000001BD51300FA7C0D9FFA8C0DAFFDECF6E
:10100800ADF0DDCFAEF0ADC0D9FFAEC0DAFFDF6E18
:10101800A7C0D9FFA8C0DAFFDE2A000EDD2200D063
:10102800C1C06DF0C2C06EF0C3C06FF0C4C070F034
:101038000001CE51040D650EF324F66EFD0EF4206A
:10104800F76EF86A000EF8220900F5CF71F0090072
:10105800F5CF72F00900F5CF73F00A00F5CF74F000
:10106800FBEC1CF06DC0C1F06EC0C2F06FC0C3F0E5
:1010780070C0C4F000D00001CE070001CE29D8B45A
:1010880040D04CD73ED0000120EE02F0A751D9261F
:10109800A851DA22DE50DE10D8B418D0000120EEB4
:1010A80002F0A751D926A851DA22DECFADF0DDCF64
:1010B800AEF001D821D00500FA6E0001AD51FD6EE9
:1010C800AE51FE6EFF6AFA50300E1200A7C0D9FF6B
:1010D800A8C0DAFFDECFADF0DDCFAEF0ADC0D9FFEE
:1010E800AEC0DAFF300EDF6EA7C0D9FFA8C0DAFFA6
:1010F800DE2A000EDD2200D00001CC07D8A0CD07E3
:1011080000D00001CC510001CD11D8B463D3BBD7B6
:1011180061D3C00E0001C8150001AD6F000E0001BB
:10112800C9150001AE6F0001AD510001AE11D8A480
:101138002AD0ABC0D9FFACC0DAFFDFCFADF0020ECA
:10114800DE26DFCFAEF0000EDD22ADC0D9FFAEC087
:10115800DAFFDECFC1F0DDCFC2F00001000EC2BF62
:10116800FF0EC36FC46F0001C4AF29D0030E000186
:10117800C8130001C41FC31FC21FC16D000EC223C4
:10118800C323C4231CD0ABC0D9FFACC0DAFFDFCF68
:10119800ADF0020EDE26DFCFAEF0000EDD22ADC0D0
:1011A800D9FFAEC0DAFFDECFAFF0DDCFB0F0AFC011
:1011B800C1F0B0C0C2F00001C36BC46B00D0000125
:1011C800CC510001CD11D8A46BD00001C151000150
:1011D800C2110001C3110001C411D8A461D00001DB
:1011E800CC4BCD2B5DD000D0010E0001CE6F0A0E86
:1011F8000001CE19D8B461D001D05FD00001CE5122
:10120800040D650EF324F66EFD0EF420F76EF86AF1
:10121800000EF8220900F5500001C15D0900F550E3
:101228000001C2590900F5500001C3590900F550E1
:101238000001C459D8A041D001D03FD00001CE2B25
:10124800D6D73BD0010E0001CE6F080E0001CE1993
:10125800D8B433D001D031D00001CE51040DDB0E0B
:10126800F324F66EFD0EF420F76EF86A000EF822ED
:101278000900F5500001C15D0900F5500001C2598F
:101288000900F5500001C3590900F5500001C4597F
:10129800D8A013D001D011D00001CE2BD6D70DD0B5
:1012A8000001C851C00B000AD8B49ED7800AD8B430
:1012B800C9D7400AD8B498D700D0800E0001CEBF55
:1012C8007F0E0001AD6F0001CC510001CE5D000121
:1012D800CD51800A0001AD59D8B003D0CCC0CEF0B2
:1012E80019D00001CD51800A0001AD6F0001CE5127
:1012F8000001CC5D800E0001CEBF7F0E0001AD590C
:10130800D8B008D00001CE510001CC6FCD6BCCBF56
:10131800CD0700D00001CA510001CB11D8B415D0B7
:10132800030E0001C8150001AD6F000E0001C915BC
:101338000001AE6F0001AD510001AE11D8B405D067
:101348000001CA07D8A0CB0700D00001C9AD1FD043
:101358000001CA510001CC5D0001CD51800A000195
:10136800AD6F0001CB51800A0001AD59D8B009D04A
:101378000001CC510001CA5F0001CD510001CB5BD7
:1013880006D0000E0001CB6F000ECA6F00D0800E91
:101398000001CEBF7F0E0001AD6F0001CA510001F0
:1013A800CE5D0001CB51800A0001AD59D8B00BD0F9
:1013B8000001CE510001CA5F000E0001CEBFFF0E32
:1013C8000001CB5B06D0000E0001CB6F000ECA6F88
:1013D80000D00001C8A594D0030E0001C815000173
:1013E800AD6F000E0001C9150001AE6F0001AD51CF
:1013F8000001AE11D8B439D0000120EE02F0A75197
:10140800D926A851DA22DE50DE10D8B418D000014F
:1014180020EE02F0A751D926A851DA22DECFADF08E
:10142800DDCFAEF001D821D00500FA6E0001AD5134
:10143800FD6EAE51FE6EFF6AFA502D0E1200A7C067
:10144800D9FFA8C0DAFFDECFADF0DDCFAEF0ADC07A
:10145800D9FFAEC0DAFF2D0EDF6EA7C0D9FFA8C036
:10146800DAFFDE2A000EDD2200D00001CA51000199
:10147800CB11D8B4A2D1000120EE02F0A751D92691
:10148800A851DA22DE50DE10D8B418D0000120EEC0
:1014980002F0A751D926A851DA22DECFADF0DDCF70
:1014A800AEF001D821D00500FA6E0001AD51FD6EF5
:1014B800AE51FE6EFF6AFA50300E1200A7C0D9FF77
:1014C800A8C0DAFFDECFADF0DDCFAEF0ADC0D9FFFA
:1014D800AEC0DAFF300EDF6EA7C0D9FFA8C0DAFFB2
:1014E800DE2A000EDD2200D00001CA07D8A0CB07F3
:1014F8000001CA510001CB11D8B45FD1BCD75DD16E
:101508000001CA510001CB11D8B445D0000120EE2A
:1015180002F0A751D926A851DA22DE50DE10D8B43D
:1015280018D0000120EE02F0A751D926A851DA22DE
:10153800DECFADF0DDCFAEF001D821D00500FA6ED8
:101548000001AD51FD6EAE51FE6EFF6AFA50200EDD
:101558001200A7C0D9FFA8C0DAFFDECFADF0DDCFFB
:10156800AEF0ADC0D9FFAEC0DAFF200EDF6EA7C067
:10157800D9FFA8C0DAFFDE2A000EDD2200D0000164
:10158800CA07D8A0CB070001CA510001CB11D8B4B3
:1015980002D0BCD700D0030E0001C8150001AD6F02
:1015A800000E0001C9150001AE6F0001AD51000128
:1015B800AE11D8B402D1000120EE02F0A751D9260D
:1015C800A851DA22DE50DE10D8B418D0000120EE7F
:1015D80002F0A751D926A851DA22DECFADF0DDCF2F
:1015E800AEF001D8EAD00500FA6E0001AD51FD6EEB
:1015F800AE51FE6EFF6AFA502D0E1200A7C0D9FF39
:10160800A8C0DAFFDECFADF0DDCFAEF0ADC0D9FFB8
:10161800AEC0DAFF2D0EDF6EC8D0CFD087D000D095
:10162800CCC0ADF0CDC0AEF00001D890AD37AE372C
:101638000001D890AD37AE37650E0001AD25F66EC6
:10164800FD0EAE21F76EF86A000EF8220900F5CFFC
:1016580064F00900F5CF65F00900F5CF66F00A00DF
:10166800F5CF67F0C1C060F0C2C061F0C3C062F0DE
:10167800C4C063F020EC1BF060C06DF061C06EF078
:1016880062C06FF063C070F00A0E0001716F000E47
:10169800726F000E736F000E746FFBEC1CF000018C
:1016A8006D51300F0001CE6F4ED0C1C060F0C2C086
:1016B80061F0C3C062F0C4C063F0CCC0ADF0CDC06F
:1016C800AEF00001D890AD37AE370001D890AD37F5
:1016D800AE37DB0E0001AD25F66EFD0EAE21F76EBE
:1016E800F86A000EF8220900F5CF64F00900F5CF7A
:1016F80065F00900F5CF66F00A00F5CF67F020EC39
:101708001BF0000160510F0B0001B66F0001B651CC
:10171800010DB40EF324F66EFF0EF420F76EF86A8E
:10172800000EF8220800F5CFCEF00DD00001C85108
:10173800C00B000AD8B474D7800AD8B4B6D7400A08
:10174800D8B46ED700D0000120EE02F0A751D926F8
:10175800A851DA22DE50DE10D8B419D0000120EEEC
:1017680002F0A751D926A851DA22DECFADF0DDCF9D
:10177800AEF001D822D00500FA6E0001AD51FD6E21
:10178800AE51FE6EFF6AFA500001CE511200A7C09A
:10179800D9FFA8C0DAFFDECFADF0DDCFAEF0ADC027
:1017A800D9FFAEC0DAFFCEC0DFFFA7C0D9FFA8C0FF
:1017B800DAFFDE2A000EDD2200D00001CC07D8A017
:1017C800CD070001CC29B2E10001CD29D8B402D05F
:1017D800ADD700D0A9C0F6FFAAC0F7FF0001A94BFA
:1017E800AA2BF86A0800F5CFCEF00001CE51D8B484
:1017F80003D05DEF00F000D0000E0001A86F000ECE
:10180800A76F120012000001896F000189AF3FD154
:101818000001896D00018951800A120FD8A0B6D045
:10182800000E0001716F030E706F000E0001696FEA
:101838000A0E686F000E0001636F640E626F00018C
:1018480089510001606F616B60BF6107A1EC1CF0FA
:1018580060C066F061C067F051EC1AF0090E000133
:10186800662500016E6F000E0001672100016F6F91
:1018780050EC21F08D0E00016E25F66EFD0E000174
:101888006F21F76EF86A000EF8220900F5CF77F09D
:101898000900F5CF78F00A00F5CF79F0000E0001C5
:1018A800696F640E686F000189510001666F676B8C
:1018B80066BF670751EC1AF0120E00016625000199
:1018C8006E6F000E0001672100016F6F000E0001AE
:1018D800716F030E706F50EC21F08D0E00016E25B4
:1018E800F66EFD0E00016F21F76EF86A000EF82201
:1018F8000900F5CF74F00900F5CF75F00A00F5CFAF
:1019080076F0A9EC15F074C086F075C087F076C043
:1019180088F086C074F087C075F088C076F0000E35
:101928000001716F030E706F000E0001636F0A0EE5
:10193800626F000189510001606F616B60BF6107D0
:10194800A1EC1CF060C06EF061C06FF050EC21F0AB
:101958008D0E00016E25F66EFD0E00016F21F76EEB
:10196800F86A000EF8220900F5CF77F00900F5CFE4
:1019780078F00A00F5CF79F0A9EC15F074C083F07F
:1019880075C084F076C085F012006BD000018951D3
:10199800800A750FD8A065D0000E0001696F0A0E85
:1019A800686F000189510001666F676B66BF670742
:1019B80051EC1AF0090E0001662500016E6F000E49
:1019C8000001672100016F6F000E0001716F030EA7
:1019D800706F50EC21F08D0E00016E25F66EFD0E35
:1019E80000016F21F76EF86A000EF8220900F5CFA2
:1019F80074F00900F5CF75F00A00F5CF76F0000E07
:101A08000001716F030E706F000E0001636F0A0E04
:101A1800626F000189510001606F616B60BF6107EF
:101A2800A1EC1CF060C06EF061C06FF050EC21F0CA
:101A38008D0E00016E25F66EFD0E00016F21F76E0A
:101A4800F86A000EF8220900F5CF77F00900F5CF03
:101A580078F00A00F5CF79F0A9EC15F08FD71200CD
:101A680000D000018951030D8D0EF324F66EFD0E92
:101A7800F420F76EF86A000EF8220900F5CF83F01B
:101A88000900F5CF84F00A00F5CF85F012000001B7
:101A98008951800A120FD8A0B6D0000E0001716FCC
:101AA800030E706F000E0001696F0A0E686F000E5A
:101AB8000001636F640E626F000189510001606F5D
:101AC800616B60BF6107A1EC1CF060C066F061C08B
:101AD80067F051EC1AF0090E0001662500016E6FDF
:101AE800000E0001672100016F6F50EC21F0B40E69
:101AF80000016E25F66EFD0E00016F21F76EF86A83
:101B0800000EF8220900F5CF77F00900F5CF78F03C
:101B18000A00F5CF79F0000E0001696F640E686F56
:101B2800000189510001666F676B66BF670751EC5A
:101B38001AF0120E0001662500016E6F000E0001FA
:101B4800672100016F6F000E0001716F030E706F47
:101B580050EC21F0B40E00016E25F66EFD0E00016A
:101B68006F21F76EF86A000EF8220900F5CF74F0BD
:101B78000900F5CF75F00A00F5CF76F0A9EC15F05D
:101B880074C086F075C087F076C088F086C074F09F
:101B980087C075F088C076F0000E0001716F030EE3
:101BA800706F000E0001636F0A0E626F00018951A9
:101BB8000001606F616B60BF6107A1EC1CF060C041
:101BC8006EF061C06FF050EC21F0B40E00016E258C
:101BD800F66EFD0E00016F21F76EF86A000EF8220E
:101BE8000900F5CF77F00900F5CF78F00A00F5CFB6
:101BF80079F0A9EC15F074C083F075C084F076C054
:101C080085F012006BD000018951800A750FD8A0A9
:101C180065D0000E0001696F0A0E686F00018951D6
:101C28000001666F676B66BF670751EC1AF0090E13
:101C38000001662500016E6F000E0001672100019A
:101C48006F6F000E0001716F030E706F50EC21F082
:101C5800B40E00016E25F66EFD0E00016F21F76EC1
:101C6800F86A000EF8220900F5CF74F00900F5CFE4
:101C780075F00A00F5CF76F0000E0001716F030EC3
:101C8800706F000E0001636F0A0E626F00018951C8
:101C98000001606F616B60BF6107A1EC1CF060C060
:101CA8006EF061C06FF050EC21F0B40E00016E25AB
:101CB800F66EFD0E00016F21F76EF86A000EF8222D
:101CC8000900F5CF77F00900F5CF78F00A00F5CFD5
:101CD80079F0A9EC15F08FD7120000D000018951D6
:101CE800030DB40EF324F66EFD0EF420F76EF86AB9
:101CF800000EF8220900F5CF83F00900F5CF84F033
:101D08000A00F5CF85F0120012000101926F010E52
:101D18000101906F010E01018F6F000E0101876FA5
:101D2800000E0101886F000E0101916F070E01017D
:101D3800916501D01FD001019251080D000E0001DC
:101D4800E26F010E0001E36FF3500001E227F45047
:101D58000001E32301019151010DF3500001E22537
:101D6800D96EF4500001E321DA6E000EDF6E010136
:101D7800912BDCD701019251D6EC1FF00101866F3F
:101D8800010186510101D8A40CD001019251010D25
:101D9800ED0EF324D96E000EF420DA6EDF50D8B4BD
:101DA8000DD001019251010DF10EF324D96E000EF0
:101DB800F420DA6E000EDF6E000E120092C164F09D
:101DC800F00EA9EC1FF0000E0101916F00D0000E7B
:101DD80001018B6F0101925186EC21F00009D8B402
:101DE80004D0020E01018B6F00D0030E0001E26FD8
:101DF8007D0EE82EFED7E22FFCD700F001019251AC
:101E080086EC21F00009D8B403D001018B8100D001
:101E1800030E0001E26F7D0EE82EFED7E22FFCD7FD
:101E280000F0030E01018B19D8B4BDD002D0BBD08D
:101E3800B5D001018B510101D8B406D00101D89069
:101E48008B3101018C6F4CD001019251010DF10EC3
:101E5800F324D96E000EF420DA6EDE5001018F5D96
:101E6800D8B024D001019251080D000E0001E26F94
:101E7800010E0001E36FF3500001E227F450000166
:101E8800E32301019151010DF3500001E225D96EC0
:101E9800F4500001E321DA6EDF50010190150009CA
:101EA800D8B414D0010E01018C6F12D001019251E7
:101EB800010DF10EF324D96E000EF420DA6E010143
:101EC8008F51DE18D8A402D0010EEDD7000EEBD743
:101ED80001018C510101D8A403D08FC187F100D032
:101EE80001018C510101D8B41ED001019251080D95
:101EF800000E0001E26F010E0001E36FF3500001D4
:101F0800E227F4500001E32301019151010DF35040
:101F18000001E225D96EF4500001E321DA6E0101D7
:101F28009051DF1223D001019051FF0A0001E26FA6
:101F380001019251080D000E0001E36F010E00012E
:101F4800E46FF3500001E327F4500001E42301019A
:101F58009151010DF3500001E325D96EF4500001B1
:101F6800E421DA6E0001E251DF1600D092C162F07E
:101F780001018C510FEC21F001018F2B01019051CF
:101F880090250101906F010190510101D8A406D05C
:101F98000101912B010E0101906F00D0070E010184
:101FA800916515D700D0410E01018F610CD0010158
:101FB8009251010DF10EF324D96E000EF420DA6E61
:101FC800000EDF6EB7D001019251010DF10EF3241E
:101FD800D96E000EF420DA6E87C1DFFF010192513D
:101FE800010DED0EF324D96E000EF420DA6E010116
:101FF8009251010DF10EF324E16E000EF420E26E11
:10200800E750D8A402D0010E01D0000EDF6E000EFA
:1020180001018A6F000E896F01018ABF0AD0010190
:102028008A512CE1080E0101895DD8B027D001D072
:1020380025D001019251080D000E0001E26F010E3A
:102048000001E36FF3500001E227F4500001E3239D
:10205800010189510001E225D96E01018A5100016F
:10206800E321DA6EDF50D8B404D0010E0101886F85
:1020780005D00101894B8A2BCFD700D001018851A7
:102088000101D8B44AD0000E01018E6F000E8D6F89
:1020980001018EBF0AD001018E514CE1080E0101E9
:1020A8008D5DD8B047D001D045D07E0E01018D2579
:1020B8000001CF6F010E01018E210001D06FFC0ECF
:1020C8000001D16FFF0E0001D26F01019251080D7E
:1020D800000E0001E26F010E0001E36FF3500001F2
:1020E800E227F4500001E32301018D510001E225AC
:1020F800D96E01018E510001E321DA6EDF50000133
:10210800E46F0001E4510001D36FD46B02EC20F0BE
:1021180001018D4B8E2BBCD70DD0FB0E0001CF6F6C
:10212800FD0E0001D06F92C1D1F00001D26B7BECA3
:1021380020F000D0010188511200120000018C6FBC
:102148006D0E00018C65C4D0000E0001716F030E86
:10215800706F000E0001696F0A0E686F000E0001B3
:10216800636F640E626F8CC060F00001616BA1EC5C
:102178001CF060C066F061C067F051EC1AF0090EFF
:102188000001662500016E6F000E00016721000145
:102198006F6F50EC21F08D0E00016E25F66EFD0E6E
:1021A80000016F21F76EF86A000EF8220900F5CFDA
:1021B80077F00900F5CF78F00A00F5CF79F0000E36
:1021C8000001696F640E686F8CC066F00001676B70
:1021D80051EC1AF0120E0001662500016E6F000E18
:1021E8000001672100016F6F000E0001716F030E7F
:1021F800706F50EC21F08D0E00016E25F66EFD0E0D
:1022080000016F21F76EF86A000EF8220900F5CF79
:1022180074F00900F5CF75F00A00F5CF76F0A9EC57
:1022280015F074C089F075C08AF076C08BF0000E86
:102238000001716F030E706F000E0001636F0A0ECC
:10224800626F8CC060F00001616BA1EC1CF060C093
:102258006EF061C06FF050EC21F08D0E00016E251C
:10226800F66EFD0E00016F21F76EF86A000EF82277
:102278000900F5CF77F00900F5CF78F00A00F5CF1F
:1022880079F089C074F08AC075F08BC076F0A9EC3B
:1022980015F074C086F075C087F076C088F086C0E7
:1022A80074F087C075F088C076F0000E0001776F73
:1022B800000E0001786F3F0E0001796FA9EC15F050
:1022C80074C083F075C084F076C085F012007AD0AF
:1022D8000A0E00018C6576D0000E0001716F030EA6
:1022E800706F000E0001636F0A0E626F8CC060F0A1
:1022F8000001616BA1EC1CF060C06EF061C06FF072
:1023080050EC21F08D0E00016E25F66EFD0E0001D9
:102318006F21F76EF86A000EF8220900F5CF77F002
:102328000900F5CF78F00A00F5CF79F0000E00012A
:10233800696F0A0E686F8CC066F00001676B51EC1C
:102348001AF0090E0001662500016E6F000E0001EB
:10235800672100016F6F000E0001716F030E706F2F
:1023680050EC21F08D0E00016E25F66EFD0E000179
:102378006F21F76EF86A000EF8220900F5CF74F0A5
:102388000900F5CF75F00A00F5CF76F0A9EC15F045
:1023980074C089F075C08AF076C08BF089C074F07B
:1023A8008AC075F08BC076F0000E0001776F000EC2
:1023B8000001786F3F0E0001796FA9EC15F080D706
:1023C800120000D000018C51030D8D0EF324F66E1F
:1023D800FD0EF420F76EF86A000EF8220900F5CF1A
:1023E80074F00900F5CF75F00A00F5CF76F0000E0D
:1023F8000001776F000E0001786F3F0E0001796FC2
:10240800A9EC15F074C083F075C084F076C085F02F
:102418001200120097C09BF000019C6B9D6B00019D
:10242800963500019B3701E39C8100019B51000117
:10243800A06F9AC09BF000019C6B9D6B00019935C1
:1024480000019B3701E39C8100019B5100019F6FB4
:102458000001A0510001D8B411D000019F51000122
:10246800A05DD8B012D00001A051000800019F253E
:1024780000019B6F180E00019B6507D098C095F06E
:1024880099C096F09AC097F0120000019F51000180
:10249800D8B411D00001A05100019F5DD8B012D06E
:1024A80000019F5100080001A02500019B6F180E34
:1024B80000019B6507D095C095F096C096F097C02F
:1024C80097F01200060E00019E6F000197AF03D02F
:1024D80000019E8F00D000019AAF02D000019E8DAE
:1024E8000001968FFF0E00019517FF0E0001961749
:1024F800000E000197170001998FFF0E0001981731
:10250800FF0E00019917000E00019A1700019F5154
:102518000001A05DD8B028D00001D890983799372D
:102528009A3700019F070001A05100019F19D8B4F4
:1025380013D000019E079EC09BF0070E00019B1759
:10254800D8B40AD0E9D708D00001D8909733963389
:1025580095330001A02B00D000019F510001A01964
:10256800D8B430D0F1D72ED00001A05100019F5D22
:10257800D8B028D00001D890953796379737000102
:10258800A0070001A05100019F19D8B413D0000181
:102598009E079EC09BF0070E00019B17D8B40AD077
:1025A800E9D708D00001D8909A33993398330001BD
:1025B8009F2B00D000019F510001A019D8B402D070
:1025C800F1D700D000019EAF12D0FF0E0001951B7D
:1025D800FF0E0001961BFF0E0001971B010E000164
:1025E8009527000E00019623000E00019723000195
:1025F8009EAD13D0FF0E0001981BFF0E0001991B22
:10260800FF0E00019A1B010E00019827000E000121
:102618009923000E00019A2300D0000E00019E6F3E
:102628000001955100019827000196510001992356
:102638000001975100019A2300019AAF16D0FF0EAE
:102648000001981BFF0E0001991BFF0E00019A1B49
:10265800010E00019827000E00019923000E0001C9
:102668009A23010E00019E6F00D098C060F099C0B7
:1026780061F09AC062F0A0C063F09EC064F051ECB3
:1026880018F060C095F061C096F062C097F0120033
:10269800120062C066F00001676B686B000161356B
:1026A8000001663701E367810001665100016E6F22
:1026B80000016E51D8A40AD0000E0001606F000E10
:1026C800616F000E626F000E636F120065C066F0E6
:1026D8000001676B686B000164350001663701E330
:1026E80067810001665100016D6F00016D51D8A42A
:1026F8000AD0000E0001606F000E616F000E626F5D
:10270800000E636F12000001618FFF0E0001601759
:10271800FF0E00016117000E000162170001648FAF
:10272800FF0E00016317FF0E00016417000E000181
:102738006517000E0001696F000E6A6F000E6B6F5F
:10274800000E6C6F7F0E00016E5F00016D51980FD7
:1027580000016E5F180E00016D6F0001D890693797
:102768006A376B376C37000163510001605D000107
:102778006451000161590001655100016259D8A0F6
:102788000ED0000163510001605F00016451000137
:10279800615B000165510001625B00016981000114
:1027A800D89060376137623700016D2FD6D700D0D7
:1027B80000016EAF1BD000016E51800A970FD8B090
:1027C8000BD0000E0001606F000E616F000E626F8B
:1027D800000E636F120000D00001D8906C336B3389
:1027E8006A33693300016E3FF7D71DD0170E000119
:1027F8006E6514D0000E0001606F000E616F000E50
:10280800626F000E636F120009D00001D89069371B
:102818006A376B376C3700016E0700D000016E51C4
:102828000001D8A4F2D769C060F06AC061F06BC03B
:1028380062F06CC063F0120000016235633500017C
:102848006B6F00016B51D8A40AD0000E0001606FB5
:10285800000E616F000E626F000E636F12000001C0
:102868006535663500016A6F00016A51D8A40AD03F
:10287800000E0001606F000E616F000E626F000EA7
:10288800636F12000001628FFF0E00016017FF0ED8
:102898006117FF0E6217000E63170001658FFF0EA8
:1028A80000016317FF0E6417FF0E6517000E661709
:1028B800000E0001666F000E676F000E686F000E55
:1028C800696F7F0E00016B5F00016A51A00F000164
:1028D8006B5F200E00016A6F00D00001D890663748
:1028E800673768376937000163510001605D00018F
:1028F80064510001615900016551000162590001EC
:10290800665100016359D8A013D00001635100013A
:10291800605F000164510001615B000165510001C5
:10292800625B000166510001635B0001668100D0B3
:102938000001D890603761376237633700016A2F2A
:10294800CCD700D000016BAF1BD000016B51800ABF
:102958009F0FD8B00BD0000E0001606F000E616FA2
:10296800000E626F000E636F120000D00001D89055
:10297800693368336733663300016B3FF7D71DD07F
:102988001F0E00016B6514D0000E0001606F000E71
:10299800616F000E626F000E636F120009D00001B4
:1029A800D890663767376837693700016B0700D0FA
:1029B80000016B510001D8A4F2D766C060F067C06F
:1029C80061F068C062F069C063F012000001816FB5
:1029D80000018151D6EC1FF081C06AF0550E92ECCF
:1029E8001DF081C060F0010E45EC1FF081C064F05D
:1029F800440EA9EC1FF0EE0E0001606F020E616F2D
:102A0800000E626F000E636F6CEC21F000018151C3
:102A1800D6EC1FF081C06AF0550E92EC1DF081C013
:102A280064F0BE0EA9EC1FF0000E00017C6F080ECA
:102A380000017C6501D011D000017C51010D730E9D
:102A4800F324D96E000EF420DA6E000181510EECE9
:102A58001FF0DF6E00017C2BEAD7000E00017E6FAD
:102A6800000E7D6F0001745100017E6F7D6B0001C7
:102A7800735100017D1300018151080D000EF324EC
:102A8800D96E010EF420DA6E100EDE18D8A448D0E4
:102A98000001D8907E337D3300017D5100017E6FA7
:102AA8007D6B400E00017D5F000E7E5B0001795159
:102AB8000001716F726B0001711F721F714B722BD5
:102AC80000017A510001712500017F6F000E00019D
:102AD80072210001806F00017F510001806F7F6BC0
:102AE80000017A51D8B40FD07FC060F080C061F087
:102AF8007AC062F00001636BD5EC1DF060C07FF016
:102B080061C080F000D000017D5100017F250001E7
:102B18007F6F00017E51000180210001806F0FD07E
:102B28007DC07FF07EC080F000017F3B803BF00ECF
:102B380080177F510F0B8013F00E7F1700D07FC0D6
:102B48006FF080C070F01200120076C07AF00001B9
:102B58007B6B7C6B0001753500017A3701E37B8163
:102B680000017A5100017D6F00017D51D8A40AD07F
:102B7800000E0001746F000E0001756F000E000159
:102B8800766F120079C07AF000017B6B7C6B0001D4
:102B9800783500017A3701E37B8100017A51000121
:102BA800826F00018251D8A40AD0000E0001746F10
:102BB800000E0001756F000E0001766F1200000113
:102BC80082517B0F00017D2776C082F00001795188
:102BD8000001821B800E000182170001758F000121
:102BE800788FFF0E00017717FF0E00017817000E8F
:102BF80000017917000E00017E6F000E00017F6F43
:102C0800000E0001806F070E0001816F00D00001E7
:102C180074A10DD00001775100017E270001785181
:102C280000017F23000179510001802300D00001B9
:102C3800D8907633753374330001D8907737783766
:102C480079370001812FE3D700D0090E0001816F89
:102C580000D0000174A10DD00001775100017E273A
:102C68000001785100017F23000179510001802380
:102C780000D00001D8907633753374330001D890B2
:102C880080337F337E330001812FE3D700D07EC0AD
:102C980060F07FC061F080C062F07DC063F082C0E8
:102CA80064F051EC18F060C074F061C075F062C057
:102CB80076F01200120088C08CF000018D6B8E6BCC
:102CC8000001873500018C3701E38D8100018C51AB
:102CD8000001936F00019351D8A40AD0000E00019F
:102CE800866F000E0001876F000E0001886F1200CA
:102CF8008BC08CF000018D6B8E6B00018A35000152
:102D08008C3701E38D8100018C510001946F000123
:102D18009451D8A40AD0000E0001866F000E00015D
:102D2800876F000E0001886F1200000E0001906F7F
:102D3800000E0001916F000E0001926F0001945186
:102D4800890F0001935F88C094F000018B51000146
:102D5800941B800E000194170001878FFF0E00015D
:102D68008617FF0E00018717000E00018817000163
:102D78008A8FFF0E00018917FF0E00018A17000EC7
:102D880000018B17180E00018F6F00D00001D8903A
:102D9800903791379237000189510001865D000113
:102DA8008A510001875900018B5100018859D8A028
:102DB8000ED0000189510001865F00018A5100018F
:102DC800875B00018B510001885B00019081000145
:102DD800D89086378737883700018F2FD7D700D00C
:102DE80090C060F091C061F092C062F093C063F04F
:102DF80094C064F051EC18F060C086F061C087F0B0
:102E080062C088F0120012008CC08EF000018F6B37
:102E1800906B00018B3500018E3701E38F81000133
:102E28008E510001986F00019851D8A40AD0000E65
:102E380000018A6F000E8B6F000E8C6F000E8D6F75
:102E48001200170E00018E6F8AC08FF08BC090F0B1
:102E58008CC091F000018E290001926F05D000010D
:102E6800D890913390338F330001922FF8D7000117
:102E78008F510001936F00018B8FFF0E00018A179D
:102E8800FF0E00018B17000E00018C1700018A51FC
:102E98000001946F00018B510001956F00018C5166
:102EA8000001966F0001976B8E0E0001985F00017C
:102EB80098AF1BD000019851800A8F0FD8B00BD063
:102EC800000E00018A6F000E8B6F000E8C6F000ED3
:102ED8008D6F120000D00001D89097339633953348
:102EE80094330001983FF7D71FD0170E000198655B
:102EF80014D0000E00018A6F000E8B6F000E8C6FCD
:102F0800000E8D6F120009D00001D89094379537C4
:102F1800963797370001980700D0000198510001B3
:102F2800D8B402D0F1D700D0000193510001D8B431
:102F38000AD00001971F961F951F946D000E9523C8
:102F48009623972300D094C08AF095C08BF096C042
:102F58008CF097C08DF012001200000E0001E66F91
:102F6800000E0001EA6FF50E0001CF6FFF0E0001A1
:102F7800D06F000E0001D26FFE0ED16F000E00015F
:102F8800D46F580ED36F7BEC20F0000E0001EA6F6F
:102F9800030E0001EA6502D0120012000001EA5196
:102FA80032EC21F00009D8B470D00001EA51A1EC4C
:102FB80020F095C0E7F096C0E8F097C0E9F0000E61
:102FC8000001896FA00E00018A6F400E00018B6F0F
:102FD800000E0001776F100E0001786F410E00019E
:102FE800796FE7C074F0E8C075F0E9C076F0A9EC35
:102FF80015F074C086F075C087F076C088F05FEC75
:1030080016F086C095F087C096F088C097F0000E3D
:103018000001986F000E0001996F420E00019A6F2F
:103028000EEC12F095C0E7F096C0E8F097C0E9F012
:103038004B0E0001CF6FFF0E0001D06F000E000194
:10304800D26FFE0ED16F000E0001D46F580ED36FF1
:10305800EAC0D5F00001D66BE6C0D7F00001D86B06
:10306800E7C0D9F0E8C0DAF0E9C0DBF07BEC20F08B
:103078000001E62B0001EA5189EC0EF00009D8A402
:1030880094D7000E0001E66F00D00001EA2B030E72
:103098000001EA6583D712001200000163510001A4
:1030A800D8B408D00001605100016111000162111B
:1030B800D8A413D0000E0001606F000E0001616FEC
:1030C800000E0001626F120008D00001632B00019E
:1030D800D89062336133603300D0000E0001601570
:1030E8000001656F000E000161150001666FFE0E9C
:1030F800000162150001676F00016551000166114A
:1031080000016711D8B413D0E0D711D00001632BA8
:10311800010E00016027000E00016123000E00016E
:1031280062230001D89062336133603300D0000E0F
:10313800000160150001656F000E000161150001B6
:10314800666FFF0E000162150001676F000165518F
:103158000001661100016711D8B40AD0D7D708D08A
:10316800000163070001D89060376137623700D0EB
:10317800000161BF05D0020E00016361F1D700D0E4
:10318800000163B103D00001619F00D00001D89015
:1031980063330001635100016213000164510001AF
:1031A800D8B403D00001628F00D060C060F061C065
:1031B80061F062C062F012001200000E0001646F3C
:1031C800000E0001656F9594928092829284928697
:1031D800928A968096680F01569D010EC26E400E27
:1031E800C16E870EC06E0F015D810F015D830F01F7
:1031F8005D850F015D870F015D890F015D8B9E9CC9
:103208009F9C9D8C000E0001616F000E606F4FEC5B
:1032180022F0970ECEEC21F0000E0001616F000E37
:10322800606F46EC22F09F0E0001646F7F0E000174
:10323800656F65C060F000016451C6EC20F0949C95
:10324800948E9F8A9E8A9D8A000E0001616F220ECD
:10325800606F7C0ED2EC1EF0959C958EA58AA48A90
:10326800A38A000E0001616F440E606F7C0E94EC1F
:103278001EF0D08EF28CF28E000E0001F76F000E59
:10328800406E000E0001F66F000E0001F86F000E90
:103298000001666F030E0001666502D0120012007D
:1032A80000016651010D300EF324D96E000EF42092
:1032B800DA6E000EDF6E0001662B030E00016665F4
:1032C800EFD712001200000E0101946F000E936FE9
:1032D800000E0101966F000E956F3BEC22F0E1ECB9
:1032E80018F0100E0001606F270E616F000E626FFC
:1032F800000E636F6CEC21F0D30E0001CF6FFF0E50
:103308000001D06F7BEC20F0D30E0001CF6FFF0ED1
:103318000001D06F7BEC20F0E00E0001CF6FFE0EB5
:103328000001D06F7BEC20F045EC1CF0C28200D08D
:103338000001F651D8B419D0000E0001F66F09D07B
:10334800E3EC19F012D083EC1BF00FD056EC1EF012
:103358000CD00001F551610AD8B4F8D7050AD8B4E1
:10336800EFD7120AD8B4EFD700D00001F705D8A4D8
:1033780009D00A0E0001CF6FFF0E0001D06F7BEC61
:1033880020F00DD0020E0001F719D8A40CD02B0E96
:103398000001CF6FFF0E0001D06F7BEC20F0000E14
:1033A8000001F76F00D00001F851D8B4C1D7B1ECD3
:1033B80017F0000E0001F86FBBD759EF00F0FCC002
:1033C8008EF1FDC08FF121EE71F011EE81F00C0E3F
:1033D800DBCFE3FFE806FCE2F9C07EF1FAC07FF13B
:1033E800FBC080F100D0ACA2FED701018E512FECBA
:1033F80022F000D0ACA2FED701018F512FEC22F0B1
:10340800840E0001CF6FFF0E0001D06F810E000106
:10341800606F010E0001616F54EC20F060C0D1F0C4
:1034280061C0D2F07BEC20F0000E0101916F000E1C
:10343800906F20D000D0ACA2FED7810E010190255C
:10344800D96E010E01019121DA6EDF502FEC22F0C6
:1034580000D0BAA2FED7810E01019025D96E010EC7
:1034680001019121DA6EDF5023EC22F00101904B2B
:10347800912B00D0810E0001606F010E0001616F79
:1034880054EC20F0000160510101905D0001615190
:1034980001019159D8A0CFD71200000E00016B6F1F
:1034A800000169AF09D00001686D691FD8B0692BA8
:1034B800010E00016B6F00D0000167AF09D0000159
:1034C800666D671FD8B0672B010E00016B1B00D01B
:1034D800000E00016D6F000E6C6F00016851000155
:1034E8006911D8B431D0010E00016A6F07D000010C
:1034F800D8906837693700016A2B00D0000169BF8E
:1035080002D0F5D700D00001D8906C376D37000194
:1035180068510001665D0001695100016759D8A032
:103528000BD0000168510001665F0001695100017C
:10353800675B00016C8100D00001D8906933683363
:1035480000016A2FE0D700D000016B510001D8B408
:1035580006D000016C6D6D1FD8B06D2B00D06CC00B
:1035680066F06DC067F012001200000162AF1ED055
:1035780060C066F061C067F062C068F00001661F55
:10358800671F681F662B000E67236823000E000163
:1035980066250001606F000E000167210001616F60
:1035A800800E000168210001626F00D0000165AF44
:1035B8001ED063C066F064C067F065C068F00001A3
:1035C800661F671F681F662B000E67236823000E9F
:1035D800000166250001636F000E000167210001EC
:1035E800646F800E000168210001656F00D0000E35
:1035F8000001601B000E0001611B800E0001621BB0
:10360800000E0001631B000E0001641B800E000108
:10361800651B000163510001605D000164510001F8
:1036280061590001655100016259D8B002D0D890A3
:103638001200D88012001200000E0001686F000E00
:10364800696F000E6A6F000E6B6F00016451000114
:1036580065110001661100016711D8B447D0010E49
:1036680000016C6F09D00001D89064376537663760
:10367800673700016C2B00D0000167BF02D0F3D779
:1036880000D00001D890683769376A376B37000176
:1036980064510001605D000165510001615900013C
:1036A8006651000162590001675100016359D8A0B1
:1036B80013D0000164510001605F000165510001F1
:1036C800615B000166510001625B00016751000106
:1036D800635B0001688100D00001D89067336633CE
:1036E8006533643300016C2FCCD700D068C060F01C
:1036F80069C061F06AC062F06BC063F01200000E2E
:103708000001EA6F000E0001EC6F000EEB6F000184
:10371800ECBF0AD00001EC5153E1060E0001EB5D4D
:10372800D8B0120001D012000001EB51EB250001C6
:10373800EA6F0001EA510001E26FE36B010E00013C
:10374800E227000EE323240E0001E225D96E000EC5
:103758000001E321DA6EDF500001E46F0001EA5155
:10376800010D240EF324D96E000EF420DA6EDF501A
:103778000001E56F0001E5510001E76FE66B00010C
:10378800E4510001E6250001E86F0001000E000188
:10379800E7210001E96FD60E0001CF6FFF0E00018F
:1037A800D06FEBC0D1F0ECC0D2F0E8C0D3F0E9C0E4
:1037B800D4F07BEC20F00001EB4BEC2BA8D71200E7
:1037C8001200EACF19F0E1CF1AF0E2CF1BF0D9CFFF
:1037D8001CF0DACF1DF0F3CF1EF0F4CF1FF0F6CFB8
:1037E80020F0F7CF21F0F8CF22F0F5CF23F09EAAF2
:1037F80006D09E9A010E406E04EC22F025D0A4AAB1
:1038080009D0A49A010E0001F66FE1EC21F0000145
:10381800F56F1AD0F2A40DD0F2948CB407D0800EB4
:10382800136E000E126E58EC22F000D066EC22F0F7
:103838000BD0A1A205D0A192010E0001F86F04D00F
:10384800010E0001F76F00D023C0F5FF22C0F8FF7A
:1038580021C0F7FF20C0F6FF1FC0F4FF1EC0F3FF12
:103868001DC0DAFF1CC0D9FF1BC0E2FF1AC0E1FF70
:1038780019C0EAFF18C0E9FF17C0FBFF16C0FAFF1E
:103888001100000E0001E66F440E0001CF6FFE0E1E
:103898000001D06F000E0001D26FFE0ED16F000E36
:1038A8000001D46F580ED36F000E0001D66F040EBE
:1038B800D56F7BEC20F0000E0001E76F030E0001CE
:1038C800E76502D0120012000001E75132EC21F046
:1038D8000009D8B41DD0C50E0001CF6FFF0E00013E
:1038E800D06FE7C0D1F00001D26BE6C0D3F0000181
:1038F800D46B7BEC20F00001E62B0001E75189EC4A
:103908000EF00009D8A4E7D7000E0001E66F0DD02D
:103918009D0E0001CF6FFF0E0001D06FE7C0D1F000
:103928000001D26B7BEC20F000D00001E72B030EE6
:103938000001E765C9D712001200000E0001656F8B
:10394800000161AF09D00001606D611FD8B0612B23
:10395800010E0001656F00D0000163AF06D00001C1
:10396800626D631FD8B0632B00D000016251000163
:103978006311D8B42BD0010E0001646F07D0000189
:10398800D890623763370001642B00D0000163BF11
:1039980002D0F5D700D0000162510001605D00013E
:1039A800635100016159D8A009D00001625100019A
:1039B800605F000163510001615B00D00001D89095
:1039C800633362330001642FE6D700D000016551EC
:1039D8000001D8B406D00001606D611FD8B0612B1A
:1039E80000D060C060F061C061F0120012000001F8
:1039F8007151000172110001731100017411D8B4E2
:103A08003FD0010E0001756F09D00001D8907137C1
:103A18007237733774370001752B00D0000174BFFB
:103A280002D0F3D700D00001715100016D5D000193
:103A3800725100016E590001735100016F59000164
:103A4800745100017059D8A011D0000171510001C2
:103A58006D5F0001725100016E5B0001735100013E
:103A68006F5B000174510001705B00D00001D890B9
:103A780074337333723371330001752FD4D700D088
:103A88006DC06DF06EC06EF06FC06FF070C070F0FA
:103A9800120001EE00F0600EEE6AE806FDE100EEAD
:103AA800EDF00C0EEE6AE806FDE100EE24F01D0EC6
:103AB800EE6AE806FDE1280EF66E440EF76E000E7B
:103AC800F86E01EE60F010EE1EF00900F5CFEEFF83
:103AD800E550E150FAE1C70EF66E440EF76E000E9F
:103AE800F86E00EEF9F010EE05F00900F5CFEEFFE4
:103AF800E550E150FAE1C20EF66E440EF76E000E84
:103B0800F86E00EE41F010EE05F00900F5CFEEFF7B
:103B1800E550E150FAE1000167EF19F000016D6F1F
:103B2800550E00016D19D8A435D06AC064F0550E41
:103B3800A9EC1FF0000E00016E6F070E00016E6504
:103B480002D0120012006AC064F000016A51080D28
:103B5800000E00016B6F010E00016C6FF350000145
:103B68006B27F45000016C2300016E51010DF350D6
:103B780000016B25D96EF45000016C21DA6EDF501C
:103B8800A9EC1FF000016E2B070E00016E65DBD754
:103B9800120012006AC064F0CC0EA9EC1FF01200EB
:103BA8001200000E0001666F000E656F0001625181
:103BB80000016311D8B431D0010E0001646F07D041
:103BC8000001D890623763370001642B00D00001F0
:103BD80063BF02D0F5D700D00001D89065376637AB
:103BE800000162510001605D0001635100016159EB
:103BF800D8A00BD0000162510001605F0001635141
:103C08000001615B0001658100D00001D890633339
:103C180062330001642FE0D700D065C060F066C051
:103C280061F012008E0E0001706F09D00001D8906B
:103C38006B336A33693368330001702B00D0000E90
:103C48000001681500016C6F000E00016915000184
:103C58006D6F000E00016A1500016E6FFF0E000106
:103C68006B1500016F6F00016C5100016D110001AF
:103C78006E1100016F11D8A4D9D768C060F069C06F
:103C880061F06AC062F070C063F0000E0001646FFA
:103C980051EC18F060C068F061C069F062C06AF069
:103CA80012001200000E0001E36F000E0001E36F26
:103CB800030E0001E36502D0120012000001E35177
:103CC800010D300EF324D96E000EF420DA6EDF50A9
:103CD800D8B41ED0B40E0001CF6FFE0E0001D06F15
:103CE800E3C0D1F00001D26B0001E351080D200EB2
:103CF800F324D96E010EF420DA6EDF500001E26F72
:103D08000001E2510001D36FD46B7BEC20F000D0AE
:103D18000001E32B030E0001E365D0D71200120067
:103D28000001626F000EBA6E000EA66E000162A15D
:103D380002D0BA8800D0000162A303D0BA8CA68C46
:103D480000D0000162A502D0BA8E00D0000162A79F
:103D580002D0A68802D0A68A00D0000162A902D0AB
:103D6800BA8402D0BA9400D0000162AB02D0A68611
:103D780000D0000162AD02D0A38A02D0A39A00D07D
:103D8800000162AF02D0A38801D0A39860C07BFF76
:103D9800000161517C6EBA8AA68E12000001626F22
:103DA800000EAC6E000EAB6E000162A102D0AC88B2
:103DB80000D0000162A303D0AC8CAB8C00D0000112
:103DC80062A502D0AC8E00D0000162A702D0AB88F9
:103DD80002D0AB8A00D0000162A902D0AC8400D026
:103DE800000162AB02D0AB8600D0000162AD02D008
:103DF8009D8A02D09D9A00D0000162AF02D09D88B2
:103E080001D09D9860C0AFFF000161517D6EAC8A02
:103E1800AB8E12000001656F000E0001666F000E88
:103E28000001676F070E0001676501D026D0000109
:103E3800655186EC21F00009D8B413D067C063F04F
:103E4800010E0001646F0001632B03D00001D890BC
:103E580064370001632FFAD700016451000166132B
:103E680000D0030E0001636F7D0EE82EFED7632F8E
:103E7800FCD700F00001672BD5D70001665112006E
:103E880012000001616F20D09494000161B102D04A
:103E98008B9401D08B8412009496000161B102D0FA
:103EA8008B9601D08B8612009498000161B102D0E4
:103EB8008B9801D08B881200949A000161B102D0CE
:103EC8008B9A01D08B8A120000016051000AD8B485
:103ED800DBD7010AD8B4E0D7030AD8B4E5D7010A7A
:103EE800D8A41200E9D712000001606F1ED0948494
:103EF80082A402D0010E1200000E1200948682A63F
:103F080002D0010E1200000E1200948882A802D07E
:103F1800010E1200000E1200948A82AA02D0010E2D
:103F28001200000E1200FF0E120000016051000A7C
:103F3800D8B4DDD7010AD8B4E1D7030AD8B4E5D795
:103F4800010AD8B4E9D7EFD712000001676F000E55
:103F58000001696F070E0001696501D01DD069C0B5
:103F680065F067C066F00001652B03D00001D890AA
:103F780066330001652FFAD7000166510001686FAA
:103F8800010E0001681764C062F0000168510FEC6F
:103F980021F00001692BDED7F00E00D000D0E82E0A
:103FA800FCD712000001646F64C060F0000E45EC9D
:103FB8001FF00A0E0001626FF80EE82EFED7622F7E
:103FC800FCD700D064C060F0010E45EC1FF0D50EA0
:103FD800E82EFED700F00001645178EC1FF00001D4
:103FE800636F090E0001626FCE0EE82EFED7622FB6
:103FF800FCD700D00001635112001200CFC0D9F0E5
:10400800D0C0DAF0000E0001DB6F000E0001DC6F9B
:10401800D30E0001D76F000E0001D86FD90E000132
:10402800A76F000E0001A86FD1C0A9F0D2C0AAF0F6
:10403800D70E0001AB6F000E0001AC6F5BEC00F017
:10404800D9C0D9FFDAC0DAFF000EDF6E1200120005
:104058000001A4510001A5110001A611D8B40AD08D
:10406800000E0001A41B000E0001A51B800E00011C
:10407800A61B00D0A1C095F0A2C096F0A3C097F0EF
:10408800A4C098F0A5C099F0A6C09AF00EEC12F062
:1040980095C0A1F096C0A2F097C0A3F0120012003C
:1040A80060C064F061C065F004D00001644B652B0A
:1040B80000D064C0D9FF65C0DAFFDF50D8A4F5D7B7
:1040C80060C062F061C063F00001621F631F624B51
:1040D800632B00016451000162250001606F00013B
:1040E8006551000163210001616F12001200000E8A
:1040F8000001DE6F000E0001DF6FE60E0001E06FC9
:10410800430E0001E16FD10E0001DC6F000E0001CB
:10411800DD6FDE0E0001A76F000E0001A86FCFC093
:10412800A9F0D0C0AAF0DC0E0001AB6F000E0001B0
:10413800AC6F5BEC00F0120012000001986F0001F8
:104148009851EAEC14F06FC082F070C083F0EBEC89
:1041580020F082C086F083C087F084C088F0000E0B
:104168000001896F800E00018A6F430E00018B6F7A
:104178005FEC16F086C095F087C096F088C097F07F
:10418800120012000001626F00016051F30BB06E63
:1041980062C061F07F0E000161170001D89061359F
:1041A800B16E000EB36E000EB26EA192A190000126
:1041B80062AF02D0A08201D0A092000160A502D017
:1041C800A08001D0A090B0BEB086B1801200000ED1
:1041D8000001856F000183AF09D00001826D831F44
:1041E800D8B0832B010E0001856F00D082C060F02B
:1041F80083C061F00001626B8E0E0001636F85C0A1
:1042080064F051EC18F060C082F061C083F062C0C5
:1042180084F0120012000001636F62C060F0000EAB
:1042280045EC1FF00A0EE82EFED700D000016351BE
:104238000001D8B406D062C060F0010E45EC1FF052
:1042480000D0E40E00D000D0E82EFCD700D000D07B
:1042580062C060F0010E45EC1FF012000001E56F2E
:104268000001E551010DF10EF324D96E000EF42082
:10427800DA6E000EDF6E0001E551010DED0EF3243C
:10428800D96E000EF420DA6E000EDF6E0001E551E3
:1042980089EC0EF01200120000016E51000170034B
:1042A800F3CF72F0F4CF73F000016E510001710387
:1042B800F3500001732700016F5100017003F350A0
:1042C8000001732772C06EF073C06FF01200120005
:1042D800150E0001646FC10EE82EFED7642FFCD7BF
:1042E80000F000016007000E615B625B635B000128
:1042F8006051000161110001621100016311D8A42D
:10430800E7D712000001626F62C060F0000E45EC52
:104318001FF00A0EE82EFED700D00001625178EC9B
:104328001FF01A0EE82EFED700D00001625178EC7B
:104338001FF012001200000160510001611100011C
:104348006211D8B409D0000E0001601B000E0001F4
:10435800611B800E0001621B60C060F061C061F0EB
:1043680062C062F012000001626F000E0001616F0E
:104378003A0E0001626108D02F0E0001626504D078
:10438800010E0001616F00D061C060F00001603172
:10439800120012000001606F000160517F0BD56EA2
:1043A800000ED76E000ED66EF294000160AF02D0F8
:1043B800F28A01D0F29AD58E1200F20E3F16A6AC00
:1043C80005D03F90A6A002D03F8000D0A6B43F847D
:1043D800A6B23F867ACF12F01250120012000001E6
:1043E800616F00D0BAA2FED70001615123EC22F020
:1043F80000D0ACA2FED7000161512FEC22F01200D0
:10440800F20E3E16ABAC05D03E90ABA002D03E807B
:1044180000D0ABB43E84ABB23E86AECF12F01200F1
:1044280048656C6C6F2066726F6D20504943313857
:104438000048656C6C6F20576F726C642100000136
:10444800606FBAAC05D0BA903FA202D0BA8000D053
:1044580060C079FF12000001606FACAC05D0AC9071
:104468003EA202D0AC8000D060C0ADFF1200F00EBA
:10447800D36E00D0D3A4FED7C00E9B6E00D0D3A4B9
:10448800FED7120060C062F061C063F063C0B3FF82
:1044980062C0B2FF120060C062F061C063F063C026
:1044A800D7FF62C0D6FF120012C014F013C015F077
:1044B80015C0D7FF14C0D6FF12000A0000FE58FE30
:0844C8003908FE588C74120043
:10FD640000010000000A00000064000000E8030035
:10FD74000010270000A086010040420F00809698E2
:10FD84000000E1F50500CA9A3B00803FCDCC3DD789
:10FD9400233C12833AB7D138C62737388635C0D6C4
:10FDA40033CC2B32708930E7DB2EE53C1E42A20DAA
:10FDB40000803F00204100C842007A44401C465065
:10FDC400C34724744997184BBCBE4C6B6E4E031545
:10FDD4005079AD60F349710100000010000000008B
:10FDE40001000000100000000001000000100000ED
:10FDF400000001000000104453313832305F46697E
:10FE04006E644E65787444657669636528293A2082
:10FE1400536561726368204E4F5420737563636544
:10FE2400737366756C206275733A2025642C2061A7
:10FE3400646472657320776173203027730D0A0040
:10FE440025632563496E69745F53656E736F7273BE
:10FE540028293A20436865636B696E6720666F7270
:10FE64002044533138323020446576696365206F0D
:10FE74006E202564206275732070696E730D0A000C
:10FE8400436F756C64206E6F742066696E642066BF
:10FE94006972737420445331383230206465766952
:10FEA4006365206F6E206275733A2025640D0A0025
:10FEB40044533138323020446576696365206F6E6F
:10FEC400206275733A202564207769746820616420
:10FED40064726573733A2025730D0A004F73636966
:10FEE4006C6C61746F7220616E642050657269700D
:10FEF400686572616C7320696E697469616C697A92
:10FF04006564210D0A004120686967682070726980
:10FF14006F7269747920495251207761732069673F
:10FF24006E6F7265640A0041206C6F77207072698D
:10FF34006F7269747920495251207761732069671F
:10FF44006E6F7265640A002563256353656E736F73
:10FF5400725F25645F25643A20463A2025322E32AA
:10FF640066200D0A00256325634453313832305F1F
:10FF740025643A20463A2025322E3266200D0A00A6
:10FF84004D657373616765206C656E67746820697D
:10FF940073203A2025640D0A004E6F2053656E735A
:10FFA4006F7273206F6E204275732025640D0A00F2
:10FFB400303132333435363738394142434445469B
:10FFC4000053656E736F725F25645F25643A200D7C
:10FFD4000A004144432025642069733A2025750DA5
:10FFE4000A0025642E2530326400286E756C6C2955
:0CFFF40000256325630D0A00255800005D
:020000040020DA
:08000000FFFFFFFFFFFFFFFF00
:020000040030CA
:0E0000001D187F7FFF8991FF0FC00FE00F409A
:00000001FF
