:0400000059EF00F0C4
:10000800FACF16F0FBCF17F0E9CF18F0DAEF1AF0B5
:10001800D8CF01F0E8CF02F0E0CF03F0FACF04F038
:10002800FBCF05F0E9CF06F0EACF07F0E1CF08F003
:10003800E2CF09F0D9CF0AF0DACF0BF0F3CF0CF00A
:10004800F4CF0DF0F6CF0EF0F7CF0FF0F8CF10F099
:10005800F5CF11F09EAC02D09E9C04D0020E000198
:10006800FB6F00D011C0F5FF10C0F8FF0FC0F7FFFD
:100078000EC0F6FF0DC0F4FF0CC0F3FF0BC0DAFF93
:100088000AC0D9FF09C0E2FF08C0E1FF07C0EAFFC4
:1000980006C0E9FF05C0FBFF04C0FAFF03C0E0FF8C
:1000A80002C0E8FF01C0D8FF100012EF1DF0EEEF0C
:1000B8000BF0250E0001CB19D8B43CD0000120EE7E
:1000C80002F0A451D926A551DA22DE50DE10D8B4A8
:1000D8001AD0000120EE02F0A451D926A551DA2247
:1000E800DECFAAF0DDCFABF002D8EEEF0BF00500C3
:1000F800FA6E0001AA51FD6EAB51FE6EFF6AFA500E
:100108000001CB511200A4C0D9FFA5C0DAFFDECF91
:10011800AAF0DDCFABF0AAC0D9FFABC0DAFFCBC0E5
:10012800DFFFA4C0D9FFA5C0DAFFDE2A000EDD225A
:10013800EEEF0BF0000E0001C86F000EC76F000E47
:100148000001C66F000EC56F07D00001C58500010C
:10015800A64BA72B01D00CD0A6C0F6FFA7C0F7FF6F
:10016800F86A0800F550300AD8B4EFD701D0F4D7B0
:10017800A6C0F6FFA7C0F7FFF86A0800F55012EC12
:100188001FF0D8A045D0000E0001C86F000EC76F41
:1001980000D0C7C06EF0C8C06FF0000E0001716FCC
:1001A8000A0E706FC4EC1EF06EC0C7F06FC0C8F0C6
:1001B800D00E0001AA6FFF0E0001AB6FA6C0F6FFBC
:1001C800A7C0F7FFF86A0800F5500001AC6FAD6BE7
:1001D8000001AA510001AC270001AB510001AD2379
:1001E8000001AC510001C7270001AD510001C8232F
:1001F8000001A64BA72BA6C0F6FFA7C0F7FFF86A19
:100208000800F55012EC1FF0D8A002D0C2D700D0D9
:10021800A6C0F6FFA7C0F7FFF86A0800F5502E0A37
:10022800D8A43DD00001C68D0001A64BA72B000E17
:100238000001CA6F000EC96F25D0C9C06EF0CAC0D0
:100248006FF0000E0001716F0A0E706FC4EC1EF0A3
:10025800A6C0F6FFA7C0F7FFF86A0800F55000012E
:100268006E27000E00016F23D00E00016E250001DD
:10027800C96FFF0E00016F210001CA6F0001A64B74
:10028800A72B00D0A6C0F6FFA7C0F7FFF86A0800A2
:10029800F55012EC1FF0D8A067D1CFD765D1000E6A
:1002A8000001CA6F000EC96F0001C6895DD100EF59
:1002B8000CF00001C68582D100D00001C58F7ED127
:1002C800A8C0D9FFA9C0DAFFDFCFAAF0020EDE2648
:1002D800DFCFABF0000EDD22AAC0D9FFABC0DAFF3A
:1002E800DECFB4F0DDCFB5F00001B4510001B51197
:1002F800D8A407D0E90E0001B46FFF0E0001B56F56
:1003080000D0000E0001B76F000EB66F04D00001D8
:10031800B64BB72B00D00001B6510001B42500013F
:10032800AA6F0001B7510001B5210001AB6FAAC047
:10033800F6FFABC0F7FF000EF86E0E0EF76403D0A1
:100348000800F55005D0F6CFE9FFF7CFEAFFEF50E8
:100358000009D8B402D0DBD700D00001C951000190
:10036800CA11D8B40FD00001B6510001C95D00010F
:10037800B7510001CA59D8B005D0C9C0B6F0CAC033
:10038800B7F000D00001C7510001B65D0001C851A7
:100398000001B759D8B009D00001B6510001C75FB4
:1003A8000001B7510001C85B3FD0000E0001C86FC3
:1003B800000EC76F39D0000120EE02F0A451D926F3
:1003C800A551DA22DE50DE10D8B418D0000120EE94
:1003D80002F0A451D926A551DA22DECFAAF0DDCF4A
:1003E800ABF001D821D00500FA6E0001AA51FD6ECC
:1003F800AB51FE6EFF6AFA50200E1200A4C0D9FF5E
:10040800A5C0DAFFDECFAAF0DDCFABF0AAC0D9FFD6
:10041800ABC0DAFF200EDF6EA4C0D9FFA5C0DAFF9B
:10042800DE2A000EDD2200D00001C707D8A0C807C9
:100438000001C729C0E10001C829D8B462D0BBD7E0
:1004480060D0000120EE02F0A451D926A551DA228D
:10045800DE50DE10D8B42CD0000120EE02F0A451FA
:10046800D926A551DA22DECFAAF0DDCFABF001D82C
:100478001BD00500FA6E0001AA51FD6EAB51FE6E4D
:10048800FF6AFA50B4C0F6FFB5C0F7FF000EF86E69
:100498000E0EF76403D00800F55005D0F6CFE9FF3B
:1004A800F7CFEAFFEF5012000001B44BB52B29D06B
:1004B800B4C0F6FFB5C0F7FF000EF86EA4C0D9FFB0
:1004C800A5C0DAFFDECFAAF0DDCFABF0AAC0D9FF16
:1004D800ABC0DAFF0E0EF76403D00800F55005D064
:1004E800F6CFE9FFF7CFEAFFEF50DF6E0001B44B1C
:1004F800B52BA4C0D9FFA5C0DAFFDE2A000EDD2285
:1005080000D00001B607D8A0B7070001B62999E1C5
:100518000001B729D8B4EEEF0BF093D7EEEF0BF04C
:10052800A8C0D9FFA9C0DAFFDFCFAAF0020EDE26E5
:10053800DFCFABF0000EDD22AAC0D9FFABC0DAFFD7
:10054800DF500001CB6F00D0CB0E0001B46F000E5E
:100558000001B56F000E0001B76F010EB66FFDD632
:10056800C00E0001C5132AD0A6C0F6FFA7C0F7FF2A
:100578000001A64BA72BF86A0800F5CFCBF00001C5
:10058800CB51000AD8B400EF0CF0580AD8B495D66D
:100598003B0AD8B4C5D7070AD8B410D0020AD8B4D1
:1005A80088D60F0AD8B40AD01A0AD8B489D6060A47
:1005B800D8B4D6D70D0AD8B480D6C6D7070E00014E
:1005C800C615D8B48DEF08F00001C6A906D0000EF4
:1005D8000001CA6F060EC96F00D0A8C0D9FFA9C014
:1005E800DAFFDFCFAAF0030EDE26DFCFABF0000E76
:1005F800DD22AAC0D9FFABC0DAFFDECFC2F0DECF62
:10060800C3F0DDCFC4F00001C4AF12D0C2C060F0A7
:10061800C3C061F0C4C062F0FAEC1EF060C0C2F062
:1006280061C0C3F062C0C4F0030E0001C51300D05E
:10063800000E0001B96F000EB86F0001C251000131
:10064800C3110001C411D8B49DD0820E0001AA6F55
:10065800FF0E0001AB6FC2C0ACF0C3C0ADF0C4C0A8
:10066800AEF0C5C0AFF0100E06D00001D890AF3381
:10067800AE33AD33AC33E82EF8D70001AC510001EE
:10068800AA250001B86F000E0001AB210001B96F67
:100698000001B807D8A0B907B8C06EF0B9C06FF0AC
:1006A800000E0001716F030E706FC4EC1EF06EC077
:1006B800B8F06FC0B9F0B8C066F0B9C067F0000E06
:1006C8000001696F0A0E686FA8EC19F066C0B8F0EF
:1006D80067C0B9F00001B9AF05D00001B807D8A0CC
:1006E800B90700D00001B851000807EC0CF083C02E
:1006F800BAF084C0BBF085C0BCF0BAC074F0BBC00F
:1007080075F0BCC076F0C2C077F0C3C078F0C4C042
:1007180079F033EC14F074C0BAF075C0BBF076C051
:10072800BCF0BAC060F0BBC061F0BCC062F0000EA3
:100738000001636F800E0001646F3F0E0001656F5A
:1007480010EC1AF00001D8B005D00001B807D8A005
:10075800B90718D0BAC060F0BBC061F0BCC062F085
:10076800000E0001636F200E0001646F410E00014E
:10077800656F10EC1AF00001D8A004D00001B84B46
:10078800B92B00D00001CABF08D00001CA511EE130
:100798000D0E0001C95DD8B019D0C2C092F0C3C017
:1007A80093F0C4C094F00001C95189EC0EF083C0E5
:1007B80095F084C096F085C097F057EC11F092C080
:1007C800C2F093C0C3F094C0C4F000D00001B9BF18
:1007D80008D00001B9512CE10A0E0001B85DD8B06B
:1007E80027D00001C2510001C3110001C411D8B4BF
:1007F8007FD0C2C08AF0C3C08BF0C4C08CF03EEC7E
:1008080016F000018A5100018B1100018C110001C2
:100818008D11D8A46DD00001B9BF6AD00001B951BB
:1008280007E1020E0001B85DD8B002D061D000D057
:10083800BAC060F0BBC061F0BCC062F0700E0001CD
:10084800636F890E0001646F400E0001656F10EC44
:100858001AF00001D8B003D00001F70E02D0000151
:10086800F80EB827FF0EB92300D00001B85107ECE5
:100878000CF083C0BAF084C0BBF085C0BCF017D0C0
:10088800C2C060F0C3C061F0C4C062F0BAC063F017
:10089800BBC064F0BCC065F069EC13F060C0BEF08A
:1008A80061C0BFF062C0C0F063C0C1F017D0C2C061
:1008B80060F0C3C061F0C4C062F0BAC063F0BBC0EE
:1008C80064F0BCC065F096EC12F060C0BEF061C088
:1008D800BFF062C0C0F063C0C1F000D0000E0001DC
:1008E800C26F000E0001C36F000E0001C46F34D048
:1008F800C2C08AF0C3C08BF0C4C08CF03EEC16F0C6
:100908008AC0BEF08BC0BFF08CC0C0F08DC0C1F0F3
:10091800C2C09EF0C3C09FF0C4C0A0F0BEC068F0C3
:10092800BFC069F0C0C06AF0C1C06BF025EC1CF014
:1009380068C0A1F069C0A2F06AC0A3F0C7EC1DF0BE
:100948009EC0C2F09FC0C3F0A0C0C4F0000E00015A
:10095800B96F000EB86F00D0010E0001CB6F0A0E00
:100968000001CB19D8B425D001D023D00001CB5138
:10097800040DF30EF324F66EFD0EF420F76EF86AFC
:10098800000EF8220900F5500001BE5D0900F5507F
:100998000001BF590900F5500001C0590900F55080
:1009A8000001C159D8A005D001D003D00001CB2B3C
:1009B800D6D7CBC0AAF00001AB6BAABFAB0700012A
:1009C800C9510001AA270001CA510001AB23000147
:1009D800B8510001AA270001B9510001AB23000159
:1009E800AA510001C75F0001AB510001C85B0001BB
:1009F800C9510001CA11D8B405D00001C707D8A051
:100A0800C80700D0030E0001C5150001AA6F000E2B
:100A18000001C6150001AB6F0001AA510001AB111E
:100A2800D8B405D00001C707D8A0C80700D0000176
:100A3800C5A5D2D0030E0001C5150001AA6F000E8E
:100A48000001C6150001AB6F0001AA510001AB11EE
:100A5800D8B477D0000120EE02F0A451D926A551D0
:100A6800DA22DE50DE10D8B418D0000120EE02F0F1
:100A7800A451D926A551DA22DECFAAF0DDCFABF0FA
:100A880001D85FD00500FA6E0001AA51FD6EAB5186
:100A9800FE6EFF6AFA502D0E1200A4C0D9FFA5C041
:100AA800DAFFDECFAAF0DDCFABF0AAC0D9FFABC02A
:100AB800DAFF2D0EDF6EA4C0D9FFA5C0DAFFDE2A4B
:100AC800000EDD223ED0000120EE02F0A451D9260E
:100AD800A551DA22DE50DE10D8B418D0000120EE7D
:100AE80002F0A451D926A551DA22DECFAAF0DDCF33
:100AF800ABF001D821D00500FA6E0001AA51FD6EB5
:100B0800AB51FE6EFF6AFA50300E1200A4C0D9FF36
:100B1800A5C0DAFFDECFAAF0DDCFABF0AAC0D9FFBF
:100B2800ABC0DAFF300EDF6EA4C0D9FFA5C0DAFF74
:100B3800DE2A000EDD2200D00001C707D8A0C807B2
:100B480000D00001C8BF17D10001C851BCE10001A5
:100B5800C705D8A010D1B7D70ED13ED0000120EEDE
:100B680002F0A451D926A551DA22DE50DE10D8B4FD
:100B780018D0000120EE02F0A451D926A551DA229E
:100B8800DECFAAF0DDCFABF001D821D00500FA6E98
:100B98000001AA51FD6EAB51FE6EFF6AFA50200E9D
:100BA8001200A4C0D9FFA5C0DAFFDECFAAF0DDCFBE
:100BB800ABF0AAC0D9FFABC0DAFF200EDF6EA4C02D
:100BC800D9FFA5C0DAFFDE2A000EDD2200D0000121
:100BD800C707D8A0C80700D00001C8BF07D00001C8
:100BE800C851BCE10001C705D8B0B8D7030E000151
:100BF800C5150001AA6F000E0001C6150001AB6FF4
:100C08000001AA510001AB11D8B4B5D0000120EE03
:100C180002F0A451D926A551DA22DE50DE10D8B44C
:100C280018D0000120EE02F0A451D926A551DA22ED
:100C3800DECFAAF0DDCFABF001D89DD00500FA6E6B
:100C48000001AA51FD6EAB51FE6EFF6AFA502D0EDF
:100C58001200A4C0D9FFA5C0DAFFDECFAAF0DDCF0D
:100C6800ABF0AAC0D9FFABC0DAFF2D0E81D0A4C06B
:100C7800D9FFA5C0DAFFDE2A000EDD227CD0BEC077
:100C880060F0BFC061F0C0C062F0C1C063F0000195
:100C9800CB51040DF30EF324F66EFD0EF420F76E1F
:100CA800F86A000EF8220900F5CF64F00900F5CFC4
:100CB80065F00900F5CF66F00A00F5CF67F077EC2C
:100CC8001AF060C0BAF061C0BBF062C0BCF063C08B
:100CD800BDF0BAC06DF0BBC06EF0BCC06FF0BDC057
:100CE80070F00A0E0001716F000E726F000E736FC4
:100CF800000E746F92EC1BF06DC0BAF06EC0BBF0C2
:100D08006FC0BCF070C0BDF0000120EE02F0A4512D
:100D1800D926A551DA22DE50DE10D8B41AD0000147
:100D280020EE02F0A451D926A551DA22DECFAAF08E
:100D3800DDCFABF001D81FD00500FA6E0001AA5133
:100D4800FD6EAB51FE6EFF6AFA500001BA51300FCA
:100D580012000001BA51300FA4C0D9FFA5C0DAFFB4
:100D6800DECFAAF0DDCFABF0AAC0D9FFABC0DAFF67
:100D7800DF6E7DD700D00001CB070001CB29D8B4A6
:100D880040D07DD73ED0000120EE02F0A451D926F4
:100D9800A551DA22DE50DE10D8B418D0000120EEBA
:100DA80002F0A451D926A551DA22DECFAAF0DDCF70
:100DB800ABF001D821D00500FA6E0001AA51FD6EF2
:100DC800AB51FE6EFF6AFA50300E1200A4C0D9FF74
:100DD800A5C0DAFFDECFAAF0DDCFABF0AAC0D9FFFD
:100DE800ABC0DAFF300EDF6EA4C0D9FFA5C0DAFFB2
:100DF800DE2A000EDD2200D00001B807D8A0B9070E
:100E080000D00001B9BF07D00001B951BCE1000111
:100E1800B805D8B0B8D70001CABF0CD00001CA5174
:100E280005E1090E0001C95DD8A004D0080E000133
:100E3800CB6F03D0C9C0CBF000D00001CB5100016B
:100E4800C95F000E0001CBBFFF0E0001CA5B0001A5
:100E5800CB510001D8B439D0000120EE02F0A451E2
:100E6800D926A551DA22DE50DE10D8B418D00001F8
:100E780020EE02F0A451D926A551DA22DECFAAF03D
:100E8800DDCFABF001D821D00500FA6E0001AA51E0
:100E9800FD6EAB51FE6EFF6AFA502E0E1200A4C012
:100EA800D9FFA5C0DAFFDECFAAF0DDCFABF0AAC02C
:100EB800D9FFABC0DAFF2E0EDF6EA4C0D9FFA5C0E4
:100EC800DAFFDE2A000EDD2200D00001CB5107EC4C
:100ED8000CF083C0B0F084C0B1F085C0B2F0C2C0DD
:100EE80077F0C3C078F0C4C079F0B0C074F0B1C076
:100EF80075F0B2C076F033EC14F074C08AF075C0A7
:100F08008BF076C08CF03EEC16F08AC0BEF08BC039
:100F1800BFF08CC0C0F08DC0C1F0ADD0BEC060F0D5
:100F2800BFC061F0C0C062F0C1C063F00001CB5126
:100F3800040DF30EF324F66EFD0EF420F76EF86A36
:100F4800000EF8220900F5CF64F00900F5CF65F02E
:100F58000900F5CF66F00A00F5CF67F077EC1AF0D4
:100F680060C0BAF061C0BBF062C0BCF063C0BDF045
:100F7800BAC06DF0BBC06EF0BCC06FF0BDC070F001
:100F88000A0E0001716F000E726F000E736F000E73
:100F9800746F92EC1BF06DC0BAF06EC0BBF06FC0FE
:100FA800BCF070C0BDF0000120EE02F0A451D926BB
:100FB800A551DA22DE50DE10D8B41AD0000120EE96
:100FC80002F0A451D926A551DA22DECFAAF0DDCF4E
:100FD800ABF001D825D00500FA6E0001AA51FD6ECC
:100FE800AB51FE6EFF6AFA500001BA51300F120081
:100FF8000001BA51300FA4C0D9FFA5C0DAFFDECF77
:10100800AAF0DDCFABF0AAC0D9FFABC0DAFFDF6E24
:10101800A4C0D9FFA5C0DAFFDE2A000EDD2200D069
:10102800BEC06DF0BFC06EF0C0C06FF0C1C070F040
:101038000001CB51040DF30EF324F66EFD0EF420DF
:10104800F76EF86A000EF8220900F5CF71F0090072
:10105800F5CF72F00900F5CF73F00A00F5CF74F000
:1010680092EC1BF06DC0BEF06EC0BFF06FC0C0F058
:1010780070C0C1F000D00001CB070001CB29D8B463
:1010880040D04CD73ED0000120EE02F0A451D92622
:10109800A551DA22DE50DE10D8B418D0000120EEB7
:1010A80002F0A451D926A551DA22DECFAAF0DDCF6D
:1010B800ABF001D821D00500FA6E0001AA51FD6EEF
:1010C800AB51FE6EFF6AFA50300E1200A4C0D9FF71
:1010D800A5C0DAFFDECFAAF0DDCFABF0AAC0D9FFFA
:1010E800ABC0DAFF300EDF6EA4C0D9FFA5C0DAFFAF
:1010F800DE2A000EDD2200D00001C907D8A0CA07E9
:1011080000D00001C9510001CA11D8B463D3BBD7BC
:1011180061D3C00E0001C5150001AA6F000E0001C1
:10112800C6150001AB6F0001AA510001AB11D8A48C
:101138002AD0A8C0D9FFA9C0DAFFDFCFAAF0020ED3
:10114800DE26DFCFABF0000EDD22AAC0D9FFABC090
:10115800DAFFDECFBEF0DDCFBFF00001000EBFBF6B
:10116800FF0EC06FC16F0001C1AF29D0030E00018F
:10117800C5130001C11FC01FBF1FBE6D000EBF23D6
:10118800C023C1231CD0A8C0D9FFA9C0DAFFDFCF74
:10119800AAF0020EDE26DFCFABF0000EDD22AAC0D9
:1011A800D9FFABC0DAFFDECFACF0DDCFADF0ACC01D
:1011B800BEF0ADC0BFF00001C06BC16B00D0000134
:1011C800C9510001CA11D8A46BD00001BE51000159
:1011D800BF110001C0110001C111D8A461D00001E4
:1011E800C94BCA2B5DD000D0010E0001CB6F0A0E8F
:1011F8000001CB19D8B461D001D05FD00001CB5128
:10120800040DF30EF324F66EFD0EF420F76EF86A63
:10121800000EF8220900F5500001BE5D0900F550E6
:101228000001BF590900F5500001C0590900F550E7
:101238000001C159D8A041D001D03FD00001CB2B2B
:10124800D6D73BD0010E0001CB6F080E0001CB1999
:10125800D8B433D001D031D00001CB51040D690E80
:10126800F324F66EFE0EF420F76EF86A000EF822EC
:101278000900F5500001BE5D0900F5500001BF5995
:101288000900F5500001C0590900F5500001C15985
:10129800D8A013D001D011D00001CB2BD6D70DD0B8
:1012A8000001C551C00B000AD8B49ED7800AD8B433
:1012B800C9D7400AD8B498D700D0800E0001CBBF58
:1012C8007F0E0001AA6F0001C9510001CB5D00012A
:1012D800CA51800A0001AA59D8B003D0C9C0CBF0BE
:1012E80019D00001CA51800A0001AA6F0001CB5130
:1012F8000001C95D800E0001CBBF7F0E0001AA5915
:10130800D8B008D00001CB510001C96FCA6BC9BF62
:10131800CA0700D00001C7510001C811D8B415D0C0
:10132800030E0001C5150001AA6F000E0001C615C5
:101338000001AB6F0001AA510001AB11D8B405D070
:101348000001C707D8A0C80700D00001C6AD1FD04C
:101358000001C7510001C95D0001CA51800A00019E
:10136800AA6F0001C851800A0001AA59D8B009D053
:101378000001C9510001C75F0001CA510001C85BE3
:1013880006D0000E0001C86F000EC76F00D0800E97
:101398000001CBBF7F0E0001AA6F0001C7510001F9
:1013A800CB5D0001C851800A0001AA59D8B00BD002
:1013B8000001CB510001C75F000E0001CBBFFF0E3B
:1013C8000001C85B06D0000E0001C86F000EC76F91
:1013D80000D00001C5A594D0030E0001C515000179
:1013E800AA6F000E0001C6150001AB6F0001AA51DB
:1013F8000001AB11D8B439D0000120EE02F0A4519D
:10140800D926A551DA22DE50DE10D8B418D0000152
:1014180020EE02F0A451D926A551DA22DECFAAF097
:10142800DDCFABF001D821D00500FA6E0001AA513A
:10143800FD6EAB51FE6EFF6AFA502D0E1200A4C06D
:10144800D9FFA5C0DAFFDECFAAF0DDCFABF0AAC086
:10145800D9FFABC0DAFF2D0EDF6EA4C0D9FFA5C03F
:10146800DAFFDE2A000EDD2200D00001C75100019C
:10147800C811D8B4A2D1000120EE02F0A451D92697
:10148800A551DA22DE50DE10D8B418D0000120EEC3
:1014980002F0A451D926A551DA22DECFAAF0DDCF79
:1014A800ABF001D821D00500FA6E0001AA51FD6EFB
:1014B800AB51FE6EFF6AFA50300E1200A4C0D9FF7D
:1014C800A5C0DAFFDECFAAF0DDCFABF0AAC0D9FF06
:1014D800ABC0DAFF300EDF6EA4C0D9FFA5C0DAFFBB
:1014E800DE2A000EDD2200D00001C707D8A0C807F9
:1014F8000001C7510001C811D8B45FD1BCD75DD174
:101508000001C7510001C811D8B445D0000120EE30
:1015180002F0A451D926A551DA22DE50DE10D8B443
:1015280018D0000120EE02F0A451D926A551DA22E4
:10153800DECFAAF0DDCFABF001D821D00500FA6EDE
:101548000001AA51FD6EAB51FE6EFF6AFA50200EE3
:101558001200A4C0D9FFA5C0DAFFDECFAAF0DDCF04
:10156800ABF0AAC0D9FFABC0DAFF200EDF6EA4C073
:10157800D9FFA5C0DAFFDE2A000EDD2200D0000167
:10158800C707D8A0C8070001C7510001C811D8B4BF
:1015980002D0BCD700D0030E0001C5150001AA6F08
:1015A800000E0001C6150001AB6F0001AA51000131
:1015B800AB11D8B402D1000120EE02F0A451D92613
:1015C800A551DA22DE50DE10D8B418D0000120EE82
:1015D80002F0A451D926A551DA22DECFAAF0DDCF38
:1015E800ABF001D8EAD00500FA6E0001AA51FD6EF1
:1015F800AB51FE6EFF6AFA502D0E1200A4C0D9FF3F
:10160800A5C0DAFFDECFAAF0DDCFABF0AAC0D9FFC4
:10161800ABC0DAFF2D0EDF6EC8D0CFD087D000D098
:10162800C9C0AAF0CAC0ABF00001D890AA37AB373E
:101638000001D890AA37AB37F30E0001AA25F66E41
:10164800FD0EAB21F76EF86A000EF8220900F5CFFF
:1016580064F00900F5CF65F00900F5CF66F00A00DF
:10166800F5CF67F0BEC060F0BFC061F0C0C062F0E7
:10167800C1C063F077EC1AF060C06DF061C06EF025
:1016880062C06FF063C070F00A0E0001716F000E47
:10169800726F000E736F000E746F92EC1BF00001F6
:1016A8006D51300F0001CB6F4ED0BEC060F0BFC08F
:1016B80061F0C0C062F0C1C063F0C9C0AAF0CAC07E
:1016C800ABF00001D890AA37AB370001D890AA3701
:1016D800AB37690E0001AA25F66EFE0EAB21F76E38
:1016E800F86A000EF8220900F5CF64F00900F5CF7A
:1016F80065F00900F5CF66F00A00F5CF67F077ECE2
:101708001AF0000160510F0B0001B36F0001B351D3
:10171800010DC00EF324F66EFF0EF420F76EF86A82
:10172800000EF8220800F5CFCBF00DD00001C5510E
:10173800C00B000AD8B474D7800AD8B4B6D7400A08
:10174800D8B46ED700D0000120EE02F0A451D926FB
:10175800A551DA22DE50DE10D8B419D0000120EEEF
:1017680002F0A451D926A551DA22DECFAAF0DDCFA6
:10177800ABF001D822D00500FA6E0001AA51FD6E27
:10178800AB51FE6EFF6AFA500001CB511200A4C0A3
:10179800D9FFA5C0DAFFDECFAAF0DDCFABF0AAC033
:1017A800D9FFABC0DAFFCBC0DFFFA4C0D9FFA5C00B
:1017B800DAFFDE2A000EDD2200D00001C907D8A01A
:1017C800CA070001C929B2E10001CA29D8B402D068
:1017D800ADD700D0A6C0F6FFA7C0F7FF0001A64B03
:1017E800A72BF86A0800F5CFCBF00001CB51D8B48D
:1017F80003D05DEF00F000D0000E0001A56F000ED1
:10180800A46F120012000001896F000189AF3FD157
:101818000001896D00018951800A120FD8A0B6D045
:10182800000E0001716F030E706F000E0001696FEA
:101838000A0E686F000E0001636F640E626F00018C
:1018480089510001606F616B60BF610738EC1BF064
:1018580060C066F061C067F0A8EC19F0090E0001DD
:10186800662500016E6F000E0001672100016F6F91
:10187800C4EC1EF01B0E00016E25F66EFE0E000174
:101888006F21F76EF86A000EF8220900F5CF77F09D
:101898000900F5CF78F00A00F5CF79F0000E0001C5
:1018A800696F640E686F000189510001666F676B8C
:1018B80066BF6707A8EC19F0120E00016625000143
:1018C8006E6F000E0001672100016F6F000E0001AE
:1018D800716F030E706FC4EC1EF01B0E00016E25B5
:1018E800F66EFE0E00016F21F76EF86A000EF82200
:1018F8000900F5CF74F00900F5CF75F00A00F5CFAF
:1019080076F033EC14F074C086F075C087F076C0BA
:1019180088F086C074F087C075F088C076F0000E35
:101928000001716F030E706F000E0001636F0A0EE5
:10193800626F000189510001606F616B60BF6107D0
:1019480038EC1BF060C06EF061C06FF0C4EC1EF0A4
:101958001B0E00016E25F66EFE0E00016F21F76E5C
:10196800F86A000EF8220900F5CF77F00900F5CFE4
:1019780078F00A00F5CF79F033EC14F074C083F0F6
:1019880075C084F076C085F012006BD000018951D3
:10199800800A750FD8A065D0000E0001696F0A0E85
:1019A800686F000189510001666F676B66BF670742
:1019B800A8EC19F0090E0001662500016E6F000EF3
:1019C8000001672100016F6F000E0001716F030EA7
:1019D800706FC4EC1EF01B0E00016E25F66EFE0E35
:1019E80000016F21F76EF86A000EF8220900F5CFA2
:1019F80074F00900F5CF75F00A00F5CF76F0000E07
:101A08000001716F030E706F000E0001636F0A0E04
:101A1800626F000189510001606F616B60BF6107EF
:101A280038EC1BF060C06EF061C06FF0C4EC1EF0C3
:101A38001B0E00016E25F66EFE0E00016F21F76E7B
:101A4800F86A000EF8220900F5CF77F00900F5CF03
:101A580078F00A00F5CF79F033EC14F08FD7120044
:101A680000D000018951030D1B0EF324F66EFE0E03
:101A7800F420F76EF86A000EF8220900F5CF83F01B
:101A88000900F5CF84F00A00F5CF85F012000001B7
:101A98008951800A120FD8A0B6D0000E0001716FCC
:101AA800030E706F000E0001696F0A0E686F000E5A
:101AB8000001636F640E626F000189510001606F5D
:101AC800616B60BF610738EC1BF060C066F061C0F5
:101AD80067F0A8EC19F0090E0001662500016E6F89
:101AE800000E0001672100016F6FC4EC1EF0420E6A
:101AF80000016E25F66EFE0E00016F21F76EF86A82
:101B0800000EF8220900F5CF77F00900F5CF78F03C
:101B18000A00F5CF79F0000E0001696F640E686F56
:101B2800000189510001666F676B66BF6707A8EC03
:101B380019F0120E0001662500016E6F000E0001FB
:101B4800672100016F6F000E0001716F030E706F47
:101B5800C4EC1EF0420E00016E25F66EFE0E00016A
:101B68006F21F76EF86A000EF8220900F5CF74F0BD
:101B78000900F5CF75F00A00F5CF76F033EC14F0D4
:101B880074C086F075C087F076C088F086C074F09F
:101B980087C075F088C076F0000E0001716F030EE3
:101BA800706F000E0001636F0A0E626F00018951A9
:101BB8000001606F616B60BF610738EC1BF060C0AB
:101BC8006EF061C06FF0C4EC1EF0420E00016E258D
:101BD800F66EFE0E00016F21F76EF86A000EF8220D
:101BE8000900F5CF77F00900F5CF78F00A00F5CFB6
:101BF80079F033EC14F074C083F075C084F076C0CB
:101C080085F012006BD000018951800A750FD8A0A9
:101C180065D0000E0001696F0A0E686F00018951D6
:101C28000001666F676B66BF6707A8EC19F0090EBD
:101C38000001662500016E6F000E0001672100019A
:101C48006F6F000E0001716F030E706FC4EC1EF011
:101C5800420E00016E25F66EFE0E00016F21F76E32
:101C6800F86A000EF8220900F5CF74F00900F5CFE4
:101C780075F00A00F5CF76F0000E0001716F030EC3
:101C8800706F000E0001636F0A0E626F00018951C8
:101C98000001606F616B60BF610738EC1BF060C0CA
:101CA8006EF061C06FF0C4EC1EF0420E00016E25AC
:101CB800F66EFE0E00016F21F76EF86A000EF8222C
:101CC8000900F5CF77F00900F5CF78F00A00F5CFD5
:101CD80079F033EC14F08FD7120000D0000189514D
:101CE800030D420EF324F66EFE0EF420F76EF86A2A
:101CF800000EF8220900F5CF83F00900F5CF84F033
:101D08000A00F5CF85F01200120000018C6F6D0EED
:101D180000018C65C4D0000E0001716F030E706F56
:101D2800000E0001696F0A0E686F000E0001636FF4
:101D3800640E626F8CC060F00001616B38EC1BF0C0
:101D480060C066F061C067F0A8EC19F0090E0001E8
:101D5800662500016E6F000E0001672100016F6F9C
:101D6800C4EC1EF01B0E00016E25F66EFE0E00017F
:101D78006F21F76EF86A000EF8220900F5CF77F0A8
:101D88000900F5CF78F00A00F5CF79F0000E0001D0
:101D9800696F640E686F8CC066F00001676BA8EC11
:101DA80019F0120E0001662500016E6F000E000189
:101DB800672100016F6F000E0001716F030E706FD5
:101DC800C4EC1EF01B0E00016E25F66EFE0E00011F
:101DD8006F21F76EF86A000EF8220900F5CF74F04B
:101DE8000900F5CF75F00A00F5CF76F033EC14F062
:101DF80074C089F075C08AF076C08BF0000E0001BF
:101E0800716F030E706F000E0001636F0A0E626F30
:101E18008CC060F00001616B38EC1BF060C06EF0A4
:101E280061C06FF0C4EC1EF01B0E00016E25F66E4B
:101E3800FE0E00016F21F76EF86A000EF822090005
:101E4800F5CF77F00900F5CF78F00A00F5CF79F0F3
:101E580089C074F08AC075F08BC076F033EC14F04A
:101E680074C086F075C087F076C088F086C074F0BC
:101E780087C075F088C076F0000E0001776F000EFD
:101E88000001786F3F0E0001796F33EC14F074C0D5
:101E980083F075C084F076C085F012007AD00A0EFF
:101EA80000018C6576D0000E0001716F030E706F13
:101EB800000E0001636F0A0E626F8CC060F00001B3
:101EC800616B38EC1BF060C06EF061C06FF0C4EC61
:101ED8001EF01B0E00016E25F66EFE0E00016F212E
:101EE800F76EF86A000EF8220900F5CF77F00900BE
:101EF800F5CF78F00A00F5CF79F0000E0001696F90
:101F08000A0E686F8CC066F00001676BA8EC19F0C8
:101F1800090E0001662500016E6F000E00016721A1
:101F280000016F6F000E0001716F030E706FC4EC3B
:101F38001EF01B0E00016E25F66EFE0E00016F21CD
:101F4800F76EF86A000EF8220900F5CF74F0090060
:101F5800F5CF75F00A00F5CF76F033EC14F074C0C5
:101F680089F075C08AF076C08BF089C074F08AC099
:101F780075F08BC076F0000E0001776F000E00013F
:101F8800786F3F0E0001796F33EC14F080D71200A0
:101F980000D000018C51030D1B0EF324F66EFE0ECB
:101FA800F420F76EF86A000EF8220900F5CF74F0F5
:101FB8000900F5CF75F00A00F5CF76F0000E0001A4
:101FC800776F000E0001786F3F0E0001796F33ECD8
:101FD80014F074C083F075C084F076C085F01200E8
:101FE8001200010E0001EB6F010E0001EA6F000EF6
:101FF8000001E66F000E0001E76F000E0001EE6FB2
:10200800070E0001EE6501D01BD00001EE51010D55
:10201800240EF324D96E000EF420DA6E000EDF6E63
:102028000001EE51010DF3500001DA25D96EF4508C
:102038000001DB21DA6E000EDF6E0001EE2BE0D727
:1020480083EC1EF00001E56F0001E5510001D8A402
:1020580003D03050D8B404D0000E316E000E1200F8
:10206800F00E72EC1DF0000E0001EE6F00D0000EB5
:102078000001E86F5FEC1FF00009D8B404D0020E2D
:102088000001E86F00D0030E0001DC6F7D0EE82E22
:10209800FED7DC2FFCD700F05FEC1FF00009D8B4A6
:1020A80003D00001E88100D0030E0001DC6F7D0E33
:1020B800E82EFED7DC2FFCD700F0030E0001E8194C
:1020C800D8B476D002D074D06ED00001E8510001A7
:1020D800D8B406D00001D890E8310001E96F29D0C2
:1020E80031500001EA5DD8B013D00001EE51010D66
:1020F800240EF324D96E000EF420DA6EDF500001AE
:10210800EB150009D8B40BD0010E0001E96F09D016
:1021180031500001EA19D8A402D0010EF6D7000EFA
:10212800F4D70001E9510001D8A403D0EAC0E6F0D1
:1021380000D00001E9510001D8B40DD00001EE51E2
:10214800010D240EF324D96E000EF420DA6E00017E
:10215800EB51DF1212D00001EB51FF0A0001DC6FD6
:102168000001EE51010D240EF324D96E000EF42067
:10217800DA6E0001DC51DF1600D00001E951A7EC4E
:102188001EF00001EA2B0001EB51EB250001EB6F7B
:102198000001EB510001D8A406D00001EE2B010E7E
:1021A8000001EB6F00D0070E0001EE6560D700D08C
:1021B800410E0001EA610BD0000E316EF70E0001EE
:1021C800CC6FFE0E0001CD6FEFEC1DF068D0E6C0BD
:1021D80031F03150D8A402D0010E01D0000E306E7B
:1021E800010E0001E76F000E0001ED6F000EEC6FAD
:1021F8000001EDBF0AD00001ED5142E1080E0001D7
:10220800EC5DD8B03DD001D03BD0DD0E0001EC250F
:102218000001CC6F000E0001ED210001CD6FFC0E16
:102228000001CE6FFF0E0001CF6F240E0001EC25D8
:10223800D96E000E0001ED21DA6EDF500001DC6F6F
:102248000001DC510001D06FD16B9DEC1DF0240E14
:102258000001EC25D96E000E0001ED21DA6E0001B7
:10226800EC510001DA25E16E0001ED510001DB219E
:10227800E26EDFCFE7FF0001EC4BED2BB9D700D0C2
:10228800890E0001CC6FFE0E0001CD6FDD0E00013E
:10229800CE6F000E0001CF6FEFEC1DF000D00001F3
:1022A800E7511200120094C098F00001996B9A6BE4
:1022B800000193350001983701E399810001985195
:1022C80000019D6F97C098F00001996B9A6B00010F
:1022D80096350001983701E3998100019851000172
:1022E8009C6F00019D510001D8B411D000019C5190
:1022F80000019D5DD8B012D000019D510008000179
:102308009C250001986F180E0001986507D095C0AC
:1023180092F096C093F097C094F0120000019C517F
:102328000001D8B411D000019D5100019C5DD8B0C6
:1023380012D000019C51000800019D250001986FF2
:10234800180E0001986507D092C092F093C093F0E0
:1023580094C094F01200060E00019B6F000194AF28
:1023680003D000019B8F00D0000197AF02D000017D
:102378009B8D0001938FFF0E00019217FF0E000145
:102388009317000E000194170001968FFF0E0001AD
:102398009517FF0E00019617000E00019717000110
:1023A8009C5100019D5DD8B028D00001D890953788
:1023B8009637973700019C0700019D5100019C1931
:1023C800D8B413D000019B079BC098F0070E0001FA
:1023D8009817D8B40AD0E9D708D00001D890943318
:1023E8009333923300019D2B00D000019C510001D2
:1023F8009D19D8B430D0F1D72ED000019D510001DD
:102408009C5DD8B028D00001D89092379337943784
:1024180000019D0700019D5100019C19D8B413D0FB
:1024280000019B079BC098F0070E00019817D8B4CD
:102438000AD0E9D708D00001D8909733963395335E
:1024480000019C2B00D000019C5100019D19D8B4BB
:1024580002D0F1D700D000019BAF12D0FF0E0001CF
:10246800921BFF0E0001931BFF0E0001941B010E2F
:1024780000019227000E00019323000E000194230F
:1024880000019BAD13D0FF0E0001951BFF0E00014C
:10249800961BFF0E0001971B010E00019527000EE9
:1024A80000019623000E0001972300D0000E0001C2
:1024B8009B6F000192510001952700019351000183
:1024C80096230001945100019723000197AF16D07D
:1024D800FF0E0001951BFF0E0001961BFF0E000169
:1024E800971B010E00019527000E00019623000E90
:1024F80000019723010E00019B6F00D095C060F08A
:1025080096C061F097C062F09DC063F09BC064F014
:1025180030EC18F060C092F061C093F062C094F0A3
:102528001200120062C066F00001676B686B000160
:1025380061350001663701E36781000166510001DA
:102548006E6F00016E51D8A40AD0000E0001606FB2
:10255800000E616F000E626F000E636F120065C09F
:1025680066F00001676B686B00016435000166372F
:1025780001E367810001665100016D6F00016D5133
:10258800D8A40AD0000E0001606F000E616F000E23
:10259800626F000E636F12000001618FFF0E000171
:1025A8006017FF0E00016117000E0001621700019D
:1025B800648FFF0E00016317FF0E00016417000E01
:1025C80000016517000E0001696F000E6A6F000EAA
:1025D8006B6F000E6C6F7F0E00016E5F00016D5116
:1025E800980F00016E5F180E00016D6F0001D89002
:1025F80069376A376B376C37000163510001605DDA
:1026080000016451000161590001655100016259DE
:10261800D8A00ED0000163510001605F0001645131
:102628000001615B000165510001625B0001698185
:102638000001D89060376137623700016D2FD6D717
:1026480000D000016EAF1BD000016E51800A970FB9
:10265800D8B00BD0000E0001606F000E616F000E45
:10266800626F000E636F120000D00001D8906C33C7
:102678006B336A33693300016E3FF7D71DD0170EED
:1026880000016E6514D0000E0001606F000E616FCE
:10269800000E626F000E636F120009D00001D8901F
:1026A80069376A376B376C3700016E0700D0000155
:1026B8006E510001D8A4F2D769C060F06AC061F019
:1026C8006BC062F06CC063F01200000162356335C4
:1026D80000016B6F00016B51D8A40AD0000E0001F5
:1026E800606F000E616F000E626F000E636F120064
:1026F80000016535663500016A6F00016A51D8A48A
:102708000AD0000E0001606F000E616F000E626F4C
:10271800000E636F12000001628FFF0E0001601748
:10272800FF0E6117FF0E6217000E63170001658F19
:10273800FF0E00016317FF0E6417FF0E6517000EEA
:102748006617000E0001666F000E676F000E686F57
:10275800000E696F7F0E00016B5F00016A51A00FC8
:1027680000016B5F200E00016A6F00D00001D89055
:102778006637673768376937000163510001605D64
:10278800000164510001615900016551000162595D
:102798000001665100016359D8A013D000016351AC
:1027A8000001605F000164510001615B0001655137
:1027B8000001625B000166510001635B00016681F4
:1027C80000D00001D8906037613762376337000165
:1027D8006A2FCCD700D000016BAF1BD000016B5122
:1027E800800A9F0FD8B00BD0000E0001606F000E5A
:1027F800616F000E626F000E636F120000D000015F
:10280800D890693368336733663300016B3FF7D775
:102818001DD01F0E00016B6514D0000E0001606F03
:10282800000E616F000E626F000E636F120009D018
:102838000001D890663767376837693700016B073A
:1028480000D000016B510001D8A4F2D766C060F037
:1028580067C061F068C062F069C063F0120076C0BA
:102868007AF000017B6B7C6B0001753500017A37CB
:1028780001E37B8100017A5100017D6F00017D51E8
:10288800D8A40AD0000E0001746F000E0001756F05
:10289800000E0001766F120079C07AF000017B6BA0
:1028A8007C6B0001783500017A3701E37B810001F8
:1028B8007A510001826F00018251D8A40AD0000E1B
:1028C8000001746F000E0001756F000E0001766F35
:1028D8001200000182517B0F00017D2776C082F033
:1028E800000179510001821B800E0001821700014E
:1028F800758F0001788FFF0E00017717FF0E00011A
:102908007817000E00017917000E00017E6F000E87
:1029180000017F6F000E0001806F070E0001816FBC
:1029280000D0000174A10DD00001775100017E276D
:102938000001785100017F230001795100018023B3
:1029480000D00001D8907633753374330001D890E5
:102958007737783779370001812FE3D700D0090E10
:102968000001816F00D0000174A10DD000017751E2
:1029780000017E270001785100017F230001795171
:102988000001802300D00001D8907633753374336A
:102998000001D89080337F337E330001812FE3D745
:1029A80000D07EC060F07FC061F080C062F07DC062
:1029B80063F082C064F030EC18F060C074F061C05D
:1029C80075F062C076F01200120083EC1EF06BC046
:1029D80067F06CC068F0550E44EC1DF0010EBEECBB
:1029E8001FF0440E72EC1DF0EE0E0001606F020E37
:1029F800616F000E626F000E636FE0EC1EF083ECF7
:102A08001EF06BC067F06CC068F0550E44EC1DF00A
:102A1800BE0E72EC1DF0000E0001786F080E00016A
:102A2800786501D00FD000017851010D6F0EF324A5
:102A3800D96E000EF420DA6EDFEC1CF0DF6E0001B8
:102A4800782BECD7000E00017A6F000E796F000129
:102A5800705100017A6F796B00016F510001791391
:102A6800100E2418D8A448D00001D8907A337933AE
:102A78000001795100017A6F796B400E0001795F8E
:102A8800000E7A5B0001755100016D6F6E6B0001DD
:102A98006D1F6E1F6D4B6E2B0001765100016D2569
:102AA80000017B6F000E00016E2100017C6F0001A8
:102AB8007B5100017C6F7B6B00017651D8B40FD03D
:102AC8007BC060F07CC061F076C062F00001636B8F
:102AD800E4EC1BF060C07BF061C07CF000D000012A
:102AE800795100017B2500017B6F00017A510001BB
:102AF8007C2100017C6F0FD079C07BF07AC07CF01C
:102B080000017B3B7C3BF00E7C177B510F0B7C1349
:102B1800F00E7B1700D07BC06BF07CC06CF012000D
:102B2800120085C089F000018A6B8B6B0001843527
:102B38000001893701E38A81000189510001906F02
:102B480000019051D8A40AD0000E0001836F000E36
:102B58000001846F000E0001856F120088C089F0A3
:102B680000018A6B8B6B000187350001893701E30F
:102B78008A81000189510001916F00019151D8A407
:102B88000AD0000E0001836F000E0001846F000E52
:102B98000001856F1200000E00018D6F000E00010C
:102BA8008E6F000E00018F6F00019151890F000197
:102BB800905F85C091F0000188510001911B800E43
:102BC800000191170001848FFF0E00018317FF0E8B
:102BD80000018417000E000185170001878FFF0E82
:102BE80000018617FF0E00018717000E00018817E5
:102BF800180E00018C6F00D00001D8908D378E37E9
:102C08008F37000186510001835D00018751000163
:102C180084590001885100018559D8A00ED00001BF
:102C280086510001835F000187510001845B000128
:102C380088510001855B00018D810001D8908337A0
:102C48008437853700018C2FD7D700D08DC060F02E
:102C58008EC061F08FC062F090C063F091C064F0E4
:102C680030EC18F060C083F061C084F062C085F079
:102C7800120012008CC08EF000018F6B906B000167
:102C88008B3500018E3701E38F8100018E510001E1
:102C9800986F00019851D8A40AD0000E00018A6FDD
:102CA800000E8B6F000E8C6F000E8D6F1200170ECA
:102CB80000018E6F8AC08FF08BC090F08CC091F0AD
:102CC80000018E290001926F05D00001D890913340
:102CD80090338F330001922FF8D700018F510001F4
:102CE800936F00018B8FFF0E00018A17FF0E000102
:102CF8008B17000E00018C1700018A510001946F98
:102D080000018B510001956F00018C510001966FF5
:102D18000001976B8E0E0001985F000198AF1BD0E1
:102D280000019851800A8F0FD8B00BD0000E000117
:102D38008A6F000E8B6F000E8C6F000E8D6F120065
:102D480000D00001D890973396339533943300011F
:102D5800983FF7D71FD0170E0001986514D0000EC2
:102D680000018A6F000E8B6F000E8C6F000E8D6F46
:102D7800120009D00001D8909437953796379737C5
:102D88000001980700D0000198510001D8B402D082
:102D9800F1D700D0000193510001D8B40AD0000146
:102DA800971F961F951F946D000E952396239723C2
:102DB80000D094C08AF095C08BF096C08CF097C074
:102DC8008DF012001200000E0101726FC50E000195
:102DD800CC6FFE0E0001CD6F000E0001CF6FFE0E0E
:102DE800CE6F000E0001D16F580ED06FEFEC1DF0C2
:102DF80001017251080D200EF3240001EF6F010E3E
:102E0800F4200001F06F8FEC1FF00009D8B4120015
:102E1800AC0E0001CC6FFF0E0001CD6F72C1CEF079
:102E28000001CF6BEFEC1DF0000E0101716F000E79
:102E3800706F010171BF0AD0010171513FE1080EA5
:102E48000101705DD8B03AD001D038D05E0E0101D2
:102E580070250001CC6F010E010171210001CD6FB9
:102E6800FC0E0001CE6FFF0E0001CF6F0101725101
:102E7800080D200E0001F16F010E0001F26FF350F2
:102E88000001F127F4500001F22301017051000103
:102E9800F125D96E010171510001F221DA6EDF507E
:102EA8000001F36F0001F3510001D06FD16B9DEC6D
:102EB8001DF00101704B712BBCD700D0A20E000190
:102EC800CC6FFE0E0001CD6F5E0E0001CE6F010EBD
:102ED8000001CF6FEFEC1DF00101722B040E010110
:102EE800726501D010D001017251080D200EF32433
:102EF8000001DA6F010EF4200001DB6FF5EC0FF032
:102F08000009D8A485D7000E0101726F12001200C3
:102F1800000E0001FA6F000EF96F000E0001F56F48
:102F2800000EF46FB3EC1FF03EEC19F0BD0E00017B
:102F3800CC6FFF0E0001CD6FEFEC1DF0BD0E000150
:102F4800CC6FFF0E0001CD6FEFEC1DF0280E0001D5
:102F5800CC6FFF0E0001CD6FEFEC1DF0E7EC16F023
:102F6800C28200D00001FB05D8A409D0520E00018E
:102F7800CC6FFF0E0001CD6FEFEC1DF00DD0020EEF
:102F88000001FB19D8A40CD0730E0001CC6FFF0E02
:102F98000001CD6FEFEC1DF0000E0001FB6F00D0BB
:102FA8000001FC51D8B4DED7C0EC18F0F70E0001D0
:102FB800CC6FFF0E0001CD6F000E0001CF6FFE0E2B
:102FC800CE6F000E0001D16F580ED06FEFEC1DF0E0
:102FD800000E0001FA6F000EF96F0001FABF0AD067
:102FE8000001FA5133E1040E0001F95DD8B02ED08A
:102FF80001D02CD0F9C06EF0FAC06FF0000E0001BD
:10300800716F030E706FC4EC1EF0000E00016E2588
:10301800D96E010E00016F21DA6EDECFF6F0DECF39
:10302800F7F0DDCFF8F0F00E0001CC6FFF0E0001D5
:10303800CD6FF6C0CEF0F7C0CFF0F8C0D0F0EFEC0F
:103048001DF00001F94BFA2BC8D700D0000E000183
:10305800FC6F88D759EF00F0000163510001D8B424
:1030680008D0000160510001611100016211D8A46B
:1030780013D0000E0001606F000E0001616F000E9A
:103088000001626F120008D00001632B0001D89084
:1030980062336133603300D0000E00016015000117
:1030A800656F000E000161150001666FFE0E0001DC
:1030B80062150001676F000165510001661100018A
:1030C8006711D8B413D0E0D711D00001632B010EDB
:1030D80000016027000E00016123000E0001622339
:1030E8000001D89062336133603300D0000E0001D4
:1030F80060150001656F000E000161150001666F23
:10310800FF0E000162150001676F000165510001A3
:10311800661100016711D8B40AD0D7D708D00001CA
:1031280063070001D89060376137623700D000012B
:1031380061BF05D0020E00016361F1D700D0000124
:1031480063B103D00001619F00D00001D8906333C0
:103158000001635100016213000164510001D8B4F9
:1031680003D00001628F00D060C060F061C061F0E0
:1031780062C062F012001200000E00019E6F000E85
:1031880000019F6F000E00019F6F030E00019F65F5
:1031980002D01200120000019F51080D200EF324E6
:1031A8000001926F010EF4200001936F15EC1EF0E0
:1031B80000019F51030D000EF324D96E010EF42077
:1031C800DA6E92C0DEFF93C0DEFF94C0DEFF000E11
:1031D8000001866FA00E0001876F400E0001886F06
:1031E800000E0001776F100E0001786F410E00018C
:1031F800796F00019F51030D000EF324D96E010E63
:10320800F420DA6EDECF74F0DECF75F0DDCF76F025
:1032180033EC14F074C083F075C084F076C085F088
:1032280095EC15F083C092F084C093F085C094F0BB
:10323800000E0001956F000E0001966F420E00010E
:10324800976F57EC11F000019F51030D000EF32406
:10325800D96E010EF420DA6E92C0DEFF93C0DEFF55
:1032680094C0DEFF00019F2B030E00019F6593D7DA
:1032780012001200000E0001646F000E0001656F5D
:1032880095949280928292849286928A9680966889
:103298000F01569D010EC26E400EC16E870EC06EA4
:1032A8000F015D810F015D830F015D850F015D8752
:1032B8000F015D890F015D8B9E9C9F9C9D8C000E6C
:1032C8000001616F000E606FD1EC1FF0970E29ECC2
:1032D8001FF0000E0001616F000E606FC8EC1FF058
:1032E8009F0E0001646F7F0E0001656F65C060F07E
:1032F800000164513AEC1EF0949C948E9F8A9E8A39
:103308009D8A000E0001616F220E606F7C0EA3EC97
:103318001CF0959C958EA58AA48AA38A000E0001AC
:10332800616F220E606F7C0E65EC1CF0D08EF28C03
:10333800F28E000E0001FB6F000E336E000E346E2D
:10334800000E0001FC6F1200000E00016B6F0001FF
:1033580069AF09D00001686D691FD8B0692B010EEB
:1033680000016B6F00D0000167AF09D00001666DE6
:10337800671FD8B0672B010E00016B1B00D0000E31
:1033880000016D6F000E6C6F00016851000169113A
:10339800D8B431D0010E00016A6F07D00001D8906F
:1033A8006837693700016A2B00D0000169BF02D075
:1033B800F5D700D00001D8906C376D3700016851FF
:1033C8000001665D0001695100016759D8A00BD062
:1033D800000168510001665F000169510001675BE7
:1033E80000016C8100D00001D89069336833000176
:1033F8006A2FE0D700D000016B510001D8B406D085
:1034080000016C6D6D1FD8B06D2B00D06CC066F0DC
:103418006DC067F012001200000162AF1ED060C0DC
:1034280066F061C067F062C068F00001661F671F40
:10343800681F662B000E67236823000E00016625AF
:103448000001606F000E000167210001616F800EAE
:10345800000168210001626F00D0000165AF1ED035
:1034680063C066F064C067F065C068F00001661F5D
:10347800671F681F662B000E67236823000E000174
:1034880066250001636F000E000167210001646F6B
:10349800800E000168210001656F00D0000E000158
:1034A800601B000E0001611B800E0001621B000EF4
:1034B8000001631B000E0001641B800E0001651BE8
:1034C800000163510001605D000164510001615910
:1034D8000001655100016259D8B002D0D89012009D
:1034E800D88012001200000E0001686F000E696F8C
:1034F800000E6A6F000E6B6F0001645100016511C8
:103508000001661100016711D8B447D0010E00010F
:103518006C6F09D00001D890643765376637673714
:1035280000016C2B00D0000167BF02D0F3D700D098
:103538000001D890683769376A376B3700016451E2
:103548000001605D0001655100016159000166518B
:10355800000162590001675100016359D8A013D0D6
:10356800000164510001605F000165510001615B69
:10357800000166510001625B000167510001635B55
:103588000001688100D00001D89067336633653345
:10359800643300016C2FCCD700D068C060F069C0DC
:1035A80061F06AC062F06BC063F01200EACF19F0F4
:1035B800E1CF1AF0E2CF1BF0D9CF1CF0DACF1DF023
:1035C800F3CF1EF0F4CF1FF0F6CF20F0F7CF21F0A5
:1035D800F8CF22F0F5CF23F09EAA06D09E9A010ECE
:1035E800336E70EC1FF023D0A4AA07D0A49A010E62
:1035F800346E3CEC1FF0326E1AD0F2A40DD0F29467
:103608008CB407D0800E136E000E126EDAEC1FF029
:1036180000D0F0EC1FF00BD0A1A205D0A192010EB2
:103628000001FC6F04D0010E0001FB6F00D023C025
:10363800F5FF22C0F8FF21C0F7FF20C0F6FF1FC02A
:10364800F4FF1EC0F3FF1DC0DAFF1CC0D9FF1BC06A
:10365800E2FF1AC0E1FF19C0EAFF18C0E9FF17C06E
:10366800FBFF16C0FAFF1100000E0001656F000194
:1036780061AF09D00001606D611FD8B0612B010EE8
:103688000001656F00D0000163AF06D00001626DD4
:10369800631FD8B0632B00D0000162510001631191
:1036A800D8B42BD0010E0001646F07D00001D89068
:1036B800623763370001642B00D0000163BF02D07A
:1036C800F5D700D0000162510001605D000163512F
:1036D80000016159D8A009D0000162510001605F62
:1036E800000163510001615B00D00001D890633391
:1036F80062330001642FE6D700D000016551000154
:10370800D8B406D00001606D611FD8B0612B00D01D
:1037180060C060F061C061F01200120000017151D8
:10372800000172110001731100017411D8B43FD067
:10373800010E0001756F09D00001D89071377237FA
:10374800733774370001752B00D0000174BF02D0A5
:10375800F3D700D00001715100016D5D0001725175
:1037680000016E590001735100016F590001745135
:1037780000017059D8A011D00001715100016D5F8E
:103788000001725100016E5B0001735100016F5B13
:10379800000174510001705B00D00001D8907433AF
:1037A8007333723371330001752FD4D700D06DC0D5
:1037B8006DF06EC06EF06FC06FF070C070F01200E8
:1037C800000E0001666F000E656F00016251000176
:1037D8006311D8B431D0010E0001646F07D0000125
:1037E800D890623763370001642B00D0000163BFB3
:1037F80002D0F5D700D00001D890653766370001B0
:1038080062510001605D0001635100016159D8A057
:103818000BD0000162510001605F0001635100019B
:10382800615B0001658100D00001D8906333623389
:103838000001642FE0D700D065C060F066C061F079
:1038480012008E0E0001706F09D00001D8906B3302
:103858006A33693368330001702B00D0000E000111
:10386800681500016C6F000E0001691500016D6F8D
:10387800000E00016A1500016E6FFF0E00016B1546
:1038880000016F6F00016C5100016D1100016E1194
:1038980000016F11D8A4D9D768C060F069C061F081
:1038A8006AC062F070C063F0000E0001646F30EC13
:1038B80018F060C068F061C069F062C06AF0120078
:1038C80012000001626F000EBA6E000EA66E0001B3
:1038D80062A102D0BA8800D0000162A303D0BA8CDA
:1038E800A68C00D0000162A502D0BA8E00D00001DB
:1038F80062A702D0A68802D0A68A00D0000162A9D9
:1039080002D0BA8402D0BA9400D0000162AB02D0CF
:10391800A68600D0000162AD02D0A38A02D0A39A85
:1039280000D0000162AF02D0A38801D0A39860C084
:103938007BFF000161517C6EBA8AA68E12000001DD
:10394800626F000EAC6E000EAB6E000162A102D079
:10395800AC8800D0000162A303D0AC8CAB8C00D043
:10396800000162A502D0AC8E00D0000162A702D08F
:10397800AB8802D0AB8A00D0000162A902D0AC8427
:1039880000D0000162AB02D0AB8600D0000162AD6E
:1039980002D09D8A02D09D9A00D0000162AF02D069
:1039A8009D8801D09D9860C0AFFF000161517D6E78
:1039B800AC8AAB8E1200000E0001636F000E00018E
:1039C800646F070E0001646501D024D05FEC1FF01E
:1039D8000009D8B413D064C061F0010E0001626F11
:1039E8000001612B03D00001D89062370001612FDC
:1039F800FAD7000162510001631300D0030E0001E1
:103A0800616F7D0EE82EFED7612FFCD700F0000114
:103A1800642BD7D7000163511200120001EE00F0A9
:103A2800400EEE6AE806FDE10001FC6BFB6B00EE60
:103A380024F0130EEE6AE806FDE1000EF66E3F0E66
:103A4800F76E000EF86E01EE40F010EE1EF0090061
:103A5800F5CFEEFFE550E150FAE1D60EF66E3F0ED7
:103A6800F76E000EF86E00EE37F010EE0AF009005F
:103A7800F5CFEEFFE550E150FAE100018CEF17F0C9
:103A88000001696F550E00016919D8A422D0550E9E
:103A980072EC1DF0000E00016A6F070E00016A65E6
:103AA80002D01200120000016A51010DF35000010A
:103AB8006725D96EF45000016821DA6EDF5072EC88
:103AC8001DF000016A2B070E00016A65ECD7120091
:103AD8001200CC0E72EC1DF0120012000001646F8F
:103AE800000E0001666F070E0001666501D01BD04D
:103AF80066C062F064C063F00001622B03D000016D
:103B0800D89063330001622FFAD700016351000196
:103B1800656F010E0001651700016551A7EC1EF0E5
:103B28000001662BE0D7F00E00D000D0E82EFCD7BD
:103B38001200CCC0D6F0CDC0D7F0000E0001D86F6F
:103B4800000E0001D96FD00E0001D46F000E0001E5
:103B5800D56FD60E0001A46F000E0001A56FCEC070
:103B6800A6F0CFC0A7F0D40E0001A86F000E000188
:103B7800A96F5BEC00F0D6C0D9FFD7C0DAFF000E02
:103B8800DF6E120012000001A1510001A211000114
:103B9800A311D8B40AD0000E0001A11B000E000129
:103BA800A21B800E0001A31B00D09EC092F09FC0F4
:103BB80093F0A0C094F0A1C095F0A2C096F0A3C065
:103BC80097F057EC11F092C09EF093C09FF094C00C
:103BD800A0F012001200000E0001D46F000E0001C8
:103BE800D56F9C0E0001D66F3E0E0001D76FCE0E2A
:103BF8000001D26F000E0001D36FD40E0001A46F34
:103C0800000E0001A56FCCC0A6F0CDC0A7F0D20E63
:103C18000001A86F000E0001A96F5BEC00F0120014
:103C2800120092C06BF093C06CF0E9EC14F06BC01A
:103C38007DF06CC07EF05FEC1EF07DC083F07EC02E
:103C480084F07FC085F0000E0001866F800E0001B1
:103C5800876F430E0001886F95EC15F083C092F0D2
:103C680084C093F085C094F0120012000001626FC6
:103C780000016051F30BB06E62C061F07F0E00016D
:103C880061170001D8906135B16E000EB36E000E59
:103C9800B26EA192A190000162AF02D0A08201D0C1
:103CA800A092000160A502D0A08001D0A090B0BE73
:103CB800B086B1801200000E0001806F00017EAF57
:103CC80009D000017D6D7E1FD8B07E2B010E00014A
:103CD800806F00D07DC060F07EC061F00001626B33
:103CE8008E0E0001636F80C064F030EC18F060C085
:103CF8007DF061C07EF062C07FF012001200000EFD
:103D0800BEEC1FF00A0E0001616FF80EE82EFED718
:103D1800612FFCD700D0010EBEEC1FF0D50EE82EA7
:103D2800FED700F0E3EC1FF00001626F090E0001FE
:103D3800616FCE0EE82EFED7612FFCD700D00001B0
:103D48006251120012000001616F000EBEEC1FF0FC
:103D58000A0EE82EFED700D0000161510001D8B448
:103D680004D0010EBEEC1FF000D0E40E00D000D04D
:103D7800E82EFCD700D000D0010EBEEC1FF01200D8
:103D880000016E5100017003F3CF72F0F4CF73F0AD
:103D980000016E5100017103F35000017327000107
:103DA8006F5100017003F3500001732772C06EF069
:103DB80073C06FF012001200150E0001646FC10E7F
:103DC800E82EFED7642FFCD700F000016007000E34
:103DD800615B625B635B000160510001611100017E
:103DE800621100016311D8A4E7D7120000016051E5
:103DF8000001611100016211D8B409D0000E000160
:103E0800601B000E0001611B800E0001621B60C078
:103E180060F061C061F062C062F012000001626F80
:103E2800000E0001616F3A0E0001626108D02F0E8A
:103E38000001626504D0010E0001616F00D061C00D
:103E480060F000016031120012000001606F000193
:103E580060517F0BD56E000ED76E000ED66EF294B1
:103E6800000160AF02D0F28A01D0F29AD58E12001A
:103E7800F20E2F16A6AC05D02F90A6A002D02F8048
:103E880000D0A6B42F84A6B22F867ACF12F0125093
:103E9800120012000001616F00D0BAA2FED7000123
:103EA80061519BEC1FF000D0ACA2FED7000161511C
:103EB800A7EC1FF01200000EBEEC1FF00A0EE82E51
:103EC800FED700D0E3EC1FF01A0EE82EFED700D084
:103ED800E3EC1FF012001200F20E2E16ABAC05D068
:103EE8002E90ABA002D02E8000D0ABB42E84ABB203
:103EF8002E86AECF12F0120048656C6C6F20667289
:103F08006F6D2050494331380048656C6C6F2057FD
:103F18006F726C642100000E316E000E306EEFC0BF
:103F2800DAF0F0C0DBF0F5EC0FF01200120000013F
:103F3800606FBAAC05D0BA902FA202D0BA8000D078
:103F480060C079FF12000001606FACAC05D0AC9086
:103F58002EA202D0AC8000D060C0ADFF1200F00EDF
:103F6800D36E00D0D3A4FED7C00E9B6E00D0D3A4CE
:103F7800FED712000001606F9496000160B102D074
:103F88008B9601D08B86120060C062F061C063F02E
:103F980063C0B3FF62C0B2FF120060C062F061C0CC
:103FA80063F063C0D7FF62C0D6FF120012C014F0DE
:103FB80013C015F015C0D7FF14C0D6FF12009486A1
:103FC80082A602D0010E1200000E120012000A0092
:0C3FD80000FE3908FE58FE588C741200E0
:10FDF20000010000000A00000064000000E80300A7
:10FE02000010270000A086010040420F0080969853
:10FE12000000E1F50500CA9A3B00803FCDCC3DD7FA
:10FE2200233C12833AB7D138C62737388635C0D635
:10FE320033CC2B32708930E7DB2EE53C1E42A20D1B
:10FE420000803F00204100C842007A44401C4650D6
:10FE5200C34724744997184BBCBE4C6B6E4E0315B6
:10FE62005079AD60F34971010000001000000000FC
:10FE7200010000001000000000010000001000005E
:10FE8200000001000000104453313832305F4669EF
:10FE92006E644E65787444657669636528293A20F4
:10FEA2005365617263682073756363657373667506
:10FEB2006C20616464726573732069733A202573E0
:10FEC2000D0A0025632563496E69745F53656E737D
:10FED2006F727328293A20436865636B696E6720E5
:10FEE200666F72204453313832302044657669633C
:10FEF20065730D0A004453313832305F46696E64CF
:10FF02004E65787444657669636528293A2053659D
:10FF120061726368204E4F54207375636365737317
:10FF220066756C0D0A004F7363696C6C61746F7255
:10FF320020616E64205065726970686572616C73CD
:10FF420020696E697469616C697A6564210D0A00C1
:10FF5200412068696768207072696F7269747920DC
:10FF6200495251207761732069676E6F7265640A26
:10FF72000041206C6F77207072696F72697479200A
:10FF8200495251207761732069676E6F7265640A06
:10FF9200004D657373616765206C656E67746820D8
:10FFA2006973203A2025640D0A00466F756E64203D
:10FFB20053656E736F722025643A200D0A0030314A
:10FFC20032333435363738394142434445460041AD
:10FFD20044432025642069733A2025750D0A0025C3
:10FFE200642E2530326400286E756C6C290025322F
:0EFFF2002E316620002563256300255800008F
:020000040020DA
:08000000FFFFFFFFFFFFFFFF00
:020000040030CA
:0E0000001D187F7FFF8991FF0FC00FE00F409A
:00000001FF
