:0400000088EF00F095
:10000800FACF19F0FBCF1AF0E9CF1BF061EF17F028
:10001800D8CF03F0E8CF04F0E0CF05F0FACF06F030
:10002800FBCF07F0E9CF08F0EACF09F0E1CF0AF0FB
:10003800E2CF0BF0D9CF0CF0DACF0DF0F3CF0EF002
:10004800F4CF0FF0F6CF10F0F7CF11F0F8CF12F091
:10005800F5CF13F09EAC31D09E9C3B503B24146EE0
:100068001450010D270EF324D96E000EF420DA6E19
:10007800C4CFDFFF1450016E026A010E0126000E84
:100088000222270E0124D96E000E0220DA6EC3CF99
:10009800DFFF050E3B183C10D8A407D0010EC26E36
:1000A800000E3C6E000E3B6E06D0C250040FC26EAE
:1000B8003B4A3C2A00D0C28204D0020E0001FE6FE7
:1000C80000D013C0F5FF12C0F8FF11C0F7FF10C031
:1000D800F6FF0FC0F4FF0EC0F3FF0DC0DAFF0CC02F
:1000E800D9FF0BC0E2FF0AC0E1FF09C0EAFF08C060
:1000F800E9FF07C0FBFF06C0FAFF05C0E0FF04C028
:10010800E8FF03C0D8FF1000EBEF19F07CEF09F00F
:10011800250E0001C619D8B43CD0000120EE02F02B
:10012800A451D926A551DA22DE50DE10D8B41AD04F
:10013800000120EE02F0A451D926A551DA22DECF23
:10014800AAF0DDCFABF002D87CEF09F00500FA6E1B
:100158000001AA51FD6EAB51FE6EFF6AFA50000114
:10016800C6511200A4C0D9FFA5C0DAFFDECFAAF09D
:10017800DDCFABF0AAC0D9FFABC0DAFFC6C0DFFF46
:10018800A4C0D9FFA5C0DAFFDE2A000EDD227CEF6D
:1001980009F0000E0001BC6F000EBB6F000E0001DD
:1001A800BA6F000EB96F07D00001B9850001A64BE0
:1001B800A72B01D00CD0A6C0F6FFA7C0F7FFF86A9E
:1001C8000800F550300AD8B4EFD701D0F4D7A6C04C
:1001D800F6FFA7C0F7FFF86A0800F550B6EC1BF069
:1001E800D8A04FD0000E0001BC6F000EBB6F00D02E
:1001F800BBC06EF0BCC06FF0000E0001716F0A0E3C
:10020800706F68EC1BF06EC0BBF06FC0BCF0D00E16
:100218000001AA6FFF0E0001AB6FA6C0F6FFA7C0D2
:10022800F7FFF86A0800F5500001AC6FAD6B0001EC
:10023800AA510001AC270001AB510001AD23000118
:10024800AC510001BB270001AD510001BC230001E6
:10025800A64BA72BA6C0F6FFA7C0F7FFF86A0800B1
:10026800F550B6EC1BF0D8A00CD0C2D70AD08EEF50
:1002780009F00001BA8524D07CEF09F00001B98D9E
:100288001FD0A6C0F6FFA7C0F7FF0001A64BA72BFB
:10029800F86A0800F5CFC6F00001C651000AD8B4C4
:1002A8008EEF09F0640AD8B40BD0020AD8B4E1D7AB
:1002B8000F0AD8B405D01C0AD8B4E0D77CEF09F0EF
:1002C800070E0001BA15D8B40BEF07F0000E0001B5
:1002D800B46F060EB36FA8C0D9FFA9C0DAFFDFCF8D
:1002E800AAF0030EDE26DFCFABF0000EDD22AAC097
:1002F800D9FFABC0DAFFDECFC3F0DECFC4F0DDCF6D
:10030800C5F00001C5AF12D0C3C060F0C4C061F031
:10031800C5C062F09EEC1BF060C0C3F061C0C4F0C1
:1003280062C0C5F0030E0001B91300D0000E000131
:10033800BE6F000EBD6F0001C3510001C411000162
:10034800C511D8B49DD0820E0001AA6FFF0E00011E
:10035800AB6FC3C0ACF0C4C0ADF0C5C0AEF0C6C092
:10036800AFF0100E06D00001D890AF33AE33AD33E6
:10037800AC33E82EF8D70001AC510001AA250001E2
:10038800BD6F000E0001AB210001BE6F0001BD076B
:10039800D8A0BE07BDC06EF0BEC06FF0000E000151
:1003A800716F030E706F68EC1BF06EC0BDF06FC00C
:1003B800BEF0BDC066F0BEC067F0000E0001696FF8
:1003C8000A0E686FCDEC15F066C0BDF067C0BEF0D0
:1003D8000001BEAF05D00001BD07D8A0BE0700D000
:1003E8000001BD51000895EC09F083C0BFF084C03E
:1003F800C0F085C0C1F0BFC074F0C0C075F0C1C006
:1004080076F0C3C077F0C4C078F0C5C079F050EC7E
:1004180011F074C0BFF075C0C0F076C0C1F0BFC0A5
:1004280060F0C0C061F0C1C062F0000E0001636FEF
:10043800800E0001646F3F0E0001656F35EC16F009
:100448000001D8B005D00001BD07D8A0BE0718D05C
:10045800BFC060F0C0C061F0C1C062F0000E000112
:10046800636F200E0001646F410E0001656F35EC6B
:1004780016F00001D8A004D00001BD4BBE2B00D05F
:100488000001B4BF08D00001B4511EE10D0E0001F7
:10049800B35DD8B019D0C3C092F0C4C093F0C5C042
:1004A80094F00001B35117EC0CF083C095F084C0B0
:1004B80096F085C097F083EC0DF092C0C3F093C01E
:1004C800C4F094C0C5F000D00001BEBF08D0000140
:1004D800BE512CE10A0E0001BD5DD8B027D0000145
:1004E800C3510001C4110001C511D8B47FD0C3C0E5
:1004F8008AF0C4C08BF0C5C08CF0AFEC12F00001DC
:100508008A5100018B1100018C1100018D11D8A4B2
:100518006DD00001BEBF6AD00001BE5107E1020ED6
:100528000001BD5DD8B002D061D000D0BFC060F07E
:10053800C0C061F0C1C062F0700E0001636F890E27
:100548000001646F400E0001656F35EC16F0000184
:10055800D8B003D00001F70E02D00001F80EBD2775
:10056800FF0EBE2300D00001BD5195EC09F083C0F9
:10057800BFF084C0C0F085C0C1F017D0C3C060F020
:10058800C4C061F0C5C062F0BFC063F0C0C064F011
:10059800C1C065F086EC10F060C0B5F061C0B6F07F
:1005A80062C0B7F063C0B8F017D0C3C060F0C4C071
:1005B80061F0C5C062F0BFC063F0C0C064F0C1C0E4
:1005C80065F0B3EC0FF060C0B5F061C0B6F062C082
:1005D800B7F063C0B8F000D0000E0001C36F000E82
:1005E8000001C46F000E0001C56F34D0C3C08AF08B
:1005F800C4C08BF0C5C08CF0AFEC12F08AC0B5F067
:100608008BC0B6F08CC0B7F08DC0B8F0C3C09EF0F8
:10061800C4C09FF0C5C0A0F0B5C068F0B6C069F00E
:10062800B7C06AF0B8C06BF0FEEC18F068C0A1F073
:1006380069C0A2F06AC0A3F06EEC1AF09EC0C3F0C5
:100648009FC0C4F0A0C0C5F0000E0001BE6F000E30
:10065800BD6F00D0010E0001C66F0A0E0001C61959
:10066800D8B425D001D023D00001C651040DA50E61
:10067800F324F66EFE0EF420F76EF86A000EF822E8
:100688000900F5500001B55D0900F5500001B659A3
:100698000900F5500001B7590900F5500001B85993
:1006A800D8A005D001D003D00001C62BD6D7C6C02C
:1006B800AAF00001AB6BAABFAB070001B351000160
:1006C800AA270001B4510001AB230001BD5100016C
:1006D800AA270001BE510001AB230001AA51000165
:1006E800BB5F0001AB510001BC5B0001B3510001CD
:1006F800B411D8B405D00001BB07D8A0BC0700D0FE
:10070800030E0001B9150001AA6F000E0001BA1509
:100718000001AB6F0001AA510001AB11D8B405D09C
:100728000001BB07D8A0BC0700D00001B9A5D2D0F2
:10073800030E0001B9150001AA6F000E0001BA15D9
:100748000001AB6F0001AA510001AB11D8B477D0FA
:10075800000120EE02F0A451D926A551DA22DE507C
:10076800DE10D8B418D0000120EE02F0A451D9262A
:10077800A551DA22DECFAAF0DDCFABF001D85FD0E9
:100788000500FA6E0001AA51FD6EAB51FE6EFF6ABC
:10079800FA502D0E1200A4C0D9FFA5C0DAFFDECF93
:1007A800AAF0DDCFABF0AAC0D9FFABC0DAFF2D0E9F
:1007B800DF6EA4C0D9FFA5C0DAFFDE2A000EDD2255
:1007C8003ED0000120EE02F0A451D926A551DA222C
:1007D800DE50DE10D8B418D0000120EE02F0A4518B
:1007E800D926A551DA22DECFAAF0DDCFABF001D8A9
:1007F80021D00500FA6E0001AA51FD6EAB51FE6EC4
:10080800FF6AFA50300E1200A4C0D9FFA5C0DAFF63
:10081800DECFAAF0DDCFABF0AAC0D9FFABC0DAFFBC
:10082800300EDF6EA4C0D9FFA5C0DAFFDE2A000EA5
:10083800DD2200D00001BB07D8A0BC0700D0000112
:10084800BCBF17D10001BC51BCE10001BB05D8A059
:1008580010D1B7D70ED13ED0000120EE02F0A4513E
:10086800D926A551DA22DE50DE10D8B418D00001FE
:1008780020EE02F0A451D926A551DA22DECFAAF043
:10088800DDCFABF001D821D00500FA6E0001AA51E6
:10089800FD6EAB51FE6EFF6AFA50200E1200A4C026
:1008A800D9FFA5C0DAFFDECFAAF0DDCFABF0AAC032
:1008B800D9FFABC0DAFF200EDF6EA4C0D9FFA5C0F8
:1008C800DAFFDE2A000EDD2200D00001BB07D8A027
:1008D800BC0700D00001BCBF07D00001BC51BCE17F
:1008E8000001BB05D8B0B8D7030E0001B915000147
:1008F800AA6F000E0001BA150001AB6F0001AA51E2
:100908000001AB11D8B4B5D0000120EE02F0A4511B
:10091800D926A551DA22DE50DE10D8B418D000014D
:1009280020EE02F0A451D926A551DA22DECFAAF092
:10093800DDCFABF001D89DD00500FA6E0001AA51B9
:10094800FD6EAB51FE6EFF6AFA502D0E1200A4C068
:10095800D9FFA5C0DAFFDECFAAF0DDCFABF0AAC081
:10096800D9FFABC0DAFF2D0E81D0A4C0D9FFA5C036
:10097800DAFFDE2A000EDD227CD0B5C060F0B6C0FA
:1009880061F0B7C062F0B8C063F00001C651040D51
:10099800A50EF324F66EFE0EF420F76EF86A000E2C
:1009A800F8220900F5CF64F00900F5CF65F00900D9
:1009B800F5CF66F00A00F5CF67F09CEC16F060C042
:1009C800BFF061C0C0F062C0C1F063C0C2F0BFC078
:1009D8006DF0C0C06EF0C1C06FF0C2C070F00A0EFA
:1009E8000001716F000E726F000E736F000E746F4E
:1009F8006BEC18F06DC0BFF06EC0C0F06FC0C1F0F6
:100A080070C0C2F0000120EE02F0A451D926A55111
:100A1800DA22DE50DE10D8B41AD0000120EE02F03F
:100A2800A451D926A551DA22DECFAAF0DDCFABF04A
:100A380001D81FD00500FA6E0001AA51FD6EAB5116
:100A4800FE6EFF6AFA500001BF51300F120000011C
:100A5800BF51300FA4C0D9FFA5C0DAFFDECFAAF07E
:100A6800DDCFABF0AAC0D9FFABC0DAFFDF6E7DD710
:100A780000D00001C6070001C629D8B440D07DD7F0
:100A88003ED0000120EE02F0A451D926A551DA2269
:100A9800DE50DE10D8B418D0000120EE02F0A451C8
:100AA800D926A551DA22DECFAAF0DDCFABF001D8E6
:100AB80021D00500FA6E0001AA51FD6EAB51FE6E01
:100AC800FF6AFA50300E1200A4C0D9FFA5C0DAFFA1
:100AD800DECFAAF0DDCFABF0AAC0D9FFABC0DAFFFA
:100AE800300EDF6EA4C0D9FFA5C0DAFFDE2A000EE3
:100AF800DD2200D00001BD07D8A0BE0700D000014C
:100B0800BEBF07D00001BE51BCE10001BD05D8B091
:100B1800B8D70001B4BF0CD00001B45105E1090EEB
:100B28000001B35DD8A004D0080E0001C66F03D041
:100B3800B3C0C6F000D00001C6510001B35F000E7B
:100B48000001C6BFFF0E0001B45B0001C6510001E1
:100B5800D8B439D0000120EE02F0A451D926A5510D
:100B6800DA22DE50DE10D8B418D0000120EE02F0F0
:100B7800A451D926A551DA22DECFAAF0DDCFABF0F9
:100B880001D821D00500FA6E0001AA51FD6EAB51C3
:100B9800FE6EFF6AFA502E0E1200A4C0D9FFA5C03F
:100BA800DAFFDECFAAF0DDCFABF0AAC0D9FFABC029
:100BB800DAFF2E0EDF6EA4C0D9FFA5C0DAFFDE2A49
:100BC800000EDD2200D00001C65195EC09F083C06B
:100BD800B0F084C0B1F085C0B2F0C3C077F0C4C033
:100BE80078F0C5C079F0B0C074F0B1C075F0B2C08B
:100BF80076F050EC11F074C08AF075C08BF076C0B6
:100C08008CF0AFEC12F08AC0B5F08BC0B6F08CC097
:100C1800B7F08DC0B8F0ADD0B5C060F0B6C061F027
:100C2800B7C062F0B8C063F00001C651040DA50E4C
:100C3800F324F66EFE0EF420F76EF86A000EF82222
:100C48000900F5CF64F00900F5CF65F00900F5CF8C
:100C580066F00A00F5CF67F09CEC16F060C0BFF0B4
:100C680061C0C0F062C0C1F063C0C2F0BFC06DF027
:100C7800C0C06EF0C1C06FF0C2C070F00A0E0001B3
:100C8800716F000E726F000E736F000E746F6BEC55
:100C980018F06DC0BFF06EC0C0F06FC0C1F070C07A
:100CA800C2F0000120EE02F0A451D926A551DA22A3
:100CB800DE50DE10D8B41AD0000120EE02F0A451A4
:100CC800D926A551DA22DECFAAF0DDCFABF001D8C4
:100CD80025D00500FA6E0001AA51FD6EAB51FE6EDB
:100CE800FF6AFA500001BF51300F12000001BF51D6
:100CF800300FA4C0D9FFA5C0DAFFDECFAAF0DDCF40
:100D0800ABF0AAC0D9FFABC0DAFFDF6EA4C0D9FF31
:100D1800A5C0DAFFDE2A000EDD2200D0B5C06DF0D6
:100D2800B6C06EF0B7C06FF0B8C070F00001C65121
:100D3800040DA50EF324F66EFE0EF420F76EF86A85
:100D4800000EF8220900F5CF71F00900F5CF72F016
:100D58000900F5CF73F00A00F5CF74F06BEC18F0CA
:100D68006DC0B5F06EC0B6F06FC0B7F070C0B8F027
:100D780000D00001C6070001C629D8B440D04CD71E
:100D88003ED0000120EE02F0A451D926A551DA2266
:100D9800DE50DE10D8B418D0000120EE02F0A451C5
:100DA800D926A551DA22DECFAAF0DDCFABF001D8E3
:100DB80021D00500FA6E0001AA51FD6EAB51FE6EFE
:100DC800FF6AFA50300E1200A4C0D9FFA5C0DAFF9E
:100DD800DECFAAF0DDCFABF0AAC0D9FFABC0DAFFF7
:100DE800300EDF6EA4C0D9FFA5C0DAFFDE2A000EE0
:100DF800DD2200D00001B307D8A0B40700D000015D
:100E0800B3510001B411D8B473D2BBD771D2000169
:100E1800B9BD2AD0A8C0D9FFA9C0DAFFDFCFAAF090
:100E2800020EDE26DFCFABF0000EDD22AAC0D9FF0E
:100E3800ABC0DAFFDECFB5F0DDCFB6F00001000EB3
:100E4800B6BFFF0EB76FB86F0001B8AF29D0030E59
:100E58000001B9130001B81FB71FB61FB56D000E0A
:100E6800B623B723B8231CD0A8C0D9FFA9C0DAFF7E
:100E7800DFCFAAF0020EDE26DFCFABF0000EDD22B8
:100E8800AAC0D9FFABC0DAFFDECFACF0DDCFADF042
:100E9800ACC0B5F0ADC0B6F00001B76BB86B00D010
:100EA800010E0001C66F0A0E0001C619D8B425D07C
:100EB80001D023D00001C651040DA50EF324F66E0F
:100EC800FE0EF420F76EF86A000EF8220900F550BD
:100ED8000001B55D0900F5500001B6590900F5504B
:100EE8000001B7590900F5500001B859D8A005D03C
:100EF80001D003D00001C62BD6D70001BB51000199
:100F0800BC11D8B415D0030E0001B9150001AA6FA1
:100F1800000E0001BA150001AB6F0001AA510001D3
:100F2800AB11D8B405D00001BB07D8A0BC0700D0CE
:100F3800800E0001C6BF7F0E0001AA6F0001BB51E1
:100F48000001C65D0001BC51800A0001AA59D8B051
:100F58000BD00001C6510001BB5F000E0001C6BFE7
:100F6800FF0E0001BC5B06D0000E0001BC6F000E36
:100F7800BB6F00D00001B9A594D0030E0001B915CC
:100F88000001AA6F000E0001BA150001AB6F000145
:100F9800AA510001AB11D8B439D0000120EE02F0FB
:100FA800A451D926A551DA22DE50DE10D8B418D0C3
:100FB800000120EE02F0A451D926A551DA22DECF95
:100FC800AAF0DDCFABF001D821D00500FA6E000100
:100FD800AA51FD6EAB51FE6EFF6AFA502D0E12003B
:100FE800A4C0D9FFA5C0DAFFDECFAAF0DDCFABF0F1
:100FF800AAC0D9FFABC0DAFF2D0EDF6EA4C0D9FF9F
:10100800A5C0DAFFDE2A000EDD2200D00001BB51A8
:101018000001BC11D8B4D9D0000120EE02F0A451CF
:10102800D926A551DA22DE50DE10D8B418D0000136
:1010380020EE02F0A451D926A551DA22DECFAAF07B
:10104800DDCFABF001D821D00500FA6E0001AA511E
:10105800FD6EAB51FE6EFF6AFA50300E1200A4C04E
:10106800D9FFA5C0DAFFDECFAAF0DDCFABF0AAC06A
:10107800D9FFABC0DAFF300EDF6EA4C0D9FFA5C020
:10108800DAFFDE2A000EDD2200D00001BB07D8A05F
:10109800BC070001BB510001BC11D8B496D0BCD725
:1010A80094D00001BB510001BC11D8B445D0000157
:1010B80020EE02F0A451D926A551DA22DE50DE1026
:1010C800D8B418D0000120EE02F0A451D926A551B9
:1010D800DA22DECFAAF0DDCFABF001D821D00500AF
:1010E800FA6E0001AA51FD6EAB51FE6EFF6AFA500E
:1010F800200E1200A4C0D9FFA5C0DAFFDECFAAF0E7
:10110800DDCFABF0AAC0D9FFABC0DAFF200EDF6E8F
:10111800A4C0D9FFA5C0DAFFDE2A000EDD2200D068
:101128000001BB07D8A0BC070001BB510001BC11DE
:10113800D8B402D0BCD700D0030E0001B915000105
:10114800AA6F000E0001BA150001AB6F0001AA5189
:101158000001AB11D8B439D0000120EE02F0A4513F
:10116800D926A551DA22DE50DE10D8B418D00001F5
:1011780020EE02F0A451D926A551DA22DECFAAF03A
:10118800DDCFABF001D821D00500FA6E0001AA51DD
:10119800FD6EAB51FE6EFF6AFA502D0E1200A4C010
:1011A800D9FFA5C0DAFFDECFAAF0DDCFABF0AAC029
:1011B800D9FFABC0DAFF2D0EDF6EA4C0D9FFA5C0E2
:1011C800DAFFDE2A000EDD2200D00001C651000140
:1011D800B36FB46BB3BFB4077ED0B3C0AAF0B4C0CA
:1011E800ABF00001D890AA37AB370001D890AA37E6
:1011F800AB37A50E0001AA25F66EFE0EAB21F76EE1
:10120800F86A000EF8220900F5CF64F00900F5CF5E
:1012180065F00900F5CF66F00A00F5CF67F0B5C0B4
:1012280060F0B6C061F0B7C062F0B8C063F09CEC83
:1012380016F060C06DF061C06EF062C06FF063C000
:1012480070F00A0E0001716F000E726F000E736F5E
:10125800000E746F6BEC18F000016D51300F000137
:10126800C66F000120EE02F0A451D926A551DA225A
:10127800DE50DE10D8B419D0000120EE02F0A451DF
:10128800D926A551DA22DECFAAF0DDCFABF001D8FE
:1012980022D00500FA6E0001AA51FD6EAB51FE6E18
:1012A800FF6AFA500001C6511200A4C0D9FFA5C0B8
:1012B800DAFFDECFAAF0DDCFABF0AAC0D9FFABC012
:1012C800DAFFC6C0DFFFA4C0D9FFA5C0DAFFDE2A57
:1012D800000EDD2200D00001B307D8A0B40700013A
:1012E800B32904E10001B429D8B402D076D700D0DC
:1012F800A6C0F6FFA7C0F7FF0001A64BA72BF86A08
:101308000800F5CFC6F00001C651D8B403D08CEF61
:1013180000F000D0000E0001A56F000EA46F1200AF
:1013280012000001896F000189AF3FD10001896D6A
:1013380000018951800A120FD8A0B6D0000E000112
:10134800716F030E706F000E0001696F0A0E686FEF
:10135800000E0001636F640E626F00018951000185
:10136800606F616B60BF6107BEEC17F060C066F02C
:1013780061C067F0CDEC15F0090E0001662500018B
:101388006E6F000E0001672100016F6F68EC1BF0A3
:10139800CD0E00016E25F66EFE0E00016F21F76E70
:1013A800F86A000EF8220900F5CF77F00900F5CFAA
:1013B80078F00A00F5CF79F0000E0001696F640E2D
:1013C800686F000189510001666F676B66BF670728
:1013D800CDEC15F0120E0001662500016E6F000EAF
:1013E8000001672100016F6F000E0001716F030E8D
:1013F800706F68EC1BF0CD0E00016E25F66EFE0EC8
:1014080000016F21F76EF86A000EF8220900F5CF87
:1014180074F00900F5CF75F00A00F5CF76F050ECBE
:1014280011F074C086F075C087F076C088F086C069
:1014380074F087C075F088C076F0000E0001716FF7
:10144800030E706F000E0001636F0A0E626F0001D9
:1014580089510001606F616B60BF6107BEEC17F0D6
:1014680060C06EF061C06FF068EC1BF0CD0E00013B
:101478006E25F66EFE0E00016F21F76EF86A000EFB
:10148800F8220900F5CF77F00900F5CF78F00A00C7
:10149800F5CF79F050EC11F074C083F075C084F08A
:1014A80076C085F012006BD000018951800A750F53
:1014B800D8A065D0000E0001696F0A0E686F0001A0
:1014C80089510001666F676B66BF6707CDEC15F041
:1014D800090E0001662500016E6F000E00016721EC
:1014E80000016F6F000E0001716F030E706F68ECE2
:1014F8001BF0CD0E00016E25F66EFE0E00016F2169
:10150800F76EF86A000EF8220900F5CF74F00900AA
:10151800F5CF75F00A00F5CF76F0000E0001716F77
:10152800030E706F000E0001636F0A0E626F0001F8
:1015380089510001606F616B60BF6107BEEC17F0F5
:1015480060C06EF061C06FF068EC1BF0CD0E00015A
:101558006E25F66EFE0E00016F21F76EF86A000E1A
:10156800F8220900F5CF77F00900F5CF78F00A00E6
:10157800F5CF79F050EC11F08FD7120000D00001B0
:101588008951030DCD0EF324F66EFE0EF420F76E8E
:10159800F86A000EF8220900F5CF83F00900F5CFAC
:1015A80084F00A00F5CF85F0120000018951800A05
:1015B800120FD8A0B6D0000E0001716F030E706F25
:1015C800000E0001696F0A0E686F000E0001636F5C
:1015D800640E626F000189510001606F616B60BF2A
:1015E8006107BEEC17F060C066F061C067F0CDEC33
:1015F80015F0090E0001662500016E6F000E00014E
:10160800672100016F6F68EC1BF0F40E00016E2576
:10161800F66EFE0E00016F21F76EF86A000EF822D2
:101628000900F5CF77F00900F5CF78F00A00F5CF7B
:1016380079F0000E0001696F640E686F000189512E
:101648000001666F676B66BF6707CDEC15F0120E79
:101658000001662500016E6F000E00016721000180
:101668006F6F000E0001716F030E706F68EC1BF056
:10167800F40E00016E25F66EFE0E00016F21F76E66
:10168800F86A000EF8220900F5CF74F00900F5CFCA
:1016980075F00A00F5CF76F050EC11F074C086F0C2
:1016A80075C087F076C088F086C074F087C075F082
:1016B80088C076F0000E0001716F030E706F000E87
:1016C8000001636F0A0E626F000189510001606FAB
:1016D800616B60BF6107BEEC17F060C06EF061C05F
:1016E8006FF068EC1BF0F40E00016E25F66EFE0E2E
:1016F80000016F21F76EF86A000EF8220900F5CF95
:1017080077F00900F5CF78F00A00F5CF79F050ECC2
:1017180011F074C083F075C084F076C085F01200B3
:101728006BD000018951800A750FD8A065D0000ED2
:101738000001696F0A0E686F000189510001666F28
:10174800676B66BF6707CDEC15F0090E00016625CB
:1017580000016E6F000E0001672100016F6F000E1F
:101768000001716F030E706F68EC1BF0F40E00013E
:101778006E25F66EFE0E00016F21F76EF86A000EF8
:10178800F8220900F5CF74F00900F5CF75F00A00CA
:10179800F5CF76F0000E0001716F030E706F000E2A
:1017A8000001636F0A0E626F000189510001606FCA
:1017B800616B60BF6107BEEC17F060C06EF061C07E
:1017C8006FF068EC1BF0F40E00016E25F66EFE0E4D
:1017D80000016F21F76EF86A000EF8220900F5CFB4
:1017E80077F00900F5CF78F00A00F5CF79F050ECE2
:1017F80011F08FD7120000D000018951030DF40EAB
:10180800F324F66EFE0EF420F76EF86A000EF82246
:101818000900F5CF83F00900F5CF84F00A00F5CF71
:1018280085F01200120000018C6F6D0E00018C65AE
:10183800C4D0000E0001716F030E706F000E00011E
:10184800696F0A0E686F000E0001636F640E626FA5
:101858008CC060F00001616BBEEC17F060C066F0F0
:1018680061C067F0CDEC15F0090E00016625000196
:101878006E6F000E0001672100016F6F68EC1BF0AE
:10188800CD0E00016E25F66EFE0E00016F21F76E7B
:10189800F86A000EF8220900F5CF77F00900F5CFB5
:1018A80078F00A00F5CF79F0000E0001696F640E38
:1018B800686F8CC066F00001676BCDEC15F0120EF6
:1018C8000001662500016E6F000E0001672100010E
:1018D8006F6F000E0001716F030E706F68EC1BF0E4
:1018E800CD0E00016E25F66EFE0E00016F21F76E1B
:1018F800F86A000EF8220900F5CF74F00900F5CF58
:1019080075F00A00F5CF76F050EC11F074C089F04C
:1019180075C08AF076C08BF0000E0001716F030E5F
:10192800706F000E0001636F0A0E626F8CC060F06A
:101938000001616BBEEC17F060C06EF061C06FF023
:1019480068EC1BF0CD0E00016E25F66EFE0E000150
:101958006F21F76EF86A000EF8220900F5CF77F0CC
:101968000900F5CF78F00A00F5CF79F089C074F056
:101978008AC075F08BC076F050EC11F074C086F018
:1019880075C087F076C088F086C074F087C075F09F
:1019980088C076F0000E0001776F000E0001786FA6
:1019A8003F0E0001796F50EC11F074C083F075C0E0
:1019B80084F076C085F012007AD00A0E00018C659A
:1019C80076D0000E0001716F030E706F000E0001DB
:1019D800636F0A0E626F8CC060F00001616BBEEC31
:1019E80017F060C06EF061C06FF068EC1BF0CD0EB0
:1019F80000016E25F66EFE0E00016F21F76EF86A83
:101A0800000EF8220900F5CF77F00900F5CF78F03D
:101A18000A00F5CF79F0000E0001696F0A0E686FB1
:101A28008CC066F00001676BCDEC15F0090E000163
:101A3800662500016E6F000E0001672100016F6FBF
:101A4800000E0001716F030E706F68EC1BF0CD0E75
:101A580000016E25F66EFE0E00016F21F76EF86A22
:101A6800000EF8220900F5CF74F00900F5CF75F0E3
:101A78000A00F5CF76F050EC11F074C089F075C00B
:101A88008AF076C08BF089C074F08AC075F08BC07C
:101A980076F0000E0001776F000E0001786F3F0EA0
:101AA8000001796F50EC11F080D7120000D00001CE
:101AB8008C51030DCD0EF324F66EFE0EF420F76E56
:101AC800F86A000EF8220900F5CF74F00900F5CF86
:101AD80075F00A00F5CF76F0000E0001776F000E62
:101AE8000001786F3F0E0001796F50EC11F074C05F
:101AF80083F075C084F076C085F01200120094C09F
:101B080098F00001996B9A6B0001933500019837A2
:101B180001E399810001985100019D6F97C098F0E9
:101B28000001996B9A6B000196350001983701E323
:101B380099810001985100019C6F00019D5100019D
:101B4800D8B411D000019C5100019D5DD8B012D0CD
:101B580000019D51000800019C250001986F180E96
:101B68000001986507D095C092F096C093F097C091
:101B780094F0120000019C510001D8B411D000016A
:101B88009D5100019C5DD8B012D000019C51000805
:101B980000019D250001986F180E0001986507D077
:101BA80092C092F093C093F094C094F01200060E85
:101BB80000019B6F000194AF03D000019B8F00D000
:101BC800000197AF02D000019B8D0001938FFF0E9B
:101BD80000019217FF0E00019317000E00019417E1
:101BE8000001968FFF0E00019517FF0E0001961752
:101BF800000E0001971700019C5100019D5DD8B0AF
:101C080028D00001D89095379637973700019C0760
:101C180000019D5100019C19D8B413D000019B0705
:101C28009BC098F0070E00019817D8B40AD0E9D7DE
:101C380008D00001D89094339333923300019D2B40
:101C480000D000019C5100019D19D8B430D0F1D7C3
:101C58002ED000019D5100019C5DD8B028D0000114
:101C6800D89092379337943700019D0700019D5112
:101C780000019C19D8B413D000019B079BC098F0B1
:101C8800070E00019817D8B40AD0E9D708D0000188
:101C9800D89097339633953300019C2B00D00001E0
:101CA8009C5100019D19D8B402D0F1D700D0000191
:101CB8009BAF12D0FF0E0001921BFF0E0001931B79
:101CC800FF0E0001941B010E00019227000E000177
:101CD8009323000E0001942300019BAD13D0FF0E47
:101CE8000001951BFF0E0001961BFF0E0001971BBC
:101CF800010E00019527000E00019623000E000139
:101D0800972300D0000E00019B6F00019251000143
:101D18009527000193510001962300019451000179
:101D28009723000197AF16D0FF0E0001951BFF0EF9
:101D38000001961BFF0E0001971B010E000195275D
:101D4800000E00019623000E00019723010E0001EA
:101D58009B6F00D095C060F096C061F097C062F0AC
:101D68009DC063F09BC064F0FBEC13F060C092F080
:101D780061C093F062C094F012001200010E0001DD
:101D88006D6F010E00016C6F000E0001686F000E90
:101D98000001696F000E00016E6F070E00016E658D
:101DA80001D00ED000016E51010D330EF324D96E0F
:101DB800000EF420DA6E000EDF6E00016E2BEDD7F8
:101DC80007EC1BF00001676F000167510001D8A400
:101DD80003D03F50D8B404D0000E406E000E12005D
:101DE800F00E43EC1AF0000E00016E6F00D0000EEA
:101DF80000016A6FCDEC1BF00009D8B404D0020EC4
:101E080000016A6F00D0030E0001666F7D0EE82E98
:101E1800FED7662FFCD700F0CDEC1BF00009D8B434
:101E280003D000016A8100D0030E0001666F7D0EA9
:101E3800E82EFED7662FFCD700F0030E00016A19C2
:101E4800D8B476D002D074D06ED000016A510001A7
:101E5800D8B406D00001D8906A3100016B6F29D040
:101E6800405000016C5DD8B013D000016E51010DD7
:101E7800330EF324D96E000EF420DA6EDF50000121
:101E88006D150009D8B40BD0010E00016B6F09D095
:101E9800405000016C19D8A402D0010EF6D7000EEC
:101EA800F4D700016B510001D8A403D06CC068F0CE
:101EB80000D000016B510001D8B40DD000016E5163
:101EC800010D330EF324D96E000EF420DA6E0001F2
:101ED8006D51DF1212D000016D51FF0A0001666FCB
:101EE80000016E51010D330EF324D96E000EF4205B
:101EF800DA6E00016651DF1600D000016B514CEC20
:101F08001BF000016C2B00016D516D2500016D6FF8
:101F180000016D510001D8A406D000016E2B010EFE
:101F280000016D6F00D0070E00016E6560D700D00C
:101F3800410E00016C6103D0000E406E0CD068C0E9
:101F480040F04050D8A402D0010E01D0000E3F6EE0
:101F5800010E0001696F000169511200120062C090
:101F680066F00001676B686B000161350001663738
:101F780001E367810001665100016E6F00016E5137
:101F8800D8A40AD0000E0001606F000E616F000E29
:101F9800626F000E636F120065C066F00001676B28
:101FA800686B000164350001663701E36781000151
:101FB800665100016D6F00016D51D8A40AD0000E62
:101FC8000001606F000E616F000E626F000E636F9C
:101FD80012000001618FFF0E00016017FF0E000163
:101FE8006117000E000162170001648FFF0E0001E7
:101FF8006317FF0E00016417000E00016517000E3D
:102008000001696F000E6A6F000E6B6F000E6C6F37
:102018007F0E00016E5F00016D51980F00016E5F29
:10202800180E00016D6F0001D89069376A376B3759
:102038006C37000163510001605D000164510001CB
:1020480061590001655100016259D8A00ED0000104
:1020580063510001605F000164510001615B000190
:1020680065510001625B000169810001D890603709
:102078006137623700016D2FD6D700D000016EAFEF
:102088001BD000016E51800A970FD8B00BD0000EFC
:102098000001606F000E616F000E626F000E636FCB
:1020A800120000D00001D8906C336B336A33693367
:1020B80000016E3FF7D71DD0170E00016E6514D0D2
:1020C800000E0001606F000E616F000E626F000E5F
:1020D800636F120009D00001D89069376A376B37EF
:1020E8006C3700016E0700D000016E510001D8A4C2
:1020F800F2D769C060F06AC061F06BC062F06CC072
:1021080063F0120000016235633500016B6F000156
:102118006B51D8A40AD0000E0001606F000E616FE9
:10212800000E626F000E636F1200000165356635A0
:1021380000016A6F00016A51D8A40AD0000E00019C
:10214800606F000E616F000E626F000E636F120009
:102158000001628FFF0E00016017FF0E6117FF0E6E
:102168006217000E63170001658FFF0E00016317E9
:10217800FF0E6417FF0E6517000E6617000E0001AC
:10218800666F000E676F000E686F000E696F7F0E36
:1021980000016B5F00016A51A00F00016B5F200E08
:1021A80000016A6F00D00001D8906637673768373A
:1021B8006937000163510001605D0001645100014D
:1021C8006159000165510001625900016651000121
:1021D8006359D8A013D0000163510001605F00016A
:1021E80064510001615B000165510001625B0001FF
:1021F80066510001635B0001668100D00001D89040
:10220800603761376237633700016A2FCCD700D057
:1022180000016BAF1BD000016B51800A9F0FD8B033
:102228000BD0000E0001606F000E616F000E626F30
:10223800000E636F120000D00001D8906933683334
:102248006733663300016B3FF7D71DD01F0E0001BF
:102258006B6514D0000E0001606F000E616F000EF8
:10226800626F000E636F120009D00001D8906637C4
:1022780067376837693700016B0700D000016B5179
:102288000001D8A4F2D766C060F067C061F068C0EA
:1022980062F069C063F0120076C07AF000017B6BCF
:1022A8007C6B0001753500017A3701E37B81000101
:1022B8007A5100017D6F00017D51D8A40AD0000E2B
:1022C8000001746F000E0001756F000E0001766F3B
:1022D800120079C07AF000017B6B7C6B00017835C5
:1022E80000017A3701E37B8100017A510001826F96
:1022F80000018251D8A40AD0000E0001746F000EAC
:102308000001756F000E0001766F12000001825106
:102318007B0F00017D2776C082F000017951000112
:10232800821B800E000182170001758F0001788FD3
:10233800FF0E00017717FF0E00017817000E00014D
:102348007917000E00017E6F000E00017F6F000EEE
:102358000001806F070E0001816F00D0000174A199
:102368000DD00001775100017E270001785100014E
:102378007F23000179510001802300D00001D8900B
:102388007633753374330001D890773778377937D7
:102398000001812FE3D700D0090E0001816F00D022
:1023A800000174A10DD00001775100017E270001C2
:1023B800785100017F23000179510001802300D06A
:1023C8000001D8907633753374330001D890803388
:1023D8007F337E330001812FE3D700D07EC060F0C9
:1023E8007FC061F080C062F07DC063F082C064F09D
:1023F800FBEC13F060C074F061C075F062C076F059
:102408001200120085C089F000018A6B8B6B0001F5
:1024180084350001893701E38A810001895100016F
:10242800906F00019051D8A40AD0000E0001836F6C
:10243800000E0001846F000E0001856F120088C035
:1024480089F000018A6B8B6B0001873500018937A1
:1024580001E38A81000189510001916F00019151C6
:10246800D8A40AD0000E0001836F000E0001846F0B
:10247800000E0001856F1200000E00018D6F000E26
:1024880000018E6F000E00018F6F00019151890FBE
:102498000001905F85C091F0000188510001911BF7
:1024A800800E000191170001848FFF0E0001831731
:1024B800FF0E00018417000E000185170001878FA9
:1024C800FF0E00018617FF0E00018717000E00019E
:1024D8008817180E00018C6F00D00001D8908D3736
:1024E8008E378F37000186510001835D00018751C7
:1024F800000184590001885100018559D8A00ED0E7
:10250800000186510001835F000187510001845B4F
:10251800000188510001855B00018D810001D89080
:1025280083378437853700018C2FD7D700D08DC0EB
:1025380060F08EC061F08FC062F090C063F091C00F
:1025480064F0FBEC13F060C083F061C084F062C0FB
:1025580085F0120012008CC08EF000018F6B906B1A
:1025680000018B3500018E3701E38F8100018E5108
:102578000001986F00019851D8A40AD0000E0001FC
:102588008A6F000E8B6F000E8C6F000E8D6F12001D
:10259800170E00018E6F8AC08FF08BC090F08CC030
:1025A80091F000018E290001926F05D00001D890AA
:1025B800913390338F330001922FF8D700018F5158
:1025C8000001936F00018B8FFF0E00018A17FF0E29
:1025D80000018B17000E00018C1700018A510001C1
:1025E800946F00018B510001956F00018C5100011F
:1025F800966F0001976B8E0E0001985F000198AFEF
:102608001BD000019851800A8F0FD8B00BD0000E54
:1026180000018A6F000E8B6F000E8C6F000E8D6F9D
:10262800120000D00001D890973396339533943335
:102638000001983FF7D71FD0170E0001986514D0F6
:10264800000E00018A6F000E8B6F000E8C6F000E5B
:102658008D6F120009D00001D890943795379637BE
:1026680097370001980700D0000198510001D8B4AD
:1026780002D0F1D700D0000193510001D8B40AD09C
:102688000001971F961F951F946D000E95239623A2
:10269800972300D094C08AF095C08BF096C08CF038
:1026A80097C08DF01200120007EC1BF0550E17ECC6
:1026B8001AF0949A8B8A440E43EC1AF0EE0E00013D
:1026C800606F020E616F000E626F000E636F84EC24
:1026D8001BF007EC1BF0550E17EC1AF0BE0E43EC7E
:1026E8001AF0000E0001756F080E0001756501D023
:1026F8000FD000017551010D6C0EF324D96E000E38
:10270800F420DA6EB8EC19F0DF6E0001752BECD707
:10271800000E0001776F000E766F00016D51000109
:10272800776F766B00016C5100017613100E331829
:10273800D8A448D00001D890773376330001765179
:102748000001776F766B400E0001765F000E775BB5
:102758000001725100016A6F6B6B00016A1F6B1FE9
:102768006A4B6B2B0001735100016A250001786FD9
:10277800000E00016B210001796F00017851000102
:10278800796F786B00017351D8B40FD078C060F0BE
:1027980079C061F073C062F00001636BBDEC18F0A2
:1027A80060C078F061C079F000D000017651000176
:1027B80078250001786F0001775100017921000127
:1027C800796F0FD076C078F077C079F00001783B48
:1027D800793BF00E791778510F0B7913F00E7817B3
:1027E80000D078C068F079C069F0120012000001CA
:1027F80063510001D8B408D0000160510001611193
:1028080000016211D8A413D0000E0001606F000E01
:102818000001616F000E0001626F120008D0000114
:10282800632B0001D89062336133603300D0000E0F
:10283800000160150001656F000E000161150001BF
:10284800666FFE0E000162150001676F0001655199
:102858000001661100016711D8B413D0E0D711D078
:102868000001632B010E00016027000E00016123A7
:10287800000E000162230001D89062336133603397
:1028880000D0000E000160150001656F000E000108
:1028980061150001666FFF0E000162150001676F88
:1028A800000165510001661100016711D8B40AD012
:1028B800D7D708D0000163070001D8906037613787
:1028C800623700D0000161BF05D0020E00016361CC
:1028D800F1D700D0000163B103D00001619F00D09F
:1028E8000001D890633300016351000162130001B5
:1028F80064510001D8B403D00001628F00D060C0D9
:1029080060F061C061F062C062F012001200FAC0AB
:1029180010F1FBC011F120EEEAF011EE03F00C0EFD
:10292800DBCFE3FFE806FCE2F7C000F1F8C001F1F5
:10293800F9C002F100D0ACA2FED70101105147EC5A
:102948001CF000D0ACA2FED70101115147EC1CF0DD
:10295800CE0E0001C76FFF0E0001C86F030E000105
:10296800606F010E0001616F96EC1AF060C0C9F04B
:1029780061C0CAF0BDEC1AF0000E0101136F000E21
:10298800126F20D000D0ACA2FED7030E0101122591
:10299800D96E010E01011321DA6EDF5047EC1CF0ED
:1029A80000D0BAA2FED7030E01011225D96E010E7E
:1029B80001011321DA6EDF503BEC1CF00101124BD0
:1029C800132B00D0030E0001606F010E0001616F30
:1029D80096EC1AF0000160510101125D000161518D
:1029E80001011359D8A0CFD7120070EC1CF00009D0
:1029F800D8B459D0010E0001D56F58EC13F068C057
:102A0800D3F069C0D4F02BEC1BF092C0D6F093C081
:102A1800D7F094C0D8F0000E0001866FA00E000118
:102A2800876F400E0001886F000E0001776F100E4F
:102A38000001786F410E0001796FD6C074F0D7C0DD
:102A480075F0D8C076F050EC11F074C083F075C002
:102A580084F076C085F006EC12F083C092F084C052
:102A680093F085C094F0000E0001956F000E0001F0
:102A7800966F420E0001976F83EC0DF092C0D6F06E
:102A880093C0D7F094C0D8F06A0E0001C76FFF0E4C
:102A98000001C86FD6C0C9F0D7C0CAF0D8C0CBF003
:102AA800BDEC1AF01200000E0001D56F450E0001B2
:102AB800C76FFF0E0001C86FBDEC1AF012001200BC
:102AC800000E0101156F000E146F53EC1CF018EC8A
:102AD80018F0E80E0001606F030E616F000E626F60
:102AE800000E636F84EC1BF08A0E0001C76FFF0EA7
:102AF8000001C86FBDEC1AF08A0E0001C76FFF0E07
:102B08000001C86FBDEC1AF01B0E0001C76FFF0E65
:102B18000001C86FBDEC1AF0C28200D00001FD515F
:102B2800D8B417D0000E0001FD6F09D08BEC14F05B
:102B380010D0FFEC16F00DD0F9EC14F00AD000011B
:102B4800FC51610AD8B4F5D7050AD8B4EFD7F4D741
:102B580000D00001FE05D8A409D08D0E0001C76F72
:102B6800FF0E0001C86FBDEC1AF00DD0020E000177
:102B7800FE19D8A4D3D7AE0E0001C76FFF0E00010F
:102B8800C86FBDEC1AF0000E0001FE6FC7D788EFC2
:102B980000F0000E00016B6F000169AF09D0000161
:102BA800686D691FD8B0692B010E00016B6F00D0EA
:102BB800000167AF09D00001666D671FD8B0672BA9
:102BC800010E00016B1B00D0000E00016D6F000E9E
:102BD8006C6F0001685100016911D8B431D0010E41
:102BE80000016A6F07D00001D89068376937000183
:102BF8006A2B00D0000169BF02D0F5D700D00001D0
:102C0800D8906C376D37000168510001665D00018E
:102C1800695100016759D8A00BD000016851000123
:102C2800665F000169510001675B00016C8100D09B
:102C38000001D8906933683300016A2FE0D700D0CB
:102C480000016B510001D8B406D000016C6D6D1FF6
:102C5800D8B06D2B00D06CC066F06DC067F0120064
:102C68001200000162AF1ED060C066F061C067F05C
:102C780062C068F00001661F671F681F662B000EA0
:102C880067236823000E000166250001606F000EAF
:102C9800000167210001616F800E000168210001B9
:102CA800626F00D0000165AF1ED063C066F064C0DB
:102CB80067F065C068F00001661F671F681F662B14
:102CC800000E67236823000E000166250001636F6C
:102CD800000E000167210001646F800E0001682169
:102CE8000001656F00D0000E0001601B000E00019E
:102CF800611B800E0001621B000E0001631B000EA9
:102D08000001641B800E0001651B00016351000176
:102D1800605D0001645100016159000165510001C5
:102D28006259D8B002D0D8901200D8801200120090
:102D3800000E0001686F000E696F000E6A6F000ECA
:102D48006B6F0001645100016511000166110001FB
:102D58006711D8B447D0010E00016C6F09D000018B
:102D6800D890643765376637673700016C2B00D019
:102D7800000167BF02D0F3D700D00001D8906837B0
:102D880069376A376B37000164510001605D0001E3
:102D98006551000161590001665100016259000145
:102DA800675100016359D8A013D000016451000194
:102DB800605F000165510001615B0001665100011F
:102DC800625B000167510001635B0001688100D00C
:102DD8000001D890673366336533643300016C2F84
:102DE800CCD700D068C060F069C061F06AC062F0FA
:102DF8006BC063F01200000E0101026F000E0101AA
:102E0800046F000E036F010104BF0AD001010451D1
:102E180053E1060E0101035DD8B0120001D0120083
:102E28000101035103250101026F01010251000153
:102E3800D36FD46B010E0001D327000ED423270EC5
:102E48000001D325D96E000E0001D421DA6EDF50BF
:102E58000001D56F01010251010D270EF324D96E2F
:102E6800000EF420DA6EDF500001D66F0001D65153
:102E78000001D86FD76B0001D5510001D72501019A
:102E8800006F0001000E0001D8210101016FE70E5B
:102E98000001C76FFF0E0001C86F03C1C9F004C16C
:102EA800CAF000C1CBF001C1CCF0BDEC1AF00101B1
:102EB800034B042BA8D712001200EACF1CF0E1CF75
:102EC8001DF0E2CF1EF0D9CF1FF0DACF20F0F3CFFC
:102ED80021F0F4CF22F0F6CF23F0F7CF24F0F8CF8B
:102EE80025F0F5CF26F09EAA06D09E9A010E426ED6
:102EF8002BEC1CF022D0A4AA09D0A49A010E000140
:102F0800FD6FF6EC1BF00001FC6F17D0F2A411D096
:102F1800F2948CB408D0800E166E000E156E67EC15
:102F28001CF0000E01D0010E416E00D080EC1CF0A8
:102F380004D0010E0001FE6F00D026C0F5FF25C0A9
:102F4800F8FF24C0F7FF23C0F6FF22C0F4FF21C01A
:102F5800F3FF20C0DAFF1FC0D9FF1EC0E2FF1DC06B
:102F6800E1FF1CC0EAFF1BC0E9FF1AC0FBFF19C044
:102F7800FAFF1100000E0001656F000161AF09D072
:102F88000001606D611FD8B0612B010E0001656FF3
:102F980000D0000163AF06D00001626D631FD8B096
:102FA800632B00D00001625100016311D8B42BD00B
:102FB800010E0001646F07D00001D89062376337B3
:102FC8000001642B00D0000163BF02D0F5D700D008
:102FD800000162510001605D000163510001615907
:102FE800D8A009D0000162510001605F000163515F
:102FF8000001615B00D00001D890633362330001A7
:10300800642FE6D700D0000165510001D8B406D07E
:103018000001606D611FD8B0612B00D060C060F006
:1030280061C061F012001200959494988B8895966F
:103038008C969280928292849286928A96809668E2
:103048000F01569D010EC26E400EC16E870EC06EF6
:103058000F015D810F015D830F015D850F015D87A4
:103068000F015D890F015D8B9E9C9F9C9D8C000EBE
:103078000001616F000E606F5EEC1CF0970EE3ECD0
:103088001BF0949C948E9F8A9E8A9D8A000E000154
:10309800616F220E606F7C0E7CEC19F0959C958E0A
:1030A800A58AA48AA38A000E0001616F440E606F8E
:1030B8007C0E3EEC19F0D08EF28CF28E000E0001E0
:1030C800FE6F000E426E000E0001FD6F120000013F
:1030D8007151000172110001731100017411D8B40B
:1030E8003FD0010E0001756F09D00001D8907137EB
:1030F8007237733774370001752B00D0000174BF25
:1031080002D0F3D700D00001715100016D5D0001BC
:10311800725100016E590001735100016F5900018D
:10312800745100017059D8A011D0000171510001EB
:103138006D5F0001725100016E5B00017351000167
:103148006F5B000174510001705B00D00001D890E2
:1031580074337333723371330001752FD4D700D0B1
:103168006DC06DF06EC06EF06FC06FF070C070F023
:103178001200000E0001666F000E656F00016251BB
:1031880000016311D8B431D0010E0001646F07D07B
:103198000001D890623763370001642B00D000012A
:1031A80063BF02D0F5D700D00001D89065376637E5
:1031B800000162510001605D000163510001615925
:1031C800D8A00BD0000162510001605F000163517B
:1031D8000001615B0001658100D00001D890633374
:1031E80062330001642FE0D700D065C060F066C08C
:1031F80061F012008E0E0001706F09D00001D890A6
:103208006B336A33693368330001702B00D0000ECA
:103218000001681500016C6F000E000169150001BE
:103228006D6F000E00016A1500016E6FFF0E000140
:103238006B1500016F6F00016C5100016D110001E9
:103248006E1100016F11D8A4D9D768C060F069C0A9
:1032580061F06AC062F070C063F0000E0001646F34
:10326800FBEC13F060C068F061C069F062C06AF0FE
:10327800120012000001626F000EBA6E000EA66EF8
:10328800000162A102D0BA8800D0000162A303D075
:10329800BA8CA68C00D0000162A502D0BA8E00D0EC
:1032A800000162A702D0A68802D0A68A00D0000139
:1032B80062A902D0BA8402D0BA9400D0000162ABED
:1032C80002D0A68600D0000162AD02D0A38A02D047
:1032D800A39A00D0000162AF02D0A38801D0A398BE
:1032E80060C07BFF000161517C6EBA8AA68E120015
:1032F8000001626F000EAC6E000EAB6E000162A1A1
:1033080002D0AC8800D0000162A303D0AC8CAB8C97
:1033180000D0000162A502D0AC8E00D0000162A7E7
:1033280002D0AB8802D0AB8A00D0000162A902D0DB
:10333800AC8400D0000162AB02D0AB8600D00001A3
:1033480062AD02D09D8A02D09D9A00D0000162AF82
:1033580002D09D8801D09D9860C0AFFF00016151E7
:103368007D6EAC8AAB8E1200000E0001636F000EFA
:103378000001646F070E0001646501D024D0CDEC14
:103388001BF00009D8B413D064C061F0010E00012D
:10339800626F0001612B03D00001D89062370001F1
:1033A800612FFAD7000162510001631300D0030EA8
:1033B8000001616F7D0EE82EFED7612FFCD700F06B
:1033C8000001642BD7D700016351120012000001DD
:1033D800FE6BFD6BFC6B00EE27F01C0EEE6AE80638
:1033E800FDE1100EF66E380EF76E000EF86E00EE68
:1033F800D9F010EE23F00900F5CFEEFFE550E150CB
:10340800FAE1040EF66E390EF76E000EF86E09003A
:10341800F5CF43F00900F5CF44F00900F5CF45F0AA
:10342800000164EF15F00001666F550E0001661982
:10343800D8A420D0550E43EC1AF0000E0001676F97
:10344800070E0001676502D01200120000016751E3
:10345800010D330EF324D96E000EF420DA6EDF501E
:1034680043EC1AF00001672B070E00016765EED7E1
:1034780012001200CC0E43EC1AF0120012000001E8
:10348800636F000E0001656F070E0001656501D0CE
:103498001BD065C061F063C062F00001612B03D0EE
:1034A8000001D89062330001612FFAD70001625100
:1034B8000001646F010E00016417000164514CECB7
:1034C8001BF00001652BE0D7F00E00D000D0E82EED
:1034D800FCD712000001A1510001A2110001A311A3
:1034E800D8B40AD0000E0001A11B000E0001A21BD7
:1034F800800E0001A31B00D09EC092F09FC093F0E5
:10350800A0C094F0A1C095F0A2C096F0A3C097F017
:1035180083EC0DF092C09EF093C09FF094C0A0F091
:103528001200120060C064F061C065F004D00001B0
:10353800644B652B00D064C0D9FF65C0DAFFDF504B
:10354800D8A4F5D760C062F061C063F00001621FC3
:10355800631F624B632B0001645100016225000167
:10356800606F00016551000163210001616F120065
:103578001200000E0001CF6F000E0001D06F340E54
:103588000001D16F380E0001D26FC90E0001CD6F56
:10359800000E0001CE6FCF0E0001A46F000E0001D7
:1035A800A56FC7C0A6F0C8C0A7F0CD0E0001A86FD0
:1035B800000E0001A96F8AEC00F012001200000E44
:1035C80000017D6F00017BAF09D000017A6D7B1F80
:1035D800D8B07B2B010E00017D6F00D07AC060F05F
:1035E8007BC061F00001626B8E0E0001636F7DC0CD
:1035F80064F0FBEC13F060C07AF061C07BF062C04D
:103608007CF012001200F29E949A8B9A0A0E000126
:10361800606FF80EE82EFED7602FFCD700D0949A82
:103628008B8AD50EE82EFED700F078EC1CF000014E
:10363800616F090E0001606FCE0EE82EFED7602F75
:10364800FCD700D0F28E000161511200120058EC34
:1036580013F068C07AF069C07BF0E3EC1AF07AC026
:1036680083F07BC084F07CC085F0000E0001866F7B
:10367800800E0001876F430E0001886F06EC12F080
:1036880083C092F084C093F085C094F012001200B9
:103698000001606FF29E949A8B9A0A0EE82EFED76C
:1036A80000D0000160510001D8B403D0949A8B8AED
:1036B80000D0E40E00D000D0E82EFCD700D000D017
:1036C800949A8B8AF28E120000016E5100017003E9
:1036D800F3CF72F0F4CF73F000016E510001710363
:1036E800F3500001732700016F5100017003F3507C
:1036F8000001732772C06EF073C06FF012001200E1
:10370800150E0001646FC10EE82EFED7642FFCD79A
:1037180000F000016007000E615B625B635B000103
:103728006051000161110001621100016311D8A408
:10373800E7D7120000016051000161110001621118
:10374800D8B409D0000E0001601B000E0001611BF7
:10375800800E0001621B60C060F061C061F062C051
:1037680062F012000001626F000E0001616F3A0EF4
:103778000001626108D02F0E0001626504D0010EBD
:103788000001616F00D061C060F00001603112007B
:103798001200F29E949A8B9A0A0EE82EFED700D059
:1037A80078EC1CF01A0EE82EFED700D078EC1CF04E
:1037B8000001606FF28E00016051120012000001DA
:1037C800606F000160517F0BD56E000ED76E000E42
:1037D800D66EF294000160AF02D0F28A01D0F29A5C
:1037E800D58E1200F20E3E16A6AC05D03E90A6A0CD
:1037F80002D03E8000D0A6B43E84A6B23E867ACFE0
:1038080015F015501200120048656C6C6F20667236
:103818006F6D2050494331380048656C6C6F2057F4
:103828006F726C642100FE3908FE58000001616F58
:1038380000D0BAA2FED7000161513BEC1CF000D0C9
:10384800ACA2FED70001615147EC1CF01200F20E49
:103858003D16ABAC05D03D90ABA002D03D8000D06A
:10386800ABB43D84ABB23D86AECF15F0120000017B
:10387800606FBAAC05D0BA903EA202D0BA8000D030
:1038880060C079FF12000001606FACAC05D0AC904D
:103898003DA202D0AC8000D060C0ADFF1200F00E97
:1038A800D36E00D0D3A4FED7C00E9B6E00D0D3A495
:1038B800FED7120060C062F061C063F063C0D7FF3A
:1038C80062C0D6FF120015C017F016C018F018C055
:1038D800D7FF17C0D6FF1200000E406E000E3F6ED5
:1038E800C2EC0EF012001200948A82AA02D0010ED5
:1038F8001200000E120012008C7412000A00000060
:10FEA40000010000000A00000064000000E80300F4
:10FEB4000010270000A086010040420F00809698A1
:10FEC4000000E1F50500CA9A3B00803FCDCC3DD748
:10FED400233C12833AB7D138C62737388635C0D683
:10FEE40033CC2B32708930E7DB2EE53C1E42A20D69
:10FEF40000803F00204100C842007A44401C465024
:10FF0400C34724744997184BBCBE4C6B6E4E031503
:10FF14005079AD60F349714F7363696C6C61746FB0
:10FF24007220616E64205065726970686572616CDC
:10FF34007320696E697469616C697A6564210D0A5C
:10FF440000436F756C64206E6F742066696E642064
:10FF54006669727374204453313832302064657694
:10FF64006963650D0A004453313832302053656E9D
:10FF7400736F722054656D7065726174757265205B
:10FF8400463A202566200D0A0041206869676820EA
:10FF94007072696F72697479204952512077617364
:10FFA4002069676E6F7265640A0041206C6F772068
:10FFB4007072696F72697479204952512077617344
:10FFC4002069676E6F7265640A004D6573736167BB
:10FFD40065206C656E677468206973203A20256417
:10FFE4000D0A004144432025642069733A20257595
:0CFFF4000D0A0025642E25303264000048
:020000040020DA
:08000000FFFFFFFFFFFFFFFF00
:020000040030CA
:0E0000001D187F7FFF8991FF0FC00FE00F409A
:00000001FF
