:040000008FEF00F08E
:10000800FACF7DF0FBCF7EF0E9CF7FF057EF0DF010
:10001800D8CF1FF0E8CF20F0E0CF21F0FACF22F0C0
:10002800FBCF23F0E9CF24F0EACF25F0E1CF26F08B
:10003800E2CF27F0D9CF28F0DACF29F0F3CF2AF092
:10004800F4CF2BF0F6CF2CF0F7CF2DF0F8CF2EF021
:10005800F5CF2FF09EAC01D001D033D09E9C5150EB
:100068005124306E3050010D450EF324D96E000E28
:10007800F420DA6EC4CFDFFF30501D6E1E6A010E09
:100088001D26000E1E22450E1D24D96E000E1E20B0
:10009800DA6EC3CFDFFF5150050A5210D8A401D041
:1000A80001D007D0010EC26E000E526E000E516EC6
:1000B80006D0C250040FC26E514A522A00D0C282E2
:1000C80007D00F0E106E500E0F6E54EC0BF000D0D0
:1000D8002FC0F5FF2EC0F8FF2DC0F7FF2CC0F6FF8C
:1000E8002BC0F4FF2AC0F3FF29C0DAFF28C0D9FFCC
:1000F80027C0E2FF26C0E1FF25C0EAFF24C0E9FFD0
:1001080023C0FBFF22C0FAFF21C0E0FF20C0E8FFA8
:0A0118001FC0D8FF100024EF0FF005
:100F000001000A006400E80310274F7363696C6CEA
:100F100061746F7220616E642050657269706865DB
:100F200072616C7320696E697469616C697A656459
:100F3000210A00556E68616E646C656420486967BB
:100F400068205072696F72697479204952510A00A1
:100F5000556E68616E646C6564206C6F772070728A
:100F6000696F72697479204952510A0041444320E3
:100F700025642069733A2025750A00000001000EDF
:100F800000010001A36F00019B0E0001A26F1ED1A2
:100F900000010001AA51250AD8B401D001D006D021
:100FA000AAC08CF00001A5EC0FF010D100019F6FDA
:100FB000000E00010001A46F00019F5109D024D14F
:100FC0002DD02CD003D100010001A48D27D026D034
:100FD00000010001995100019F6F000100019A5129
:100FE0000001A06F0001994B9A2B9FC0F6FFA0C093
:100FF000F7FF000EF86E08000001F5CFAAF000011F
:10100000AA51000AD8B400D1640AD8B407D00D0A96
:10101000D8B404D01C0AD8B4D6D7D8D00001000167
:10102000A4BD01D001D024D0A2C0D9FFA3C0DAFF53
:101030000001DECFA5F00001DDCFA6F0020E000119
:101040000001A227000E0001A32300010001A6AFAA
:1010500001D001D01FD0030E00010001A413000134
:101060000001A56D0001A61FD8B0A62B13D012D089
:10107000A2C0D9FFA3C0DAFF0001DECFA5F00001B6
:10108000DDCFA6F0020E00010001A227000E000134
:10109000A32300D000019F6F010E00010001AA6F81
:1010A00000019F5100010001AA51050AD8A401D0F6
:1010B00001D002D030D02FD000010001AA51020D82
:1010C000000EF324F66E0F0EF420F76EF86A000E91
:1010D000F8220900F5CF9FF00900F5CFA0F000013C
:1010E0009F5100010001A55D0001A0510001000118
:1010F000A659D8B001D001D002D00DD00CD000013B
:101100000001AA2B00010001AA51050AD8A401D0B0
:1011100001D0D2D700D000010001A451030BD8B4F4
:1011200001D001D00CD000019F6F2D0E00010001F5
:101130008C6F00019F510001A5EC0FF000D0AAC0F8
:10114000A1F039D000010001A151020D000EF324DD
:10115000F66E0F0EF420F76EF86A000EF822090002
:101160000001F5CF8DF00A000001F5CF8EF0A5C08B
:101170008BF0A6C08CF000013CEC0CF000018BC0A1
:1011800093F000018CC094F0000E00010001966FF6
:101190000A0E0001956F0001AEEC0DF00001000198
:1011A0009351300F00010001AA6FAAC08CF000011A
:1011B000A5EC0FF000D000010001A1070001A1295A
:1011C000D8A401D001D0BED701D000D000010001C9
:1011D000995100019F6F000100019A510001A06F19
:1011E0000001994B9A2B9FC0F6FFA0C0F7FF000E9D
:1011F000F86E08000001F5CFAAF00001AA6701D03F
:1012000001D0C6D601D000D012000001000E0001AE
:101210000001746F0001700E0001736F1ED1000198
:1012200000017B51250AD8B401D001D006D07BC083
:1012300061F00001B1EC0FF010D10001706F000EF1
:1012400000010001756F0001705109D024D12DD02B
:101250002CD003D100010001758D27D026D00001CC
:1012600000016E510001706F000100016F5100011B
:10127000716F00016E4B6F2B70C0F6FF71C0F7FFEE
:10128000000EF86E08000001F5CF7BF000017B51E5
:10129000000AD8B400D1640AD8B407D00D0AD8B473
:1012A00004D01C0AD8B4D6D7D8D00001000175BD2F
:1012B00001D001D024D073C0D9FF74C0DAFF00017F
:1012C000DECF76F00001DDCF77F0020E00010001E5
:1012D0007327000E000174230001000177AF01D0D5
:1012E00001D01FD0030E00010001751300010001A1
:1012F000766D0001771FD8B0772B13D012D073C052
:10130000D9FF74C0DAFF0001DECF76F00001DDCF37
:1013100077F0020E000100017327000E0001742314
:1013200000D00001706F010E000100017B6F000111
:101330007051000100017B51050AD8A401D001D0F1
:1013400002D030D02FD0000100017B51020D000EE1
:10135000F324F66E0F0EF420F76EF86A000EF822F2
:101360000900F5CF70F00900F5CF71F00001705160
:1013700000010001765D0001715100010001775903
:10138000D8B001D001D002D00DD00CD000010001A6
:101390007B2B000100017B51050AD8A401D001D0AC
:1013A000D2D700D0000100017551030BD8B401D091
:1013B00001D00CD00001706F2D0E00010001616F93
:1013C000000170510001B1EC0FF000D07BC072F051
:1013D00039D0000100017251020D000EF324F66EA7
:1013E0000F0EF420F76EF86A000EF82209000001D3
:1013F000F5CF62F00A000001F5CF63F076C060F02F
:1014000077C061F000019CEC0CF0000160C068F056
:10141000000161C069F0000E000100016B6F0A0E4F
:1014200000016A6F0001FEEC0DF00001000168513F
:10143000300F000100017B6F7BC061F00001B1EC57
:101440000FF000D000010001720700017229D8A43A
:1014500001D001D0BED701D000D0000100016E51F3
:101460000001706F000100016F510001716F0001F8
:101470006E4B6F2B70C0F6FF71C0F7FF000EF86E59
:1014800008000001F5CF7BF000017B6701D001D09F
:10149000C6D601D000D012000001AB6F000E0001D3
:1014A0000001B36F0001AB51000E00010001B56FE8
:1014B000000E0001B46F55EC0FF0FCEC0CF00001D5
:1014C000AB6F800E000100018B6F0001AB5100017A
:1014D00096EC0FF00001AB6F800E000100018B6FE6
:1014E0000001AB51000196EC0FF00001AB6F800ED4
:1014F000000100018B6F0001AB51000196EC0FF071
:101500000001AB6F800E000100018B6F0001AB5139
:10151000000196EC0FF00001AB6F800E000100019E
:101520008B6F0001AB51000196EC0FF00001AB6F27
:10153000800E000100018B6F0001AB51000196ECA1
:101540000FF00F0E000100019A6F310E0001996F2C
:101550000001BEEC07F00F0E000100019A6F310E82
:101560000001996F0001BEEC07F00F0E00010001B1
:101570009A6F0A0E0001996F0001BEEC07F0C2825B
:1015800000D000010001B751D8B401D001D0F9D783
:101590000001AB6F000E00010001B76F0001AB51FD
:1015A0000F0E000100019A6F310E0001996F0001CA
:1015B000BEEC07F0000E00010001B56F000E000147
:1015C000B46F00010001B551800A800F060ED8B437
:1015D000B45DD8A001D001D002D0D3D7D2D70001BA
:1015E0000001B4510001B42500010001B36F0001F6
:1015F0000001B3510001AB6FAC6B010E0001AB27D2
:10160000000EAC23450E0001AB25D96E000E000183
:10161000AC21DA6EDF500001AD6F00010001B35163
:10162000010D450EF324D96E000EF420DA6EDF5062
:101630000001AE6F0001AE510001B06FAF6B000151
:10164000AD510001AF2500010001B16F0001000E96
:101650000001B0210001B26F0F0E000100019A6F6E
:101660006C0E0001996FB4C09BF0B5C09CF0B1C086
:101670009DF0B2C09EF00001BEEC07F00001000139
:10168000B44BB52B00010001B551800A800F060E46
:10169000D8B4B45DD8A001D001D0A1D772D771D78A
:1016A00070D76FD78FEF00F0000E156E110E146E0D
:1016B000CDD01C50250AD8B401D001D005D01CC013
:1016C00002F0BDEC0FF0C2D0116E000E166E11507C
:1016D00007D0D1D022D021D0B9D0168C1ED01DD0A9
:1016E0000F50116E1050126E0F4A102A11C0F6FFE3
:1016F00012C0F7FF000EF86E0800F5CF1CF01C506A
:10170000000AD8B4B8D0640AD8B407D00D0AD8B447
:1017100004D01C0AD8B4E1D799D016BC01D001D0AE
:1017200018D014C0D9FF15C0DAFFDECF17F0DDCF17
:1017300018F0020E1426000E152218AE01D001D0AA
:1017400015D0030E1612176C181ED8B0182A0ED01A
:101750000DD014C0D9FF15C0DAFFDECF17F0DDCFF2
:1017600018F0020E1426000E152200D0116E010E84
:101770001C6E11501C50050AD8A401D001D002D013
:1017800024D023D01C50020D000EF324F66E0F0E51
:10179000F420F76EF86A000EF8220900F5CF11F078
:1017A0000900F5CF12F01150175C12501858D8B03C
:1017B00001D001D002D009D008D01C2A1C50050A43
:1017C000D8A401D001D0DED700D01650030BD8B476
:1017D00001D001D007D0116E2D0E026E1150BDEC5C
:1017E0000FF000D01CC013F029D01350020D000ED2
:1017F000F324F66E0F0EF420F76EF86A000EF8224E
:101800000900F5CF03F00A00F5CF04F017C001F08E
:1018100018C002F09CEC0EF001C009F002C00AF002
:10182000000E0C6E0A0E0B6ED2EC0EF00950300F4B
:101830001C6E1CC002F0BDEC0FF000D01306132884
:10184000D8A401D001D0D1D701D000D00F50116E53
:101850001050126E0F4A102A11C0F6FF12C0F7FF87
:10186000000EF86E0800F5CF1CF01C6601D001D008
:1018700020D701D000D01200000E00010001916FAE
:10188000000E0001906F000100018E518D11D8B43F
:1018900001D001D04CD000018F6F010E000100017A
:1018A000926F00018F510AD0000100010001D89011
:1018B0008D378E3700010001922B00D0000100010E
:1018C0008EAF01D001D0F0D701D000D000010001CF
:1018D0000001D89090379137000100018D5100012F
:1018E00000018B5D000100018E51000100018C5947
:1018F000D8A001D001D010D0000100018D5100010D
:1019000000018B5F000100018E51000100018C5B22
:1019100000010001908100D0000100010001D89079
:101920008E338D3300010001922FD0D700D090C0AC
:101930008BF091C08CF01200000E00010001676F67
:10194000000E0001666F0001000163516211D8B4FE
:1019500001D001D04CD00001646F010E00010001E4
:10196000656F000164510AD0000100010001D890A8
:101970006237633700010001652B00D000010001D0
:1019800063AF01D001D0F0D701D000D00001000139
:101990000001D890663767370001000162510001ED
:1019A0000001605D00010001635100010001615907
:1019B000D8A001D001D010D0000100016251000177
:1019C0000001605F00010001635100010001615BE3
:1019D00000010001668100D0000100010001D890E3
:1019E0006333623300010001652FD0D700D066C099
:1019F00060F067C061F01200959495969498949A5F
:101A00008B888C969280928292849286928A96801B
:101A100096680F010F01569D010EC26E400EC16EF9
:101A2000870EC06E0F010F015D810F010F015D83F5
:101A30000F010F015D850F010F015D870F010F0180
:101A40005D890F010F015D8B9E9C9F9C9D8C000EFC
:101A5000000100018C6F000E00018B6F0001D2ECC1
:101A60000FF000018F6FFF0E000100018B6F00016E
:101A70008F51000140EC0FF0959C958EA58AA48AA9
:101A8000A38A00018F6F7C0E000100018B6F0001A3
:101A90008F51000E000100018D6F440E00018C6F0C
:101AA00000014EEC0EF0D08EF28EF28C1200EACFD6
:101AB00080F0E1CF81F0E2CF82F0D9CF83F0DACFAE
:101AC00084F0F3CF85F0F4CF86F0F6CF87F0F7CF30
:101AD00088F0F8CF89F0F5CF8AF0A4AA01D001D020
:101AE0000CD0A49A00017C6F010E00010001B76FB9
:101AF00000017C5100EC0FF014D0F2A401D001D011
:101B000004D0F294DBEC0FF00CD00F0E00010001BA
:101B10006F6F330E00016E6F000105EC09F001D00C
:101B200000D08AC0F5FF89C0F8FF88C0F7FF87C0E2
:101B3000F6FF86C0F4FF85C0F3FF84C0DAFF83C0E0
:101B4000D9FF82C0E2FF81C0E1FF80C0EAFF7FC011
:101B5000E9FF7EC0FBFF7DC0FAFF1100000100011C
:101B600096519511D8B401D001D043D00001976FA0
:101B7000010E00010001986F000197510AD0000189
:101B800000010001D8909537963700010001982B8D
:101B900000D00001000196AF01D001D0F0D701D0F4
:101BA00000D000010001955100010001935D00018A
:101BB00000019651000100019459D8A001D001D034
:101BC0000DD000010001955100010001935F00015B
:101BD0000001965100010001945B00D0000100015A
:101BE0000001D8909633953300010001982FD9D782
:101BF00000D093C093F094C094F012000001000153
:101C00006B516A11D8B401D001D043D000016C6F80
:101C1000010E000100016D6F00016C510AD000013E
:101C200000010001D8906A376B37000100016D2B6D
:101C300000D0000100016BAF01D001D0F0D701D07E
:101C400000D0000100016A5100010001685D00013F
:101C500000016B51000100016959D8A001D001D0E9
:101C60000DD0000100016A5100010001685F000110
:101C700000016B5100010001695B00D0000100010F
:101C80000001D8906B336A33000100016D2FD9D762
:101C900000D068C068F069C069F01200000EBA6E2A
:101CA000000EA66E000100018BA101D001D001D071
:101CB000BA88000100018BA301D001D002D0BA8CF8
:101CC000A68C000100018BA501D001D001D0BA8EF5
:101CD000000100018BA701D001D002D0A68801D05D
:101CE000A68A000100018BA901D001D002D0BA84DC
:101CF00001D0BA94000100018BAB01D001D001D01A
:101D0000A686000100018BAD01D001D002D0A38ACC
:101D100001D0A39A000100018BAF01D001D002D005
:101D2000A38801D0A3988CC07BFF000100018D51D6
:101D30007C6EBA8AA68E1200000E076E000E066E2A
:101D400004500310D8B401D001D027D0056E010E85
:101D5000086E055005D0D89003360436082A00D006
:101D600004AE01D001D0F7D701D000D0D89006360C
:101D700007360350015C04500258D8A001D001D0AE
:101D800006D00350015E0450025A068000D0D8905D
:101D900004320332082EEAD700D006C001F007C093
:101DA00002F012000C500B10D8B401D001D023D097
:101DB0000D6E010E0E6E0D5005D0D8900B360C3600
:101DC0000E2A00D00CAE01D001D0F7D701D000D040
:101DD0000B50095C0C500A58D8A001D001D005D096
:101DE0000B50095E0C500A5A00D0D8900C320B32BE
:101DF0000E2EEED700D009C009F00AC00AF012007A
:101E0000F20E00010001B617A6AC01D001D00BD034
:101E100000010001B691A6A001D001D004D00001BC
:101E20000001B68100D0A6A401D001D003D00001EA
:101E30000001B685A6A201D001D003D000010001A7
:101E4000B6877ACF60F012000001B76BB66B00EE78
:101E500045F00E0EEE6AE806FDE1900EF66E1F0EDE
:101E6000F76E000EF86E00EE31F010EE14F009007F
:101E7000F5CFEEFFE550E150FAE100014CEF0AF03A
:101E8000000100018B517F0BD56E000ED76E000E46
:101E9000D66EF294000100018BAF01D001D002D0C8
:101EA000F28A01D0F29AD58E1200F00ED36E00D0D5
:101EB000D3A401D001D0FCD700D0C00E9B6E00D0BF
:101EC000D3A401D001D0FCD700D01200BAAC01D00D
:101ED00001D009D0BA9000010001B6A301D001D011
:101EE00002D0BA8000D08BC079FF1200BAAC01D00A
:101EF00001D009D0BA9000010001B6A301D001D0F1
:101F000002D0BA8000D001C079FF1200BAAC01D073
:101F100001D009D0BA9000010001B6A301D001D0D0
:101F200002D0BA8000D060C079FF12000D0E00010F
:101F30008C6FFB0EE82EFED78C2FFCD700D0000153
:101F400000018B2FF3D700D0120000D0BAA201D02D
:101F500001D0FCD700D08CC08BF0000166EC0FF0F4
:101F6000120000D0BAA201D001D0FCD700D061C0CD
:101F700060F0000186EC0FF0120000D0BAA201D090
:101F800001D0FCD700D002C001F076EC0FF01200B7
:101F900048656C6C6F2066726F6D20504943313814
:101FA000000A00008BC08DF08CC08EF08EC0D7FF71
:0A1FB0008DC0D6FF12008C741200E1
:020000040020DA
:08000000FFFFFFFFFFFFFFFF00
:020000040030CA
:0E0000001D187F7FFF8991FF0FC00FE00F409A
:00000001FF
